{
  "_format": "hh-sol-artifact-1",
  "contractName": "NoriTokenBridge",
  "sourceName": "contracts/NoriTokenBridge.sol",
  "abi": [
    {
      "inputs": [],
      "stateMutability": "nonpayable",
      "type": "constructor"
    },
    {
      "anonymous": false,
      "inputs": [
        {
          "indexed": true,
          "internalType": "address",
          "name": "user",
          "type": "address"
        },
        {
          "indexed": false,
          "internalType": "uint256",
          "name": "amount",
          "type": "uint256"
        },
        {
          "indexed": false,
          "internalType": "uint256",
          "name": "when",
          "type": "uint256"
        }
      ],
      "name": "TokensLocked",
      "type": "event"
    },
    {
      "inputs": [],
      "name": "bridgeOperator",
      "outputs": [
        {
          "internalType": "address",
          "name": "",
          "type": "address"
        }
      ],
      "stateMutability": "view",
      "type": "function"
    },
    {
      "inputs": [],
      "name": "lockTokens",
      "outputs": [],
      "stateMutability": "payable",
      "type": "function"
    },
    {
      "inputs": [
        {
          "internalType": "address",
          "name": "",
          "type": "address"
        }
      ],
      "name": "lockedTokens",
      "outputs": [
        {
          "internalType": "uint256",
          "name": "",
          "type": "uint256"
        }
      ],
      "stateMutability": "view",
      "type": "function"
    }
  ],
  "bytecode": "0x6080604052348015600f57600080fd5b50336000806101000a81548173ffffffffffffffffffffffffffffffffffffffff021916908373ffffffffffffffffffffffffffffffffffffffff1602179055506103ff8061005f6000396000f3fe6080604052600436106100345760003560e01c80630a56293d14610039578063590665c2146100435780635eb7413a1461006e575b600080fd5b6100416100ab565b005b34801561004f57600080fd5b50610058610196565b6040516100659190610213565b60405180910390f35b34801561007a57600080fd5b506100956004803603810190610090919061025f565b6101ba565b6040516100a291906102a5565b60405180910390f35b600034116100ee576040517f08c379a00000000000000000000000000000000000000000000000000000000081526004016100e59061031d565b60405180910390fd5b34600160003373ffffffffffffffffffffffffffffffffffffffff1673ffffffffffffffffffffffffffffffffffffffff168152602001908152602001600020600082825461013d919061036c565b925050819055503373ffffffffffffffffffffffffffffffffffffffff167fd741e738a23fd18a03a26522320d9fc6cac1fed483e215ea9150fbc2fc43385d344260405161018c9291906103a0565b60405180910390a2565b60008054906101000a900473ffffffffffffffffffffffffffffffffffffffff1681565b60016020528060005260406000206000915090505481565b600073ffffffffffffffffffffffffffffffffffffffff82169050919050565b60006101fd826101d2565b9050919050565b61020d816101f2565b82525050565b60006020820190506102286000830184610204565b92915050565b600080fd5b61023c816101f2565b811461024757600080fd5b50565b60008135905061025981610233565b92915050565b6000602082840312156102755761027461022e565b5b60006102838482850161024a565b91505092915050565b6000819050919050565b61029f8161028c565b82525050565b60006020820190506102ba6000830184610296565b92915050565b600082825260208201905092915050565b7f596f75206d7573742073656e6420736f6d6520457468657220746f206c6f636b600082015250565b60006103076020836102c0565b9150610312826102d1565b602082019050919050565b60006020820190508181036000830152610336816102fa565b9050919050565b7f4e487b7100000000000000000000000000000000000000000000000000000000600052601160045260246000fd5b60006103778261028c565b91506103828361028c565b925082820190508082111561039a5761039961033d565b5b92915050565b60006040820190506103b56000830185610296565b6103c26020830184610296565b939250505056fea264697066735822122023887204738b6017d31d5867f6d4155e6ff6a1ac6c6490f59588ab17c3f2d2fd64736f6c634300081c0033",
  "linkReferences": {},
  "deployedLinkReferences": {}
}