{
  "_format": "hh-sol-artifact-1",
  "contractName": "NoriTokenBridge",
  "sourceName": "contracts/NoriTokenBridge.sol",
  "abi": [
    {
      "inputs": [],
      "stateMutability": "nonpayable",
      "type": "constructor"
    },
    {
      "anonymous": false,
      "inputs": [
        {
          "indexed": true,
          "internalType": "address",
          "name": "user",
          "type": "address"
        },
        {
          "indexed": false,
          "internalType": "uint256",
          "name": "attestationHash",
          "type": "uint256"
        },
        {
          "indexed": false,
          "internalType": "uint256",
          "name": "amount",
          "type": "uint256"
        },
        {
          "indexed": false,
          "internalType": "uint256",
          "name": "when",
          "type": "uint256"
        }
      ],
      "name": "TokensLocked",
      "type": "event"
    },
    {
      "inputs": [],
      "name": "bridgeOperator",
      "outputs": [
        {
          "internalType": "address",
          "name": "",
          "type": "address"
        }
      ],
      "stateMutability": "view",
      "type": "function"
    },
    {
      "inputs": [
        {
          "internalType": "uint256",
          "name": "attestationHash",
          "type": "uint256"
        }
      ],
      "name": "lockTokens",
      "outputs": [],
      "stateMutability": "payable",
      "type": "function"
    },
    {
      "inputs": [
        {
          "internalType": "address",
          "name": "",
          "type": "address"
        },
        {
          "internalType": "uint256",
          "name": "",
          "type": "uint256"
        }
      ],
      "name": "lockedTokens",
      "outputs": [
        {
          "internalType": "uint256",
          "name": "",
          "type": "uint256"
        }
      ],
      "stateMutability": "view",
      "type": "function"
    }
  ],
  "bytecode": "0x6080604052348015600f57600080fd5b50336000806101000a81548173ffffffffffffffffffffffffffffffffffffffff021916908373ffffffffffffffffffffffffffffffffffffffff1602179055506104ac8061005f6000396000f3fe6080604052600436106100345760003560e01c806353719b6e14610039578063590665c2146100765780636e27d889146100a1575b600080fd5b34801561004557600080fd5b50610060600480360381019061005b919061029e565b6100bd565b60405161006d91906102ed565b60405180910390f35b34801561008257600080fd5b5061008b6100e2565b6040516100989190610317565b60405180910390f35b6100bb60048036038101906100b69190610332565b610106565b005b6001602052816000526040600020602052806000526040600020600091509150505481565b60008054906101000a900473ffffffffffffffffffffffffffffffffffffffff1681565b60003411610149576040517f08c379a0000000000000000000000000000000000000000000000000000000008152600401610140906103bc565b60405180910390fd5b34600160003373ffffffffffffffffffffffffffffffffffffffff1673ffffffffffffffffffffffffffffffffffffffff168152602001908152602001600020600083815260200190815260200160002060008282546101a9919061040b565b925050819055503373ffffffffffffffffffffffffffffffffffffffff167f90e20a62e0f2a608d33bd96a4e15cb853006a15caf4455f373b7b55de520b68c8234426040516101fa9392919061043f565b60405180910390a250565b600080fd5b600073ffffffffffffffffffffffffffffffffffffffff82169050919050565b60006102358261020a565b9050919050565b6102458161022a565b811461025057600080fd5b50565b6000813590506102628161023c565b92915050565b6000819050919050565b61027b81610268565b811461028657600080fd5b50565b60008135905061029881610272565b92915050565b600080604083850312156102b5576102b4610205565b5b60006102c385828601610253565b92505060206102d485828601610289565b9150509250929050565b6102e781610268565b82525050565b600060208201905061030260008301846102de565b92915050565b6103118161022a565b82525050565b600060208201905061032c6000830184610308565b92915050565b60006020828403121561034857610347610205565b5b600061035684828501610289565b91505092915050565b600082825260208201905092915050565b7f596f75206d7573742073656e6420736f6d6520457468657220746f206c6f636b600082015250565b60006103a660208361035f565b91506103b182610370565b602082019050919050565b600060208201905081810360008301526103d581610399565b9050919050565b7f4e487b7100000000000000000000000000000000000000000000000000000000600052601160045260246000fd5b600061041682610268565b915061042183610268565b9250828201905080821115610439576104386103dc565b5b92915050565b600060608201905061045460008301866102de565b61046160208301856102de565b61046e60408301846102de565b94935050505056fea26469706673582212206c769cfc15b78fc974c6632c23ffe927cc00ab466d59088ccb50db9533c4a1cf64736f6c634300081c0033",
  "linkReferences": {},
  "deployedLinkReferences": {}
}