{
  "_format": "hh-sol-artifact-1",
  "contractName": "NoriTokenBridge",
  "sourceName": "contracts/NoriTokenBridge.sol",
  "abi": [
    {
      "inputs": [],
      "stateMutability": "nonpayable",
      "type": "constructor"
    },
    {
      "anonymous": false,
      "inputs": [
        {
          "indexed": true,
          "internalType": "address",
          "name": "user",
          "type": "address"
        },
        {
          "indexed": false,
          "internalType": "uint256",
          "name": "attestationHash",
          "type": "uint256"
        },
        {
          "indexed": false,
          "internalType": "uint256",
          "name": "amount",
          "type": "uint256"
        },
        {
          "indexed": false,
          "internalType": "uint256",
          "name": "when",
          "type": "uint256"
        }
      ],
      "name": "TokensLocked",
      "type": "event"
    },
    {
      "inputs": [],
      "name": "DECIMALS",
      "outputs": [
        {
          "internalType": "uint8",
          "name": "",
          "type": "uint8"
        }
      ],
      "stateMutability": "view",
      "type": "function"
    },
    {
      "inputs": [],
      "name": "MAX_MAGNITUDE",
      "outputs": [
        {
          "internalType": "uint64",
          "name": "",
          "type": "uint64"
        }
      ],
      "stateMutability": "view",
      "type": "function"
    },
    {
      "inputs": [],
      "name": "WEI_PER_BRIDGE_UNIT",
      "outputs": [
        {
          "internalType": "uint256",
          "name": "",
          "type": "uint256"
        }
      ],
      "stateMutability": "view",
      "type": "function"
    },
    {
      "inputs": [],
      "name": "bridgeOperator",
      "outputs": [
        {
          "internalType": "address",
          "name": "",
          "type": "address"
        }
      ],
      "stateMutability": "view",
      "type": "function"
    },
    {
      "inputs": [
        {
          "internalType": "uint256",
          "name": "",
          "type": "uint256"
        }
      ],
      "name": "codeChallengeToEthAddress",
      "outputs": [
        {
          "internalType": "address",
          "name": "",
          "type": "address"
        }
      ],
      "stateMutability": "view",
      "type": "function"
    },
    {
      "inputs": [
        {
          "internalType": "uint256",
          "name": "attestationHash",
          "type": "uint256"
        }
      ],
      "name": "lockTokens",
      "outputs": [],
      "stateMutability": "payable",
      "type": "function"
    },
    {
      "inputs": [
        {
          "internalType": "address",
          "name": "",
          "type": "address"
        },
        {
          "internalType": "uint256",
          "name": "",
          "type": "uint256"
        }
      ],
      "name": "lockedTokens",
      "outputs": [
        {
          "internalType": "uint256",
          "name": "",
          "type": "uint256"
        }
      ],
      "stateMutability": "view",
      "type": "function"
    },
    {
      "inputs": [],
      "name": "totalLocked",
      "outputs": [
        {
          "internalType": "uint256",
          "name": "",
          "type": "uint256"
        }
      ],
      "stateMutability": "view",
      "type": "function"
    },
    {
      "inputs": [],
      "name": "withdraw",
      "outputs": [],
      "stateMutability": "nonpayable",
      "type": "function"
    }
  ],
  "bytecode": "0x6080604052348015600f57600080fd5b50336000806101000a81548173ffffffffffffffffffffffffffffffffffffffff021916908373ffffffffffffffffffffffffffffffffffffffff160217905550610f498061005f6000396000f3fe6080604052600436106100865760003560e01c806356891412116100595780635689141214610147578063590665c2146101725780636e27d8891461019d578063c58f219c146101b9578063e7ece690146101e457610086565b80632e0f26251461008b5780633ccfd60b146100b657806353719b6e146100cd57806354506bb41461010a575b600080fd5b34801561009757600080fd5b506100a061020f565b6040516100ad9190610751565b60405180910390f35b3480156100c257600080fd5b506100cb610214565b005b3480156100d957600080fd5b506100f460048036038101906100ef9190610805565b610354565b6040516101019190610854565b60405180910390f35b34801561011657600080fd5b50610131600480360381019061012c919061086f565b610379565b60405161013e91906108ab565b60405180910390f35b34801561015357600080fd5b5061015c6103ac565b6040516101699190610854565b60405180910390f35b34801561017e57600080fd5b506101876103b2565b60405161019491906108ab565b60405180910390f35b6101b760048036038101906101b2919061086f565b6103d6565b005b3480156101c557600080fd5b506101ce61070c565b6040516101db91906108e9565b60405180910390f35b3480156101f057600080fd5b506101f9610718565b6040516102069190610854565b60405180910390f35b600681565b60008054906101000a900473ffffffffffffffffffffffffffffffffffffffff1673ffffffffffffffffffffffffffffffffffffffff163373ffffffffffffffffffffffffffffffffffffffff16146102a2576040517f08c379a000000000000000000000000000000000000000000000000000000000815260040161029990610987565b60405180910390fd5b6000479050600081116102ea576040517f08c379a00000000000000000000000000000000000000000000000000000000081526004016102e1906109f3565b60405180910390fd5b60008054906101000a900473ffffffffffffffffffffffffffffffffffffffff1673ffffffffffffffffffffffffffffffffffffffff166108fc829081150290604051600060405180830381858888f19350505050158015610350573d6000803e3d6000fd5b5050565b6001602052816000526040600020602052806000526040600020600091509150505481565b60036020528060005260406000206000915054906101000a900473ffffffffffffffffffffffffffffffffffffffff1681565b60025481565b60008054906101000a900473ffffffffffffffffffffffffffffffffffffffff1681565b60003411610419576040517f08c379a000000000000000000000000000000000000000000000000000000000815260040161041090610a5f565b60405180910390fd5b6000600660126104299190610aae565b600a6104359190610c16565b346104409190610c90565b90506000600660126104529190610aae565b600a61045e9190610c16565b346104699190610cc1565b146104a9576040517f08c379a00000000000000000000000000000000000000000000000000000000081526004016104a090610d64565b60405180910390fd5b67ffffffffffffffff8016816002546104c29190610d84565b1115610503576040517f08c379a00000000000000000000000000000000000000000000000000000000081526004016104fa90610e2a565b60405180910390fd5b60006003600084815260200190815260200160002060009054906101000a900473ffffffffffffffffffffffffffffffffffffffff169050600073ffffffffffffffffffffffffffffffffffffffff168173ffffffffffffffffffffffffffffffffffffffff16036105c657336003600085815260200190815260200160002060006101000a81548173ffffffffffffffffffffffffffffffffffffffff021916908373ffffffffffffffffffffffffffffffffffffffff160217905550610635565b3373ffffffffffffffffffffffffffffffffffffffff168173ffffffffffffffffffffffffffffffffffffffff1614610634576040517f08c379a000000000000000000000000000000000000000000000000000000000815260040161062b90610ebc565b60405180910390fd5b5b34600160003373ffffffffffffffffffffffffffffffffffffffff1673ffffffffffffffffffffffffffffffffffffffff168152602001908152602001600020600085815260200190815260200160002060008282546106959190610d84565b9250508190555081600260008282546106ae9190610d84565b925050819055503373ffffffffffffffffffffffffffffffffffffffff167f90e20a62e0f2a608d33bd96a4e15cb853006a15caf4455f373b7b55de520b68c8434426040516106ff93929190610edc565b60405180910390a2505050565b67ffffffffffffffff81565b600660126107269190610aae565b600a6107329190610c16565b81565b600060ff82169050919050565b61074b81610735565b82525050565b60006020820190506107666000830184610742565b92915050565b600080fd5b600073ffffffffffffffffffffffffffffffffffffffff82169050919050565b600061079c82610771565b9050919050565b6107ac81610791565b81146107b757600080fd5b50565b6000813590506107c9816107a3565b92915050565b6000819050919050565b6107e2816107cf565b81146107ed57600080fd5b50565b6000813590506107ff816107d9565b92915050565b6000806040838503121561081c5761081b61076c565b5b600061082a858286016107ba565b925050602061083b858286016107f0565b9150509250929050565b61084e816107cf565b82525050565b60006020820190506108696000830184610845565b92915050565b6000602082840312156108855761088461076c565b5b6000610893848285016107f0565b91505092915050565b6108a581610791565b82525050565b60006020820190506108c0600083018461089c565b92915050565b600067ffffffffffffffff82169050919050565b6108e3816108c6565b82525050565b60006020820190506108fe60008301846108da565b92915050565b600082825260208201905092915050565b7f4f6e6c7920627269646765206f70657261746f722063616e207769746864726160008201527f7700000000000000000000000000000000000000000000000000000000000000602082015250565b6000610971602183610904565b915061097c82610915565b604082019050919050565b600060208201905081810360008301526109a081610964565b9050919050565b7f4e6f2045544820746f2077697468647261770000000000000000000000000000600082015250565b60006109dd601283610904565b91506109e8826109a7565b602082019050919050565b60006020820190508181036000830152610a0c816109d0565b9050919050565b7f596f75206d7573742073656e6420736f6d6520457468657220746f206c6f636b600082015250565b6000610a49602083610904565b9150610a5482610a13565b602082019050919050565b60006020820190508181036000830152610a7881610a3c565b9050919050565b7f4e487b7100000000000000000000000000000000000000000000000000000000600052601160045260246000fd5b6000610ab982610735565b9150610ac483610735565b9250828203905060ff811115610add57610adc610a7f565b5b92915050565b60008160011c9050919050565b6000808291508390505b6001851115610b3a57808604811115610b1657610b15610a7f565b5b6001851615610b255780820291505b8081029050610b3385610ae3565b9450610afa565b94509492505050565b600082610b535760019050610c0f565b81610b615760009050610c0f565b8160018114610b775760028114610b8157610bb0565b6001915050610c0f565b60ff841115610b9357610b92610a7f565b5b8360020a915084821115610baa57610ba9610a7f565b5b50610c0f565b5060208310610133831016604e8410600b8410161715610be55782820a905083811115610be057610bdf610a7f565b5b610c0f565b610bf28484846001610af0565b92509050818404811115610c0957610c08610a7f565b5b81810290505b9392505050565b6000610c21826107cf565b9150610c2c83610735565b9250610c597fffffffffffffffffffffffffffffffffffffffffffffffffffffffffffffffff8484610b43565b905092915050565b7f4e487b7100000000000000000000000000000000000000000000000000000000600052601260045260246000fd5b6000610c9b826107cf565b9150610ca6836107cf565b925082610cb657610cb5610c61565b5b828204905092915050565b6000610ccc826107cf565b9150610cd7836107cf565b925082610ce757610ce6610c61565b5b828206905092915050565b7f4d757374206265206d756c7469706c65206f6620736d616c6c6573742062726960008201527f64676520756e6974000000000000000000000000000000000000000000000000602082015250565b6000610d4e602883610904565b9150610d5982610cf2565b604082019050919050565b60006020820190508181036000830152610d7d81610d41565b9050919050565b6000610d8f826107cf565b9150610d9a836107cf565b9250828201905080821115610db257610db1610a7f565b5b92915050565b7f546f74616c206c6f636b65642065786365656473206d6178696d756d20616c6c60008201527f6f77656400000000000000000000000000000000000000000000000000000000602082015250565b6000610e14602483610904565b9150610e1f82610db8565b604082019050919050565b60006020820190508181036000830152610e4381610e07565b9050919050565b7f54686973204d696e61206163636f756e7420697320616c7265616479206c696e60008201527f6b656420746f206120646966666572656e742045544820616464726573730000602082015250565b6000610ea6603e83610904565b9150610eb182610e4a565b604082019050919050565b60006020820190508181036000830152610ed581610e99565b9050919050565b6000606082019050610ef16000830186610845565b610efe6020830185610845565b610f0b6040830184610845565b94935050505056fea26469706673582212208fa3307f40e10970590f816b6b6629f8eaf298f2df7d41ec489f340440972b8c64736f6c634300081c0033",
  "linkReferences": {},
  "deployedLinkReferences": {}
}