{
  "_format": "hh-sol-artifact-1",
  "contractName": "NoriTokenBridge",
  "sourceName": "contracts/NoriTokenBridge.sol",
  "abi": [
    {
      "inputs": [
        {
          "internalType": "address",
          "name": "_stateSettlementAddr",
          "type": "address"
        },
        {
          "internalType": "address",
          "name": "_accountValidationAddr",
          "type": "address"
        }
      ],
      "stateMutability": "payable",
      "type": "constructor"
    },
    {
      "anonymous": false,
      "inputs": [
        {
          "indexed": true,
          "internalType": "address",
          "name": "user",
          "type": "address"
        },
        {
          "indexed": false,
          "internalType": "uint256",
          "name": "attestationHash",
          "type": "uint256"
        },
        {
          "indexed": false,
          "internalType": "uint256",
          "name": "amount",
          "type": "uint256"
        },
        {
          "indexed": false,
          "internalType": "uint256",
          "name": "when",
          "type": "uint256"
        }
      ],
      "name": "TokensLocked",
      "type": "event"
    },
    {
      "anonymous": false,
      "inputs": [
        {
          "indexed": true,
          "internalType": "uint256",
          "name": "pubKeyTokenIdHash",
          "type": "uint256"
        },
        {
          "indexed": false,
          "internalType": "uint256",
          "name": "amount",
          "type": "uint256"
        },
        {
          "indexed": false,
          "internalType": "address",
          "name": "receiver",
          "type": "address"
        },
        {
          "indexed": false,
          "internalType": "uint256",
          "name": "when",
          "type": "uint256"
        }
      ],
      "name": "TokensUnlocked",
      "type": "event"
    },
    {
      "inputs": [],
      "name": "DECIMALS",
      "outputs": [
        {
          "internalType": "uint8",
          "name": "",
          "type": "uint8"
        }
      ],
      "stateMutability": "view",
      "type": "function"
    },
    {
      "inputs": [],
      "name": "MAX_MAGNITUDE",
      "outputs": [
        {
          "internalType": "uint64",
          "name": "",
          "type": "uint64"
        }
      ],
      "stateMutability": "view",
      "type": "function"
    },
    {
      "inputs": [],
      "name": "WEI_PER_BRIDGE_UNIT",
      "outputs": [
        {
          "internalType": "uint256",
          "name": "",
          "type": "uint256"
        }
      ],
      "stateMutability": "view",
      "type": "function"
    },
    {
      "inputs": [],
      "name": "bridgeOperator",
      "outputs": [
        {
          "internalType": "address",
          "name": "",
          "type": "address"
        }
      ],
      "stateMutability": "view",
      "type": "function"
    },
    {
      "inputs": [
        {
          "internalType": "uint256",
          "name": "",
          "type": "uint256"
        }
      ],
      "name": "burnSoFarSet",
      "outputs": [
        {
          "internalType": "uint256",
          "name": "",
          "type": "uint256"
        }
      ],
      "stateMutability": "view",
      "type": "function"
    },
    {
      "inputs": [
        {
          "internalType": "uint256",
          "name": "",
          "type": "uint256"
        }
      ],
      "name": "codeChallengeToEthAddress",
      "outputs": [
        {
          "internalType": "address",
          "name": "",
          "type": "address"
        }
      ],
      "stateMutability": "view",
      "type": "function"
    },
    {
      "inputs": [
        {
          "internalType": "uint256",
          "name": "attestationHash",
          "type": "uint256"
        }
      ],
      "name": "lockTokens",
      "outputs": [],
      "stateMutability": "payable",
      "type": "function"
    },
    {
      "inputs": [
        {
          "internalType": "address",
          "name": "",
          "type": "address"
        },
        {
          "internalType": "uint256",
          "name": "",
          "type": "uint256"
        }
      ],
      "name": "lockedTokens",
      "outputs": [
        {
          "internalType": "uint256",
          "name": "",
          "type": "uint256"
        }
      ],
      "stateMutability": "view",
      "type": "function"
    },
    {
      "inputs": [],
      "name": "totalLocked",
      "outputs": [
        {
          "internalType": "uint256",
          "name": "",
          "type": "uint256"
        }
      ],
      "stateMutability": "view",
      "type": "function"
    },
    {
      "inputs": [
        {
          "internalType": "uint256",
          "name": "toUnlockAmount",
          "type": "uint256"
        },
        {
          "internalType": "bytes32",
          "name": "proofCommitment",
          "type": "bytes32"
        },
        {
          "internalType": "bytes32",
          "name": "provingSystemAuxDataCommitment",
          "type": "bytes32"
        },
        {
          "internalType": "bytes20",
          "name": "proofGeneratorAddr",
          "type": "bytes20"
        },
        {
          "internalType": "bytes32",
          "name": "batchMerkleRoot",
          "type": "bytes32"
        },
        {
          "internalType": "bytes",
          "name": "merkleProof",
          "type": "bytes"
        },
        {
          "internalType": "uint256",
          "name": "verificationDataBatchIndex",
          "type": "uint256"
        },
        {
          "internalType": "bytes",
          "name": "pubInput",
          "type": "bytes"
        },
        {
          "internalType": "address",
          "name": "batcherPaymentService",
          "type": "address"
        }
      ],
      "name": "unlockTokens",
      "outputs": [],
      "stateMutability": "nonpayable",
      "type": "function"
    },
    {
      "inputs": [],
      "name": "withdraw",
      "outputs": [],
      "stateMutability": "nonpayable",
      "type": "function"
    }
  ],
  "bytecode": "0x6080601f61126238819003918201601f19168301916001600160401b038311848410176092578084926040948552833981010312608d576047602060418360a8565b920160a8565b60008054336001600160a01b031991821617909155600480546001600160a01b03948516908316179055600580549290931691161790556040516111a690816100bc8239f35b600080fd5b634e487b7160e01b600052604160045260246000fd5b51906001600160a01b0382168203608d5756fe608080604052600436101561001357600080fd5b600090813560e01c9081632e0f262514610f8f575080633471f65e14610f655780633ccfd60b14610e9457806353719b6e14610e4957806354506bb414610e165780635689141214610df8578063590665c214610dd15780636e27d88914610b83578063c58f219c14610b61578063ca430143146100be5763e7ece6901461009a57600080fd5b346100bb57806003193601126100bb5750602064e8d4a51000604051908152f35b80fd5b50346100bb576101203660031901126100bb57600435606435906bffffffffffffffffffffffff198216809203610b5d5760a4356001600160401b038111610b595761010e90369060040161104d565b60e4356001600160401b038111610a7e5736602382011215610a7e5780600401356001600160401b038111610a7a5760248201818301936024850196368811610a1257610104356001600160a01b03811692908390036109b457846020116109b4576024602060018060a01b036004541660405192838092633e16b01160e01b8252893560048301525afa908115610b4e578b91610b2f575b5015610af9576020926040516101bc81610faa565b60243581528481019160443583526040820194855261028660608301976084358952608084019586526101fa60a085019160c43583528b3691611002565b60c0850190815260e0850193845261026d60018060a01b0360055416976040519b8c9a8b998a99639029ad1560e01b8b528e60048c01525160248b01525160448a01526bffffffffffffffffffffffff1990511660648901525160848801525161010060a48801526101248701906110a6565b915160c4860152518482036023190160e48601526110a6565b90516001600160a01b031661010483015203915afa908115610aee578791610abf575b5015610a8257602811610a7e5760206027198284030112610a7e57604c810135906001600160401b038211610a7a57016024604b198284030101916103c08312610a7a576040519161016083018381106001600160401b03821117610a665760405261031886604c83016110f4565b83526020830193608c820135855260ac8201356001600160401b038111610a1257604c9083010187601f82011215610a12578781602061035a93359101611002565b604085015261036b60cc8301611123565b606085015261037c60ec8301611137565b608085015261010c82013560a085015261039a8761012c84016110f4565b60c085015261016c82013560e085015260a061013f198201126109a05760405160a081018181106001600160401b03821117610a52576040526101c091906103e561018c8501611123565b81526103f46101ac8501611137565b60208201526104066101cc8501611123565b60408201526104186101ec8501611137565b606082015261042a61020c8501611123565b60808201526101008601526101df1901126109ce576040516101c081018181106001600160401b03821117610a3e5760405261022c8201356005811015610a1257815261024c8201356005811015610a1257602082015261026c8201356005811015610a1257604082015261028c8201356005811015610a125760608201526102ac8201356005811015610a125760808201526102cc8201356005811015610a125760a08201526102ec8201356005811015610a125760c08201526104f261030c8301611137565b60e082015261032c8201356005811015610a125761010082015261034c8201356005811015610a125761012082015261036c8201356005811015610a125761014082015261038c8201356005811015610a12576101608201526103ac8201356005811015610a12576101808201526103cc8201356005811015610a12576101a08201526101208401526103ec810135906001600160401b0382116109a057602491604c910101809203019461096086126109ce576040519560e087018781106001600160401b03821117610a3e5760405281601f840112156109a057604051906105de61010083610fe1565b81610100850192848411610a3a5785905b848210610a2a575050885261074060ff19820112610a125760405191606083018381106001600160401b03821117610a16576040523560038110156109b45782526101208401359060038210156109b45761070091602084015261013f1901126109a05760405161065f81610faa565b8261015f85011215610a125760405161067960e082610fe1565b80610300860191858311610a0e576101408701905b8382106109f457505082528361031f860112156109b4576040516106b46101e082610fe1565b806106c08701928684116109f0578692915b8482106109d257505060208401526106dd91611148565b60408201526106f0836107008601611148565b6060820152610703836107408601611148565b6080820152610716836107808601611148565b60a0820152610729836107c08601611148565b60c082015261073c836108008601611148565b60e0820152604082015260208701526107586108408301611137565b60408701528061087f830112156109ce5760405161077760a082610fe1565b806109008401918383116109b4576108608501905b8382106109a457505060608801526107a390611137565b60808701526107b561092083016110e7565b60a08701526109408201356001600160401b0381116109a0576107d8920161104d565b60c085015261014081019384525190516040519060208083019380518552015115156040830152606082015260608152610813608082610fe1565b5190209182845260066020526040842054604082515101518181039080821161098c5782146109305783116108cd578261084c9161106b565b838552600660205260408520555151606001516001600160a01b03168382828282156108c4575b839283928392f1156108b9577fb9ca611be7435f3c6f1241086b057aa49a657c2888526894a9fc370e482b0afb916060916040519182526020820152426040820152a280f35b6040513d85823e3d90fd5b506108fc610873565b60405162461bcd60e51b815260206004820152603560248201527f546f20756e6c6f636b20616d6f756e742069732067726561746572207468616e6044820152742074686520616d6f756e7420746f20756e6c6f636b60581b6064820152608490fd5b60405162461bcd60e51b815260206004820152602e60248201527f4275726e20736f206661722069732067726561746572207468616e207468652060448201526d30b6b7bab73a103a3790313ab93760911b6064820152608490fd5b634e487b7160e01b87526011600452602487fd5b8780fd5b813581526020918201910161078c565b8980fd5b634e487b7160e01b600052604160045260246000fd5b8680fd5b6020906109e3839495604094611148565b81520191018692916106c6565b8c80fd5b6020604091610a038985611148565b81520191019061068e565b8b80fd5b8880fd5b634e487b7160e01b8b52604160045260248bfd5b81358152602091820191016105ef565b8a80fd5b634e487b7160e01b89526041600452602489fd5b634e487b7160e01b8a52604160045260248afd5b634e487b7160e01b88526041600452602488fd5b8580fd5b8480fd5b60405162461bcd60e51b8152602060048201526015602482015274125b9d985b1a5908169ad85c1c081058d8dbdd5b9d605a1b6044820152606490fd5b610ae1915060203d602011610ae7575b610ad98183610fe1565b81019061108e565b386102a9565b503d610acf565b6040513d89823e3d90fd5b60405162461bcd60e51b815260206004820152600e60248201526d24b73b30b634b2102632b233b2b960911b6044820152606490fd5b610b48915060203d602011610ae757610ad98183610fe1565b386101a7565b6040513d8d823e3d90fd5b8380fd5b8280fd5b50346100bb57806003193601126100bb5760206040516001600160401b038152f35b5060203660031901126100bb576004353415610d8d5764e8d4a5100091508134046000923406610d37576001600160401b03610bc18260025461106b565b11610ce657818352600360205260408320546001600160a01b031680610c6c575081835260036020526040832080546001600160a01b03191633179055610c2e905b33845260016020526040842083855260205260408420610c2434825461106b565b905560025461106b565b6002556040519081523460208201524260408201527f90e20a62e0f2a608d33bd96a4e15cb853006a15caf4455f373b7b55de520b68c60603392a280f35b3303610c7b57610c2e90610c03565b60405162461bcd60e51b815260206004820152603e60248201527f54686973204d696e61206163636f756e7420697320616c7265616479206c696e60448201527f6b656420746f206120646966666572656e7420455448206164647265737300006064820152608490fd5b60405162461bcd60e51b8152602060048201526024808201527f546f74616c206c6f636b65642065786365656473206d6178696d756d20616c6c6044820152631bddd95960e21b6064820152608490fd5b60405162461bcd60e51b815260206004820152602860248201527f4d757374206265206d756c7469706c65206f6620736d616c6c657374206272696044820152671919d9481d5b9a5d60c21b6064820152608490fd5b606460405162461bcd60e51b815260206004820152602060248201527f596f75206d7573742073656e6420736f6d6520457468657220746f206c6f636b6044820152fd5b50346100bb57806003193601126100bb57546040516001600160a01b039091168152602090f35b50346100bb57806003193601126100bb576020600254604051908152f35b50346100bb5760203660031901126100bb57602090600435815260038252604060018060a01b0391205416604051908152f35b50346100bb5760403660031901126100bb576004356001600160a01b03811690819003610e9057816040916020935260018352818120602435825283522054604051908152f35b5080fd5b50346100bb57806003193601126100bb5780546001600160a01b031633819003610f165747908115610edc5782808093819382f115610ed05780f35b604051903d90823e3d90fd5b60405162461bcd60e51b81526020600482015260126024820152714e6f2045544820746f20776974686472617760701b6044820152606490fd5b60405162461bcd60e51b815260206004820152602160248201527f4f6e6c7920627269646765206f70657261746f722063616e20776974686472616044820152607760f81b6064820152608490fd5b50346100bb5760203660031901126100bb5760406020916004358152600683522054604051908152f35b905034610e905781600319360112610e905780600660209252f35b61010081019081106001600160401b038211176109b857604052565b604081019081106001600160401b038211176109b857604052565b90601f801991011681019081106001600160401b038211176109b857604052565b9291926001600160401b0382116109b8576040519161102b601f8201601f191660200184610fe1565b829481845281830111611048578281602093846000960137010152565b600080fd5b9080601f830112156110485781602061106893359101611002565b90565b9190820180921161107857565b634e487b7160e01b600052601160045260246000fd5b90816020910312611048575180151581036110485790565b919082519283825260005b8481106110d2575050826000602080949584010152601f8019910116010190565b806020809284010151828286010152016110b1565b3590811515820361104857565b91908260409103126110485760405161110c81610fc6565b602061111e81839580358552016110e7565b910152565b35906001600160401b038216820361104857565b359063ffffffff8216820361104857565b91908260409103126110485760405161116081610fc6565b602080829480358452013591015256fea2646970667358221220657682280e67abc5ed58d11658b1324db07756ea20245a2fa06df3d82ae482f564736f6c634300081c0033",
  "linkReferences": {},
  "deployedLinkReferences": {}
}