{
  "_format": "hh3-artifact-1",
  "contractName": "NoriTokenBridge",
  "sourceName": "contracts/NoriTokenBridge.sol",
  "abi": [
    {
      "inputs": [],
      "stateMutability": "payable",
      "type": "constructor"
    },
    {
      "inputs": [],
      "name": "AlignedContractsNotConfigured",
      "type": "error"
    },
    {
      "inputs": [],
      "name": "NotBridgeOperator",
      "type": "error"
    },
    {
      "inputs": [],
      "name": "ZeroAddress",
      "type": "error"
    },
    {
      "anonymous": false,
      "inputs": [
        {
          "indexed": true,
          "internalType": "address",
          "name": "newAddress",
          "type": "address"
        }
      ],
      "name": "AccountValidationSet",
      "type": "event"
    },
    {
      "anonymous": false,
      "inputs": [
        {
          "indexed": true,
          "internalType": "address",
          "name": "newAddress",
          "type": "address"
        }
      ],
      "name": "StateSettlementSet",
      "type": "event"
    },
    {
      "anonymous": false,
      "inputs": [
        {
          "indexed": true,
          "internalType": "address",
          "name": "user",
          "type": "address"
        },
        {
          "indexed": false,
          "internalType": "uint256",
          "name": "attestationHash",
          "type": "uint256"
        },
        {
          "indexed": false,
          "internalType": "uint256",
          "name": "amount",
          "type": "uint256"
        },
        {
          "indexed": false,
          "internalType": "uint256",
          "name": "when",
          "type": "uint256"
        }
      ],
      "name": "TokensLocked",
      "type": "event"
    },
    {
      "anonymous": false,
      "inputs": [
        {
          "indexed": true,
          "internalType": "uint256",
          "name": "pubKeyTokenIdHash",
          "type": "uint256"
        },
        {
          "indexed": false,
          "internalType": "uint256",
          "name": "amount",
          "type": "uint256"
        },
        {
          "indexed": false,
          "internalType": "address",
          "name": "receiver",
          "type": "address"
        },
        {
          "indexed": false,
          "internalType": "uint256",
          "name": "when",
          "type": "uint256"
        }
      ],
      "name": "TokensUnlocked",
      "type": "event"
    },
    {
      "inputs": [],
      "name": "DECIMALS",
      "outputs": [
        {
          "internalType": "uint8",
          "name": "",
          "type": "uint8"
        }
      ],
      "stateMutability": "view",
      "type": "function"
    },
    {
      "inputs": [],
      "name": "MAX_MAGNITUDE",
      "outputs": [
        {
          "internalType": "uint64",
          "name": "",
          "type": "uint64"
        }
      ],
      "stateMutability": "view",
      "type": "function"
    },
    {
      "inputs": [],
      "name": "WEI_PER_BRIDGE_UNIT",
      "outputs": [
        {
          "internalType": "uint256",
          "name": "",
          "type": "uint256"
        }
      ],
      "stateMutability": "view",
      "type": "function"
    },
    {
      "inputs": [],
      "name": "bridgeOperator",
      "outputs": [
        {
          "internalType": "address",
          "name": "",
          "type": "address"
        }
      ],
      "stateMutability": "view",
      "type": "function"
    },
    {
      "inputs": [
        {
          "internalType": "uint256",
          "name": "",
          "type": "uint256"
        }
      ],
      "name": "burnSoFarSet",
      "outputs": [
        {
          "internalType": "uint256",
          "name": "",
          "type": "uint256"
        }
      ],
      "stateMutability": "view",
      "type": "function"
    },
    {
      "inputs": [
        {
          "internalType": "uint256",
          "name": "",
          "type": "uint256"
        }
      ],
      "name": "codeChallengeToEthAddress",
      "outputs": [
        {
          "internalType": "address",
          "name": "",
          "type": "address"
        }
      ],
      "stateMutability": "view",
      "type": "function"
    },
    {
      "inputs": [],
      "name": "isConfigured",
      "outputs": [
        {
          "internalType": "bool",
          "name": "",
          "type": "bool"
        }
      ],
      "stateMutability": "view",
      "type": "function"
    },
    {
      "inputs": [
        {
          "internalType": "uint256",
          "name": "attestationHash",
          "type": "uint256"
        }
      ],
      "name": "lockTokens",
      "outputs": [],
      "stateMutability": "payable",
      "type": "function"
    },
    {
      "inputs": [
        {
          "internalType": "address",
          "name": "",
          "type": "address"
        },
        {
          "internalType": "uint256",
          "name": "",
          "type": "uint256"
        }
      ],
      "name": "lockedTokens",
      "outputs": [
        {
          "internalType": "uint256",
          "name": "",
          "type": "uint256"
        }
      ],
      "stateMutability": "view",
      "type": "function"
    },
    {
      "inputs": [
        {
          "internalType": "address",
          "name": "_stateSettlementAddr",
          "type": "address"
        },
        {
          "internalType": "address",
          "name": "_accountValidationAddr",
          "type": "address"
        }
      ],
      "name": "setAlignedContracts",
      "outputs": [],
      "stateMutability": "nonpayable",
      "type": "function"
    },
    {
      "inputs": [],
      "name": "totalLocked",
      "outputs": [
        {
          "internalType": "uint256",
          "name": "",
          "type": "uint256"
        }
      ],
      "stateMutability": "view",
      "type": "function"
    },
    {
      "inputs": [
        {
          "internalType": "uint256",
          "name": "toUnlockAmount",
          "type": "uint256"
        },
        {
          "internalType": "bytes32",
          "name": "proofCommitment",
          "type": "bytes32"
        },
        {
          "internalType": "bytes32",
          "name": "provingSystemAuxDataCommitment",
          "type": "bytes32"
        },
        {
          "internalType": "bytes20",
          "name": "proofGeneratorAddr",
          "type": "bytes20"
        },
        {
          "internalType": "bytes32",
          "name": "batchMerkleRoot",
          "type": "bytes32"
        },
        {
          "internalType": "bytes",
          "name": "merkleProof",
          "type": "bytes"
        },
        {
          "internalType": "uint256",
          "name": "verificationDataBatchIndex",
          "type": "uint256"
        },
        {
          "internalType": "bytes",
          "name": "pubInput",
          "type": "bytes"
        },
        {
          "internalType": "address",
          "name": "batcherPaymentService",
          "type": "address"
        }
      ],
      "name": "unlockTokens",
      "outputs": [],
      "stateMutability": "nonpayable",
      "type": "function"
    },
    {
      "inputs": [],
      "name": "withdraw",
      "outputs": [],
      "stateMutability": "nonpayable",
      "type": "function"
    }
  ],
  "bytecode": "0x608060408190525f80546001600160a01b031916331790556112c190816100248239f3fe6080806040526004361015610012575f80fd5b5f905f3560e01c9081632e0f262514611093575080633471f65e146110695780633ccfd60b14610fdd57806353719b6e14610f9957806354506bb414610f675780635689141214610f4a578063590665c214610f235780635f82dea814610e355780636e27d88914610bcb578063c58f219c14610ba9578063ca430143146100f6578063d3a057c8146100d15763e7ece690146100ad575f80fd5b346100ce57806003193601126100ce5750602064e8d4a51000604051908152f35b80fd5b50346100ce57806003193601126100ce5760206100ec611263565b6040519015158152f35b50346100ce576101203660031901126100ce57600435606435906001600160601b03198216809203610ba55760a4356001600160401b038111610ba15761014190369060040161115f565b60e4356001600160401b038111610ab75736602382011215610ab75780600401356001600160401b038111610ab35760248201818301936024850196368811610a4b57610104356001600160a01b03811692908390036109ef576101a3611263565b15610b9257846020116109ef576024602060018060a01b036004541660405192838092633e16b01160e01b8252893560048301525afa908115610b87578b91610b68575b5015610b32576020926040516101fc816110c2565b6024358152848101916044358352604082019485526102c1606083019760843589526080840195865261023a60a085019160c43583528b369161111a565b60c0850190815260e085019384526102a860018060a01b0360055416976040519b8c9a8b998a99639029ad1560e01b8b528e60048c01525160248b01525160448a01526001600160601b031990511660648901525160848801525161010060a48801526101248701906111b6565b915160c4860152518482036023190160e48601526111b6565b90516001600160a01b031661010483015203915afa908115610b27578791610af8575b5015610abb57602811610ab75760206027198284030112610ab757604c810135906001600160401b038211610ab357016024604b198284030101916103c08312610ab3576040519161016083018381106001600160401b03821117610a9f5760405261035386604c83016111e7565b83526020830193608c820135855260ac8201356001600160401b038111610a4b57604c9083010187601f82011215610a4b57878160206103959335910161111a565b60408501526103a660cc8301611216565b60608501526103b760ec830161122a565b608085015261010c82013560a08501526103d58761012c84016111e7565b60c085015261016c82013560e085015260a061013f198201126109db5760405160a081018181106001600160401b03821117610a8b576040526101c0919061042061018c8501611216565b815261042f6101ac850161122a565b60208201526104416101cc8501611216565b60408201526104536101ec850161122a565b606082015261046561020c8501611216565b60808201526101008601526101df190112610a07576040516101c081018181106001600160401b03821117610a775760405261022c8201356005811015610a4b57815261024c8201356005811015610a4b57602082015261026c8201356005811015610a4b57604082015261028c8201356005811015610a4b5760608201526102ac8201356005811015610a4b5760808201526102cc8201356005811015610a4b5760a08201526102ec8201356005811015610a4b5760c082015261052d61030c830161122a565b60e082015261032c8201356005811015610a4b5761010082015261034c8201356005811015610a4b5761012082015261036c8201356005811015610a4b5761014082015261038c8201356005811015610a4b576101608201526103ac8201356005811015610a4b576101808201526103cc8201356005811015610a4b576101a08201526101208401526103ec810135906001600160401b0382116109db57602491604c91010180920301946109608612610a07576040519560e087018781106001600160401b03821117610a775760405281601f840112156109db5760405190610619610100836110f9565b81610100850192848411610a735785905b848210610a63575050885261074060ff19820112610a4b5760405191606083018381106001600160401b03821117610a4f576040523560038110156109ef5782526101208401359060038210156109ef5761070091602084015261013f1901126109db5760405161069a816110c2565b8261015f85011215610a4b576040516106b460e0826110f9565b80610300860191858311610a47576101408701905b838210610a2d57505082528361031f860112156109ef576040516106ef6101e0826110f9565b806106c0870192868411610a29578692915b848210610a0b57505060208401526107189161123b565b604082015261072b83610700860161123b565b606082015261073e83610740860161123b565b608082015261075183610780860161123b565b60a0820152610764836107c0860161123b565b60c082015261077783610800860161123b565b60e082015260408201526020870152610793610840830161122a565b60408701528061087f83011215610a07576040516107b260a0826110f9565b806109008401918383116109ef576108608501905b8382106109df57505060608801526107de9061122a565b60808701526107f061092083016111da565b60a08701526109408201356001600160401b0381116109db57610813920161115f565b60c08501526101408101938452519051604051906020808301938051855201511515604083015260608201526060815261084e6080826110f9565b519020918284526006602052604084205460408251510151818103908082116109c757821461096b57831161090857826108879161117d565b838552600660205260408520555151606001516001600160a01b03168382828282156108ff575b839283928392f1156108f4577fb9ca611be7435f3c6f1241086b057aa49a657c2888526894a9fc370e482b0afb916060916040519182526020820152426040820152a280f35b6040513d85823e3d90fd5b506108fc6108ae565b60405162461bcd60e51b815260206004820152603560248201527f546f20756e6c6f636b20616d6f756e742069732067726561746572207468616e6044820152742074686520616d6f756e7420746f20756e6c6f636b60581b6064820152608490fd5b60405162461bcd60e51b815260206004820152602e60248201527f4275726e20736f206661722069732067726561746572207468616e207468652060448201526d30b6b7bab73a103a3790313ab93760911b6064820152608490fd5b634e487b7160e01b87526011600452602487fd5b8780fd5b81358152602091820191016107c7565b8980fd5b634e487b7160e01b5f52604160045260245ffd5b8680fd5b602090610a1c83949560409461123b565b8152019101869291610701565b8c80fd5b6020604091610a3c898561123b565b8152019101906106c9565b8b80fd5b8880fd5b634e487b7160e01b8b52604160045260248bfd5b813581526020918201910161062a565b8a80fd5b634e487b7160e01b89526041600452602489fd5b634e487b7160e01b8a52604160045260248afd5b634e487b7160e01b88526041600452602488fd5b8580fd5b8480fd5b60405162461bcd60e51b8152602060048201526015602482015274125b9d985b1a5908169ad85c1c081058d8dbdd5b9d605a1b6044820152606490fd5b610b1a915060203d602011610b20575b610b1281836110f9565b81019061119e565b5f6102e4565b503d610b08565b6040513d89823e3d90fd5b60405162461bcd60e51b815260206004820152600e60248201526d24b73b30b634b2102632b233b2b960911b6044820152606490fd5b610b81915060203d602011610b2057610b1281836110f9565b5f6101e7565b6040513d8d823e3d90fd5b631158015d60e31b8a5260048afd5b8380fd5b8280fd5b50346100ce57806003193601126100ce5760206040516001600160401b038152f35b6020366003190112610e3157600435610be2611263565b15610e22573415610dde5764e8d4a51000803404903406610d88576001600160401b03610c118260025461117d565b11610d37575f828152600360205260409020546001600160a01b031680610cbd57505f82815260036020526040902080546001600160a01b03191633179055610c80905b335f52600160205260405f20835f5260205260405f20610c7634825461117d565b905560025461117d565b6002556040519081523460208201524260408201527f90e20a62e0f2a608d33bd96a4e15cb853006a15caf4455f373b7b55de520b68c60603392a2005b3303610ccc57610c8090610c55565b60405162461bcd60e51b815260206004820152603e60248201527f54686973204d696e61206163636f756e7420697320616c7265616479206c696e60448201527f6b656420746f206120646966666572656e7420455448206164647265737300006064820152608490fd5b60405162461bcd60e51b8152602060048201526024808201527f546f74616c206c6f636b65642065786365656473206d6178696d756d20616c6c6044820152631bddd95960e21b6064820152608490fd5b60405162461bcd60e51b815260206004820152602860248201527f4d757374206265206d756c7469706c65206f6620736d616c6c657374206272696044820152671919d9481d5b9a5d60c21b6064820152608490fd5b606460405162461bcd60e51b815260206004820152602060248201527f596f75206d7573742073656e6420736f6d6520457468657220746f206c6f636b6044820152fd5b631158015d60e31b5f5260045ffd5b5f80fd5b34610e31576040366003190112610e3157610e4e6110ac565b6024356001600160a01b0381169190829003610e31575f546001600160a01b03163303610f14576001600160a01b031680158015610f0c575b610efd57806001600160601b0360a01b6004541617600455816001600160601b0360a01b60055416176005557f9ffaad5d5d3a89ca0a826d0a585796cef555c81564727dc06c9eefa27bb9c7395f80a27f8fbe9777c0f01f68e53ad387c04b3a2b8786c57e6fc4344300e32f7ca29050595f80a2005b63d92e233d60e01b5f5260045ffd5b508115610e87565b6360fb4b4960e01b5f5260045ffd5b34610e31575f366003190112610e31575f546040516001600160a01b039091168152602090f35b34610e31575f366003190112610e31576020600254604051908152f35b34610e31576020366003190112610e31576004355f526003602052602060018060a01b0360405f205416604051908152f35b34610e31576040366003190112610e31576001600160a01b03610fba6110ac565b165f52600160205260405f206024355f52602052602060405f2054604051908152f35b34610e31575f366003190112610e31575f546001600160a01b031633819003610f1457611008611263565b15610e22574790811561102f575f808093819382f11561102457005b6040513d5f823e3d90fd5b60405162461bcd60e51b81526020600482015260126024820152714e6f2045544820746f20776974686472617760701b6044820152606490fd5b34610e31576020366003190112610e31576004355f526006602052602060405f2054604051908152f35b34610e31575f366003190112610e315780600660209252f35b600435906001600160a01b0382168203610e3157565b61010081019081106001600160401b038211176109f357604052565b604081019081106001600160401b038211176109f357604052565b90601f801991011681019081106001600160401b038211176109f357604052565b9291926001600160401b0382116109f35760405191611143601f8201601f1916602001846110f9565b829481845281830111610e31578281602093845f960137010152565b9080601f83011215610e315781602061117a9335910161111a565b90565b9190820180921161118a57565b634e487b7160e01b5f52601160045260245ffd5b90816020910312610e3157518015158103610e315790565b805180835260209291819084018484015e5f828201840152601f01601f1916010190565b35908115158203610e3157565b9190826040910312610e31576040516111ff816110de565b602061121181839580358552016111da565b910152565b35906001600160401b0382168203610e3157565b359063ffffffff82168203610e3157565b9190826040910312610e3157604051611253816110de565b6020808294803584520135910152565b6004546001600160a01b03161515806112795790565b506005546001600160a01b031615159056fea26469706673582212201d373e7e458699eec776feeafbdfc50628ce944c6221f87494928a79d411615564736f6c634300081c0033",
  "linkReferences": {},
  "deployedLinkReferences": {},
  "immutableReferences": {},
  "inputSourceName": "project/contracts/NoriTokenBridge.sol",
  "buildInfoId": "solc-0_8_28-fab654d708493f604a959d8b0e2231273192efce"
}