{
  "_format": "hh-sol-artifact-1",
  "contractName": "MinaStateSettlementExample",
  "sourceName": "contracts/MinaStateSettlementExample.sol",
  "abi": [
    {
      "inputs": [
        {
          "internalType": "address payable",
          "name": "_alignedServiceAddr",
          "type": "address"
        },
        {
          "internalType": "bytes32",
          "name": "_tipStateHash",
          "type": "bytes32"
        },
        {
          "internalType": "bool",
          "name": "_devnetFlag",
          "type": "bool"
        }
      ],
      "stateMutability": "nonpayable",
      "type": "constructor"
    },
    {
      "inputs": [],
      "name": "MinaNetworkIsWrong",
      "type": "error"
    },
    {
      "inputs": [
        {
          "internalType": "bytes32",
          "name": "",
          "type": "bytes32"
        }
      ],
      "name": "MinaProvingSystemIdIsNotValid",
      "type": "error"
    },
    {
      "inputs": [],
      "name": "NewStateIsNotValid",
      "type": "error"
    },
    {
      "inputs": [
        {
          "internalType": "bytes32",
          "name": "pubInputTipStateHash",
          "type": "bytes32"
        },
        {
          "internalType": "bytes32",
          "name": "tipStatehash",
          "type": "bytes32"
        }
      ],
      "name": "TipStateIsWrong",
      "type": "error"
    },
    {
      "inputs": [],
      "name": "BRIDGE_TRANSITION_FRONTIER_LEN",
      "outputs": [
        {
          "internalType": "uint256",
          "name": "",
          "type": "uint256"
        }
      ],
      "stateMutability": "view",
      "type": "function"
    },
    {
      "inputs": [],
      "name": "getChainLedgerHashes",
      "outputs": [
        {
          "internalType": "bytes32[16]",
          "name": "",
          "type": "bytes32[16]"
        }
      ],
      "stateMutability": "view",
      "type": "function"
    },
    {
      "inputs": [],
      "name": "getChainStateHashes",
      "outputs": [
        {
          "internalType": "bytes32[16]",
          "name": "",
          "type": "bytes32[16]"
        }
      ],
      "stateMutability": "view",
      "type": "function"
    },
    {
      "inputs": [],
      "name": "getTipLedgerHash",
      "outputs": [
        {
          "internalType": "bytes32",
          "name": "",
          "type": "bytes32"
        }
      ],
      "stateMutability": "view",
      "type": "function"
    },
    {
      "inputs": [],
      "name": "getTipStateHash",
      "outputs": [
        {
          "internalType": "bytes32",
          "name": "",
          "type": "bytes32"
        }
      ],
      "stateMutability": "view",
      "type": "function"
    },
    {
      "inputs": [
        {
          "internalType": "bytes32",
          "name": "ledgerHash",
          "type": "bytes32"
        }
      ],
      "name": "isLedgerVerified",
      "outputs": [
        {
          "internalType": "bool",
          "name": "",
          "type": "bool"
        }
      ],
      "stateMutability": "view",
      "type": "function"
    },
    {
      "inputs": [
        {
          "internalType": "bytes32",
          "name": "proofCommitment",
          "type": "bytes32"
        },
        {
          "internalType": "bytes32",
          "name": "provingSystemAuxDataCommitment",
          "type": "bytes32"
        },
        {
          "internalType": "bytes20",
          "name": "proofGeneratorAddr",
          "type": "bytes20"
        },
        {
          "internalType": "bytes32",
          "name": "batchMerkleRoot",
          "type": "bytes32"
        },
        {
          "internalType": "bytes",
          "name": "merkleProof",
          "type": "bytes"
        },
        {
          "internalType": "uint256",
          "name": "verificationDataBatchIndex",
          "type": "uint256"
        },
        {
          "internalType": "bytes",
          "name": "pubInput",
          "type": "bytes"
        },
        {
          "internalType": "address",
          "name": "batcherPaymentService",
          "type": "address"
        }
      ],
      "name": "updateChain",
      "outputs": [],
      "stateMutability": "nonpayable",
      "type": "function"
    }
  ],
  "bytecode": "0x608034609857601f61075238819003918201601f19168301916001600160401b03831184841017609d578084926060946040528339810103126098578051906001600160a01b03821682036098576040602082015191015180151580910360985760ff9060205492600f551691610100600160a81b039060081b169060018060a81b031916171760205560405161069e90816100b48239f35b600080fd5b634e487b7160e01b600052604160045260246000fdfe6080604052600436101561001257600080fd5b60003560e01c806303f93e50146100875780632bc4f8d91461008257806337baff0f1461007d5780633886c09b146100785780633e16b01114610073578063b81847451461006e5763fb299cd81461006957600080fd5b6102ef565b6102d1565b6102a9565b61028b565b6101fe565b6100fa565b346100c65760003660031901126100c6576102006040516100a8828261016a565b3690376100c26100b661030b565b604051918291826100cb565b0390f35b600080fd5b91906102008301926000905b601082106100e457505050565b60208060019285518152019301910190916100d7565b346100c65760003660031901126100c6576102008060405161011c828261016a565b36903760405160106000825b6010821061013e576100c2846100b6878261016a565b6001602081928554815201930191019091610128565b634e487b7160e01b600052604160045260246000fd5b90601f8019910116810190811067ffffffffffffffff82111761018c57604052565b610154565b81601f820112156100c65780359067ffffffffffffffff821161018c57604051926101c6601f8401601f19166020018561016a565b828452602083830101116100c657816000926020809301838601378301015290565b60e435906001600160a01b03821682036100c657565b346100c6576101003660031901126100c6576044356004356024356bffffffffffffffffffffffff19831683036100c65760643560843567ffffffffffffffff81116100c657610252903690600401610191565b60a4359160c4359567ffffffffffffffff87116100c65761027a610289973690600401610191565b946102836101e8565b96610433565b005b346100c65760003660031901126100c6576020601f54604051908152f35b346100c65760203660031901126100c65760206102c7600435610612565b6040519015158152f35b346100c65760003660031901126100c6576020600f54604051908152f35b346100c65760003660031901126100c657602060405160108152f35b60405190600080835b6010821061032d5750505061032b6102008361016a565b565b6001602081928554815201930191019091610314565b634e487b7160e01b600052603260045260246000fd5b8051156103665760200190565b610343565b60108110156103665790600090565b908160209103126100c6575180151581036100c65790565b959493929190989796988652602086015260408501526bffffffffffffffffffffffff19166060840152608083015261010060a08301528051908161010084015260005b828110610410575050816101208260008260e09561032b9897010152601f80199101168201019560c0820152019060018060a01b03169052565b8060208092840101516101208287010152016103d6565b6040513d6000823e3d90fd5b909391949796977fd0591206d9e81e07f4defc5327957173572bcd1bca7838caa7be39b0c12b187385036105fc57600160f81b6001600160f81b031961048961047b8a610359565b516001600160f81b03191690565b161492602054936104a261049d8660ff1690565b151590565b036105eb5760218801516104c36104b9600f61036b565b90549060031b1c90565b81036105bd57509861051c9188999a6104fe6104f28b6020809c9d519101209760018060a01b039060081c1690565b6001600160a01b031690565b966040519a8b998a9889986306045a9160e01b8a5260048a01610392565b03915afa9081156105b857600091610589575b50156105785760009060106102416041830192016000925b60108410610556575050505050565b600160208181848295518a550197019380518655019301930192919093610547565b630114602f60e41b60005260046000fd5b6105ab915060203d6020116105b1575b6105a3818361016a565b81019061037a565b3861052f565b503d610599565b610427565b6105e7906105ce6104b9600f61036b565b63177b002560e31b600052600491909152602452604490565b6000fd5b63042eb0cf60e01b60005260046000fd5b63c35f1ecd60e01b600052600485905260246000fd5b60005b60108110610624575050600090565b80600f03600f81116106525760108110156103665760100154821461064b57600101610615565b5050600190565b634e487b7160e01b600052601160045260246000fdfea264697066735822122094bda000e63bfd538062d75c83adc2262e4a8fe3ecfc8d2170051e1cc59ba2d564736f6c634300081c0033",
  "linkReferences": {},
  "deployedLinkReferences": {}
}