{
  "_format": "hh3-artifact-1",
  "contractName": "MinaStateSettlementExample",
  "sourceName": "contracts/MinaStateSettlementExample.sol",
  "abi": [
    {
      "inputs": [
        {
          "internalType": "address payable",
          "name": "_alignedServiceAddr",
          "type": "address"
        },
        {
          "internalType": "bytes32",
          "name": "_tipStateHash",
          "type": "bytes32"
        },
        {
          "internalType": "bool",
          "name": "_devnetFlag",
          "type": "bool"
        }
      ],
      "stateMutability": "nonpayable",
      "type": "constructor"
    },
    {
      "inputs": [],
      "name": "MinaNetworkIsWrong",
      "type": "error"
    },
    {
      "inputs": [
        {
          "internalType": "bytes32",
          "name": "",
          "type": "bytes32"
        }
      ],
      "name": "MinaProvingSystemIdIsNotValid",
      "type": "error"
    },
    {
      "inputs": [],
      "name": "NewStateIsNotValid",
      "type": "error"
    },
    {
      "inputs": [
        {
          "internalType": "bytes32",
          "name": "pubInputTipStateHash",
          "type": "bytes32"
        },
        {
          "internalType": "bytes32",
          "name": "tipStatehash",
          "type": "bytes32"
        }
      ],
      "name": "TipStateIsWrong",
      "type": "error"
    },
    {
      "inputs": [],
      "name": "BRIDGE_TRANSITION_FRONTIER_LEN",
      "outputs": [
        {
          "internalType": "uint256",
          "name": "",
          "type": "uint256"
        }
      ],
      "stateMutability": "view",
      "type": "function"
    },
    {
      "inputs": [],
      "name": "getChainLedgerHashes",
      "outputs": [
        {
          "internalType": "bytes32[16]",
          "name": "",
          "type": "bytes32[16]"
        }
      ],
      "stateMutability": "view",
      "type": "function"
    },
    {
      "inputs": [],
      "name": "getChainStateHashes",
      "outputs": [
        {
          "internalType": "bytes32[16]",
          "name": "",
          "type": "bytes32[16]"
        }
      ],
      "stateMutability": "view",
      "type": "function"
    },
    {
      "inputs": [],
      "name": "getTipLedgerHash",
      "outputs": [
        {
          "internalType": "bytes32",
          "name": "",
          "type": "bytes32"
        }
      ],
      "stateMutability": "view",
      "type": "function"
    },
    {
      "inputs": [],
      "name": "getTipStateHash",
      "outputs": [
        {
          "internalType": "bytes32",
          "name": "",
          "type": "bytes32"
        }
      ],
      "stateMutability": "view",
      "type": "function"
    },
    {
      "inputs": [
        {
          "internalType": "bytes32",
          "name": "ledgerHash",
          "type": "bytes32"
        }
      ],
      "name": "isLedgerVerified",
      "outputs": [
        {
          "internalType": "bool",
          "name": "",
          "type": "bool"
        }
      ],
      "stateMutability": "view",
      "type": "function"
    },
    {
      "inputs": [
        {
          "internalType": "bytes32",
          "name": "proofCommitment",
          "type": "bytes32"
        },
        {
          "internalType": "bytes32",
          "name": "provingSystemAuxDataCommitment",
          "type": "bytes32"
        },
        {
          "internalType": "bytes20",
          "name": "proofGeneratorAddr",
          "type": "bytes20"
        },
        {
          "internalType": "bytes32",
          "name": "batchMerkleRoot",
          "type": "bytes32"
        },
        {
          "internalType": "bytes",
          "name": "merkleProof",
          "type": "bytes"
        },
        {
          "internalType": "uint256",
          "name": "verificationDataBatchIndex",
          "type": "uint256"
        },
        {
          "internalType": "bytes",
          "name": "pubInput",
          "type": "bytes"
        },
        {
          "internalType": "address",
          "name": "batcherPaymentService",
          "type": "address"
        }
      ],
      "name": "updateChain",
      "outputs": [],
      "stateMutability": "nonpayable",
      "type": "function"
    }
  ],
  "bytecode": "0x608034609857601f61070a38819003918201601f19168301916001600160401b03831184841017609c578084926060946040528339810103126098578051906001600160a01b03821682036098576040602082015191015180151580910360985760ff9060205492600f551691610100600160a81b039060081b169060018060a81b031916171760205560405161065990816100b18239f35b5f80fd5b634e487b7160e01b5f52604160045260245ffdfe60806040526004361015610011575f80fd5b5f3560e01c806303f93e50146100845780632bc4f8d91461007f57806337baff0f1461007a5780633886c09b146100755780633e16b01114610070578063b81847451461006b5763fb299cd814610066575f80fd5b6102e2565b6102c5565b61029d565b610280565b6101f3565b6100f4565b346100c2575f3660031901126100c2576102006040516100a48282610160565b3690376100be6100b26102fd565b604051918291826100c6565b0390f35b5f80fd5b91906102008301925f905b601082106100de57505050565b60208060019285518152019301910190916100d1565b346100c2575f3660031901126100c257610200806040516101158282610160565b36903760405160105f825b60108210610136576100be846100b28782610160565b6001602081928554815201930191019091610120565b634e487b7160e01b5f52604160045260245ffd5b90601f8019910116810190811067ffffffffffffffff82111761018257604052565b61014c565b81601f820112156100c25780359067ffffffffffffffff821161018257604051926101bc601f8401601f191660200185610160565b828452602083830101116100c257815f926020809301838601378301015290565b60e435906001600160a01b03821682036100c257565b346100c2576101003660031901126100c2576044356004356024356bffffffffffffffffffffffff19831683036100c25760643560843567ffffffffffffffff81116100c257610247903690600401610187565b60a4359160c4359567ffffffffffffffff87116100c25761026f61027e973690600401610187565b946102786101dd565b966103fd565b005b346100c2575f3660031901126100c2576020601f54604051908152f35b346100c25760203660031901126100c25760206102bb6004356105d1565b6040519015158152f35b346100c2575f3660031901126100c2576020600f54604051908152f35b346100c2575f3660031901126100c257602060405160108152f35b604051905f80835b6010821061031e5750505061031c61020083610160565b565b6001602081928554815201930191019091610305565b634e487b7160e01b5f52603260045260245ffd5b8051156103555760200190565b610334565b601081101561035557905f90565b908160209103126100c2575180151581036100c25790565b96989794909360209360e09793610120968a52858a015260408901526bffffffffffffffffffffffff19166060880152608087015261010060a0870152805191829182610100890152018387015e5f828287010152601f80199101168401019460c084015260018060a01b0316910152565b6040513d5f823e3d90fd5b909391949796977fd0591206d9e81e07f4defc5327957173572bcd1bca7838caa7be39b0c12b187385036105bd57600160f81b6001600160f81b03196104536104458a610348565b516001600160f81b03191690565b1614926020549361046c6104678660ff1690565b151590565b036105ae57602188015161048d610483600f61035a565b90549060031b1c90565b81036105825750986104e69188999a6104c86104bc8b6020809c9d519101209760018060a01b039060081c1690565b6001600160a01b031690565b966040519a8b998a9889986306045a9160e01b8a5260048a01610380565b03915afa90811561057d575f9161054e575b501561053f575f9060106102416041830192015f925b6010841061051d575050505050565b600160208181848295518a55019701938051865501930193019291909361050e565b630114602f60e41b5f5260045ffd5b610570915060203d602011610576575b6105688183610160565b810190610368565b5f6104f8565b503d61055e565b6103f2565b6105ab90610593610483600f61035a565b63177b002560e31b5f52600491909152602452604490565b5ffd5b63042eb0cf60e01b5f5260045ffd5b63c35f1ecd60e01b5f52600485905260245ffd5b5f5b601081106105e15750505f90565b80600f03600f811161060f57601081101561035557601001548214610608576001016105d3565b5050600190565b634e487b7160e01b5f52601160045260245ffdfea264697066735822122036f2615a3424eec80cbcd3631b632403636629e0ed2cdca64701d21bbf8754df64736f6c634300081c0033",
  "linkReferences": {},
  "deployedLinkReferences": {},
  "immutableReferences": {},
  "inputSourceName": "project/contracts/MinaStateSettlementExample.sol",
  "buildInfoId": "solc-0_8_28-fab654d708493f604a959d8b0e2231273192efce"
}