{"contracts/NoriTokenBridge.sol":{"NoriTokenBridge":{"abi":[{"inputs":[{"internalType":"address","name":"_stateSettlementAddr","type":"address"},{"internalType":"address","name":"_accountValidationAddr","type":"address"}],"stateMutability":"payable","type":"constructor"},{"anonymous":false,"inputs":[{"indexed":true,"internalType":"address","name":"user","type":"address"},{"indexed":false,"internalType":"uint256","name":"attestationHash","type":"uint256"},{"indexed":false,"internalType":"uint256","name":"amount","type":"uint256"},{"indexed":false,"internalType":"uint256","name":"when","type":"uint256"}],"name":"TokensLocked","type":"event"},{"anonymous":false,"inputs":[{"indexed":true,"internalType":"uint256","name":"pubKeyTokenIdHash","type":"uint256"},{"indexed":false,"internalType":"uint256","name":"amount","type":"uint256"},{"indexed":false,"internalType":"address","name":"receiver","type":"address"},{"indexed":false,"internalType":"uint256","name":"when","type":"uint256"}],"name":"TokensUnlocked","type":"event"},{"inputs":[],"name":"DECIMALS","outputs":[{"internalType":"uint8","name":"","type":"uint8"}],"stateMutability":"view","type":"function"},{"inputs":[],"name":"MAX_MAGNITUDE","outputs":[{"internalType":"uint64","name":"","type":"uint64"}],"stateMutability":"view","type":"function"},{"inputs":[],"name":"WEI_PER_BRIDGE_UNIT","outputs":[{"internalType":"uint256","name":"","type":"uint256"}],"stateMutability":"view","type":"function"},{"inputs":[],"name":"bridgeOperator","outputs":[{"internalType":"address","name":"","type":"address"}],"stateMutability":"view","type":"function"},{"inputs":[{"internalType":"uint256","name":"","type":"uint256"}],"name":"burnSoFarSet","outputs":[{"internalType":"uint256","name":"","type":"uint256"}],"stateMutability":"view","type":"function"},{"inputs":[{"internalType":"uint256","name":"","type":"uint256"}],"name":"codeChallengeToEthAddress","outputs":[{"internalType":"address","name":"","type":"address"}],"stateMutability":"view","type":"function"},{"inputs":[{"internalType":"uint256","name":"attestationHash","type":"uint256"}],"name":"lockTokens","outputs":[],"stateMutability":"payable","type":"function"},{"inputs":[{"internalType":"address","name":"","type":"address"},{"internalType":"uint256","name":"","type":"uint256"}],"name":"lockedTokens","outputs":[{"internalType":"uint256","name":"","type":"uint256"}],"stateMutability":"view","type":"function"},{"inputs":[],"name":"totalLocked","outputs":[{"internalType":"uint256","name":"","type":"uint256"}],"stateMutability":"view","type":"function"},{"inputs":[{"internalType":"uint256","name":"toUnlockAmount","type":"uint256"},{"internalType":"bytes32","name":"proofCommitment","type":"bytes32"},{"internalType":"bytes32","name":"provingSystemAuxDataCommitment","type":"bytes32"},{"internalType":"bytes20","name":"proofGeneratorAddr","type":"bytes20"},{"internalType":"bytes32","name":"batchMerkleRoot","type":"bytes32"},{"internalType":"bytes","name":"merkleProof","type":"bytes"},{"internalType":"uint256","name":"verificationDataBatchIndex","type":"uint256"},{"internalType":"bytes","name":"pubInput","type":"bytes"},{"internalType":"address","name":"batcherPaymentService","type":"address"}],"name":"unlockTokens","outputs":[],"stateMutability":"nonpayable","type":"function"},{"inputs":[],"name":"withdraw","outputs":[],"stateMutability":"nonpayable","type":"function"}],"evm":{"bytecode":{"linkReferences":{},"object":"6080601f61126238819003918201601f19168301916001600160401b038311848410176092578084926040948552833981010312608d576047602060418360a8565b920160a8565b60008054336001600160a01b031991821617909155600480546001600160a01b03948516908316179055600580549290931691161790556040516111a690816100bc8239f35b600080fd5b634e487b7160e01b600052604160045260246000fd5b51906001600160a01b0382168203608d5756fe608080604052600436101561001357600080fd5b600090813560e01c9081632e0f262514610f8f575080633471f65e14610f655780633ccfd60b14610e9457806353719b6e14610e4957806354506bb414610e165780635689141214610df8578063590665c214610dd15780636e27d88914610b83578063c58f219c14610b61578063ca430143146100be5763e7ece6901461009a57600080fd5b346100bb57806003193601126100bb5750602064e8d4a51000604051908152f35b80fd5b50346100bb576101203660031901126100bb57600435606435906bffffffffffffffffffffffff198216809203610b5d5760a4356001600160401b038111610b595761010e90369060040161104d565b60e4356001600160401b038111610a7e5736602382011215610a7e5780600401356001600160401b038111610a7a5760248201818301936024850196368811610a1257610104356001600160a01b03811692908390036109b457846020116109b4576024602060018060a01b036004541660405192838092633e16b01160e01b8252893560048301525afa908115610b4e578b91610b2f575b5015610af9576020926040516101bc81610faa565b60243581528481019160443583526040820194855261028660608301976084358952608084019586526101fa60a085019160c43583528b3691611002565b60c0850190815260e0850193845261026d60018060a01b0360055416976040519b8c9a8b998a99639029ad1560e01b8b528e60048c01525160248b01525160448a01526bffffffffffffffffffffffff1990511660648901525160848801525161010060a48801526101248701906110a6565b915160c4860152518482036023190160e48601526110a6565b90516001600160a01b031661010483015203915afa908115610aee578791610abf575b5015610a8257602811610a7e5760206027198284030112610a7e57604c810135906001600160401b038211610a7a57016024604b198284030101916103c08312610a7a576040519161016083018381106001600160401b03821117610a665760405261031886604c83016110f4565b83526020830193608c820135855260ac8201356001600160401b038111610a1257604c9083010187601f82011215610a12578781602061035a93359101611002565b604085015261036b60cc8301611123565b606085015261037c60ec8301611137565b608085015261010c82013560a085015261039a8761012c84016110f4565b60c085015261016c82013560e085015260a061013f198201126109a05760405160a081018181106001600160401b03821117610a52576040526101c091906103e561018c8501611123565b81526103f46101ac8501611137565b60208201526104066101cc8501611123565b60408201526104186101ec8501611137565b606082015261042a61020c8501611123565b60808201526101008601526101df1901126109ce576040516101c081018181106001600160401b03821117610a3e5760405261022c8201356005811015610a1257815261024c8201356005811015610a1257602082015261026c8201356005811015610a1257604082015261028c8201356005811015610a125760608201526102ac8201356005811015610a125760808201526102cc8201356005811015610a125760a08201526102ec8201356005811015610a125760c08201526104f261030c8301611137565b60e082015261032c8201356005811015610a125761010082015261034c8201356005811015610a125761012082015261036c8201356005811015610a125761014082015261038c8201356005811015610a12576101608201526103ac8201356005811015610a12576101808201526103cc8201356005811015610a12576101a08201526101208401526103ec810135906001600160401b0382116109a057602491604c910101809203019461096086126109ce576040519560e087018781106001600160401b03821117610a3e5760405281601f840112156109a057604051906105de61010083610fe1565b81610100850192848411610a3a5785905b848210610a2a575050885261074060ff19820112610a125760405191606083018381106001600160401b03821117610a16576040523560038110156109b45782526101208401359060038210156109b45761070091602084015261013f1901126109a05760405161065f81610faa565b8261015f85011215610a125760405161067960e082610fe1565b80610300860191858311610a0e576101408701905b8382106109f457505082528361031f860112156109b4576040516106b46101e082610fe1565b806106c08701928684116109f0578692915b8482106109d257505060208401526106dd91611148565b60408201526106f0836107008601611148565b6060820152610703836107408601611148565b6080820152610716836107808601611148565b60a0820152610729836107c08601611148565b60c082015261073c836108008601611148565b60e0820152604082015260208701526107586108408301611137565b60408701528061087f830112156109ce5760405161077760a082610fe1565b806109008401918383116109b4576108608501905b8382106109a457505060608801526107a390611137565b60808701526107b561092083016110e7565b60a08701526109408201356001600160401b0381116109a0576107d8920161104d565b60c085015261014081019384525190516040519060208083019380518552015115156040830152606082015260608152610813608082610fe1565b5190209182845260066020526040842054604082515101518181039080821161098c5782146109305783116108cd578261084c9161106b565b838552600660205260408520555151606001516001600160a01b03168382828282156108c4575b839283928392f1156108b9577fb9ca611be7435f3c6f1241086b057aa49a657c2888526894a9fc370e482b0afb916060916040519182526020820152426040820152a280f35b6040513d85823e3d90fd5b506108fc610873565b60405162461bcd60e51b815260206004820152603560248201527f546f20756e6c6f636b20616d6f756e742069732067726561746572207468616e6044820152742074686520616d6f756e7420746f20756e6c6f636b60581b6064820152608490fd5b60405162461bcd60e51b815260206004820152602e60248201527f4275726e20736f206661722069732067726561746572207468616e207468652060448201526d30b6b7bab73a103a3790313ab93760911b6064820152608490fd5b634e487b7160e01b87526011600452602487fd5b8780fd5b813581526020918201910161078c565b8980fd5b634e487b7160e01b600052604160045260246000fd5b8680fd5b6020906109e3839495604094611148565b81520191018692916106c6565b8c80fd5b6020604091610a038985611148565b81520191019061068e565b8b80fd5b8880fd5b634e487b7160e01b8b52604160045260248bfd5b81358152602091820191016105ef565b8a80fd5b634e487b7160e01b89526041600452602489fd5b634e487b7160e01b8a52604160045260248afd5b634e487b7160e01b88526041600452602488fd5b8580fd5b8480fd5b60405162461bcd60e51b8152602060048201526015602482015274125b9d985b1a5908169ad85c1c081058d8dbdd5b9d605a1b6044820152606490fd5b610ae1915060203d602011610ae7575b610ad98183610fe1565b81019061108e565b386102a9565b503d610acf565b6040513d89823e3d90fd5b60405162461bcd60e51b815260206004820152600e60248201526d24b73b30b634b2102632b233b2b960911b6044820152606490fd5b610b48915060203d602011610ae757610ad98183610fe1565b386101a7565b6040513d8d823e3d90fd5b8380fd5b8280fd5b50346100bb57806003193601126100bb5760206040516001600160401b038152f35b5060203660031901126100bb576004353415610d8d5764e8d4a5100091508134046000923406610d37576001600160401b03610bc18260025461106b565b11610ce657818352600360205260408320546001600160a01b031680610c6c575081835260036020526040832080546001600160a01b03191633179055610c2e905b33845260016020526040842083855260205260408420610c2434825461106b565b905560025461106b565b6002556040519081523460208201524260408201527f90e20a62e0f2a608d33bd96a4e15cb853006a15caf4455f373b7b55de520b68c60603392a280f35b3303610c7b57610c2e90610c03565b60405162461bcd60e51b815260206004820152603e60248201527f54686973204d696e61206163636f756e7420697320616c7265616479206c696e60448201527f6b656420746f206120646966666572656e7420455448206164647265737300006064820152608490fd5b60405162461bcd60e51b8152602060048201526024808201527f546f74616c206c6f636b65642065786365656473206d6178696d756d20616c6c6044820152631bddd95960e21b6064820152608490fd5b60405162461bcd60e51b815260206004820152602860248201527f4d757374206265206d756c7469706c65206f6620736d616c6c657374206272696044820152671919d9481d5b9a5d60c21b6064820152608490fd5b606460405162461bcd60e51b815260206004820152602060248201527f596f75206d7573742073656e6420736f6d6520457468657220746f206c6f636b6044820152fd5b50346100bb57806003193601126100bb57546040516001600160a01b039091168152602090f35b50346100bb57806003193601126100bb576020600254604051908152f35b50346100bb5760203660031901126100bb57602090600435815260038252604060018060a01b0391205416604051908152f35b50346100bb5760403660031901126100bb576004356001600160a01b03811690819003610e9057816040916020935260018352818120602435825283522054604051908152f35b5080fd5b50346100bb57806003193601126100bb5780546001600160a01b031633819003610f165747908115610edc5782808093819382f115610ed05780f35b604051903d90823e3d90fd5b60405162461bcd60e51b81526020600482015260126024820152714e6f2045544820746f20776974686472617760701b6044820152606490fd5b60405162461bcd60e51b815260206004820152602160248201527f4f6e6c7920627269646765206f70657261746f722063616e20776974686472616044820152607760f81b6064820152608490fd5b50346100bb5760203660031901126100bb5760406020916004358152600683522054604051908152f35b905034610e905781600319360112610e905780600660209252f35b61010081019081106001600160401b038211176109b857604052565b604081019081106001600160401b038211176109b857604052565b90601f801991011681019081106001600160401b038211176109b857604052565b9291926001600160401b0382116109b8576040519161102b601f8201601f191660200184610fe1565b829481845281830111611048578281602093846000960137010152565b600080fd5b9080601f830112156110485781602061106893359101611002565b90565b9190820180921161107857565b634e487b7160e01b600052601160045260246000fd5b90816020910312611048575180151581036110485790565b919082519283825260005b8481106110d2575050826000602080949584010152601f8019910116010190565b806020809284010151828286010152016110b1565b3590811515820361104857565b91908260409103126110485760405161110c81610fc6565b602061111e81839580358552016110e7565b910152565b35906001600160401b038216820361104857565b359063ffffffff8216820361104857565b91908260409103126110485760405161116081610fc6565b602080829480358452013591015256fea2646970667358221220657682280e67abc5ed58d11658b1324db07756ea20245a2fa06df3d82ae482f564736f6c634300081c0033","opcodes":"PUSH1 0x80 PUSH1 0x1F PUSH2 0x1262 CODESIZE DUP2 SWAP1 SUB SWAP2 DUP3 ADD PUSH1 0x1F NOT AND DUP4 ADD SWAP2 PUSH1 0x1 PUSH1 0x1 PUSH1 0x40 SHL SUB DUP4 GT DUP5 DUP5 LT OR PUSH1 0x92 JUMPI DUP1 DUP5 SWAP3 PUSH1 0x40 SWAP5 DUP6 MSTORE DUP4 CODECOPY DUP2 ADD SUB SLT PUSH1 0x8D JUMPI PUSH1 0x47 PUSH1 0x20 PUSH1 0x41 DUP4 PUSH1 0xA8 JUMP JUMPDEST SWAP3 ADD PUSH1 0xA8 JUMP JUMPDEST PUSH1 0x0 DUP1 SLOAD CALLER PUSH1 0x1 PUSH1 0x1 PUSH1 0xA0 SHL SUB NOT SWAP2 DUP3 AND OR SWAP1 SWAP2 SSTORE PUSH1 0x4 DUP1 SLOAD PUSH1 0x1 PUSH1 0x1 PUSH1 0xA0 SHL SUB SWAP5 DUP6 AND SWAP1 DUP4 AND OR SWAP1 SSTORE PUSH1 0x5 DUP1 SLOAD SWAP3 SWAP1 SWAP4 AND SWAP2 AND OR SWAP1 SSTORE PUSH1 0x40 MLOAD PUSH2 0x11A6 SWAP1 DUP2 PUSH2 0xBC DUP3 CODECOPY RETURN JUMPDEST PUSH1 0x0 DUP1 REVERT JUMPDEST PUSH4 0x4E487B71 PUSH1 0xE0 SHL PUSH1 0x0 MSTORE PUSH1 0x41 PUSH1 0x4 MSTORE PUSH1 0x24 PUSH1 0x0 REVERT JUMPDEST MLOAD SWAP1 PUSH1 0x1 PUSH1 0x1 PUSH1 0xA0 SHL SUB DUP3 AND DUP3 SUB PUSH1 0x8D JUMPI JUMP INVALID PUSH1 0x80 DUP1 PUSH1 0x40 MSTORE PUSH1 0x4 CALLDATASIZE LT ISZERO PUSH2 0x13 JUMPI PUSH1 0x0 DUP1 REVERT JUMPDEST PUSH1 0x0 SWAP1 DUP2 CALLDATALOAD PUSH1 0xE0 SHR SWAP1 DUP2 PUSH4 0x2E0F2625 EQ PUSH2 0xF8F JUMPI POP DUP1 PUSH4 0x3471F65E EQ PUSH2 0xF65 JUMPI DUP1 PUSH4 0x3CCFD60B EQ PUSH2 0xE94 JUMPI DUP1 PUSH4 0x53719B6E EQ PUSH2 0xE49 JUMPI DUP1 PUSH4 0x54506BB4 EQ PUSH2 0xE16 JUMPI DUP1 PUSH4 0x56891412 EQ PUSH2 0xDF8 JUMPI DUP1 PUSH4 0x590665C2 EQ PUSH2 0xDD1 JUMPI DUP1 PUSH4 0x6E27D889 EQ PUSH2 0xB83 JUMPI DUP1 PUSH4 0xC58F219C EQ PUSH2 0xB61 JUMPI DUP1 PUSH4 0xCA430143 EQ PUSH2 0xBE JUMPI PUSH4 0xE7ECE690 EQ PUSH2 0x9A JUMPI PUSH1 0x0 DUP1 REVERT JUMPDEST CALLVALUE PUSH2 0xBB JUMPI DUP1 PUSH1 0x3 NOT CALLDATASIZE ADD SLT PUSH2 0xBB JUMPI POP PUSH1 0x20 PUSH5 0xE8D4A51000 PUSH1 0x40 MLOAD SWAP1 DUP2 MSTORE RETURN JUMPDEST DUP1 REVERT JUMPDEST POP CALLVALUE PUSH2 0xBB JUMPI PUSH2 0x120 CALLDATASIZE PUSH1 0x3 NOT ADD SLT PUSH2 0xBB JUMPI PUSH1 0x4 CALLDATALOAD PUSH1 0x64 CALLDATALOAD SWAP1 PUSH12 0xFFFFFFFFFFFFFFFFFFFFFFFF NOT DUP3 AND DUP1 SWAP3 SUB PUSH2 0xB5D JUMPI PUSH1 0xA4 CALLDATALOAD PUSH1 0x1 PUSH1 0x1 PUSH1 0x40 SHL SUB DUP2 GT PUSH2 0xB59 JUMPI PUSH2 0x10E SWAP1 CALLDATASIZE SWAP1 PUSH1 0x4 ADD PUSH2 0x104D JUMP JUMPDEST PUSH1 0xE4 CALLDATALOAD PUSH1 0x1 PUSH1 0x1 PUSH1 0x40 SHL SUB DUP2 GT PUSH2 0xA7E JUMPI CALLDATASIZE PUSH1 0x23 DUP3 ADD SLT ISZERO PUSH2 0xA7E JUMPI DUP1 PUSH1 0x4 ADD CALLDATALOAD PUSH1 0x1 PUSH1 0x1 PUSH1 0x40 SHL SUB DUP2 GT PUSH2 0xA7A JUMPI PUSH1 0x24 DUP3 ADD DUP2 DUP4 ADD SWAP4 PUSH1 0x24 DUP6 ADD SWAP7 CALLDATASIZE DUP9 GT PUSH2 0xA12 JUMPI PUSH2 0x104 CALLDATALOAD PUSH1 0x1 PUSH1 0x1 PUSH1 0xA0 SHL SUB DUP2 AND SWAP3 SWAP1 DUP4 SWAP1 SUB PUSH2 0x9B4 JUMPI DUP5 PUSH1 0x20 GT PUSH2 0x9B4 JUMPI PUSH1 0x24 PUSH1 0x20 PUSH1 0x1 DUP1 PUSH1 0xA0 SHL SUB PUSH1 0x4 SLOAD AND PUSH1 0x40 MLOAD SWAP3 DUP4 DUP1 SWAP3 PUSH4 0x3E16B011 PUSH1 0xE0 SHL DUP3 MSTORE DUP10 CALLDATALOAD PUSH1 0x4 DUP4 ADD MSTORE GAS STATICCALL SWAP1 DUP2 ISZERO PUSH2 0xB4E JUMPI DUP12 SWAP2 PUSH2 0xB2F JUMPI JUMPDEST POP ISZERO PUSH2 0xAF9 JUMPI PUSH1 0x20 SWAP3 PUSH1 0x40 MLOAD PUSH2 0x1BC DUP2 PUSH2 0xFAA JUMP JUMPDEST PUSH1 0x24 CALLDATALOAD DUP2 MSTORE DUP5 DUP2 ADD SWAP2 PUSH1 0x44 CALLDATALOAD DUP4 MSTORE PUSH1 0x40 DUP3 ADD SWAP5 DUP6 MSTORE PUSH2 0x286 PUSH1 0x60 DUP4 ADD SWAP8 PUSH1 0x84 CALLDATALOAD DUP10 MSTORE PUSH1 0x80 DUP5 ADD SWAP6 DUP7 MSTORE PUSH2 0x1FA PUSH1 0xA0 DUP6 ADD SWAP2 PUSH1 0xC4 CALLDATALOAD DUP4 MSTORE DUP12 CALLDATASIZE SWAP2 PUSH2 0x1002 JUMP JUMPDEST PUSH1 0xC0 DUP6 ADD SWAP1 DUP2 MSTORE PUSH1 0xE0 DUP6 ADD SWAP4 DUP5 MSTORE PUSH2 0x26D PUSH1 0x1 DUP1 PUSH1 0xA0 SHL SUB PUSH1 0x5 SLOAD AND SWAP8 PUSH1 0x40 MLOAD SWAP12 DUP13 SWAP11 DUP12 SWAP10 DUP11 SWAP10 PUSH4 0x9029AD15 PUSH1 0xE0 SHL DUP12 MSTORE DUP15 PUSH1 0x4 DUP13 ADD MSTORE MLOAD PUSH1 0x24 DUP12 ADD MSTORE MLOAD PUSH1 0x44 DUP11 ADD MSTORE PUSH12 0xFFFFFFFFFFFFFFFFFFFFFFFF NOT SWAP1 MLOAD AND PUSH1 0x64 DUP10 ADD MSTORE MLOAD PUSH1 0x84 DUP9 ADD MSTORE MLOAD PUSH2 0x100 PUSH1 0xA4 DUP9 ADD MSTORE PUSH2 0x124 DUP8 ADD SWAP1 PUSH2 0x10A6 JUMP JUMPDEST SWAP2 MLOAD PUSH1 0xC4 DUP7 ADD MSTORE MLOAD DUP5 DUP3 SUB PUSH1 0x23 NOT ADD PUSH1 0xE4 DUP7 ADD MSTORE PUSH2 0x10A6 JUMP JUMPDEST SWAP1 MLOAD PUSH1 0x1 PUSH1 0x1 PUSH1 0xA0 SHL SUB AND PUSH2 0x104 DUP4 ADD MSTORE SUB SWAP2 GAS STATICCALL SWAP1 DUP2 ISZERO PUSH2 0xAEE JUMPI DUP8 SWAP2 PUSH2 0xABF JUMPI JUMPDEST POP ISZERO PUSH2 0xA82 JUMPI PUSH1 0x28 GT PUSH2 0xA7E JUMPI PUSH1 0x20 PUSH1 0x27 NOT DUP3 DUP5 SUB ADD SLT PUSH2 0xA7E JUMPI PUSH1 0x4C DUP2 ADD CALLDATALOAD SWAP1 PUSH1 0x1 PUSH1 0x1 PUSH1 0x40 SHL SUB DUP3 GT PUSH2 0xA7A JUMPI ADD PUSH1 0x24 PUSH1 0x4B NOT DUP3 DUP5 SUB ADD ADD SWAP2 PUSH2 0x3C0 DUP4 SLT PUSH2 0xA7A JUMPI PUSH1 0x40 MLOAD SWAP2 PUSH2 0x160 DUP4 ADD DUP4 DUP2 LT PUSH1 0x1 PUSH1 0x1 PUSH1 0x40 SHL SUB DUP3 GT OR PUSH2 0xA66 JUMPI PUSH1 0x40 MSTORE PUSH2 0x318 DUP7 PUSH1 0x4C DUP4 ADD PUSH2 0x10F4 JUMP JUMPDEST DUP4 MSTORE PUSH1 0x20 DUP4 ADD SWAP4 PUSH1 0x8C DUP3 ADD CALLDATALOAD DUP6 MSTORE PUSH1 0xAC DUP3 ADD CALLDATALOAD PUSH1 0x1 PUSH1 0x1 PUSH1 0x40 SHL SUB DUP2 GT PUSH2 0xA12 JUMPI PUSH1 0x4C SWAP1 DUP4 ADD ADD DUP8 PUSH1 0x1F DUP3 ADD SLT ISZERO PUSH2 0xA12 JUMPI DUP8 DUP2 PUSH1 0x20 PUSH2 0x35A SWAP4 CALLDATALOAD SWAP2 ADD PUSH2 0x1002 JUMP JUMPDEST PUSH1 0x40 DUP6 ADD MSTORE PUSH2 0x36B PUSH1 0xCC DUP4 ADD PUSH2 0x1123 JUMP JUMPDEST PUSH1 0x60 DUP6 ADD MSTORE PUSH2 0x37C PUSH1 0xEC DUP4 ADD PUSH2 0x1137 JUMP JUMPDEST PUSH1 0x80 DUP6 ADD MSTORE PUSH2 0x10C DUP3 ADD CALLDATALOAD PUSH1 0xA0 DUP6 ADD MSTORE PUSH2 0x39A DUP8 PUSH2 0x12C DUP5 ADD PUSH2 0x10F4 JUMP JUMPDEST PUSH1 0xC0 DUP6 ADD MSTORE PUSH2 0x16C DUP3 ADD CALLDATALOAD PUSH1 0xE0 DUP6 ADD MSTORE PUSH1 0xA0 PUSH2 0x13F NOT DUP3 ADD SLT PUSH2 0x9A0 JUMPI PUSH1 0x40 MLOAD PUSH1 0xA0 DUP2 ADD DUP2 DUP2 LT PUSH1 0x1 PUSH1 0x1 PUSH1 0x40 SHL SUB DUP3 GT OR PUSH2 0xA52 JUMPI PUSH1 0x40 MSTORE PUSH2 0x1C0 SWAP2 SWAP1 PUSH2 0x3E5 PUSH2 0x18C DUP6 ADD PUSH2 0x1123 JUMP JUMPDEST DUP2 MSTORE PUSH2 0x3F4 PUSH2 0x1AC DUP6 ADD PUSH2 0x1137 JUMP JUMPDEST PUSH1 0x20 DUP3 ADD MSTORE PUSH2 0x406 PUSH2 0x1CC DUP6 ADD PUSH2 0x1123 JUMP JUMPDEST PUSH1 0x40 DUP3 ADD MSTORE PUSH2 0x418 PUSH2 0x1EC DUP6 ADD PUSH2 0x1137 JUMP JUMPDEST PUSH1 0x60 DUP3 ADD MSTORE PUSH2 0x42A PUSH2 0x20C DUP6 ADD PUSH2 0x1123 JUMP JUMPDEST PUSH1 0x80 DUP3 ADD MSTORE PUSH2 0x100 DUP7 ADD MSTORE PUSH2 0x1DF NOT ADD SLT PUSH2 0x9CE JUMPI PUSH1 0x40 MLOAD PUSH2 0x1C0 DUP2 ADD DUP2 DUP2 LT PUSH1 0x1 PUSH1 0x1 PUSH1 0x40 SHL SUB DUP3 GT OR PUSH2 0xA3E JUMPI PUSH1 0x40 MSTORE PUSH2 0x22C DUP3 ADD CALLDATALOAD PUSH1 0x5 DUP2 LT ISZERO PUSH2 0xA12 JUMPI DUP2 MSTORE PUSH2 0x24C DUP3 ADD CALLDATALOAD PUSH1 0x5 DUP2 LT ISZERO PUSH2 0xA12 JUMPI PUSH1 0x20 DUP3 ADD MSTORE PUSH2 0x26C DUP3 ADD CALLDATALOAD PUSH1 0x5 DUP2 LT ISZERO PUSH2 0xA12 JUMPI PUSH1 0x40 DUP3 ADD MSTORE PUSH2 0x28C DUP3 ADD CALLDATALOAD PUSH1 0x5 DUP2 LT ISZERO PUSH2 0xA12 JUMPI PUSH1 0x60 DUP3 ADD MSTORE PUSH2 0x2AC DUP3 ADD CALLDATALOAD PUSH1 0x5 DUP2 LT ISZERO PUSH2 0xA12 JUMPI PUSH1 0x80 DUP3 ADD MSTORE PUSH2 0x2CC DUP3 ADD CALLDATALOAD PUSH1 0x5 DUP2 LT ISZERO PUSH2 0xA12 JUMPI PUSH1 0xA0 DUP3 ADD MSTORE PUSH2 0x2EC DUP3 ADD CALLDATALOAD PUSH1 0x5 DUP2 LT ISZERO PUSH2 0xA12 JUMPI PUSH1 0xC0 DUP3 ADD MSTORE PUSH2 0x4F2 PUSH2 0x30C DUP4 ADD PUSH2 0x1137 JUMP JUMPDEST PUSH1 0xE0 DUP3 ADD MSTORE PUSH2 0x32C DUP3 ADD CALLDATALOAD PUSH1 0x5 DUP2 LT ISZERO PUSH2 0xA12 JUMPI PUSH2 0x100 DUP3 ADD MSTORE PUSH2 0x34C DUP3 ADD CALLDATALOAD PUSH1 0x5 DUP2 LT ISZERO PUSH2 0xA12 JUMPI PUSH2 0x120 DUP3 ADD MSTORE PUSH2 0x36C DUP3 ADD CALLDATALOAD PUSH1 0x5 DUP2 LT ISZERO PUSH2 0xA12 JUMPI PUSH2 0x140 DUP3 ADD MSTORE PUSH2 0x38C DUP3 ADD CALLDATALOAD PUSH1 0x5 DUP2 LT ISZERO PUSH2 0xA12 JUMPI PUSH2 0x160 DUP3 ADD MSTORE PUSH2 0x3AC DUP3 ADD CALLDATALOAD PUSH1 0x5 DUP2 LT ISZERO PUSH2 0xA12 JUMPI PUSH2 0x180 DUP3 ADD MSTORE PUSH2 0x3CC DUP3 ADD CALLDATALOAD PUSH1 0x5 DUP2 LT ISZERO PUSH2 0xA12 JUMPI PUSH2 0x1A0 DUP3 ADD MSTORE PUSH2 0x120 DUP5 ADD MSTORE PUSH2 0x3EC DUP2 ADD CALLDATALOAD SWAP1 PUSH1 0x1 PUSH1 0x1 PUSH1 0x40 SHL SUB DUP3 GT PUSH2 0x9A0 JUMPI PUSH1 0x24 SWAP2 PUSH1 0x4C SWAP2 ADD ADD DUP1 SWAP3 SUB ADD SWAP5 PUSH2 0x960 DUP7 SLT PUSH2 0x9CE JUMPI PUSH1 0x40 MLOAD SWAP6 PUSH1 0xE0 DUP8 ADD DUP8 DUP2 LT PUSH1 0x1 PUSH1 0x1 PUSH1 0x40 SHL SUB DUP3 GT OR PUSH2 0xA3E JUMPI PUSH1 0x40 MSTORE DUP2 PUSH1 0x1F DUP5 ADD SLT ISZERO PUSH2 0x9A0 JUMPI PUSH1 0x40 MLOAD SWAP1 PUSH2 0x5DE PUSH2 0x100 DUP4 PUSH2 0xFE1 JUMP JUMPDEST DUP2 PUSH2 0x100 DUP6 ADD SWAP3 DUP5 DUP5 GT PUSH2 0xA3A JUMPI DUP6 SWAP1 JUMPDEST DUP5 DUP3 LT PUSH2 0xA2A JUMPI POP POP DUP9 MSTORE PUSH2 0x740 PUSH1 0xFF NOT DUP3 ADD SLT PUSH2 0xA12 JUMPI PUSH1 0x40 MLOAD SWAP2 PUSH1 0x60 DUP4 ADD DUP4 DUP2 LT PUSH1 0x1 PUSH1 0x1 PUSH1 0x40 SHL SUB DUP3 GT OR PUSH2 0xA16 JUMPI PUSH1 0x40 MSTORE CALLDATALOAD PUSH1 0x3 DUP2 LT ISZERO PUSH2 0x9B4 JUMPI DUP3 MSTORE PUSH2 0x120 DUP5 ADD CALLDATALOAD SWAP1 PUSH1 0x3 DUP3 LT ISZERO PUSH2 0x9B4 JUMPI PUSH2 0x700 SWAP2 PUSH1 0x20 DUP5 ADD MSTORE PUSH2 0x13F NOT ADD SLT PUSH2 0x9A0 JUMPI PUSH1 0x40 MLOAD PUSH2 0x65F DUP2 PUSH2 0xFAA JUMP JUMPDEST DUP3 PUSH2 0x15F DUP6 ADD SLT ISZERO PUSH2 0xA12 JUMPI PUSH1 0x40 MLOAD PUSH2 0x679 PUSH1 0xE0 DUP3 PUSH2 0xFE1 JUMP JUMPDEST DUP1 PUSH2 0x300 DUP7 ADD SWAP2 DUP6 DUP4 GT PUSH2 0xA0E JUMPI PUSH2 0x140 DUP8 ADD SWAP1 JUMPDEST DUP4 DUP3 LT PUSH2 0x9F4 JUMPI POP POP DUP3 MSTORE DUP4 PUSH2 0x31F DUP7 ADD SLT ISZERO PUSH2 0x9B4 JUMPI PUSH1 0x40 MLOAD PUSH2 0x6B4 PUSH2 0x1E0 DUP3 PUSH2 0xFE1 JUMP JUMPDEST DUP1 PUSH2 0x6C0 DUP8 ADD SWAP3 DUP7 DUP5 GT PUSH2 0x9F0 JUMPI DUP7 SWAP3 SWAP2 JUMPDEST DUP5 DUP3 LT PUSH2 0x9D2 JUMPI POP POP PUSH1 0x20 DUP5 ADD MSTORE PUSH2 0x6DD SWAP2 PUSH2 0x1148 JUMP JUMPDEST PUSH1 0x40 DUP3 ADD MSTORE PUSH2 0x6F0 DUP4 PUSH2 0x700 DUP7 ADD PUSH2 0x1148 JUMP JUMPDEST PUSH1 0x60 DUP3 ADD MSTORE PUSH2 0x703 DUP4 PUSH2 0x740 DUP7 ADD PUSH2 0x1148 JUMP JUMPDEST PUSH1 0x80 DUP3 ADD MSTORE PUSH2 0x716 DUP4 PUSH2 0x780 DUP7 ADD PUSH2 0x1148 JUMP JUMPDEST PUSH1 0xA0 DUP3 ADD MSTORE PUSH2 0x729 DUP4 PUSH2 0x7C0 DUP7 ADD PUSH2 0x1148 JUMP JUMPDEST PUSH1 0xC0 DUP3 ADD MSTORE PUSH2 0x73C DUP4 PUSH2 0x800 DUP7 ADD PUSH2 0x1148 JUMP JUMPDEST PUSH1 0xE0 DUP3 ADD MSTORE PUSH1 0x40 DUP3 ADD MSTORE PUSH1 0x20 DUP8 ADD MSTORE PUSH2 0x758 PUSH2 0x840 DUP4 ADD PUSH2 0x1137 JUMP JUMPDEST PUSH1 0x40 DUP8 ADD MSTORE DUP1 PUSH2 0x87F DUP4 ADD SLT ISZERO PUSH2 0x9CE JUMPI PUSH1 0x40 MLOAD PUSH2 0x777 PUSH1 0xA0 DUP3 PUSH2 0xFE1 JUMP JUMPDEST DUP1 PUSH2 0x900 DUP5 ADD SWAP2 DUP4 DUP4 GT PUSH2 0x9B4 JUMPI PUSH2 0x860 DUP6 ADD SWAP1 JUMPDEST DUP4 DUP3 LT PUSH2 0x9A4 JUMPI POP POP PUSH1 0x60 DUP9 ADD MSTORE PUSH2 0x7A3 SWAP1 PUSH2 0x1137 JUMP JUMPDEST PUSH1 0x80 DUP8 ADD MSTORE PUSH2 0x7B5 PUSH2 0x920 DUP4 ADD PUSH2 0x10E7 JUMP JUMPDEST PUSH1 0xA0 DUP8 ADD MSTORE PUSH2 0x940 DUP3 ADD CALLDATALOAD PUSH1 0x1 PUSH1 0x1 PUSH1 0x40 SHL SUB DUP2 GT PUSH2 0x9A0 JUMPI PUSH2 0x7D8 SWAP3 ADD PUSH2 0x104D JUMP JUMPDEST PUSH1 0xC0 DUP6 ADD MSTORE PUSH2 0x140 DUP2 ADD SWAP4 DUP5 MSTORE MLOAD SWAP1 MLOAD PUSH1 0x40 MLOAD SWAP1 PUSH1 0x20 DUP1 DUP4 ADD SWAP4 DUP1 MLOAD DUP6 MSTORE ADD MLOAD ISZERO ISZERO PUSH1 0x40 DUP4 ADD MSTORE PUSH1 0x60 DUP3 ADD MSTORE PUSH1 0x60 DUP2 MSTORE PUSH2 0x813 PUSH1 0x80 DUP3 PUSH2 0xFE1 JUMP JUMPDEST MLOAD SWAP1 KECCAK256 SWAP2 DUP3 DUP5 MSTORE PUSH1 0x6 PUSH1 0x20 MSTORE PUSH1 0x40 DUP5 KECCAK256 SLOAD PUSH1 0x40 DUP3 MLOAD MLOAD ADD MLOAD DUP2 DUP2 SUB SWAP1 DUP1 DUP3 GT PUSH2 0x98C JUMPI DUP3 EQ PUSH2 0x930 JUMPI DUP4 GT PUSH2 0x8CD JUMPI DUP3 PUSH2 0x84C SWAP2 PUSH2 0x106B JUMP JUMPDEST DUP4 DUP6 MSTORE PUSH1 0x6 PUSH1 0x20 MSTORE PUSH1 0x40 DUP6 KECCAK256 SSTORE MLOAD MLOAD PUSH1 0x60 ADD MLOAD PUSH1 0x1 PUSH1 0x1 PUSH1 0xA0 SHL SUB AND DUP4 DUP3 DUP3 DUP3 DUP3 ISZERO PUSH2 0x8C4 JUMPI JUMPDEST DUP4 SWAP3 DUP4 SWAP3 DUP4 SWAP3 CALL ISZERO PUSH2 0x8B9 JUMPI PUSH32 0xB9CA611BE7435F3C6F1241086B057AA49A657C2888526894A9FC370E482B0AFB SWAP2 PUSH1 0x60 SWAP2 PUSH1 0x40 MLOAD SWAP2 DUP3 MSTORE PUSH1 0x20 DUP3 ADD MSTORE TIMESTAMP PUSH1 0x40 DUP3 ADD MSTORE LOG2 DUP1 RETURN JUMPDEST PUSH1 0x40 MLOAD RETURNDATASIZE DUP6 DUP3 RETURNDATACOPY RETURNDATASIZE SWAP1 REVERT JUMPDEST POP PUSH2 0x8FC PUSH2 0x873 JUMP JUMPDEST PUSH1 0x40 MLOAD PUSH3 0x461BCD PUSH1 0xE5 SHL DUP2 MSTORE PUSH1 0x20 PUSH1 0x4 DUP3 ADD MSTORE PUSH1 0x35 PUSH1 0x24 DUP3 ADD MSTORE PUSH32 0x546F20756E6C6F636B20616D6F756E742069732067726561746572207468616E PUSH1 0x44 DUP3 ADD MSTORE PUSH21 0x2074686520616D6F756E7420746F20756E6C6F636B PUSH1 0x58 SHL PUSH1 0x64 DUP3 ADD MSTORE PUSH1 0x84 SWAP1 REVERT JUMPDEST PUSH1 0x40 MLOAD PUSH3 0x461BCD PUSH1 0xE5 SHL DUP2 MSTORE PUSH1 0x20 PUSH1 0x4 DUP3 ADD MSTORE PUSH1 0x2E PUSH1 0x24 DUP3 ADD MSTORE PUSH32 0x4275726E20736F206661722069732067726561746572207468616E2074686520 PUSH1 0x44 DUP3 ADD MSTORE PUSH14 0x30B6B7BAB73A103A3790313AB937 PUSH1 0x91 SHL PUSH1 0x64 DUP3 ADD MSTORE PUSH1 0x84 SWAP1 REVERT JUMPDEST PUSH4 0x4E487B71 PUSH1 0xE0 SHL DUP8 MSTORE PUSH1 0x11 PUSH1 0x4 MSTORE PUSH1 0x24 DUP8 REVERT JUMPDEST DUP8 DUP1 REVERT JUMPDEST DUP2 CALLDATALOAD DUP2 MSTORE PUSH1 0x20 SWAP2 DUP3 ADD SWAP2 ADD PUSH2 0x78C JUMP JUMPDEST DUP10 DUP1 REVERT JUMPDEST PUSH4 0x4E487B71 PUSH1 0xE0 SHL PUSH1 0x0 MSTORE PUSH1 0x41 PUSH1 0x4 MSTORE PUSH1 0x24 PUSH1 0x0 REVERT JUMPDEST DUP7 DUP1 REVERT JUMPDEST PUSH1 0x20 SWAP1 PUSH2 0x9E3 DUP4 SWAP5 SWAP6 PUSH1 0x40 SWAP5 PUSH2 0x1148 JUMP JUMPDEST DUP2 MSTORE ADD SWAP2 ADD DUP7 SWAP3 SWAP2 PUSH2 0x6C6 JUMP JUMPDEST DUP13 DUP1 REVERT JUMPDEST PUSH1 0x20 PUSH1 0x40 SWAP2 PUSH2 0xA03 DUP10 DUP6 PUSH2 0x1148 JUMP JUMPDEST DUP2 MSTORE ADD SWAP2 ADD SWAP1 PUSH2 0x68E JUMP JUMPDEST DUP12 DUP1 REVERT JUMPDEST DUP9 DUP1 REVERT JUMPDEST PUSH4 0x4E487B71 PUSH1 0xE0 SHL DUP12 MSTORE PUSH1 0x41 PUSH1 0x4 MSTORE PUSH1 0x24 DUP12 REVERT JUMPDEST DUP2 CALLDATALOAD DUP2 MSTORE PUSH1 0x20 SWAP2 DUP3 ADD SWAP2 ADD PUSH2 0x5EF JUMP JUMPDEST DUP11 DUP1 REVERT JUMPDEST PUSH4 0x4E487B71 PUSH1 0xE0 SHL DUP10 MSTORE PUSH1 0x41 PUSH1 0x4 MSTORE PUSH1 0x24 DUP10 REVERT JUMPDEST PUSH4 0x4E487B71 PUSH1 0xE0 SHL DUP11 MSTORE PUSH1 0x41 PUSH1 0x4 MSTORE PUSH1 0x24 DUP11 REVERT JUMPDEST PUSH4 0x4E487B71 PUSH1 0xE0 SHL DUP9 MSTORE PUSH1 0x41 PUSH1 0x4 MSTORE PUSH1 0x24 DUP9 REVERT JUMPDEST DUP6 DUP1 REVERT JUMPDEST DUP5 DUP1 REVERT JUMPDEST PUSH1 0x40 MLOAD PUSH3 0x461BCD PUSH1 0xE5 SHL DUP2 MSTORE PUSH1 0x20 PUSH1 0x4 DUP3 ADD MSTORE PUSH1 0x15 PUSH1 0x24 DUP3 ADD MSTORE PUSH21 0x125B9D985B1A5908169AD85C1C081058D8DBDD5B9D PUSH1 0x5A SHL PUSH1 0x44 DUP3 ADD MSTORE PUSH1 0x64 SWAP1 REVERT JUMPDEST PUSH2 0xAE1 SWAP2 POP PUSH1 0x20 RETURNDATASIZE PUSH1 0x20 GT PUSH2 0xAE7 JUMPI JUMPDEST PUSH2 0xAD9 DUP2 DUP4 PUSH2 0xFE1 JUMP JUMPDEST DUP2 ADD SWAP1 PUSH2 0x108E JUMP JUMPDEST CODESIZE PUSH2 0x2A9 JUMP JUMPDEST POP RETURNDATASIZE PUSH2 0xACF JUMP JUMPDEST PUSH1 0x40 MLOAD RETURNDATASIZE DUP10 DUP3 RETURNDATACOPY RETURNDATASIZE SWAP1 REVERT JUMPDEST PUSH1 0x40 MLOAD PUSH3 0x461BCD PUSH1 0xE5 SHL DUP2 MSTORE PUSH1 0x20 PUSH1 0x4 DUP3 ADD MSTORE PUSH1 0xE PUSH1 0x24 DUP3 ADD MSTORE PUSH14 0x24B73B30B634B2102632B233B2B9 PUSH1 0x91 SHL PUSH1 0x44 DUP3 ADD MSTORE PUSH1 0x64 SWAP1 REVERT JUMPDEST PUSH2 0xB48 SWAP2 POP PUSH1 0x20 RETURNDATASIZE PUSH1 0x20 GT PUSH2 0xAE7 JUMPI PUSH2 0xAD9 DUP2 DUP4 PUSH2 0xFE1 JUMP JUMPDEST CODESIZE PUSH2 0x1A7 JUMP JUMPDEST PUSH1 0x40 MLOAD RETURNDATASIZE DUP14 DUP3 RETURNDATACOPY RETURNDATASIZE SWAP1 REVERT JUMPDEST DUP4 DUP1 REVERT JUMPDEST DUP3 DUP1 REVERT JUMPDEST POP CALLVALUE PUSH2 0xBB JUMPI DUP1 PUSH1 0x3 NOT CALLDATASIZE ADD SLT PUSH2 0xBB JUMPI PUSH1 0x20 PUSH1 0x40 MLOAD PUSH1 0x1 PUSH1 0x1 PUSH1 0x40 SHL SUB DUP2 MSTORE RETURN JUMPDEST POP PUSH1 0x20 CALLDATASIZE PUSH1 0x3 NOT ADD SLT PUSH2 0xBB JUMPI PUSH1 0x4 CALLDATALOAD CALLVALUE ISZERO PUSH2 0xD8D JUMPI PUSH5 0xE8D4A51000 SWAP2 POP DUP2 CALLVALUE DIV PUSH1 0x0 SWAP3 CALLVALUE MOD PUSH2 0xD37 JUMPI PUSH1 0x1 PUSH1 0x1 PUSH1 0x40 SHL SUB PUSH2 0xBC1 DUP3 PUSH1 0x2 SLOAD PUSH2 0x106B JUMP JUMPDEST GT PUSH2 0xCE6 JUMPI DUP2 DUP4 MSTORE PUSH1 0x3 PUSH1 0x20 MSTORE PUSH1 0x40 DUP4 KECCAK256 SLOAD PUSH1 0x1 PUSH1 0x1 PUSH1 0xA0 SHL SUB AND DUP1 PUSH2 0xC6C JUMPI POP DUP2 DUP4 MSTORE PUSH1 0x3 PUSH1 0x20 MSTORE PUSH1 0x40 DUP4 KECCAK256 DUP1 SLOAD PUSH1 0x1 PUSH1 0x1 PUSH1 0xA0 SHL SUB NOT AND CALLER OR SWAP1 SSTORE PUSH2 0xC2E SWAP1 JUMPDEST CALLER DUP5 MSTORE PUSH1 0x1 PUSH1 0x20 MSTORE PUSH1 0x40 DUP5 KECCAK256 DUP4 DUP6 MSTORE PUSH1 0x20 MSTORE PUSH1 0x40 DUP5 KECCAK256 PUSH2 0xC24 CALLVALUE DUP3 SLOAD PUSH2 0x106B JUMP JUMPDEST SWAP1 SSTORE PUSH1 0x2 SLOAD PUSH2 0x106B JUMP JUMPDEST PUSH1 0x2 SSTORE PUSH1 0x40 MLOAD SWAP1 DUP2 MSTORE CALLVALUE PUSH1 0x20 DUP3 ADD MSTORE TIMESTAMP PUSH1 0x40 DUP3 ADD MSTORE PUSH32 0x90E20A62E0F2A608D33BD96A4E15CB853006A15CAF4455F373B7B55DE520B68C PUSH1 0x60 CALLER SWAP3 LOG2 DUP1 RETURN JUMPDEST CALLER SUB PUSH2 0xC7B JUMPI PUSH2 0xC2E SWAP1 PUSH2 0xC03 JUMP JUMPDEST PUSH1 0x40 MLOAD PUSH3 0x461BCD PUSH1 0xE5 SHL DUP2 MSTORE PUSH1 0x20 PUSH1 0x4 DUP3 ADD MSTORE PUSH1 0x3E PUSH1 0x24 DUP3 ADD MSTORE PUSH32 0x54686973204D696E61206163636F756E7420697320616C7265616479206C696E PUSH1 0x44 DUP3 ADD MSTORE PUSH32 0x6B656420746F206120646966666572656E742045544820616464726573730000 PUSH1 0x64 DUP3 ADD MSTORE PUSH1 0x84 SWAP1 REVERT JUMPDEST PUSH1 0x40 MLOAD PUSH3 0x461BCD PUSH1 0xE5 SHL DUP2 MSTORE PUSH1 0x20 PUSH1 0x4 DUP3 ADD MSTORE PUSH1 0x24 DUP1 DUP3 ADD MSTORE PUSH32 0x546F74616C206C6F636B65642065786365656473206D6178696D756D20616C6C PUSH1 0x44 DUP3 ADD MSTORE PUSH4 0x1BDDD959 PUSH1 0xE2 SHL PUSH1 0x64 DUP3 ADD MSTORE PUSH1 0x84 SWAP1 REVERT JUMPDEST PUSH1 0x40 MLOAD PUSH3 0x461BCD PUSH1 0xE5 SHL DUP2 MSTORE PUSH1 0x20 PUSH1 0x4 DUP3 ADD MSTORE PUSH1 0x28 PUSH1 0x24 DUP3 ADD MSTORE PUSH32 0x4D757374206265206D756C7469706C65206F6620736D616C6C65737420627269 PUSH1 0x44 DUP3 ADD MSTORE PUSH8 0x1919D9481D5B9A5D PUSH1 0xC2 SHL PUSH1 0x64 DUP3 ADD MSTORE PUSH1 0x84 SWAP1 REVERT JUMPDEST PUSH1 0x64 PUSH1 0x40 MLOAD PUSH3 0x461BCD PUSH1 0xE5 SHL DUP2 MSTORE PUSH1 0x20 PUSH1 0x4 DUP3 ADD MSTORE PUSH1 0x20 PUSH1 0x24 DUP3 ADD MSTORE PUSH32 0x596F75206D7573742073656E6420736F6D6520457468657220746F206C6F636B PUSH1 0x44 DUP3 ADD MSTORE REVERT JUMPDEST POP CALLVALUE PUSH2 0xBB JUMPI DUP1 PUSH1 0x3 NOT CALLDATASIZE ADD SLT PUSH2 0xBB JUMPI SLOAD PUSH1 0x40 MLOAD PUSH1 0x1 PUSH1 0x1 PUSH1 0xA0 SHL SUB SWAP1 SWAP2 AND DUP2 MSTORE PUSH1 0x20 SWAP1 RETURN JUMPDEST POP CALLVALUE PUSH2 0xBB JUMPI DUP1 PUSH1 0x3 NOT CALLDATASIZE ADD SLT PUSH2 0xBB JUMPI PUSH1 0x20 PUSH1 0x2 SLOAD PUSH1 0x40 MLOAD SWAP1 DUP2 MSTORE RETURN JUMPDEST POP CALLVALUE PUSH2 0xBB JUMPI PUSH1 0x20 CALLDATASIZE PUSH1 0x3 NOT ADD SLT PUSH2 0xBB JUMPI PUSH1 0x20 SWAP1 PUSH1 0x4 CALLDATALOAD DUP2 MSTORE PUSH1 0x3 DUP3 MSTORE PUSH1 0x40 PUSH1 0x1 DUP1 PUSH1 0xA0 SHL SUB SWAP2 KECCAK256 SLOAD AND PUSH1 0x40 MLOAD SWAP1 DUP2 MSTORE RETURN JUMPDEST POP CALLVALUE PUSH2 0xBB JUMPI PUSH1 0x40 CALLDATASIZE PUSH1 0x3 NOT ADD SLT PUSH2 0xBB JUMPI PUSH1 0x4 CALLDATALOAD PUSH1 0x1 PUSH1 0x1 PUSH1 0xA0 SHL SUB DUP2 AND SWAP1 DUP2 SWAP1 SUB PUSH2 0xE90 JUMPI DUP2 PUSH1 0x40 SWAP2 PUSH1 0x20 SWAP4 MSTORE PUSH1 0x1 DUP4 MSTORE DUP2 DUP2 KECCAK256 PUSH1 0x24 CALLDATALOAD DUP3 MSTORE DUP4 MSTORE KECCAK256 SLOAD PUSH1 0x40 MLOAD SWAP1 DUP2 MSTORE RETURN JUMPDEST POP DUP1 REVERT JUMPDEST POP CALLVALUE PUSH2 0xBB JUMPI DUP1 PUSH1 0x3 NOT CALLDATASIZE ADD SLT PUSH2 0xBB JUMPI DUP1 SLOAD PUSH1 0x1 PUSH1 0x1 PUSH1 0xA0 SHL SUB AND CALLER DUP2 SWAP1 SUB PUSH2 0xF16 JUMPI SELFBALANCE SWAP1 DUP2 ISZERO PUSH2 0xEDC JUMPI DUP3 DUP1 DUP1 SWAP4 DUP2 SWAP4 DUP3 CALL ISZERO PUSH2 0xED0 JUMPI DUP1 RETURN JUMPDEST PUSH1 0x40 MLOAD SWAP1 RETURNDATASIZE SWAP1 DUP3 RETURNDATACOPY RETURNDATASIZE SWAP1 REVERT JUMPDEST PUSH1 0x40 MLOAD PUSH3 0x461BCD PUSH1 0xE5 SHL DUP2 MSTORE PUSH1 0x20 PUSH1 0x4 DUP3 ADD MSTORE PUSH1 0x12 PUSH1 0x24 DUP3 ADD MSTORE PUSH18 0x4E6F2045544820746F207769746864726177 PUSH1 0x70 SHL PUSH1 0x44 DUP3 ADD MSTORE PUSH1 0x64 SWAP1 REVERT JUMPDEST PUSH1 0x40 MLOAD PUSH3 0x461BCD PUSH1 0xE5 SHL DUP2 MSTORE PUSH1 0x20 PUSH1 0x4 DUP3 ADD MSTORE PUSH1 0x21 PUSH1 0x24 DUP3 ADD MSTORE PUSH32 0x4F6E6C7920627269646765206F70657261746F722063616E2077697468647261 PUSH1 0x44 DUP3 ADD MSTORE PUSH1 0x77 PUSH1 0xF8 SHL PUSH1 0x64 DUP3 ADD MSTORE PUSH1 0x84 SWAP1 REVERT JUMPDEST POP CALLVALUE PUSH2 0xBB JUMPI PUSH1 0x20 CALLDATASIZE PUSH1 0x3 NOT ADD SLT PUSH2 0xBB JUMPI PUSH1 0x40 PUSH1 0x20 SWAP2 PUSH1 0x4 CALLDATALOAD DUP2 MSTORE PUSH1 0x6 DUP4 MSTORE KECCAK256 SLOAD PUSH1 0x40 MLOAD SWAP1 DUP2 MSTORE RETURN JUMPDEST SWAP1 POP CALLVALUE PUSH2 0xE90 JUMPI DUP2 PUSH1 0x3 NOT CALLDATASIZE ADD SLT PUSH2 0xE90 JUMPI DUP1 PUSH1 0x6 PUSH1 0x20 SWAP3 MSTORE RETURN JUMPDEST PUSH2 0x100 DUP2 ADD SWAP1 DUP2 LT PUSH1 0x1 PUSH1 0x1 PUSH1 0x40 SHL SUB DUP3 GT OR PUSH2 0x9B8 JUMPI PUSH1 0x40 MSTORE JUMP JUMPDEST PUSH1 0x40 DUP2 ADD SWAP1 DUP2 LT PUSH1 0x1 PUSH1 0x1 PUSH1 0x40 SHL SUB DUP3 GT OR PUSH2 0x9B8 JUMPI PUSH1 0x40 MSTORE JUMP JUMPDEST SWAP1 PUSH1 0x1F DUP1 NOT SWAP2 ADD AND DUP2 ADD SWAP1 DUP2 LT PUSH1 0x1 PUSH1 0x1 PUSH1 0x40 SHL SUB DUP3 GT OR PUSH2 0x9B8 JUMPI PUSH1 0x40 MSTORE JUMP JUMPDEST SWAP3 SWAP2 SWAP3 PUSH1 0x1 PUSH1 0x1 PUSH1 0x40 SHL SUB DUP3 GT PUSH2 0x9B8 JUMPI PUSH1 0x40 MLOAD SWAP2 PUSH2 0x102B PUSH1 0x1F DUP3 ADD PUSH1 0x1F NOT AND PUSH1 0x20 ADD DUP5 PUSH2 0xFE1 JUMP JUMPDEST DUP3 SWAP5 DUP2 DUP5 MSTORE DUP2 DUP4 ADD GT PUSH2 0x1048 JUMPI DUP3 DUP2 PUSH1 0x20 SWAP4 DUP5 PUSH1 0x0 SWAP7 ADD CALLDATACOPY ADD ADD MSTORE JUMP JUMPDEST PUSH1 0x0 DUP1 REVERT JUMPDEST SWAP1 DUP1 PUSH1 0x1F DUP4 ADD SLT ISZERO PUSH2 0x1048 JUMPI DUP2 PUSH1 0x20 PUSH2 0x1068 SWAP4 CALLDATALOAD SWAP2 ADD PUSH2 0x1002 JUMP JUMPDEST SWAP1 JUMP JUMPDEST SWAP2 SWAP1 DUP3 ADD DUP1 SWAP3 GT PUSH2 0x1078 JUMPI JUMP JUMPDEST PUSH4 0x4E487B71 PUSH1 0xE0 SHL PUSH1 0x0 MSTORE PUSH1 0x11 PUSH1 0x4 MSTORE PUSH1 0x24 PUSH1 0x0 REVERT JUMPDEST SWAP1 DUP2 PUSH1 0x20 SWAP2 SUB SLT PUSH2 0x1048 JUMPI MLOAD DUP1 ISZERO ISZERO DUP2 SUB PUSH2 0x1048 JUMPI SWAP1 JUMP JUMPDEST SWAP2 SWAP1 DUP3 MLOAD SWAP3 DUP4 DUP3 MSTORE PUSH1 0x0 JUMPDEST DUP5 DUP2 LT PUSH2 0x10D2 JUMPI POP POP DUP3 PUSH1 0x0 PUSH1 0x20 DUP1 SWAP5 SWAP6 DUP5 ADD ADD MSTORE PUSH1 0x1F DUP1 NOT SWAP2 ADD AND ADD ADD SWAP1 JUMP JUMPDEST DUP1 PUSH1 0x20 DUP1 SWAP3 DUP5 ADD ADD MLOAD DUP3 DUP3 DUP7 ADD ADD MSTORE ADD PUSH2 0x10B1 JUMP JUMPDEST CALLDATALOAD SWAP1 DUP2 ISZERO ISZERO DUP3 SUB PUSH2 0x1048 JUMPI JUMP JUMPDEST SWAP2 SWAP1 DUP3 PUSH1 0x40 SWAP2 SUB SLT PUSH2 0x1048 JUMPI PUSH1 0x40 MLOAD PUSH2 0x110C DUP2 PUSH2 0xFC6 JUMP JUMPDEST PUSH1 0x20 PUSH2 0x111E DUP2 DUP4 SWAP6 DUP1 CALLDATALOAD DUP6 MSTORE ADD PUSH2 0x10E7 JUMP JUMPDEST SWAP2 ADD MSTORE JUMP JUMPDEST CALLDATALOAD SWAP1 PUSH1 0x1 PUSH1 0x1 PUSH1 0x40 SHL SUB DUP3 AND DUP3 SUB PUSH2 0x1048 JUMPI JUMP JUMPDEST CALLDATALOAD SWAP1 PUSH4 0xFFFFFFFF DUP3 AND DUP3 SUB PUSH2 0x1048 JUMPI JUMP JUMPDEST SWAP2 SWAP1 DUP3 PUSH1 0x40 SWAP2 SUB SLT PUSH2 0x1048 JUMPI PUSH1 0x40 MLOAD PUSH2 0x1160 DUP2 PUSH2 0xFC6 JUMP JUMPDEST PUSH1 0x20 DUP1 DUP3 SWAP5 DUP1 CALLDATALOAD DUP5 MSTORE ADD CALLDATALOAD SWAP2 ADD MSTORE JUMP INVALID LOG2 PUSH5 0x6970667358 0x22 SLT KECCAK256 PUSH6 0x7682280E67AB 0xC5 0xED PC 0xD1 AND PC 0xB1 ORIGIN 0x4D 0xB0 PUSH24 0x56EA20245A2FA06DF3D82AE482F564736F6C634300081C00 CALLER "},"methodIdentifiers":{"DECIMALS()":"2e0f2625","MAX_MAGNITUDE()":"c58f219c","WEI_PER_BRIDGE_UNIT()":"e7ece690","bridgeOperator()":"590665c2","burnSoFarSet(uint256)":"3471f65e","codeChallengeToEthAddress(uint256)":"54506bb4","lockTokens(uint256)":"6e27d889","lockedTokens(address,uint256)":"53719b6e","totalLocked()":"56891412","unlockTokens(uint256,bytes32,bytes32,bytes20,bytes32,bytes,uint256,bytes,address)":"ca430143","withdraw()":"3ccfd60b"}}}}}