{"contracts/MinaAccountValidationExample.sol":{"MinaAccountValidationExample":{"abi":[{"inputs":[{"internalType":"address payable","name":"_alignedServiceAddr","type":"address"}],"stateMutability":"nonpayable","type":"constructor"},{"inputs":[{"internalType":"bytes32","name":"","type":"bytes32"}],"name":"MinaAccountProvingSystemIdIsNotValid","type":"error"},{"inputs":[{"components":[{"internalType":"bytes32","name":"proofCommitment","type":"bytes32"},{"internalType":"bytes32","name":"provingSystemAuxDataCommitment","type":"bytes32"},{"internalType":"bytes20","name":"proofGeneratorAddr","type":"bytes20"},{"internalType":"bytes32","name":"batchMerkleRoot","type":"bytes32"},{"internalType":"bytes","name":"merkleProof","type":"bytes"},{"internalType":"uint256","name":"verificationDataBatchIndex","type":"uint256"},{"internalType":"bytes","name":"pubInput","type":"bytes"},{"internalType":"address","name":"batcherPaymentService","type":"address"}],"internalType":"struct MinaAccountValidationExample.AlignedArgs","name":"args","type":"tuple"}],"name":"validateAccount","outputs":[{"internalType":"bool","name":"","type":"bool"}],"stateMutability":"view","type":"function"},{"inputs":[{"components":[{"internalType":"bytes32","name":"proofCommitment","type":"bytes32"},{"internalType":"bytes32","name":"provingSystemAuxDataCommitment","type":"bytes32"},{"internalType":"bytes20","name":"proofGeneratorAddr","type":"bytes20"},{"internalType":"bytes32","name":"batchMerkleRoot","type":"bytes32"},{"internalType":"bytes","name":"merkleProof","type":"bytes"},{"internalType":"uint256","name":"verificationDataBatchIndex","type":"uint256"},{"internalType":"bytes","name":"pubInput","type":"bytes"},{"internalType":"address","name":"batcherPaymentService","type":"address"}],"internalType":"struct MinaAccountValidationExample.AlignedArgs","name":"args","type":"tuple"}],"name":"validateAccountAndReturn","outputs":[{"components":[{"components":[{"internalType":"bytes32","name":"x","type":"bytes32"},{"internalType":"bool","name":"isOdd","type":"bool"}],"internalType":"struct MinaAccountValidationExample.CompressedECPoint","name":"publicKey","type":"tuple"},{"internalType":"bytes32","name":"tokenIdKeyHash","type":"bytes32"},{"internalType":"string","name":"tokenSymbol","type":"string"},{"internalType":"uint64","name":"balance","type":"uint64"},{"internalType":"uint32","name":"nonce","type":"uint32"},{"internalType":"bytes32","name":"receiptChainHash","type":"bytes32"},{"components":[{"internalType":"bytes32","name":"x","type":"bytes32"},{"internalType":"bool","name":"isOdd","type":"bool"}],"internalType":"struct MinaAccountValidationExample.CompressedECPoint","name":"delegate","type":"tuple"},{"internalType":"bytes32","name":"votingFor","type":"bytes32"},{"components":[{"internalType":"uint64","name":"initialMinimumBalance","type":"uint64"},{"internalType":"uint32","name":"cliffTime","type":"uint32"},{"internalType":"uint64","name":"cliffAmount","type":"uint64"},{"internalType":"uint32","name":"vestingPeriod","type":"uint32"},{"internalType":"uint64","name":"vestingIncrement","type":"uint64"}],"internalType":"struct MinaAccountValidationExample.Timing","name":"timing","type":"tuple"},{"components":[{"internalType":"enum MinaAccountValidationExample.AuthRequired","name":"editState","type":"uint8"},{"internalType":"enum MinaAccountValidationExample.AuthRequired","name":"access","type":"uint8"},{"internalType":"enum MinaAccountValidationExample.AuthRequired","name":"send","type":"uint8"},{"internalType":"enum MinaAccountValidationExample.AuthRequired","name":"rreceive","type":"uint8"},{"internalType":"enum MinaAccountValidationExample.AuthRequired","name":"setDelegate","type":"uint8"},{"internalType":"enum MinaAccountValidationExample.AuthRequired","name":"setPermissions","type":"uint8"},{"internalType":"enum MinaAccountValidationExample.AuthRequired","name":"setVerificationKeyAuth","type":"uint8"},{"internalType":"uint32","name":"setVerificationKeyUint","type":"uint32"},{"internalType":"enum MinaAccountValidationExample.AuthRequired","name":"setZkappUri","type":"uint8"},{"internalType":"enum MinaAccountValidationExample.AuthRequired","name":"editActionState","type":"uint8"},{"internalType":"enum MinaAccountValidationExample.AuthRequired","name":"setTokenSymbol","type":"uint8"},{"internalType":"enum MinaAccountValidationExample.AuthRequired","name":"incrementNonce","type":"uint8"},{"internalType":"enum MinaAccountValidationExample.AuthRequired","name":"setVotingFor","type":"uint8"},{"internalType":"enum MinaAccountValidationExample.AuthRequired","name":"setTiming","type":"uint8"}],"internalType":"struct MinaAccountValidationExample.Permissions","name":"permissions","type":"tuple"},{"components":[{"internalType":"bytes32[8]","name":"appState","type":"bytes32[8]"},{"components":[{"internalType":"enum MinaAccountValidationExample.ProofsVerified","name":"maxProofsVerified","type":"uint8"},{"internalType":"enum MinaAccountValidationExample.ProofsVerified","name":"actualWrapDomainSize","type":"uint8"},{"components":[{"components":[{"internalType":"bytes32","name":"x","type":"bytes32"},{"internalType":"bytes32","name":"y","type":"bytes32"}],"internalType":"struct MinaAccountValidationExample.Commitment[7]","name":"sigmaComm","type":"tuple[7]"},{"components":[{"internalType":"bytes32","name":"x","type":"bytes32"},{"internalType":"bytes32","name":"y","type":"bytes32"}],"internalType":"struct MinaAccountValidationExample.Commitment[15]","name":"coefficientsComm","type":"tuple[15]"},{"components":[{"internalType":"bytes32","name":"x","type":"bytes32"},{"internalType":"bytes32","name":"y","type":"bytes32"}],"internalType":"struct MinaAccountValidationExample.Commitment","name":"genericComm","type":"tuple"},{"components":[{"internalType":"bytes32","name":"x","type":"bytes32"},{"internalType":"bytes32","name":"y","type":"bytes32"}],"internalType":"struct MinaAccountValidationExample.Commitment","name":"psmComm","type":"tuple"},{"components":[{"internalType":"bytes32","name":"x","type":"bytes32"},{"internalType":"bytes32","name":"y","type":"bytes32"}],"internalType":"struct MinaAccountValidationExample.Commitment","name":"completeAddComm","type":"tuple"},{"components":[{"internalType":"bytes32","name":"x","type":"bytes32"},{"internalType":"bytes32","name":"y","type":"bytes32"}],"internalType":"struct MinaAccountValidationExample.Commitment","name":"mulComm","type":"tuple"},{"components":[{"internalType":"bytes32","name":"x","type":"bytes32"},{"internalType":"bytes32","name":"y","type":"bytes32"}],"internalType":"struct MinaAccountValidationExample.Commitment","name":"emulComm","type":"tuple"},{"components":[{"internalType":"bytes32","name":"x","type":"bytes32"},{"internalType":"bytes32","name":"y","type":"bytes32"}],"internalType":"struct MinaAccountValidationExample.Commitment","name":"endomulScalarComm","type":"tuple"}],"internalType":"struct MinaAccountValidationExample.WrapIndex","name":"wrapIndex","type":"tuple"}],"internalType":"struct MinaAccountValidationExample.VerificationKey","name":"verificationKey","type":"tuple"},{"internalType":"uint32","name":"zkappVersion","type":"uint32"},{"internalType":"bytes32[5]","name":"actionState","type":"bytes32[5]"},{"internalType":"uint32","name":"lastActionSlot","type":"uint32"},{"internalType":"bool","name":"provedState","type":"bool"},{"internalType":"bytes","name":"zkappUri","type":"bytes"}],"internalType":"struct MinaAccountValidationExample.ZkappAccount","name":"zkapp","type":"tuple"}],"internalType":"struct MinaAccountValidationExample.Account","name":"","type":"tuple"}],"stateMutability":"view","type":"function"}],"evm":{"bytecode":{"linkReferences":{},"object":"608034607057601f61127d38819003918201601f19168301916001600160401b03831184841017607557808492602094604052833981010312607057516001600160a01b03811690819003607057600080546001600160a01b0319169190911790556040516111f1908161008c8239f35b600080fd5b634e487b7160e01b600052604160045260246000fdfe6080604052600436101561001257600080fd5b60003560e01c80639029ad151461044c5763c64787131461003257600080fd5b346104475761004861004336610578565b6108fc565b60405180916020825261006b602083018251602080918051845201511515910152565b6020810151606083015261014061009360408301516103c060808601526103e08501906105ac565b916001600160401b0360608201511660a085015263ffffffff60808201511660c085015260a081015160e08501526100e060c0820151610100860190602080918051845201511515910152565b60e0810151828501526001600160401b0360806101008301518281511661016088015263ffffffff602082015116610180880152826040820151166101a088015263ffffffff6060820151166101c08801520151166101e08501526102486101a0610120830151610156610200880182516105ed565b61016960208201516102208901906105ed565b61017c60408201516102408901906105ed565b61018f60608201516102608901906105ed565b6101a260808201516102808901906105ed565b6101b560a08201516102a08901906105ed565b6101c860c08201516102c08901906105ed565b63ffffffff60e0820151166102e08801526101ed6101008201516103008901906105ed565b6102016101208201516103208901906105ed565b610213858201516103408901906105ed565b6102276101608201516103608901906105ed565b61023b6101808201516103808901906105ed565b01516103a08601906105ed565b0151828203601f19016103c084015280516000835b6008821061042d575050506040602082015161027e61010085018251610610565b6102916020820151610120860190610610565b01518051600061014085015b600782106103f9575050506020810151600061030085015b600f82106103c55750505060e081602060408194015180516106c088015201516106e086015282606082015180516107008801520151610720860152826080820151805161074088015201516107608601528260a0820151805161078088015201516107a08601528260c082015180516107c088015201516107e086015201518051610800850152015161082083015263ffffffff604082015116610840830152606081015161086083016000905b600582106103ab57505050608081015163ffffffff1661090083015260a0810151151561092083015260c0015161096061094083018190526103a79201906105ac565b0390f35b825181528695506020928301926001929092019101610364565b8293949596506103eb602091600193945190602060409280518352015160208201520190565b9301910186959493926102b5565b82939495965061041f602091600193945190602060409280518352015160208201520190565b93019101869594939261029d565b82518152869550602092830192600192909201910161025d565b600080fd5b346104475761045a36610578565b6020810135907fee2a4bc7db81da2b7164e56b3649b1e2a09c58c455b15dabddd9146c7582cebc820361056357806104a161049a60c0602094018361061d565b3691610746565b8281519101209260018060a01b0360005416906104c06040840161078c565b9061050a6104d1608086018661061d565b90976104df60e088016107a6565b91604051998a98899788976306045a9160e01b895260a0830135956060840135933560048b016107d2565b03915afa80156105575760209160009161052a575b506040519015158152f35b61054a9150823d8411610550575b6105428183610725565b8101906107ba565b8261051f565b503d610538565b6040513d6000823e3d90fd5b5063060bd7bf60e21b60005260045260246000fd5b602060031982011261044757600435906001600160401b038211610447576101009082900360031901126104475760040190565b919082519283825260005b8481106105d8575050826000602080949584010152601f8019910116010190565b806020809284010151828286010152016105b7565b9060058210156105fa5752565b634e487b7160e01b600052602160045260246000fd5b9060038210156105fa5752565b903590601e198136030182121561044757018035906001600160401b0382116104475760200191813603831361044757565b604081019081106001600160401b0382111761066a57604052565b634e487b7160e01b600052604160045260246000fd5b61016081019081106001600160401b0382111761066a57604052565b60a081019081106001600160401b0382111761066a57604052565b6101c081019081106001600160401b0382111761066a57604052565b60e081019081106001600160401b0382111761066a57604052565b606081019081106001600160401b0382111761066a57604052565b61010081019081106001600160401b0382111761066a57604052565b90601f801991011681019081106001600160401b0382111761066a57604052565b9291926001600160401b03821161066a576040519161076f601f8201601f191660200184610725565b829481845281830111610447578281602093846000960137010152565b356bffffffffffffffffffffffff19811681036104475790565b356001600160a01b03811681036104475790565b90816020910312610447575180151581036104475790565b97999895919387949360e0989461012097938b5260208b015260408a01526bffffffffffffffffffffffff19166060890152608088015261010060a088015281610100880152838701376000828287010152601f80199101168401019460c084015260018060a01b0316910152565b60005b82811061085057505050565b60209060405161085f8161064f565b600081526000838201528184015201610844565b3590811515820361044757565b9190826040910312610447576040516108988161064f565b60206108aa8183958035855201610873565b910152565b35906001600160401b038216820361044757565b359063ffffffff8216820361044757565b9190826040910312610447576040516108ec8161064f565b6020808294803584520135910152565b6040519061090982610680565b6040516109158161064f565b6000815260006020820152825260006020830152606060408301526000606083015260006080830152600060a08301526040516109518161064f565b600081526000602082015260c0830152600060e08301526040516109748161069c565b60008152600060208201526000604082015260006060820152600060808201526101008301526040516109a6816106b7565b6000815260006020820152600060408201526000606082015260006080820152600060a0820152600060c0820152600060e08201526000610100820152600061012082015260006101408201526000610160820152600061018082015260006101a082015261012083015260405190610a1e826106d3565b61010090604051610a2f8382610725565b82368237835260405192610a42846106ee565b600084526000602085015260405193610a5a85610709565b60e094604051610a6a8782610725565b610a748782610841565b8152604051610a8f6101e0610a898184610725565b82610841565b6020820152604051610aa08161064f565b60008152600060208201526040820152604051610abc8161064f565b60008152600060208201526060820152604051610ad88161064f565b60008152600060208201526080820152604051610af48161064f565b600081526000602082015260a0820152604051610b108161064f565b600081526000602082015260c0820152604051610b2c8161064f565b600081526000602082015286820152604082015260208201526000604082015261014060a095604051610b5f8882610725565b87368237606084015260006080840152600087840152606060c0840152015260208101357fee2a4bc7db81da2b7164e56b3649b1e2a09c58c455b15dabddd9146c7582cebc81036111a75781602060c0820192610bbf61049a858561061d565b8281519101209060018060a01b03600054169089610c278a610be36040890161078c565b95610bfe610bf460808b018b61061d565b9190938b016107a6565b926040519a8b998a9889986306045a9160e01b8a52830135956060840135933560048b016107d2565b03915afa90811561055757600091611188575b501561044757610c499161061d565b806028939293116104475782019160208184036027190112610447576028810135906001600160401b03821161044757018083036027190194906103c086126104475760405195610c9987610680565b610ca68560288401610880565b87526068820135602088015260888201356001600160401b0381116104475760289083010185601f820112156104475785816020610ce693359101610746565b6040880152610cf760a883016108af565b6060880152610d0860c883016108c3565b608088015260e882013583880152610d24856101088401610880565b60c0880152610148820135868801528261013f19820112610447576101c090604051610d4f8161069c565b610d5c61016885016108af565b8152610d6b61018885016108c3565b6020820152610d7d6101a885016108af565b6040820152610d8f6101c885016108c3565b6060820152610da16101e885016108af565b6080820152888601526101df19011261044757604051610dc0816106b7565b610208820135600581101561044757815261022882013560058110156104475760208201526102488201356005811015610447576040820152610268820135600581101561044757606082015261028882013560058110156104475760808201526102a8820135600581101561044757838201526102c882013560058110156104475760c0820152610e556102e883016108c3565b86820152610308820135600581101561044757848201526103288201356005811015610447576101208201526103488201356005811015610447576101408201526103688201356005811015610447576101608201526103888201356005811015610447576101808201526103a88201356005811015610447576101a08201526101208701526103c88101356001600160401b038111610447576028910101918284039461096086126104475760405195610f0f876106d3565b85601f8601121561044757604051610f2961010082610725565b80938601938785116104475786905b858210611178575050875261074060ff198201126104475760405192610f5d846106ee565b3560038110156104475783526101208501359060038210156104475761070091602085015261013f1901126104475760405190610f9982610709565b8561015f8601121561044757604051610fb360e082610725565b80610300870191888311610447576101408801905b83821061115e57505083528661031f8701121561044757604051610fee6101e082610725565b806106c0880192898411610447578992915b8482106111405750506020850152611017916108d4565b604083015261102a8661070087016108d4565b606083015261103d8661074087016108d4565b60808301526110508661078087016108d4565b84830152611062866107c087016108d4565b60c08301526110758661080087016108d4565b908201526040820152602085015261109061084083016108c3565b60408501528261087f83011215610447576040516110af60a082610725565b80610900840191858311610447576108608501905b83821061113057505060608601526110db906108c3565b60808501526110ed6109208301610873565b90840152610940810135906001600160401b03821161044757019080601f830112156104475781602061112293359101610746565b60c082015261014082015290565b81358152602091820191016110c4565b6020906111518394956040946108d4565b8152019101899291611000565b602060409161116d8c856108d4565b815201910190610fc8565b8135815260209182019101610f38565b6111a1915060203d602011610550576105428183610725565b38610c3a565b63060bd7bf60e21b60005260045260246000fdfea2646970667358221220c1241275104de87da742c529311e09f70e759123a4636eb3bc59ed216253452764736f6c634300081c0033","opcodes":"PUSH1 0x80 CALLVALUE PUSH1 0x70 JUMPI PUSH1 0x1F PUSH2 0x127D CODESIZE DUP2 SWAP1 SUB SWAP2 DUP3 ADD PUSH1 0x1F NOT AND DUP4 ADD SWAP2 PUSH1 0x1 PUSH1 0x1 PUSH1 0x40 SHL SUB DUP4 GT DUP5 DUP5 LT OR PUSH1 0x75 JUMPI DUP1 DUP5 SWAP3 PUSH1 0x20 SWAP5 PUSH1 0x40 MSTORE DUP4 CODECOPY DUP2 ADD SUB SLT PUSH1 0x70 JUMPI MLOAD PUSH1 0x1 PUSH1 0x1 PUSH1 0xA0 SHL SUB DUP2 AND SWAP1 DUP2 SWAP1 SUB PUSH1 0x70 JUMPI PUSH1 0x0 DUP1 SLOAD PUSH1 0x1 PUSH1 0x1 PUSH1 0xA0 SHL SUB NOT AND SWAP2 SWAP1 SWAP2 OR SWAP1 SSTORE PUSH1 0x40 MLOAD PUSH2 0x11F1 SWAP1 DUP2 PUSH2 0x8C DUP3 CODECOPY RETURN JUMPDEST PUSH1 0x0 DUP1 REVERT JUMPDEST PUSH4 0x4E487B71 PUSH1 0xE0 SHL PUSH1 0x0 MSTORE PUSH1 0x41 PUSH1 0x4 MSTORE PUSH1 0x24 PUSH1 0x0 REVERT INVALID PUSH1 0x80 PUSH1 0x40 MSTORE PUSH1 0x4 CALLDATASIZE LT ISZERO PUSH2 0x12 JUMPI PUSH1 0x0 DUP1 REVERT JUMPDEST PUSH1 0x0 CALLDATALOAD PUSH1 0xE0 SHR DUP1 PUSH4 0x9029AD15 EQ PUSH2 0x44C JUMPI PUSH4 0xC6478713 EQ PUSH2 0x32 JUMPI PUSH1 0x0 DUP1 REVERT JUMPDEST CALLVALUE PUSH2 0x447 JUMPI PUSH2 0x48 PUSH2 0x43 CALLDATASIZE PUSH2 0x578 JUMP JUMPDEST PUSH2 0x8FC JUMP JUMPDEST PUSH1 0x40 MLOAD DUP1 SWAP2 PUSH1 0x20 DUP3 MSTORE PUSH2 0x6B PUSH1 0x20 DUP4 ADD DUP3 MLOAD PUSH1 0x20 DUP1 SWAP2 DUP1 MLOAD DUP5 MSTORE ADD MLOAD ISZERO ISZERO SWAP2 ADD MSTORE JUMP JUMPDEST PUSH1 0x20 DUP2 ADD MLOAD PUSH1 0x60 DUP4 ADD MSTORE PUSH2 0x140 PUSH2 0x93 PUSH1 0x40 DUP4 ADD MLOAD PUSH2 0x3C0 PUSH1 0x80 DUP7 ADD MSTORE PUSH2 0x3E0 DUP6 ADD SWAP1 PUSH2 0x5AC JUMP JUMPDEST SWAP2 PUSH1 0x1 PUSH1 0x1 PUSH1 0x40 SHL SUB PUSH1 0x60 DUP3 ADD MLOAD AND PUSH1 0xA0 DUP6 ADD MSTORE PUSH4 0xFFFFFFFF PUSH1 0x80 DUP3 ADD MLOAD AND PUSH1 0xC0 DUP6 ADD MSTORE PUSH1 0xA0 DUP2 ADD MLOAD PUSH1 0xE0 DUP6 ADD MSTORE PUSH2 0xE0 PUSH1 0xC0 DUP3 ADD MLOAD PUSH2 0x100 DUP7 ADD SWAP1 PUSH1 0x20 DUP1 SWAP2 DUP1 MLOAD DUP5 MSTORE ADD MLOAD ISZERO ISZERO SWAP2 ADD MSTORE JUMP JUMPDEST PUSH1 0xE0 DUP2 ADD MLOAD DUP3 DUP6 ADD MSTORE PUSH1 0x1 PUSH1 0x1 PUSH1 0x40 SHL SUB PUSH1 0x80 PUSH2 0x100 DUP4 ADD MLOAD DUP3 DUP2 MLOAD AND PUSH2 0x160 DUP9 ADD MSTORE PUSH4 0xFFFFFFFF PUSH1 0x20 DUP3 ADD MLOAD AND PUSH2 0x180 DUP9 ADD MSTORE DUP3 PUSH1 0x40 DUP3 ADD MLOAD AND PUSH2 0x1A0 DUP9 ADD MSTORE PUSH4 0xFFFFFFFF PUSH1 0x60 DUP3 ADD MLOAD AND PUSH2 0x1C0 DUP9 ADD MSTORE ADD MLOAD AND PUSH2 0x1E0 DUP6 ADD MSTORE PUSH2 0x248 PUSH2 0x1A0 PUSH2 0x120 DUP4 ADD MLOAD PUSH2 0x156 PUSH2 0x200 DUP9 ADD DUP3 MLOAD PUSH2 0x5ED JUMP JUMPDEST PUSH2 0x169 PUSH1 0x20 DUP3 ADD MLOAD PUSH2 0x220 DUP10 ADD SWAP1 PUSH2 0x5ED JUMP JUMPDEST PUSH2 0x17C PUSH1 0x40 DUP3 ADD MLOAD PUSH2 0x240 DUP10 ADD SWAP1 PUSH2 0x5ED JUMP JUMPDEST PUSH2 0x18F PUSH1 0x60 DUP3 ADD MLOAD PUSH2 0x260 DUP10 ADD SWAP1 PUSH2 0x5ED JUMP JUMPDEST PUSH2 0x1A2 PUSH1 0x80 DUP3 ADD MLOAD PUSH2 0x280 DUP10 ADD SWAP1 PUSH2 0x5ED JUMP JUMPDEST PUSH2 0x1B5 PUSH1 0xA0 DUP3 ADD MLOAD PUSH2 0x2A0 DUP10 ADD SWAP1 PUSH2 0x5ED JUMP JUMPDEST PUSH2 0x1C8 PUSH1 0xC0 DUP3 ADD MLOAD PUSH2 0x2C0 DUP10 ADD SWAP1 PUSH2 0x5ED JUMP JUMPDEST PUSH4 0xFFFFFFFF PUSH1 0xE0 DUP3 ADD MLOAD AND PUSH2 0x2E0 DUP9 ADD MSTORE PUSH2 0x1ED PUSH2 0x100 DUP3 ADD MLOAD PUSH2 0x300 DUP10 ADD SWAP1 PUSH2 0x5ED JUMP JUMPDEST PUSH2 0x201 PUSH2 0x120 DUP3 ADD MLOAD PUSH2 0x320 DUP10 ADD SWAP1 PUSH2 0x5ED JUMP JUMPDEST PUSH2 0x213 DUP6 DUP3 ADD MLOAD PUSH2 0x340 DUP10 ADD SWAP1 PUSH2 0x5ED JUMP JUMPDEST PUSH2 0x227 PUSH2 0x160 DUP3 ADD MLOAD PUSH2 0x360 DUP10 ADD SWAP1 PUSH2 0x5ED JUMP JUMPDEST PUSH2 0x23B PUSH2 0x180 DUP3 ADD MLOAD PUSH2 0x380 DUP10 ADD SWAP1 PUSH2 0x5ED JUMP JUMPDEST ADD MLOAD PUSH2 0x3A0 DUP7 ADD SWAP1 PUSH2 0x5ED JUMP JUMPDEST ADD MLOAD DUP3 DUP3 SUB PUSH1 0x1F NOT ADD PUSH2 0x3C0 DUP5 ADD MSTORE DUP1 MLOAD PUSH1 0x0 DUP4 JUMPDEST PUSH1 0x8 DUP3 LT PUSH2 0x42D JUMPI POP POP POP PUSH1 0x40 PUSH1 0x20 DUP3 ADD MLOAD PUSH2 0x27E PUSH2 0x100 DUP6 ADD DUP3 MLOAD PUSH2 0x610 JUMP JUMPDEST PUSH2 0x291 PUSH1 0x20 DUP3 ADD MLOAD PUSH2 0x120 DUP7 ADD SWAP1 PUSH2 0x610 JUMP JUMPDEST ADD MLOAD DUP1 MLOAD PUSH1 0x0 PUSH2 0x140 DUP6 ADD JUMPDEST PUSH1 0x7 DUP3 LT PUSH2 0x3F9 JUMPI POP POP POP PUSH1 0x20 DUP2 ADD MLOAD PUSH1 0x0 PUSH2 0x300 DUP6 ADD JUMPDEST PUSH1 0xF DUP3 LT PUSH2 0x3C5 JUMPI POP POP POP PUSH1 0xE0 DUP2 PUSH1 0x20 PUSH1 0x40 DUP2 SWAP5 ADD MLOAD DUP1 MLOAD PUSH2 0x6C0 DUP9 ADD MSTORE ADD MLOAD PUSH2 0x6E0 DUP7 ADD MSTORE DUP3 PUSH1 0x60 DUP3 ADD MLOAD DUP1 MLOAD PUSH2 0x700 DUP9 ADD MSTORE ADD MLOAD PUSH2 0x720 DUP7 ADD MSTORE DUP3 PUSH1 0x80 DUP3 ADD MLOAD DUP1 MLOAD PUSH2 0x740 DUP9 ADD MSTORE ADD MLOAD PUSH2 0x760 DUP7 ADD MSTORE DUP3 PUSH1 0xA0 DUP3 ADD MLOAD DUP1 MLOAD PUSH2 0x780 DUP9 ADD MSTORE ADD MLOAD PUSH2 0x7A0 DUP7 ADD MSTORE DUP3 PUSH1 0xC0 DUP3 ADD MLOAD DUP1 MLOAD PUSH2 0x7C0 DUP9 ADD MSTORE ADD MLOAD PUSH2 0x7E0 DUP7 ADD MSTORE ADD MLOAD DUP1 MLOAD PUSH2 0x800 DUP6 ADD MSTORE ADD MLOAD PUSH2 0x820 DUP4 ADD MSTORE PUSH4 0xFFFFFFFF PUSH1 0x40 DUP3 ADD MLOAD AND PUSH2 0x840 DUP4 ADD MSTORE PUSH1 0x60 DUP2 ADD MLOAD PUSH2 0x860 DUP4 ADD PUSH1 0x0 SWAP1 JUMPDEST PUSH1 0x5 DUP3 LT PUSH2 0x3AB JUMPI POP POP POP PUSH1 0x80 DUP2 ADD MLOAD PUSH4 0xFFFFFFFF AND PUSH2 0x900 DUP4 ADD MSTORE PUSH1 0xA0 DUP2 ADD MLOAD ISZERO ISZERO PUSH2 0x920 DUP4 ADD MSTORE PUSH1 0xC0 ADD MLOAD PUSH2 0x960 PUSH2 0x940 DUP4 ADD DUP2 SWAP1 MSTORE PUSH2 0x3A7 SWAP3 ADD SWAP1 PUSH2 0x5AC JUMP JUMPDEST SUB SWAP1 RETURN JUMPDEST DUP3 MLOAD DUP2 MSTORE DUP7 SWAP6 POP PUSH1 0x20 SWAP3 DUP4 ADD SWAP3 PUSH1 0x1 SWAP3 SWAP1 SWAP3 ADD SWAP2 ADD PUSH2 0x364 JUMP JUMPDEST DUP3 SWAP4 SWAP5 SWAP6 SWAP7 POP PUSH2 0x3EB PUSH1 0x20 SWAP2 PUSH1 0x1 SWAP4 SWAP5 MLOAD SWAP1 PUSH1 0x20 PUSH1 0x40 SWAP3 DUP1 MLOAD DUP4 MSTORE ADD MLOAD PUSH1 0x20 DUP3 ADD MSTORE ADD SWAP1 JUMP JUMPDEST SWAP4 ADD SWAP2 ADD DUP7 SWAP6 SWAP5 SWAP4 SWAP3 PUSH2 0x2B5 JUMP JUMPDEST DUP3 SWAP4 SWAP5 SWAP6 SWAP7 POP PUSH2 0x41F PUSH1 0x20 SWAP2 PUSH1 0x1 SWAP4 SWAP5 MLOAD SWAP1 PUSH1 0x20 PUSH1 0x40 SWAP3 DUP1 MLOAD DUP4 MSTORE ADD MLOAD PUSH1 0x20 DUP3 ADD MSTORE ADD SWAP1 JUMP JUMPDEST SWAP4 ADD SWAP2 ADD DUP7 SWAP6 SWAP5 SWAP4 SWAP3 PUSH2 0x29D JUMP JUMPDEST DUP3 MLOAD DUP2 MSTORE DUP7 SWAP6 POP PUSH1 0x20 SWAP3 DUP4 ADD SWAP3 PUSH1 0x1 SWAP3 SWAP1 SWAP3 ADD SWAP2 ADD PUSH2 0x25D JUMP JUMPDEST PUSH1 0x0 DUP1 REVERT JUMPDEST CALLVALUE PUSH2 0x447 JUMPI PUSH2 0x45A CALLDATASIZE PUSH2 0x578 JUMP JUMPDEST PUSH1 0x20 DUP2 ADD CALLDATALOAD SWAP1 PUSH32 0xEE2A4BC7DB81DA2B7164E56B3649B1E2A09C58C455B15DABDDD9146C7582CEBC DUP3 SUB PUSH2 0x563 JUMPI DUP1 PUSH2 0x4A1 PUSH2 0x49A PUSH1 0xC0 PUSH1 0x20 SWAP5 ADD DUP4 PUSH2 0x61D JUMP JUMPDEST CALLDATASIZE SWAP2 PUSH2 0x746 JUMP JUMPDEST DUP3 DUP2 MLOAD SWAP2 ADD KECCAK256 SWAP3 PUSH1 0x1 DUP1 PUSH1 0xA0 SHL SUB PUSH1 0x0 SLOAD AND SWAP1 PUSH2 0x4C0 PUSH1 0x40 DUP5 ADD PUSH2 0x78C JUMP JUMPDEST SWAP1 PUSH2 0x50A PUSH2 0x4D1 PUSH1 0x80 DUP7 ADD DUP7 PUSH2 0x61D JUMP JUMPDEST SWAP1 SWAP8 PUSH2 0x4DF PUSH1 0xE0 DUP9 ADD PUSH2 0x7A6 JUMP JUMPDEST SWAP2 PUSH1 0x40 MLOAD SWAP10 DUP11 SWAP9 DUP10 SWAP8 DUP9 SWAP8 PUSH4 0x6045A91 PUSH1 0xE0 SHL DUP10 MSTORE PUSH1 0xA0 DUP4 ADD CALLDATALOAD SWAP6 PUSH1 0x60 DUP5 ADD CALLDATALOAD SWAP4 CALLDATALOAD PUSH1 0x4 DUP12 ADD PUSH2 0x7D2 JUMP JUMPDEST SUB SWAP2 GAS STATICCALL DUP1 ISZERO PUSH2 0x557 JUMPI PUSH1 0x20 SWAP2 PUSH1 0x0 SWAP2 PUSH2 0x52A JUMPI JUMPDEST POP PUSH1 0x40 MLOAD SWAP1 ISZERO ISZERO DUP2 MSTORE RETURN JUMPDEST PUSH2 0x54A SWAP2 POP DUP3 RETURNDATASIZE DUP5 GT PUSH2 0x550 JUMPI JUMPDEST PUSH2 0x542 DUP2 DUP4 PUSH2 0x725 JUMP JUMPDEST DUP2 ADD SWAP1 PUSH2 0x7BA JUMP JUMPDEST DUP3 PUSH2 0x51F JUMP JUMPDEST POP RETURNDATASIZE PUSH2 0x538 JUMP JUMPDEST PUSH1 0x40 MLOAD RETURNDATASIZE PUSH1 0x0 DUP3 RETURNDATACOPY RETURNDATASIZE SWAP1 REVERT JUMPDEST POP PUSH4 0x60BD7BF PUSH1 0xE2 SHL PUSH1 0x0 MSTORE PUSH1 0x4 MSTORE PUSH1 0x24 PUSH1 0x0 REVERT JUMPDEST PUSH1 0x20 PUSH1 0x3 NOT DUP3 ADD SLT PUSH2 0x447 JUMPI PUSH1 0x4 CALLDATALOAD SWAP1 PUSH1 0x1 PUSH1 0x1 PUSH1 0x40 SHL SUB DUP3 GT PUSH2 0x447 JUMPI PUSH2 0x100 SWAP1 DUP3 SWAP1 SUB PUSH1 0x3 NOT ADD SLT PUSH2 0x447 JUMPI PUSH1 0x4 ADD SWAP1 JUMP JUMPDEST SWAP2 SWAP1 DUP3 MLOAD SWAP3 DUP4 DUP3 MSTORE PUSH1 0x0 JUMPDEST DUP5 DUP2 LT PUSH2 0x5D8 JUMPI POP POP DUP3 PUSH1 0x0 PUSH1 0x20 DUP1 SWAP5 SWAP6 DUP5 ADD ADD MSTORE PUSH1 0x1F DUP1 NOT SWAP2 ADD AND ADD ADD SWAP1 JUMP JUMPDEST DUP1 PUSH1 0x20 DUP1 SWAP3 DUP5 ADD ADD MLOAD DUP3 DUP3 DUP7 ADD ADD MSTORE ADD PUSH2 0x5B7 JUMP JUMPDEST SWAP1 PUSH1 0x5 DUP3 LT ISZERO PUSH2 0x5FA JUMPI MSTORE JUMP JUMPDEST PUSH4 0x4E487B71 PUSH1 0xE0 SHL PUSH1 0x0 MSTORE PUSH1 0x21 PUSH1 0x4 MSTORE PUSH1 0x24 PUSH1 0x0 REVERT JUMPDEST SWAP1 PUSH1 0x3 DUP3 LT ISZERO PUSH2 0x5FA JUMPI MSTORE JUMP JUMPDEST SWAP1 CALLDATALOAD SWAP1 PUSH1 0x1E NOT DUP2 CALLDATASIZE SUB ADD DUP3 SLT ISZERO PUSH2 0x447 JUMPI ADD DUP1 CALLDATALOAD SWAP1 PUSH1 0x1 PUSH1 0x1 PUSH1 0x40 SHL SUB DUP3 GT PUSH2 0x447 JUMPI PUSH1 0x20 ADD SWAP2 DUP2 CALLDATASIZE SUB DUP4 SGT PUSH2 0x447 JUMPI JUMP JUMPDEST PUSH1 0x40 DUP2 ADD SWAP1 DUP2 LT PUSH1 0x1 PUSH1 0x1 PUSH1 0x40 SHL SUB DUP3 GT OR PUSH2 0x66A JUMPI PUSH1 0x40 MSTORE JUMP JUMPDEST PUSH4 0x4E487B71 PUSH1 0xE0 SHL PUSH1 0x0 MSTORE PUSH1 0x41 PUSH1 0x4 MSTORE PUSH1 0x24 PUSH1 0x0 REVERT JUMPDEST PUSH2 0x160 DUP2 ADD SWAP1 DUP2 LT PUSH1 0x1 PUSH1 0x1 PUSH1 0x40 SHL SUB DUP3 GT OR PUSH2 0x66A JUMPI PUSH1 0x40 MSTORE JUMP JUMPDEST PUSH1 0xA0 DUP2 ADD SWAP1 DUP2 LT PUSH1 0x1 PUSH1 0x1 PUSH1 0x40 SHL SUB DUP3 GT OR PUSH2 0x66A JUMPI PUSH1 0x40 MSTORE JUMP JUMPDEST PUSH2 0x1C0 DUP2 ADD SWAP1 DUP2 LT PUSH1 0x1 PUSH1 0x1 PUSH1 0x40 SHL SUB DUP3 GT OR PUSH2 0x66A JUMPI PUSH1 0x40 MSTORE JUMP JUMPDEST PUSH1 0xE0 DUP2 ADD SWAP1 DUP2 LT PUSH1 0x1 PUSH1 0x1 PUSH1 0x40 SHL SUB DUP3 GT OR PUSH2 0x66A JUMPI PUSH1 0x40 MSTORE JUMP JUMPDEST PUSH1 0x60 DUP2 ADD SWAP1 DUP2 LT PUSH1 0x1 PUSH1 0x1 PUSH1 0x40 SHL SUB DUP3 GT OR PUSH2 0x66A JUMPI PUSH1 0x40 MSTORE JUMP JUMPDEST PUSH2 0x100 DUP2 ADD SWAP1 DUP2 LT PUSH1 0x1 PUSH1 0x1 PUSH1 0x40 SHL SUB DUP3 GT OR PUSH2 0x66A JUMPI PUSH1 0x40 MSTORE JUMP JUMPDEST SWAP1 PUSH1 0x1F DUP1 NOT SWAP2 ADD AND DUP2 ADD SWAP1 DUP2 LT PUSH1 0x1 PUSH1 0x1 PUSH1 0x40 SHL SUB DUP3 GT OR PUSH2 0x66A JUMPI PUSH1 0x40 MSTORE JUMP JUMPDEST SWAP3 SWAP2 SWAP3 PUSH1 0x1 PUSH1 0x1 PUSH1 0x40 SHL SUB DUP3 GT PUSH2 0x66A JUMPI PUSH1 0x40 MLOAD SWAP2 PUSH2 0x76F PUSH1 0x1F DUP3 ADD PUSH1 0x1F NOT AND PUSH1 0x20 ADD DUP5 PUSH2 0x725 JUMP JUMPDEST DUP3 SWAP5 DUP2 DUP5 MSTORE DUP2 DUP4 ADD GT PUSH2 0x447 JUMPI DUP3 DUP2 PUSH1 0x20 SWAP4 DUP5 PUSH1 0x0 SWAP7 ADD CALLDATACOPY ADD ADD MSTORE JUMP JUMPDEST CALLDATALOAD PUSH12 0xFFFFFFFFFFFFFFFFFFFFFFFF NOT DUP2 AND DUP2 SUB PUSH2 0x447 JUMPI SWAP1 JUMP JUMPDEST CALLDATALOAD PUSH1 0x1 PUSH1 0x1 PUSH1 0xA0 SHL SUB DUP2 AND DUP2 SUB PUSH2 0x447 JUMPI SWAP1 JUMP JUMPDEST SWAP1 DUP2 PUSH1 0x20 SWAP2 SUB SLT PUSH2 0x447 JUMPI MLOAD DUP1 ISZERO ISZERO DUP2 SUB PUSH2 0x447 JUMPI SWAP1 JUMP JUMPDEST SWAP8 SWAP10 SWAP9 SWAP6 SWAP2 SWAP4 DUP8 SWAP5 SWAP4 PUSH1 0xE0 SWAP9 SWAP5 PUSH2 0x120 SWAP8 SWAP4 DUP12 MSTORE PUSH1 0x20 DUP12 ADD MSTORE PUSH1 0x40 DUP11 ADD MSTORE PUSH12 0xFFFFFFFFFFFFFFFFFFFFFFFF NOT AND PUSH1 0x60 DUP10 ADD MSTORE PUSH1 0x80 DUP9 ADD MSTORE PUSH2 0x100 PUSH1 0xA0 DUP9 ADD MSTORE DUP2 PUSH2 0x100 DUP9 ADD MSTORE DUP4 DUP8 ADD CALLDATACOPY PUSH1 0x0 DUP3 DUP3 DUP8 ADD ADD MSTORE PUSH1 0x1F DUP1 NOT SWAP2 ADD AND DUP5 ADD ADD SWAP5 PUSH1 0xC0 DUP5 ADD MSTORE PUSH1 0x1 DUP1 PUSH1 0xA0 SHL SUB AND SWAP2 ADD MSTORE JUMP JUMPDEST PUSH1 0x0 JUMPDEST DUP3 DUP2 LT PUSH2 0x850 JUMPI POP POP POP JUMP JUMPDEST PUSH1 0x20 SWAP1 PUSH1 0x40 MLOAD PUSH2 0x85F DUP2 PUSH2 0x64F JUMP JUMPDEST PUSH1 0x0 DUP2 MSTORE PUSH1 0x0 DUP4 DUP3 ADD MSTORE DUP2 DUP5 ADD MSTORE ADD PUSH2 0x844 JUMP JUMPDEST CALLDATALOAD SWAP1 DUP2 ISZERO ISZERO DUP3 SUB PUSH2 0x447 JUMPI JUMP JUMPDEST SWAP2 SWAP1 DUP3 PUSH1 0x40 SWAP2 SUB SLT PUSH2 0x447 JUMPI PUSH1 0x40 MLOAD PUSH2 0x898 DUP2 PUSH2 0x64F JUMP JUMPDEST PUSH1 0x20 PUSH2 0x8AA DUP2 DUP4 SWAP6 DUP1 CALLDATALOAD DUP6 MSTORE ADD PUSH2 0x873 JUMP JUMPDEST SWAP2 ADD MSTORE JUMP JUMPDEST CALLDATALOAD SWAP1 PUSH1 0x1 PUSH1 0x1 PUSH1 0x40 SHL SUB DUP3 AND DUP3 SUB PUSH2 0x447 JUMPI JUMP JUMPDEST CALLDATALOAD SWAP1 PUSH4 0xFFFFFFFF DUP3 AND DUP3 SUB PUSH2 0x447 JUMPI JUMP JUMPDEST SWAP2 SWAP1 DUP3 PUSH1 0x40 SWAP2 SUB SLT PUSH2 0x447 JUMPI PUSH1 0x40 MLOAD PUSH2 0x8EC DUP2 PUSH2 0x64F JUMP JUMPDEST PUSH1 0x20 DUP1 DUP3 SWAP5 DUP1 CALLDATALOAD DUP5 MSTORE ADD CALLDATALOAD SWAP2 ADD MSTORE JUMP JUMPDEST PUSH1 0x40 MLOAD SWAP1 PUSH2 0x909 DUP3 PUSH2 0x680 JUMP JUMPDEST PUSH1 0x40 MLOAD PUSH2 0x915 DUP2 PUSH2 0x64F JUMP JUMPDEST PUSH1 0x0 DUP2 MSTORE PUSH1 0x0 PUSH1 0x20 DUP3 ADD MSTORE DUP3 MSTORE PUSH1 0x0 PUSH1 0x20 DUP4 ADD MSTORE PUSH1 0x60 PUSH1 0x40 DUP4 ADD MSTORE PUSH1 0x0 PUSH1 0x60 DUP4 ADD MSTORE PUSH1 0x0 PUSH1 0x80 DUP4 ADD MSTORE PUSH1 0x0 PUSH1 0xA0 DUP4 ADD MSTORE PUSH1 0x40 MLOAD PUSH2 0x951 DUP2 PUSH2 0x64F JUMP JUMPDEST PUSH1 0x0 DUP2 MSTORE PUSH1 0x0 PUSH1 0x20 DUP3 ADD MSTORE PUSH1 0xC0 DUP4 ADD MSTORE PUSH1 0x0 PUSH1 0xE0 DUP4 ADD MSTORE PUSH1 0x40 MLOAD PUSH2 0x974 DUP2 PUSH2 0x69C JUMP JUMPDEST PUSH1 0x0 DUP2 MSTORE PUSH1 0x0 PUSH1 0x20 DUP3 ADD MSTORE PUSH1 0x0 PUSH1 0x40 DUP3 ADD MSTORE PUSH1 0x0 PUSH1 0x60 DUP3 ADD MSTORE PUSH1 0x0 PUSH1 0x80 DUP3 ADD MSTORE PUSH2 0x100 DUP4 ADD MSTORE PUSH1 0x40 MLOAD PUSH2 0x9A6 DUP2 PUSH2 0x6B7 JUMP JUMPDEST PUSH1 0x0 DUP2 MSTORE PUSH1 0x0 PUSH1 0x20 DUP3 ADD MSTORE PUSH1 0x0 PUSH1 0x40 DUP3 ADD MSTORE PUSH1 0x0 PUSH1 0x60 DUP3 ADD MSTORE PUSH1 0x0 PUSH1 0x80 DUP3 ADD MSTORE PUSH1 0x0 PUSH1 0xA0 DUP3 ADD MSTORE PUSH1 0x0 PUSH1 0xC0 DUP3 ADD MSTORE PUSH1 0x0 PUSH1 0xE0 DUP3 ADD MSTORE PUSH1 0x0 PUSH2 0x100 DUP3 ADD MSTORE PUSH1 0x0 PUSH2 0x120 DUP3 ADD MSTORE PUSH1 0x0 PUSH2 0x140 DUP3 ADD MSTORE PUSH1 0x0 PUSH2 0x160 DUP3 ADD MSTORE PUSH1 0x0 PUSH2 0x180 DUP3 ADD MSTORE PUSH1 0x0 PUSH2 0x1A0 DUP3 ADD MSTORE PUSH2 0x120 DUP4 ADD MSTORE PUSH1 0x40 MLOAD SWAP1 PUSH2 0xA1E DUP3 PUSH2 0x6D3 JUMP JUMPDEST PUSH2 0x100 SWAP1 PUSH1 0x40 MLOAD PUSH2 0xA2F DUP4 DUP3 PUSH2 0x725 JUMP JUMPDEST DUP3 CALLDATASIZE DUP3 CALLDATACOPY DUP4 MSTORE PUSH1 0x40 MLOAD SWAP3 PUSH2 0xA42 DUP5 PUSH2 0x6EE JUMP JUMPDEST PUSH1 0x0 DUP5 MSTORE PUSH1 0x0 PUSH1 0x20 DUP6 ADD MSTORE PUSH1 0x40 MLOAD SWAP4 PUSH2 0xA5A DUP6 PUSH2 0x709 JUMP JUMPDEST PUSH1 0xE0 SWAP5 PUSH1 0x40 MLOAD PUSH2 0xA6A DUP8 DUP3 PUSH2 0x725 JUMP JUMPDEST PUSH2 0xA74 DUP8 DUP3 PUSH2 0x841 JUMP JUMPDEST DUP2 MSTORE PUSH1 0x40 MLOAD PUSH2 0xA8F PUSH2 0x1E0 PUSH2 0xA89 DUP2 DUP5 PUSH2 0x725 JUMP JUMPDEST DUP3 PUSH2 0x841 JUMP JUMPDEST PUSH1 0x20 DUP3 ADD MSTORE PUSH1 0x40 MLOAD PUSH2 0xAA0 DUP2 PUSH2 0x64F JUMP JUMPDEST PUSH1 0x0 DUP2 MSTORE PUSH1 0x0 PUSH1 0x20 DUP3 ADD MSTORE PUSH1 0x40 DUP3 ADD MSTORE PUSH1 0x40 MLOAD PUSH2 0xABC DUP2 PUSH2 0x64F JUMP JUMPDEST PUSH1 0x0 DUP2 MSTORE PUSH1 0x0 PUSH1 0x20 DUP3 ADD MSTORE PUSH1 0x60 DUP3 ADD MSTORE PUSH1 0x40 MLOAD PUSH2 0xAD8 DUP2 PUSH2 0x64F JUMP JUMPDEST PUSH1 0x0 DUP2 MSTORE PUSH1 0x0 PUSH1 0x20 DUP3 ADD MSTORE PUSH1 0x80 DUP3 ADD MSTORE PUSH1 0x40 MLOAD PUSH2 0xAF4 DUP2 PUSH2 0x64F JUMP JUMPDEST PUSH1 0x0 DUP2 MSTORE PUSH1 0x0 PUSH1 0x20 DUP3 ADD MSTORE PUSH1 0xA0 DUP3 ADD MSTORE PUSH1 0x40 MLOAD PUSH2 0xB10 DUP2 PUSH2 0x64F JUMP JUMPDEST PUSH1 0x0 DUP2 MSTORE PUSH1 0x0 PUSH1 0x20 DUP3 ADD MSTORE PUSH1 0xC0 DUP3 ADD MSTORE PUSH1 0x40 MLOAD PUSH2 0xB2C DUP2 PUSH2 0x64F JUMP JUMPDEST PUSH1 0x0 DUP2 MSTORE PUSH1 0x0 PUSH1 0x20 DUP3 ADD MSTORE DUP7 DUP3 ADD MSTORE PUSH1 0x40 DUP3 ADD MSTORE PUSH1 0x20 DUP3 ADD MSTORE PUSH1 0x0 PUSH1 0x40 DUP3 ADD MSTORE PUSH2 0x140 PUSH1 0xA0 SWAP6 PUSH1 0x40 MLOAD PUSH2 0xB5F DUP9 DUP3 PUSH2 0x725 JUMP JUMPDEST DUP8 CALLDATASIZE DUP3 CALLDATACOPY PUSH1 0x60 DUP5 ADD MSTORE PUSH1 0x0 PUSH1 0x80 DUP5 ADD MSTORE PUSH1 0x0 DUP8 DUP5 ADD MSTORE PUSH1 0x60 PUSH1 0xC0 DUP5 ADD MSTORE ADD MSTORE PUSH1 0x20 DUP2 ADD CALLDATALOAD PUSH32 0xEE2A4BC7DB81DA2B7164E56B3649B1E2A09C58C455B15DABDDD9146C7582CEBC DUP2 SUB PUSH2 0x11A7 JUMPI DUP2 PUSH1 0x20 PUSH1 0xC0 DUP3 ADD SWAP3 PUSH2 0xBBF PUSH2 0x49A DUP6 DUP6 PUSH2 0x61D JUMP JUMPDEST DUP3 DUP2 MLOAD SWAP2 ADD KECCAK256 SWAP1 PUSH1 0x1 DUP1 PUSH1 0xA0 SHL SUB PUSH1 0x0 SLOAD AND SWAP1 DUP10 PUSH2 0xC27 DUP11 PUSH2 0xBE3 PUSH1 0x40 DUP10 ADD PUSH2 0x78C JUMP JUMPDEST SWAP6 PUSH2 0xBFE PUSH2 0xBF4 PUSH1 0x80 DUP12 ADD DUP12 PUSH2 0x61D JUMP JUMPDEST SWAP2 SWAP1 SWAP4 DUP12 ADD PUSH2 0x7A6 JUMP JUMPDEST SWAP3 PUSH1 0x40 MLOAD SWAP11 DUP12 SWAP10 DUP11 SWAP9 DUP10 SWAP9 PUSH4 0x6045A91 PUSH1 0xE0 SHL DUP11 MSTORE DUP4 ADD CALLDATALOAD SWAP6 PUSH1 0x60 DUP5 ADD CALLDATALOAD SWAP4 CALLDATALOAD PUSH1 0x4 DUP12 ADD PUSH2 0x7D2 JUMP JUMPDEST SUB SWAP2 GAS STATICCALL SWAP1 DUP2 ISZERO PUSH2 0x557 JUMPI PUSH1 0x0 SWAP2 PUSH2 0x1188 JUMPI JUMPDEST POP ISZERO PUSH2 0x447 JUMPI PUSH2 0xC49 SWAP2 PUSH2 0x61D JUMP JUMPDEST DUP1 PUSH1 0x28 SWAP4 SWAP3 SWAP4 GT PUSH2 0x447 JUMPI DUP3 ADD SWAP2 PUSH1 0x20 DUP2 DUP5 SUB PUSH1 0x27 NOT ADD SLT PUSH2 0x447 JUMPI PUSH1 0x28 DUP2 ADD CALLDATALOAD SWAP1 PUSH1 0x1 PUSH1 0x1 PUSH1 0x40 SHL SUB DUP3 GT PUSH2 0x447 JUMPI ADD DUP1 DUP4 SUB PUSH1 0x27 NOT ADD SWAP5 SWAP1 PUSH2 0x3C0 DUP7 SLT PUSH2 0x447 JUMPI PUSH1 0x40 MLOAD SWAP6 PUSH2 0xC99 DUP8 PUSH2 0x680 JUMP JUMPDEST PUSH2 0xCA6 DUP6 PUSH1 0x28 DUP5 ADD PUSH2 0x880 JUMP JUMPDEST DUP8 MSTORE PUSH1 0x68 DUP3 ADD CALLDATALOAD PUSH1 0x20 DUP9 ADD MSTORE PUSH1 0x88 DUP3 ADD CALLDATALOAD PUSH1 0x1 PUSH1 0x1 PUSH1 0x40 SHL SUB DUP2 GT PUSH2 0x447 JUMPI PUSH1 0x28 SWAP1 DUP4 ADD ADD DUP6 PUSH1 0x1F DUP3 ADD SLT ISZERO PUSH2 0x447 JUMPI DUP6 DUP2 PUSH1 0x20 PUSH2 0xCE6 SWAP4 CALLDATALOAD SWAP2 ADD PUSH2 0x746 JUMP JUMPDEST PUSH1 0x40 DUP9 ADD MSTORE PUSH2 0xCF7 PUSH1 0xA8 DUP4 ADD PUSH2 0x8AF JUMP JUMPDEST PUSH1 0x60 DUP9 ADD MSTORE PUSH2 0xD08 PUSH1 0xC8 DUP4 ADD PUSH2 0x8C3 JUMP JUMPDEST PUSH1 0x80 DUP9 ADD MSTORE PUSH1 0xE8 DUP3 ADD CALLDATALOAD DUP4 DUP9 ADD MSTORE PUSH2 0xD24 DUP6 PUSH2 0x108 DUP5 ADD PUSH2 0x880 JUMP JUMPDEST PUSH1 0xC0 DUP9 ADD MSTORE PUSH2 0x148 DUP3 ADD CALLDATALOAD DUP7 DUP9 ADD MSTORE DUP3 PUSH2 0x13F NOT DUP3 ADD SLT PUSH2 0x447 JUMPI PUSH2 0x1C0 SWAP1 PUSH1 0x40 MLOAD PUSH2 0xD4F DUP2 PUSH2 0x69C JUMP JUMPDEST PUSH2 0xD5C PUSH2 0x168 DUP6 ADD PUSH2 0x8AF JUMP JUMPDEST DUP2 MSTORE PUSH2 0xD6B PUSH2 0x188 DUP6 ADD PUSH2 0x8C3 JUMP JUMPDEST PUSH1 0x20 DUP3 ADD MSTORE PUSH2 0xD7D PUSH2 0x1A8 DUP6 ADD PUSH2 0x8AF JUMP JUMPDEST PUSH1 0x40 DUP3 ADD MSTORE PUSH2 0xD8F PUSH2 0x1C8 DUP6 ADD PUSH2 0x8C3 JUMP JUMPDEST PUSH1 0x60 DUP3 ADD MSTORE PUSH2 0xDA1 PUSH2 0x1E8 DUP6 ADD PUSH2 0x8AF JUMP JUMPDEST PUSH1 0x80 DUP3 ADD MSTORE DUP9 DUP7 ADD MSTORE PUSH2 0x1DF NOT ADD SLT PUSH2 0x447 JUMPI PUSH1 0x40 MLOAD PUSH2 0xDC0 DUP2 PUSH2 0x6B7 JUMP JUMPDEST PUSH2 0x208 DUP3 ADD CALLDATALOAD PUSH1 0x5 DUP2 LT ISZERO PUSH2 0x447 JUMPI DUP2 MSTORE PUSH2 0x228 DUP3 ADD CALLDATALOAD PUSH1 0x5 DUP2 LT ISZERO PUSH2 0x447 JUMPI PUSH1 0x20 DUP3 ADD MSTORE PUSH2 0x248 DUP3 ADD CALLDATALOAD PUSH1 0x5 DUP2 LT ISZERO PUSH2 0x447 JUMPI PUSH1 0x40 DUP3 ADD MSTORE PUSH2 0x268 DUP3 ADD CALLDATALOAD PUSH1 0x5 DUP2 LT ISZERO PUSH2 0x447 JUMPI PUSH1 0x60 DUP3 ADD MSTORE PUSH2 0x288 DUP3 ADD CALLDATALOAD PUSH1 0x5 DUP2 LT ISZERO PUSH2 0x447 JUMPI PUSH1 0x80 DUP3 ADD MSTORE PUSH2 0x2A8 DUP3 ADD CALLDATALOAD PUSH1 0x5 DUP2 LT ISZERO PUSH2 0x447 JUMPI DUP4 DUP3 ADD MSTORE PUSH2 0x2C8 DUP3 ADD CALLDATALOAD PUSH1 0x5 DUP2 LT ISZERO PUSH2 0x447 JUMPI PUSH1 0xC0 DUP3 ADD MSTORE PUSH2 0xE55 PUSH2 0x2E8 DUP4 ADD PUSH2 0x8C3 JUMP JUMPDEST DUP7 DUP3 ADD MSTORE PUSH2 0x308 DUP3 ADD CALLDATALOAD PUSH1 0x5 DUP2 LT ISZERO PUSH2 0x447 JUMPI DUP5 DUP3 ADD MSTORE PUSH2 0x328 DUP3 ADD CALLDATALOAD PUSH1 0x5 DUP2 LT ISZERO PUSH2 0x447 JUMPI PUSH2 0x120 DUP3 ADD MSTORE PUSH2 0x348 DUP3 ADD CALLDATALOAD PUSH1 0x5 DUP2 LT ISZERO PUSH2 0x447 JUMPI PUSH2 0x140 DUP3 ADD MSTORE PUSH2 0x368 DUP3 ADD CALLDATALOAD PUSH1 0x5 DUP2 LT ISZERO PUSH2 0x447 JUMPI PUSH2 0x160 DUP3 ADD MSTORE PUSH2 0x388 DUP3 ADD CALLDATALOAD PUSH1 0x5 DUP2 LT ISZERO PUSH2 0x447 JUMPI PUSH2 0x180 DUP3 ADD MSTORE PUSH2 0x3A8 DUP3 ADD CALLDATALOAD PUSH1 0x5 DUP2 LT ISZERO PUSH2 0x447 JUMPI PUSH2 0x1A0 DUP3 ADD MSTORE PUSH2 0x120 DUP8 ADD MSTORE PUSH2 0x3C8 DUP2 ADD CALLDATALOAD PUSH1 0x1 PUSH1 0x1 PUSH1 0x40 SHL SUB DUP2 GT PUSH2 0x447 JUMPI PUSH1 0x28 SWAP2 ADD ADD SWAP2 DUP3 DUP5 SUB SWAP5 PUSH2 0x960 DUP7 SLT PUSH2 0x447 JUMPI PUSH1 0x40 MLOAD SWAP6 PUSH2 0xF0F DUP8 PUSH2 0x6D3 JUMP JUMPDEST DUP6 PUSH1 0x1F DUP7 ADD SLT ISZERO PUSH2 0x447 JUMPI PUSH1 0x40 MLOAD PUSH2 0xF29 PUSH2 0x100 DUP3 PUSH2 0x725 JUMP JUMPDEST DUP1 SWAP4 DUP7 ADD SWAP4 DUP8 DUP6 GT PUSH2 0x447 JUMPI DUP7 SWAP1 JUMPDEST DUP6 DUP3 LT PUSH2 0x1178 JUMPI POP POP DUP8 MSTORE PUSH2 0x740 PUSH1 0xFF NOT DUP3 ADD SLT PUSH2 0x447 JUMPI PUSH1 0x40 MLOAD SWAP3 PUSH2 0xF5D DUP5 PUSH2 0x6EE JUMP JUMPDEST CALLDATALOAD PUSH1 0x3 DUP2 LT ISZERO PUSH2 0x447 JUMPI DUP4 MSTORE PUSH2 0x120 DUP6 ADD CALLDATALOAD SWAP1 PUSH1 0x3 DUP3 LT ISZERO PUSH2 0x447 JUMPI PUSH2 0x700 SWAP2 PUSH1 0x20 DUP6 ADD MSTORE PUSH2 0x13F NOT ADD SLT PUSH2 0x447 JUMPI PUSH1 0x40 MLOAD SWAP1 PUSH2 0xF99 DUP3 PUSH2 0x709 JUMP JUMPDEST DUP6 PUSH2 0x15F DUP7 ADD SLT ISZERO PUSH2 0x447 JUMPI PUSH1 0x40 MLOAD PUSH2 0xFB3 PUSH1 0xE0 DUP3 PUSH2 0x725 JUMP JUMPDEST DUP1 PUSH2 0x300 DUP8 ADD SWAP2 DUP9 DUP4 GT PUSH2 0x447 JUMPI PUSH2 0x140 DUP9 ADD SWAP1 JUMPDEST DUP4 DUP3 LT PUSH2 0x115E JUMPI POP POP DUP4 MSTORE DUP7 PUSH2 0x31F DUP8 ADD SLT ISZERO PUSH2 0x447 JUMPI PUSH1 0x40 MLOAD PUSH2 0xFEE PUSH2 0x1E0 DUP3 PUSH2 0x725 JUMP JUMPDEST DUP1 PUSH2 0x6C0 DUP9 ADD SWAP3 DUP10 DUP5 GT PUSH2 0x447 JUMPI DUP10 SWAP3 SWAP2 JUMPDEST DUP5 DUP3 LT PUSH2 0x1140 JUMPI POP POP PUSH1 0x20 DUP6 ADD MSTORE PUSH2 0x1017 SWAP2 PUSH2 0x8D4 JUMP JUMPDEST PUSH1 0x40 DUP4 ADD MSTORE PUSH2 0x102A DUP7 PUSH2 0x700 DUP8 ADD PUSH2 0x8D4 JUMP JUMPDEST PUSH1 0x60 DUP4 ADD MSTORE PUSH2 0x103D DUP7 PUSH2 0x740 DUP8 ADD PUSH2 0x8D4 JUMP JUMPDEST PUSH1 0x80 DUP4 ADD MSTORE PUSH2 0x1050 DUP7 PUSH2 0x780 DUP8 ADD PUSH2 0x8D4 JUMP JUMPDEST DUP5 DUP4 ADD MSTORE PUSH2 0x1062 DUP7 PUSH2 0x7C0 DUP8 ADD PUSH2 0x8D4 JUMP JUMPDEST PUSH1 0xC0 DUP4 ADD MSTORE PUSH2 0x1075 DUP7 PUSH2 0x800 DUP8 ADD PUSH2 0x8D4 JUMP JUMPDEST SWAP1 DUP3 ADD MSTORE PUSH1 0x40 DUP3 ADD MSTORE PUSH1 0x20 DUP6 ADD MSTORE PUSH2 0x1090 PUSH2 0x840 DUP4 ADD PUSH2 0x8C3 JUMP JUMPDEST PUSH1 0x40 DUP6 ADD MSTORE DUP3 PUSH2 0x87F DUP4 ADD SLT ISZERO PUSH2 0x447 JUMPI PUSH1 0x40 MLOAD PUSH2 0x10AF PUSH1 0xA0 DUP3 PUSH2 0x725 JUMP JUMPDEST DUP1 PUSH2 0x900 DUP5 ADD SWAP2 DUP6 DUP4 GT PUSH2 0x447 JUMPI PUSH2 0x860 DUP6 ADD SWAP1 JUMPDEST DUP4 DUP3 LT PUSH2 0x1130 JUMPI POP POP PUSH1 0x60 DUP7 ADD MSTORE PUSH2 0x10DB SWAP1 PUSH2 0x8C3 JUMP JUMPDEST PUSH1 0x80 DUP6 ADD MSTORE PUSH2 0x10ED PUSH2 0x920 DUP4 ADD PUSH2 0x873 JUMP JUMPDEST SWAP1 DUP5 ADD MSTORE PUSH2 0x940 DUP2 ADD CALLDATALOAD SWAP1 PUSH1 0x1 PUSH1 0x1 PUSH1 0x40 SHL SUB DUP3 GT PUSH2 0x447 JUMPI ADD SWAP1 DUP1 PUSH1 0x1F DUP4 ADD SLT ISZERO PUSH2 0x447 JUMPI DUP2 PUSH1 0x20 PUSH2 0x1122 SWAP4 CALLDATALOAD SWAP2 ADD PUSH2 0x746 JUMP JUMPDEST PUSH1 0xC0 DUP3 ADD MSTORE PUSH2 0x140 DUP3 ADD MSTORE SWAP1 JUMP JUMPDEST DUP2 CALLDATALOAD DUP2 MSTORE PUSH1 0x20 SWAP2 DUP3 ADD SWAP2 ADD PUSH2 0x10C4 JUMP JUMPDEST PUSH1 0x20 SWAP1 PUSH2 0x1151 DUP4 SWAP5 SWAP6 PUSH1 0x40 SWAP5 PUSH2 0x8D4 JUMP JUMPDEST DUP2 MSTORE ADD SWAP2 ADD DUP10 SWAP3 SWAP2 PUSH2 0x1000 JUMP JUMPDEST PUSH1 0x20 PUSH1 0x40 SWAP2 PUSH2 0x116D DUP13 DUP6 PUSH2 0x8D4 JUMP JUMPDEST DUP2 MSTORE ADD SWAP2 ADD SWAP1 PUSH2 0xFC8 JUMP JUMPDEST DUP2 CALLDATALOAD DUP2 MSTORE PUSH1 0x20 SWAP2 DUP3 ADD SWAP2 ADD PUSH2 0xF38 JUMP JUMPDEST PUSH2 0x11A1 SWAP2 POP PUSH1 0x20 RETURNDATASIZE PUSH1 0x20 GT PUSH2 0x550 JUMPI PUSH2 0x542 DUP2 DUP4 PUSH2 0x725 JUMP JUMPDEST CODESIZE PUSH2 0xC3A JUMP JUMPDEST PUSH4 0x60BD7BF PUSH1 0xE2 SHL PUSH1 0x0 MSTORE PUSH1 0x4 MSTORE PUSH1 0x24 PUSH1 0x0 REVERT INVALID LOG2 PUSH5 0x6970667358 0x22 SLT KECCAK256 0xC1 0x24 SLT PUSH22 0x104DE87DA742C529311E09F70E759123A4636EB3BC59 0xED 0x21 PUSH3 0x534527 PUSH5 0x736F6C6343 STOP ADDMOD SHR STOP CALLER "},"methodIdentifiers":{"validateAccount((bytes32,bytes32,bytes20,bytes32,bytes,uint256,bytes,address))":"9029ad15","validateAccountAndReturn((bytes32,bytes32,bytes20,bytes32,bytes,uint256,bytes,address))":"c6478713"}}}}}