{"contracts/MinaStateSettlementExample.sol":{"MinaStateSettlementExample":{"abi":[{"inputs":[{"internalType":"address payable","name":"_alignedServiceAddr","type":"address"},{"internalType":"bytes32","name":"_tipStateHash","type":"bytes32"},{"internalType":"bool","name":"_devnetFlag","type":"bool"}],"stateMutability":"nonpayable","type":"constructor"},{"inputs":[],"name":"MinaNetworkIsWrong","type":"error"},{"inputs":[{"internalType":"bytes32","name":"","type":"bytes32"}],"name":"MinaProvingSystemIdIsNotValid","type":"error"},{"inputs":[],"name":"NewStateIsNotValid","type":"error"},{"inputs":[{"internalType":"bytes32","name":"pubInputTipStateHash","type":"bytes32"},{"internalType":"bytes32","name":"tipStatehash","type":"bytes32"}],"name":"TipStateIsWrong","type":"error"},{"inputs":[],"name":"BRIDGE_TRANSITION_FRONTIER_LEN","outputs":[{"internalType":"uint256","name":"","type":"uint256"}],"stateMutability":"view","type":"function"},{"inputs":[],"name":"getChainLedgerHashes","outputs":[{"internalType":"bytes32[16]","name":"","type":"bytes32[16]"}],"stateMutability":"view","type":"function"},{"inputs":[],"name":"getChainStateHashes","outputs":[{"internalType":"bytes32[16]","name":"","type":"bytes32[16]"}],"stateMutability":"view","type":"function"},{"inputs":[],"name":"getTipLedgerHash","outputs":[{"internalType":"bytes32","name":"","type":"bytes32"}],"stateMutability":"view","type":"function"},{"inputs":[],"name":"getTipStateHash","outputs":[{"internalType":"bytes32","name":"","type":"bytes32"}],"stateMutability":"view","type":"function"},{"inputs":[{"internalType":"bytes32","name":"ledgerHash","type":"bytes32"}],"name":"isLedgerVerified","outputs":[{"internalType":"bool","name":"","type":"bool"}],"stateMutability":"view","type":"function"},{"inputs":[{"internalType":"bytes32","name":"proofCommitment","type":"bytes32"},{"internalType":"bytes32","name":"provingSystemAuxDataCommitment","type":"bytes32"},{"internalType":"bytes20","name":"proofGeneratorAddr","type":"bytes20"},{"internalType":"bytes32","name":"batchMerkleRoot","type":"bytes32"},{"internalType":"bytes","name":"merkleProof","type":"bytes"},{"internalType":"uint256","name":"verificationDataBatchIndex","type":"uint256"},{"internalType":"bytes","name":"pubInput","type":"bytes"},{"internalType":"address","name":"batcherPaymentService","type":"address"}],"name":"updateChain","outputs":[],"stateMutability":"nonpayable","type":"function"}],"evm":{"bytecode":{"linkReferences":{},"object":"608034609857601f61075238819003918201601f19168301916001600160401b03831184841017609d578084926060946040528339810103126098578051906001600160a01b03821682036098576040602082015191015180151580910360985760ff9060205492600f551691610100600160a81b039060081b169060018060a81b031916171760205560405161069e90816100b48239f35b600080fd5b634e487b7160e01b600052604160045260246000fdfe6080604052600436101561001257600080fd5b60003560e01c806303f93e50146100875780632bc4f8d91461008257806337baff0f1461007d5780633886c09b146100785780633e16b01114610073578063b81847451461006e5763fb299cd81461006957600080fd5b6102ef565b6102d1565b6102a9565b61028b565b6101fe565b6100fa565b346100c65760003660031901126100c6576102006040516100a8828261016a565b3690376100c26100b661030b565b604051918291826100cb565b0390f35b600080fd5b91906102008301926000905b601082106100e457505050565b60208060019285518152019301910190916100d7565b346100c65760003660031901126100c6576102008060405161011c828261016a565b36903760405160106000825b6010821061013e576100c2846100b6878261016a565b6001602081928554815201930191019091610128565b634e487b7160e01b600052604160045260246000fd5b90601f8019910116810190811067ffffffffffffffff82111761018c57604052565b610154565b81601f820112156100c65780359067ffffffffffffffff821161018c57604051926101c6601f8401601f19166020018561016a565b828452602083830101116100c657816000926020809301838601378301015290565b60e435906001600160a01b03821682036100c657565b346100c6576101003660031901126100c6576044356004356024356bffffffffffffffffffffffff19831683036100c65760643560843567ffffffffffffffff81116100c657610252903690600401610191565b60a4359160c4359567ffffffffffffffff87116100c65761027a610289973690600401610191565b946102836101e8565b96610433565b005b346100c65760003660031901126100c6576020601f54604051908152f35b346100c65760203660031901126100c65760206102c7600435610612565b6040519015158152f35b346100c65760003660031901126100c6576020600f54604051908152f35b346100c65760003660031901126100c657602060405160108152f35b60405190600080835b6010821061032d5750505061032b6102008361016a565b565b6001602081928554815201930191019091610314565b634e487b7160e01b600052603260045260246000fd5b8051156103665760200190565b610343565b60108110156103665790600090565b908160209103126100c6575180151581036100c65790565b959493929190989796988652602086015260408501526bffffffffffffffffffffffff19166060840152608083015261010060a08301528051908161010084015260005b828110610410575050816101208260008260e09561032b9897010152601f80199101168201019560c0820152019060018060a01b03169052565b8060208092840101516101208287010152016103d6565b6040513d6000823e3d90fd5b909391949796977fd0591206d9e81e07f4defc5327957173572bcd1bca7838caa7be39b0c12b187385036105fc57600160f81b6001600160f81b031961048961047b8a610359565b516001600160f81b03191690565b161492602054936104a261049d8660ff1690565b151590565b036105eb5760218801516104c36104b9600f61036b565b90549060031b1c90565b81036105bd57509861051c9188999a6104fe6104f28b6020809c9d519101209760018060a01b039060081c1690565b6001600160a01b031690565b966040519a8b998a9889986306045a9160e01b8a5260048a01610392565b03915afa9081156105b857600091610589575b50156105785760009060106102416041830192016000925b60108410610556575050505050565b600160208181848295518a550197019380518655019301930192919093610547565b630114602f60e41b60005260046000fd5b6105ab915060203d6020116105b1575b6105a3818361016a565b81019061037a565b3861052f565b503d610599565b610427565b6105e7906105ce6104b9600f61036b565b63177b002560e31b600052600491909152602452604490565b6000fd5b63042eb0cf60e01b60005260046000fd5b63c35f1ecd60e01b600052600485905260246000fd5b60005b60108110610624575050600090565b80600f03600f81116106525760108110156103665760100154821461064b57600101610615565b5050600190565b634e487b7160e01b600052601160045260246000fdfea264697066735822122094bda000e63bfd538062d75c83adc2262e4a8fe3ecfc8d2170051e1cc59ba2d564736f6c634300081c0033","opcodes":"PUSH1 0x80 CALLVALUE PUSH1 0x98 JUMPI PUSH1 0x1F PUSH2 0x752 CODESIZE DUP2 SWAP1 SUB SWAP2 DUP3 ADD PUSH1 0x1F NOT AND DUP4 ADD SWAP2 PUSH1 0x1 PUSH1 0x1 PUSH1 0x40 SHL SUB DUP4 GT DUP5 DUP5 LT OR PUSH1 0x9D JUMPI DUP1 DUP5 SWAP3 PUSH1 0x60 SWAP5 PUSH1 0x40 MSTORE DUP4 CODECOPY DUP2 ADD SUB SLT PUSH1 0x98 JUMPI DUP1 MLOAD SWAP1 PUSH1 0x1 PUSH1 0x1 PUSH1 0xA0 SHL SUB DUP3 AND DUP3 SUB PUSH1 0x98 JUMPI PUSH1 0x40 PUSH1 0x20 DUP3 ADD MLOAD SWAP2 ADD MLOAD DUP1 ISZERO ISZERO DUP1 SWAP2 SUB PUSH1 0x98 JUMPI PUSH1 0xFF SWAP1 PUSH1 0x20 SLOAD SWAP3 PUSH1 0xF SSTORE AND SWAP2 PUSH2 0x100 PUSH1 0x1 PUSH1 0xA8 SHL SUB SWAP1 PUSH1 0x8 SHL AND SWAP1 PUSH1 0x1 DUP1 PUSH1 0xA8 SHL SUB NOT AND OR OR PUSH1 0x20 SSTORE PUSH1 0x40 MLOAD PUSH2 0x69E SWAP1 DUP2 PUSH2 0xB4 DUP3 CODECOPY RETURN JUMPDEST PUSH1 0x0 DUP1 REVERT JUMPDEST PUSH4 0x4E487B71 PUSH1 0xE0 SHL PUSH1 0x0 MSTORE PUSH1 0x41 PUSH1 0x4 MSTORE PUSH1 0x24 PUSH1 0x0 REVERT INVALID PUSH1 0x80 PUSH1 0x40 MSTORE PUSH1 0x4 CALLDATASIZE LT ISZERO PUSH2 0x12 JUMPI PUSH1 0x0 DUP1 REVERT JUMPDEST PUSH1 0x0 CALLDATALOAD PUSH1 0xE0 SHR DUP1 PUSH4 0x3F93E50 EQ PUSH2 0x87 JUMPI DUP1 PUSH4 0x2BC4F8D9 EQ PUSH2 0x82 JUMPI DUP1 PUSH4 0x37BAFF0F EQ PUSH2 0x7D JUMPI DUP1 PUSH4 0x3886C09B EQ PUSH2 0x78 JUMPI DUP1 PUSH4 0x3E16B011 EQ PUSH2 0x73 JUMPI DUP1 PUSH4 0xB8184745 EQ PUSH2 0x6E JUMPI PUSH4 0xFB299CD8 EQ PUSH2 0x69 JUMPI PUSH1 0x0 DUP1 REVERT JUMPDEST PUSH2 0x2EF JUMP JUMPDEST PUSH2 0x2D1 JUMP JUMPDEST PUSH2 0x2A9 JUMP JUMPDEST PUSH2 0x28B JUMP JUMPDEST PUSH2 0x1FE JUMP JUMPDEST PUSH2 0xFA JUMP JUMPDEST CALLVALUE PUSH2 0xC6 JUMPI PUSH1 0x0 CALLDATASIZE PUSH1 0x3 NOT ADD SLT PUSH2 0xC6 JUMPI PUSH2 0x200 PUSH1 0x40 MLOAD PUSH2 0xA8 DUP3 DUP3 PUSH2 0x16A JUMP JUMPDEST CALLDATASIZE SWAP1 CALLDATACOPY PUSH2 0xC2 PUSH2 0xB6 PUSH2 0x30B JUMP JUMPDEST PUSH1 0x40 MLOAD SWAP2 DUP3 SWAP2 DUP3 PUSH2 0xCB JUMP JUMPDEST SUB SWAP1 RETURN JUMPDEST PUSH1 0x0 DUP1 REVERT JUMPDEST SWAP2 SWAP1 PUSH2 0x200 DUP4 ADD SWAP3 PUSH1 0x0 SWAP1 JUMPDEST PUSH1 0x10 DUP3 LT PUSH2 0xE4 JUMPI POP POP POP JUMP JUMPDEST PUSH1 0x20 DUP1 PUSH1 0x1 SWAP3 DUP6 MLOAD DUP2 MSTORE ADD SWAP4 ADD SWAP2 ADD SWAP1 SWAP2 PUSH2 0xD7 JUMP JUMPDEST CALLVALUE PUSH2 0xC6 JUMPI PUSH1 0x0 CALLDATASIZE PUSH1 0x3 NOT ADD SLT PUSH2 0xC6 JUMPI PUSH2 0x200 DUP1 PUSH1 0x40 MLOAD PUSH2 0x11C DUP3 DUP3 PUSH2 0x16A JUMP JUMPDEST CALLDATASIZE SWAP1 CALLDATACOPY PUSH1 0x40 MLOAD PUSH1 0x10 PUSH1 0x0 DUP3 JUMPDEST PUSH1 0x10 DUP3 LT PUSH2 0x13E JUMPI PUSH2 0xC2 DUP5 PUSH2 0xB6 DUP8 DUP3 PUSH2 0x16A JUMP JUMPDEST PUSH1 0x1 PUSH1 0x20 DUP2 SWAP3 DUP6 SLOAD DUP2 MSTORE ADD SWAP4 ADD SWAP2 ADD SWAP1 SWAP2 PUSH2 0x128 JUMP JUMPDEST PUSH4 0x4E487B71 PUSH1 0xE0 SHL PUSH1 0x0 MSTORE PUSH1 0x41 PUSH1 0x4 MSTORE PUSH1 0x24 PUSH1 0x0 REVERT JUMPDEST SWAP1 PUSH1 0x1F DUP1 NOT SWAP2 ADD AND DUP2 ADD SWAP1 DUP2 LT PUSH8 0xFFFFFFFFFFFFFFFF DUP3 GT OR PUSH2 0x18C JUMPI PUSH1 0x40 MSTORE JUMP JUMPDEST PUSH2 0x154 JUMP JUMPDEST DUP2 PUSH1 0x1F DUP3 ADD SLT ISZERO PUSH2 0xC6 JUMPI DUP1 CALLDATALOAD SWAP1 PUSH8 0xFFFFFFFFFFFFFFFF DUP3 GT PUSH2 0x18C JUMPI PUSH1 0x40 MLOAD SWAP3 PUSH2 0x1C6 PUSH1 0x1F DUP5 ADD PUSH1 0x1F NOT AND PUSH1 0x20 ADD DUP6 PUSH2 0x16A JUMP JUMPDEST DUP3 DUP5 MSTORE PUSH1 0x20 DUP4 DUP4 ADD ADD GT PUSH2 0xC6 JUMPI DUP2 PUSH1 0x0 SWAP3 PUSH1 0x20 DUP1 SWAP4 ADD DUP4 DUP7 ADD CALLDATACOPY DUP4 ADD ADD MSTORE SWAP1 JUMP JUMPDEST PUSH1 0xE4 CALLDATALOAD SWAP1 PUSH1 0x1 PUSH1 0x1 PUSH1 0xA0 SHL SUB DUP3 AND DUP3 SUB PUSH2 0xC6 JUMPI JUMP JUMPDEST CALLVALUE PUSH2 0xC6 JUMPI PUSH2 0x100 CALLDATASIZE PUSH1 0x3 NOT ADD SLT PUSH2 0xC6 JUMPI PUSH1 0x44 CALLDATALOAD PUSH1 0x4 CALLDATALOAD PUSH1 0x24 CALLDATALOAD PUSH12 0xFFFFFFFFFFFFFFFFFFFFFFFF NOT DUP4 AND DUP4 SUB PUSH2 0xC6 JUMPI PUSH1 0x64 CALLDATALOAD PUSH1 0x84 CALLDATALOAD PUSH8 0xFFFFFFFFFFFFFFFF DUP2 GT PUSH2 0xC6 JUMPI PUSH2 0x252 SWAP1 CALLDATASIZE SWAP1 PUSH1 0x4 ADD PUSH2 0x191 JUMP JUMPDEST PUSH1 0xA4 CALLDATALOAD SWAP2 PUSH1 0xC4 CALLDATALOAD SWAP6 PUSH8 0xFFFFFFFFFFFFFFFF DUP8 GT PUSH2 0xC6 JUMPI PUSH2 0x27A PUSH2 0x289 SWAP8 CALLDATASIZE SWAP1 PUSH1 0x4 ADD PUSH2 0x191 JUMP JUMPDEST SWAP5 PUSH2 0x283 PUSH2 0x1E8 JUMP JUMPDEST SWAP7 PUSH2 0x433 JUMP JUMPDEST STOP JUMPDEST CALLVALUE PUSH2 0xC6 JUMPI PUSH1 0x0 CALLDATASIZE PUSH1 0x3 NOT ADD SLT PUSH2 0xC6 JUMPI PUSH1 0x20 PUSH1 0x1F SLOAD PUSH1 0x40 MLOAD SWAP1 DUP2 MSTORE RETURN JUMPDEST CALLVALUE PUSH2 0xC6 JUMPI PUSH1 0x20 CALLDATASIZE PUSH1 0x3 NOT ADD SLT PUSH2 0xC6 JUMPI PUSH1 0x20 PUSH2 0x2C7 PUSH1 0x4 CALLDATALOAD PUSH2 0x612 JUMP JUMPDEST PUSH1 0x40 MLOAD SWAP1 ISZERO ISZERO DUP2 MSTORE RETURN JUMPDEST CALLVALUE PUSH2 0xC6 JUMPI PUSH1 0x0 CALLDATASIZE PUSH1 0x3 NOT ADD SLT PUSH2 0xC6 JUMPI PUSH1 0x20 PUSH1 0xF SLOAD PUSH1 0x40 MLOAD SWAP1 DUP2 MSTORE RETURN JUMPDEST CALLVALUE PUSH2 0xC6 JUMPI PUSH1 0x0 CALLDATASIZE PUSH1 0x3 NOT ADD SLT PUSH2 0xC6 JUMPI PUSH1 0x20 PUSH1 0x40 MLOAD PUSH1 0x10 DUP2 MSTORE RETURN JUMPDEST PUSH1 0x40 MLOAD SWAP1 PUSH1 0x0 DUP1 DUP4 JUMPDEST PUSH1 0x10 DUP3 LT PUSH2 0x32D JUMPI POP POP POP PUSH2 0x32B PUSH2 0x200 DUP4 PUSH2 0x16A JUMP JUMPDEST JUMP JUMPDEST PUSH1 0x1 PUSH1 0x20 DUP2 SWAP3 DUP6 SLOAD DUP2 MSTORE ADD SWAP4 ADD SWAP2 ADD SWAP1 SWAP2 PUSH2 0x314 JUMP JUMPDEST PUSH4 0x4E487B71 PUSH1 0xE0 SHL PUSH1 0x0 MSTORE PUSH1 0x32 PUSH1 0x4 MSTORE PUSH1 0x24 PUSH1 0x0 REVERT JUMPDEST DUP1 MLOAD ISZERO PUSH2 0x366 JUMPI PUSH1 0x20 ADD SWAP1 JUMP JUMPDEST PUSH2 0x343 JUMP JUMPDEST PUSH1 0x10 DUP2 LT ISZERO PUSH2 0x366 JUMPI SWAP1 PUSH1 0x0 SWAP1 JUMP JUMPDEST SWAP1 DUP2 PUSH1 0x20 SWAP2 SUB SLT PUSH2 0xC6 JUMPI MLOAD DUP1 ISZERO ISZERO DUP2 SUB PUSH2 0xC6 JUMPI SWAP1 JUMP JUMPDEST SWAP6 SWAP5 SWAP4 SWAP3 SWAP2 SWAP1 SWAP9 SWAP8 SWAP7 SWAP9 DUP7 MSTORE PUSH1 0x20 DUP7 ADD MSTORE PUSH1 0x40 DUP6 ADD MSTORE PUSH12 0xFFFFFFFFFFFFFFFFFFFFFFFF NOT AND PUSH1 0x60 DUP5 ADD MSTORE PUSH1 0x80 DUP4 ADD MSTORE PUSH2 0x100 PUSH1 0xA0 DUP4 ADD MSTORE DUP1 MLOAD SWAP1 DUP2 PUSH2 0x100 DUP5 ADD MSTORE PUSH1 0x0 JUMPDEST DUP3 DUP2 LT PUSH2 0x410 JUMPI POP POP DUP2 PUSH2 0x120 DUP3 PUSH1 0x0 DUP3 PUSH1 0xE0 SWAP6 PUSH2 0x32B SWAP9 SWAP8 ADD ADD MSTORE PUSH1 0x1F DUP1 NOT SWAP2 ADD AND DUP3 ADD ADD SWAP6 PUSH1 0xC0 DUP3 ADD MSTORE ADD SWAP1 PUSH1 0x1 DUP1 PUSH1 0xA0 SHL SUB AND SWAP1 MSTORE JUMP JUMPDEST DUP1 PUSH1 0x20 DUP1 SWAP3 DUP5 ADD ADD MLOAD PUSH2 0x120 DUP3 DUP8 ADD ADD MSTORE ADD PUSH2 0x3D6 JUMP JUMPDEST PUSH1 0x40 MLOAD RETURNDATASIZE PUSH1 0x0 DUP3 RETURNDATACOPY RETURNDATASIZE SWAP1 REVERT JUMPDEST SWAP1 SWAP4 SWAP2 SWAP5 SWAP8 SWAP7 SWAP8 PUSH32 0xD0591206D9E81E07F4DEFC5327957173572BCD1BCA7838CAA7BE39B0C12B1873 DUP6 SUB PUSH2 0x5FC JUMPI PUSH1 0x1 PUSH1 0xF8 SHL PUSH1 0x1 PUSH1 0x1 PUSH1 0xF8 SHL SUB NOT PUSH2 0x489 PUSH2 0x47B DUP11 PUSH2 0x359 JUMP JUMPDEST MLOAD PUSH1 0x1 PUSH1 0x1 PUSH1 0xF8 SHL SUB NOT AND SWAP1 JUMP JUMPDEST AND EQ SWAP3 PUSH1 0x20 SLOAD SWAP4 PUSH2 0x4A2 PUSH2 0x49D DUP7 PUSH1 0xFF AND SWAP1 JUMP JUMPDEST ISZERO ISZERO SWAP1 JUMP JUMPDEST SUB PUSH2 0x5EB JUMPI PUSH1 0x21 DUP9 ADD MLOAD PUSH2 0x4C3 PUSH2 0x4B9 PUSH1 0xF PUSH2 0x36B JUMP JUMPDEST SWAP1 SLOAD SWAP1 PUSH1 0x3 SHL SHR SWAP1 JUMP JUMPDEST DUP2 SUB PUSH2 0x5BD JUMPI POP SWAP9 PUSH2 0x51C SWAP2 DUP9 SWAP10 SWAP11 PUSH2 0x4FE PUSH2 0x4F2 DUP12 PUSH1 0x20 DUP1 SWAP13 SWAP14 MLOAD SWAP2 ADD KECCAK256 SWAP8 PUSH1 0x1 DUP1 PUSH1 0xA0 SHL SUB SWAP1 PUSH1 0x8 SHR AND SWAP1 JUMP JUMPDEST PUSH1 0x1 PUSH1 0x1 PUSH1 0xA0 SHL SUB AND SWAP1 JUMP JUMPDEST SWAP7 PUSH1 0x40 MLOAD SWAP11 DUP12 SWAP10 DUP11 SWAP9 DUP10 SWAP9 PUSH4 0x6045A91 PUSH1 0xE0 SHL DUP11 MSTORE PUSH1 0x4 DUP11 ADD PUSH2 0x392 JUMP JUMPDEST SUB SWAP2 GAS STATICCALL SWAP1 DUP2 ISZERO PUSH2 0x5B8 JUMPI PUSH1 0x0 SWAP2 PUSH2 0x589 JUMPI JUMPDEST POP ISZERO PUSH2 0x578 JUMPI PUSH1 0x0 SWAP1 PUSH1 0x10 PUSH2 0x241 PUSH1 0x41 DUP4 ADD SWAP3 ADD PUSH1 0x0 SWAP3 JUMPDEST PUSH1 0x10 DUP5 LT PUSH2 0x556 JUMPI POP POP POP POP POP JUMP JUMPDEST PUSH1 0x1 PUSH1 0x20 DUP2 DUP2 DUP5 DUP3 SWAP6 MLOAD DUP11 SSTORE ADD SWAP8 ADD SWAP4 DUP1 MLOAD DUP7 SSTORE ADD SWAP4 ADD SWAP4 ADD SWAP3 SWAP2 SWAP1 SWAP4 PUSH2 0x547 JUMP JUMPDEST PUSH4 0x114602F PUSH1 0xE4 SHL PUSH1 0x0 MSTORE PUSH1 0x4 PUSH1 0x0 REVERT JUMPDEST PUSH2 0x5AB SWAP2 POP PUSH1 0x20 RETURNDATASIZE PUSH1 0x20 GT PUSH2 0x5B1 JUMPI JUMPDEST PUSH2 0x5A3 DUP2 DUP4 PUSH2 0x16A JUMP JUMPDEST DUP2 ADD SWAP1 PUSH2 0x37A JUMP JUMPDEST CODESIZE PUSH2 0x52F JUMP JUMPDEST POP RETURNDATASIZE PUSH2 0x599 JUMP JUMPDEST PUSH2 0x427 JUMP JUMPDEST PUSH2 0x5E7 SWAP1 PUSH2 0x5CE PUSH2 0x4B9 PUSH1 0xF PUSH2 0x36B JUMP JUMPDEST PUSH4 0x177B0025 PUSH1 0xE3 SHL PUSH1 0x0 MSTORE PUSH1 0x4 SWAP2 SWAP1 SWAP2 MSTORE PUSH1 0x24 MSTORE PUSH1 0x44 SWAP1 JUMP JUMPDEST PUSH1 0x0 REVERT JUMPDEST PUSH4 0x42EB0CF PUSH1 0xE0 SHL PUSH1 0x0 MSTORE PUSH1 0x4 PUSH1 0x0 REVERT JUMPDEST PUSH4 0xC35F1ECD PUSH1 0xE0 SHL PUSH1 0x0 MSTORE PUSH1 0x4 DUP6 SWAP1 MSTORE PUSH1 0x24 PUSH1 0x0 REVERT JUMPDEST PUSH1 0x0 JUMPDEST PUSH1 0x10 DUP2 LT PUSH2 0x624 JUMPI POP POP PUSH1 0x0 SWAP1 JUMP JUMPDEST DUP1 PUSH1 0xF SUB PUSH1 0xF DUP2 GT PUSH2 0x652 JUMPI PUSH1 0x10 DUP2 LT ISZERO PUSH2 0x366 JUMPI PUSH1 0x10 ADD SLOAD DUP3 EQ PUSH2 0x64B JUMPI PUSH1 0x1 ADD PUSH2 0x615 JUMP JUMPDEST POP POP PUSH1 0x1 SWAP1 JUMP JUMPDEST PUSH4 0x4E487B71 PUSH1 0xE0 SHL PUSH1 0x0 MSTORE PUSH1 0x11 PUSH1 0x4 MSTORE PUSH1 0x24 PUSH1 0x0 REVERT INVALID LOG2 PUSH5 0x6970667358 0x22 SLT KECCAK256 SWAP5 0xBD LOG0 STOP 0xE6 EXTCODESIZE REVERT MSTORE8 DUP1 PUSH3 0xD75C83 0xAD 0xC2 0x26 0x2E BLOBBASEFEE DUP16 0xE3 0xEC 0xFC DUP14 0x21 PUSH17 0x51E1CC59BA2D564736F6C634300081C00 CALLER "},"methodIdentifiers":{"BRIDGE_TRANSITION_FRONTIER_LEN()":"fb299cd8","getChainLedgerHashes()":"2bc4f8d9","getChainStateHashes()":"03f93e50","getTipLedgerHash()":"3886c09b","getTipStateHash()":"b8184745","isLedgerVerified(bytes32)":"3e16b011","updateChain(bytes32,bytes32,bytes20,bytes32,bytes,uint256,bytes,address)":"37baff0f"}}}}}