{"project/contracts/NoriTokenBridge.sol":{"NoriTokenBridge":{"abi":[{"inputs":[],"stateMutability":"payable","type":"constructor"},{"inputs":[],"name":"AlignedContractsNotConfigured","type":"error"},{"inputs":[],"name":"NotBridgeOperator","type":"error"},{"inputs":[],"name":"ZeroAddress","type":"error"},{"anonymous":false,"inputs":[{"indexed":true,"internalType":"address","name":"newAddress","type":"address"}],"name":"AccountValidationSet","type":"event"},{"anonymous":false,"inputs":[{"indexed":true,"internalType":"address","name":"newAddress","type":"address"}],"name":"StateSettlementSet","type":"event"},{"anonymous":false,"inputs":[{"indexed":true,"internalType":"address","name":"user","type":"address"},{"indexed":false,"internalType":"uint256","name":"attestationHash","type":"uint256"},{"indexed":false,"internalType":"uint256","name":"amount","type":"uint256"},{"indexed":false,"internalType":"uint256","name":"when","type":"uint256"}],"name":"TokensLocked","type":"event"},{"anonymous":false,"inputs":[{"indexed":true,"internalType":"uint256","name":"pubKeyTokenIdHash","type":"uint256"},{"indexed":false,"internalType":"uint256","name":"amount","type":"uint256"},{"indexed":false,"internalType":"address","name":"receiver","type":"address"},{"indexed":false,"internalType":"uint256","name":"when","type":"uint256"}],"name":"TokensUnlocked","type":"event"},{"inputs":[],"name":"DECIMALS","outputs":[{"internalType":"uint8","name":"","type":"uint8"}],"stateMutability":"view","type":"function"},{"inputs":[],"name":"MAX_MAGNITUDE","outputs":[{"internalType":"uint64","name":"","type":"uint64"}],"stateMutability":"view","type":"function"},{"inputs":[],"name":"WEI_PER_BRIDGE_UNIT","outputs":[{"internalType":"uint256","name":"","type":"uint256"}],"stateMutability":"view","type":"function"},{"inputs":[],"name":"bridgeOperator","outputs":[{"internalType":"address","name":"","type":"address"}],"stateMutability":"view","type":"function"},{"inputs":[{"internalType":"uint256","name":"","type":"uint256"}],"name":"burnSoFarSet","outputs":[{"internalType":"uint256","name":"","type":"uint256"}],"stateMutability":"view","type":"function"},{"inputs":[{"internalType":"uint256","name":"","type":"uint256"}],"name":"codeChallengeToEthAddress","outputs":[{"internalType":"address","name":"","type":"address"}],"stateMutability":"view","type":"function"},{"inputs":[],"name":"isConfigured","outputs":[{"internalType":"bool","name":"","type":"bool"}],"stateMutability":"view","type":"function"},{"inputs":[{"internalType":"uint256","name":"attestationHash","type":"uint256"}],"name":"lockTokens","outputs":[],"stateMutability":"payable","type":"function"},{"inputs":[{"internalType":"address","name":"","type":"address"},{"internalType":"uint256","name":"","type":"uint256"}],"name":"lockedTokens","outputs":[{"internalType":"uint256","name":"","type":"uint256"}],"stateMutability":"view","type":"function"},{"inputs":[{"internalType":"address","name":"_stateSettlementAddr","type":"address"},{"internalType":"address","name":"_accountValidationAddr","type":"address"}],"name":"setAlignedContracts","outputs":[],"stateMutability":"nonpayable","type":"function"},{"inputs":[],"name":"totalLocked","outputs":[{"internalType":"uint256","name":"","type":"uint256"}],"stateMutability":"view","type":"function"},{"inputs":[{"internalType":"uint256","name":"toUnlockAmount","type":"uint256"},{"internalType":"bytes32","name":"proofCommitment","type":"bytes32"},{"internalType":"bytes32","name":"provingSystemAuxDataCommitment","type":"bytes32"},{"internalType":"bytes20","name":"proofGeneratorAddr","type":"bytes20"},{"internalType":"bytes32","name":"batchMerkleRoot","type":"bytes32"},{"internalType":"bytes","name":"merkleProof","type":"bytes"},{"internalType":"uint256","name":"verificationDataBatchIndex","type":"uint256"},{"internalType":"bytes","name":"pubInput","type":"bytes"},{"internalType":"address","name":"batcherPaymentService","type":"address"}],"name":"unlockTokens","outputs":[],"stateMutability":"nonpayable","type":"function"},{"inputs":[],"name":"withdraw","outputs":[],"stateMutability":"nonpayable","type":"function"}],"evm":{"bytecode":{"linkReferences":{},"object":"608060408190525f80546001600160a01b031916331790556112c190816100248239f3fe6080806040526004361015610012575f80fd5b5f905f3560e01c9081632e0f262514611093575080633471f65e146110695780633ccfd60b14610fdd57806353719b6e14610f9957806354506bb414610f675780635689141214610f4a578063590665c214610f235780635f82dea814610e355780636e27d88914610bcb578063c58f219c14610ba9578063ca430143146100f6578063d3a057c8146100d15763e7ece690146100ad575f80fd5b346100ce57806003193601126100ce5750602064e8d4a51000604051908152f35b80fd5b50346100ce57806003193601126100ce5760206100ec611263565b6040519015158152f35b50346100ce576101203660031901126100ce57600435606435906001600160601b03198216809203610ba55760a4356001600160401b038111610ba15761014190369060040161115f565b60e4356001600160401b038111610ab75736602382011215610ab75780600401356001600160401b038111610ab35760248201818301936024850196368811610a4b57610104356001600160a01b03811692908390036109ef576101a3611263565b15610b9257846020116109ef576024602060018060a01b036004541660405192838092633e16b01160e01b8252893560048301525afa908115610b87578b91610b68575b5015610b32576020926040516101fc816110c2565b6024358152848101916044358352604082019485526102c1606083019760843589526080840195865261023a60a085019160c43583528b369161111a565b60c0850190815260e085019384526102a860018060a01b0360055416976040519b8c9a8b998a99639029ad1560e01b8b528e60048c01525160248b01525160448a01526001600160601b031990511660648901525160848801525161010060a48801526101248701906111b6565b915160c4860152518482036023190160e48601526111b6565b90516001600160a01b031661010483015203915afa908115610b27578791610af8575b5015610abb57602811610ab75760206027198284030112610ab757604c810135906001600160401b038211610ab357016024604b198284030101916103c08312610ab3576040519161016083018381106001600160401b03821117610a9f5760405261035386604c83016111e7565b83526020830193608c820135855260ac8201356001600160401b038111610a4b57604c9083010187601f82011215610a4b57878160206103959335910161111a565b60408501526103a660cc8301611216565b60608501526103b760ec830161122a565b608085015261010c82013560a08501526103d58761012c84016111e7565b60c085015261016c82013560e085015260a061013f198201126109db5760405160a081018181106001600160401b03821117610a8b576040526101c0919061042061018c8501611216565b815261042f6101ac850161122a565b60208201526104416101cc8501611216565b60408201526104536101ec850161122a565b606082015261046561020c8501611216565b60808201526101008601526101df190112610a07576040516101c081018181106001600160401b03821117610a775760405261022c8201356005811015610a4b57815261024c8201356005811015610a4b57602082015261026c8201356005811015610a4b57604082015261028c8201356005811015610a4b5760608201526102ac8201356005811015610a4b5760808201526102cc8201356005811015610a4b5760a08201526102ec8201356005811015610a4b5760c082015261052d61030c830161122a565b60e082015261032c8201356005811015610a4b5761010082015261034c8201356005811015610a4b5761012082015261036c8201356005811015610a4b5761014082015261038c8201356005811015610a4b576101608201526103ac8201356005811015610a4b576101808201526103cc8201356005811015610a4b576101a08201526101208401526103ec810135906001600160401b0382116109db57602491604c91010180920301946109608612610a07576040519560e087018781106001600160401b03821117610a775760405281601f840112156109db5760405190610619610100836110f9565b81610100850192848411610a735785905b848210610a63575050885261074060ff19820112610a4b5760405191606083018381106001600160401b03821117610a4f576040523560038110156109ef5782526101208401359060038210156109ef5761070091602084015261013f1901126109db5760405161069a816110c2565b8261015f85011215610a4b576040516106b460e0826110f9565b80610300860191858311610a47576101408701905b838210610a2d57505082528361031f860112156109ef576040516106ef6101e0826110f9565b806106c0870192868411610a29578692915b848210610a0b57505060208401526107189161123b565b604082015261072b83610700860161123b565b606082015261073e83610740860161123b565b608082015261075183610780860161123b565b60a0820152610764836107c0860161123b565b60c082015261077783610800860161123b565b60e082015260408201526020870152610793610840830161122a565b60408701528061087f83011215610a07576040516107b260a0826110f9565b806109008401918383116109ef576108608501905b8382106109df57505060608801526107de9061122a565b60808701526107f061092083016111da565b60a08701526109408201356001600160401b0381116109db57610813920161115f565b60c08501526101408101938452519051604051906020808301938051855201511515604083015260608201526060815261084e6080826110f9565b519020918284526006602052604084205460408251510151818103908082116109c757821461096b57831161090857826108879161117d565b838552600660205260408520555151606001516001600160a01b03168382828282156108ff575b839283928392f1156108f4577fb9ca611be7435f3c6f1241086b057aa49a657c2888526894a9fc370e482b0afb916060916040519182526020820152426040820152a280f35b6040513d85823e3d90fd5b506108fc6108ae565b60405162461bcd60e51b815260206004820152603560248201527f546f20756e6c6f636b20616d6f756e742069732067726561746572207468616e6044820152742074686520616d6f756e7420746f20756e6c6f636b60581b6064820152608490fd5b60405162461bcd60e51b815260206004820152602e60248201527f4275726e20736f206661722069732067726561746572207468616e207468652060448201526d30b6b7bab73a103a3790313ab93760911b6064820152608490fd5b634e487b7160e01b87526011600452602487fd5b8780fd5b81358152602091820191016107c7565b8980fd5b634e487b7160e01b5f52604160045260245ffd5b8680fd5b602090610a1c83949560409461123b565b8152019101869291610701565b8c80fd5b6020604091610a3c898561123b565b8152019101906106c9565b8b80fd5b8880fd5b634e487b7160e01b8b52604160045260248bfd5b813581526020918201910161062a565b8a80fd5b634e487b7160e01b89526041600452602489fd5b634e487b7160e01b8a52604160045260248afd5b634e487b7160e01b88526041600452602488fd5b8580fd5b8480fd5b60405162461bcd60e51b8152602060048201526015602482015274125b9d985b1a5908169ad85c1c081058d8dbdd5b9d605a1b6044820152606490fd5b610b1a915060203d602011610b20575b610b1281836110f9565b81019061119e565b5f6102e4565b503d610b08565b6040513d89823e3d90fd5b60405162461bcd60e51b815260206004820152600e60248201526d24b73b30b634b2102632b233b2b960911b6044820152606490fd5b610b81915060203d602011610b2057610b1281836110f9565b5f6101e7565b6040513d8d823e3d90fd5b631158015d60e31b8a5260048afd5b8380fd5b8280fd5b50346100ce57806003193601126100ce5760206040516001600160401b038152f35b6020366003190112610e3157600435610be2611263565b15610e22573415610dde5764e8d4a51000803404903406610d88576001600160401b03610c118260025461117d565b11610d37575f828152600360205260409020546001600160a01b031680610cbd57505f82815260036020526040902080546001600160a01b03191633179055610c80905b335f52600160205260405f20835f5260205260405f20610c7634825461117d565b905560025461117d565b6002556040519081523460208201524260408201527f90e20a62e0f2a608d33bd96a4e15cb853006a15caf4455f373b7b55de520b68c60603392a2005b3303610ccc57610c8090610c55565b60405162461bcd60e51b815260206004820152603e60248201527f54686973204d696e61206163636f756e7420697320616c7265616479206c696e60448201527f6b656420746f206120646966666572656e7420455448206164647265737300006064820152608490fd5b60405162461bcd60e51b8152602060048201526024808201527f546f74616c206c6f636b65642065786365656473206d6178696d756d20616c6c6044820152631bddd95960e21b6064820152608490fd5b60405162461bcd60e51b815260206004820152602860248201527f4d757374206265206d756c7469706c65206f6620736d616c6c657374206272696044820152671919d9481d5b9a5d60c21b6064820152608490fd5b606460405162461bcd60e51b815260206004820152602060248201527f596f75206d7573742073656e6420736f6d6520457468657220746f206c6f636b6044820152fd5b631158015d60e31b5f5260045ffd5b5f80fd5b34610e31576040366003190112610e3157610e4e6110ac565b6024356001600160a01b0381169190829003610e31575f546001600160a01b03163303610f14576001600160a01b031680158015610f0c575b610efd57806001600160601b0360a01b6004541617600455816001600160601b0360a01b60055416176005557f9ffaad5d5d3a89ca0a826d0a585796cef555c81564727dc06c9eefa27bb9c7395f80a27f8fbe9777c0f01f68e53ad387c04b3a2b8786c57e6fc4344300e32f7ca29050595f80a2005b63d92e233d60e01b5f5260045ffd5b508115610e87565b6360fb4b4960e01b5f5260045ffd5b34610e31575f366003190112610e31575f546040516001600160a01b039091168152602090f35b34610e31575f366003190112610e31576020600254604051908152f35b34610e31576020366003190112610e31576004355f526003602052602060018060a01b0360405f205416604051908152f35b34610e31576040366003190112610e31576001600160a01b03610fba6110ac565b165f52600160205260405f206024355f52602052602060405f2054604051908152f35b34610e31575f366003190112610e31575f546001600160a01b031633819003610f1457611008611263565b15610e22574790811561102f575f808093819382f11561102457005b6040513d5f823e3d90fd5b60405162461bcd60e51b81526020600482015260126024820152714e6f2045544820746f20776974686472617760701b6044820152606490fd5b34610e31576020366003190112610e31576004355f526006602052602060405f2054604051908152f35b34610e31575f366003190112610e315780600660209252f35b600435906001600160a01b0382168203610e3157565b61010081019081106001600160401b038211176109f357604052565b604081019081106001600160401b038211176109f357604052565b90601f801991011681019081106001600160401b038211176109f357604052565b9291926001600160401b0382116109f35760405191611143601f8201601f1916602001846110f9565b829481845281830111610e31578281602093845f960137010152565b9080601f83011215610e315781602061117a9335910161111a565b90565b9190820180921161118a57565b634e487b7160e01b5f52601160045260245ffd5b90816020910312610e3157518015158103610e315790565b805180835260209291819084018484015e5f828201840152601f01601f1916010190565b35908115158203610e3157565b9190826040910312610e31576040516111ff816110de565b602061121181839580358552016111da565b910152565b35906001600160401b0382168203610e3157565b359063ffffffff82168203610e3157565b9190826040910312610e3157604051611253816110de565b6020808294803584520135910152565b6004546001600160a01b03161515806112795790565b506005546001600160a01b031615159056fea26469706673582212201d373e7e458699eec776feeafbdfc50628ce944c6221f87494928a79d411615564736f6c634300081c0033","opcodes":"PUSH1 0x80 PUSH1 0x40 DUP2 SWAP1 MSTORE PUSH0 DUP1 SLOAD PUSH1 0x1 PUSH1 0x1 PUSH1 0xA0 SHL SUB NOT AND CALLER OR SWAP1 SSTORE PUSH2 0x12C1 SWAP1 DUP2 PUSH2 0x24 DUP3 CODECOPY RETURN INVALID PUSH1 0x80 DUP1 PUSH1 0x40 MSTORE PUSH1 0x4 CALLDATASIZE LT ISZERO PUSH2 0x12 JUMPI PUSH0 DUP1 REVERT JUMPDEST PUSH0 SWAP1 PUSH0 CALLDATALOAD PUSH1 0xE0 SHR SWAP1 DUP2 PUSH4 0x2E0F2625 EQ PUSH2 0x1093 JUMPI POP DUP1 PUSH4 0x3471F65E EQ PUSH2 0x1069 JUMPI DUP1 PUSH4 0x3CCFD60B EQ PUSH2 0xFDD JUMPI DUP1 PUSH4 0x53719B6E EQ PUSH2 0xF99 JUMPI DUP1 PUSH4 0x54506BB4 EQ PUSH2 0xF67 JUMPI DUP1 PUSH4 0x56891412 EQ PUSH2 0xF4A JUMPI DUP1 PUSH4 0x590665C2 EQ PUSH2 0xF23 JUMPI DUP1 PUSH4 0x5F82DEA8 EQ PUSH2 0xE35 JUMPI DUP1 PUSH4 0x6E27D889 EQ PUSH2 0xBCB JUMPI DUP1 PUSH4 0xC58F219C EQ PUSH2 0xBA9 JUMPI DUP1 PUSH4 0xCA430143 EQ PUSH2 0xF6 JUMPI DUP1 PUSH4 0xD3A057C8 EQ PUSH2 0xD1 JUMPI PUSH4 0xE7ECE690 EQ PUSH2 0xAD JUMPI PUSH0 DUP1 REVERT JUMPDEST CALLVALUE PUSH2 0xCE JUMPI DUP1 PUSH1 0x3 NOT CALLDATASIZE ADD SLT PUSH2 0xCE JUMPI POP PUSH1 0x20 PUSH5 0xE8D4A51000 PUSH1 0x40 MLOAD SWAP1 DUP2 MSTORE RETURN JUMPDEST DUP1 REVERT JUMPDEST POP CALLVALUE PUSH2 0xCE JUMPI DUP1 PUSH1 0x3 NOT CALLDATASIZE ADD SLT PUSH2 0xCE JUMPI PUSH1 0x20 PUSH2 0xEC PUSH2 0x1263 JUMP JUMPDEST PUSH1 0x40 MLOAD SWAP1 ISZERO ISZERO DUP2 MSTORE RETURN JUMPDEST POP CALLVALUE PUSH2 0xCE JUMPI PUSH2 0x120 CALLDATASIZE PUSH1 0x3 NOT ADD SLT PUSH2 0xCE JUMPI PUSH1 0x4 CALLDATALOAD PUSH1 0x64 CALLDATALOAD SWAP1 PUSH1 0x1 PUSH1 0x1 PUSH1 0x60 SHL SUB NOT DUP3 AND DUP1 SWAP3 SUB PUSH2 0xBA5 JUMPI PUSH1 0xA4 CALLDATALOAD PUSH1 0x1 PUSH1 0x1 PUSH1 0x40 SHL SUB DUP2 GT PUSH2 0xBA1 JUMPI PUSH2 0x141 SWAP1 CALLDATASIZE SWAP1 PUSH1 0x4 ADD PUSH2 0x115F JUMP JUMPDEST PUSH1 0xE4 CALLDATALOAD PUSH1 0x1 PUSH1 0x1 PUSH1 0x40 SHL SUB DUP2 GT PUSH2 0xAB7 JUMPI CALLDATASIZE PUSH1 0x23 DUP3 ADD SLT ISZERO PUSH2 0xAB7 JUMPI DUP1 PUSH1 0x4 ADD CALLDATALOAD PUSH1 0x1 PUSH1 0x1 PUSH1 0x40 SHL SUB DUP2 GT PUSH2 0xAB3 JUMPI PUSH1 0x24 DUP3 ADD DUP2 DUP4 ADD SWAP4 PUSH1 0x24 DUP6 ADD SWAP7 CALLDATASIZE DUP9 GT PUSH2 0xA4B JUMPI PUSH2 0x104 CALLDATALOAD PUSH1 0x1 PUSH1 0x1 PUSH1 0xA0 SHL SUB DUP2 AND SWAP3 SWAP1 DUP4 SWAP1 SUB PUSH2 0x9EF JUMPI PUSH2 0x1A3 PUSH2 0x1263 JUMP JUMPDEST ISZERO PUSH2 0xB92 JUMPI DUP5 PUSH1 0x20 GT PUSH2 0x9EF JUMPI PUSH1 0x24 PUSH1 0x20 PUSH1 0x1 DUP1 PUSH1 0xA0 SHL SUB PUSH1 0x4 SLOAD AND PUSH1 0x40 MLOAD SWAP3 DUP4 DUP1 SWAP3 PUSH4 0x3E16B011 PUSH1 0xE0 SHL DUP3 MSTORE DUP10 CALLDATALOAD PUSH1 0x4 DUP4 ADD MSTORE GAS STATICCALL SWAP1 DUP2 ISZERO PUSH2 0xB87 JUMPI DUP12 SWAP2 PUSH2 0xB68 JUMPI JUMPDEST POP ISZERO PUSH2 0xB32 JUMPI PUSH1 0x20 SWAP3 PUSH1 0x40 MLOAD PUSH2 0x1FC DUP2 PUSH2 0x10C2 JUMP JUMPDEST PUSH1 0x24 CALLDATALOAD DUP2 MSTORE DUP5 DUP2 ADD SWAP2 PUSH1 0x44 CALLDATALOAD DUP4 MSTORE PUSH1 0x40 DUP3 ADD SWAP5 DUP6 MSTORE PUSH2 0x2C1 PUSH1 0x60 DUP4 ADD SWAP8 PUSH1 0x84 CALLDATALOAD DUP10 MSTORE PUSH1 0x80 DUP5 ADD SWAP6 DUP7 MSTORE PUSH2 0x23A PUSH1 0xA0 DUP6 ADD SWAP2 PUSH1 0xC4 CALLDATALOAD DUP4 MSTORE DUP12 CALLDATASIZE SWAP2 PUSH2 0x111A JUMP JUMPDEST PUSH1 0xC0 DUP6 ADD SWAP1 DUP2 MSTORE PUSH1 0xE0 DUP6 ADD SWAP4 DUP5 MSTORE PUSH2 0x2A8 PUSH1 0x1 DUP1 PUSH1 0xA0 SHL SUB PUSH1 0x5 SLOAD AND SWAP8 PUSH1 0x40 MLOAD SWAP12 DUP13 SWAP11 DUP12 SWAP10 DUP11 SWAP10 PUSH4 0x9029AD15 PUSH1 0xE0 SHL DUP12 MSTORE DUP15 PUSH1 0x4 DUP13 ADD MSTORE MLOAD PUSH1 0x24 DUP12 ADD MSTORE MLOAD PUSH1 0x44 DUP11 ADD MSTORE PUSH1 0x1 PUSH1 0x1 PUSH1 0x60 SHL SUB NOT SWAP1 MLOAD AND PUSH1 0x64 DUP10 ADD MSTORE MLOAD PUSH1 0x84 DUP9 ADD MSTORE MLOAD PUSH2 0x100 PUSH1 0xA4 DUP9 ADD MSTORE PUSH2 0x124 DUP8 ADD SWAP1 PUSH2 0x11B6 JUMP JUMPDEST SWAP2 MLOAD PUSH1 0xC4 DUP7 ADD MSTORE MLOAD DUP5 DUP3 SUB PUSH1 0x23 NOT ADD PUSH1 0xE4 DUP7 ADD MSTORE PUSH2 0x11B6 JUMP JUMPDEST SWAP1 MLOAD PUSH1 0x1 PUSH1 0x1 PUSH1 0xA0 SHL SUB AND PUSH2 0x104 DUP4 ADD MSTORE SUB SWAP2 GAS STATICCALL SWAP1 DUP2 ISZERO PUSH2 0xB27 JUMPI DUP8 SWAP2 PUSH2 0xAF8 JUMPI JUMPDEST POP ISZERO PUSH2 0xABB JUMPI PUSH1 0x28 GT PUSH2 0xAB7 JUMPI PUSH1 0x20 PUSH1 0x27 NOT DUP3 DUP5 SUB ADD SLT PUSH2 0xAB7 JUMPI PUSH1 0x4C DUP2 ADD CALLDATALOAD SWAP1 PUSH1 0x1 PUSH1 0x1 PUSH1 0x40 SHL SUB DUP3 GT PUSH2 0xAB3 JUMPI ADD PUSH1 0x24 PUSH1 0x4B NOT DUP3 DUP5 SUB ADD ADD SWAP2 PUSH2 0x3C0 DUP4 SLT PUSH2 0xAB3 JUMPI PUSH1 0x40 MLOAD SWAP2 PUSH2 0x160 DUP4 ADD DUP4 DUP2 LT PUSH1 0x1 PUSH1 0x1 PUSH1 0x40 SHL SUB DUP3 GT OR PUSH2 0xA9F JUMPI PUSH1 0x40 MSTORE PUSH2 0x353 DUP7 PUSH1 0x4C DUP4 ADD PUSH2 0x11E7 JUMP JUMPDEST DUP4 MSTORE PUSH1 0x20 DUP4 ADD SWAP4 PUSH1 0x8C DUP3 ADD CALLDATALOAD DUP6 MSTORE PUSH1 0xAC DUP3 ADD CALLDATALOAD PUSH1 0x1 PUSH1 0x1 PUSH1 0x40 SHL SUB DUP2 GT PUSH2 0xA4B JUMPI PUSH1 0x4C SWAP1 DUP4 ADD ADD DUP8 PUSH1 0x1F DUP3 ADD SLT ISZERO PUSH2 0xA4B JUMPI DUP8 DUP2 PUSH1 0x20 PUSH2 0x395 SWAP4 CALLDATALOAD SWAP2 ADD PUSH2 0x111A JUMP JUMPDEST PUSH1 0x40 DUP6 ADD MSTORE PUSH2 0x3A6 PUSH1 0xCC DUP4 ADD PUSH2 0x1216 JUMP JUMPDEST PUSH1 0x60 DUP6 ADD MSTORE PUSH2 0x3B7 PUSH1 0xEC DUP4 ADD PUSH2 0x122A JUMP JUMPDEST PUSH1 0x80 DUP6 ADD MSTORE PUSH2 0x10C DUP3 ADD CALLDATALOAD PUSH1 0xA0 DUP6 ADD MSTORE PUSH2 0x3D5 DUP8 PUSH2 0x12C DUP5 ADD PUSH2 0x11E7 JUMP JUMPDEST PUSH1 0xC0 DUP6 ADD MSTORE PUSH2 0x16C DUP3 ADD CALLDATALOAD PUSH1 0xE0 DUP6 ADD MSTORE PUSH1 0xA0 PUSH2 0x13F NOT DUP3 ADD SLT PUSH2 0x9DB JUMPI PUSH1 0x40 MLOAD PUSH1 0xA0 DUP2 ADD DUP2 DUP2 LT PUSH1 0x1 PUSH1 0x1 PUSH1 0x40 SHL SUB DUP3 GT OR PUSH2 0xA8B JUMPI PUSH1 0x40 MSTORE PUSH2 0x1C0 SWAP2 SWAP1 PUSH2 0x420 PUSH2 0x18C DUP6 ADD PUSH2 0x1216 JUMP JUMPDEST DUP2 MSTORE PUSH2 0x42F PUSH2 0x1AC DUP6 ADD PUSH2 0x122A JUMP JUMPDEST PUSH1 0x20 DUP3 ADD MSTORE PUSH2 0x441 PUSH2 0x1CC DUP6 ADD PUSH2 0x1216 JUMP JUMPDEST PUSH1 0x40 DUP3 ADD MSTORE PUSH2 0x453 PUSH2 0x1EC DUP6 ADD PUSH2 0x122A JUMP JUMPDEST PUSH1 0x60 DUP3 ADD MSTORE PUSH2 0x465 PUSH2 0x20C DUP6 ADD PUSH2 0x1216 JUMP JUMPDEST PUSH1 0x80 DUP3 ADD MSTORE PUSH2 0x100 DUP7 ADD MSTORE PUSH2 0x1DF NOT ADD SLT PUSH2 0xA07 JUMPI PUSH1 0x40 MLOAD PUSH2 0x1C0 DUP2 ADD DUP2 DUP2 LT PUSH1 0x1 PUSH1 0x1 PUSH1 0x40 SHL SUB DUP3 GT OR PUSH2 0xA77 JUMPI PUSH1 0x40 MSTORE PUSH2 0x22C DUP3 ADD CALLDATALOAD PUSH1 0x5 DUP2 LT ISZERO PUSH2 0xA4B JUMPI DUP2 MSTORE PUSH2 0x24C DUP3 ADD CALLDATALOAD PUSH1 0x5 DUP2 LT ISZERO PUSH2 0xA4B JUMPI PUSH1 0x20 DUP3 ADD MSTORE PUSH2 0x26C DUP3 ADD CALLDATALOAD PUSH1 0x5 DUP2 LT ISZERO PUSH2 0xA4B JUMPI PUSH1 0x40 DUP3 ADD MSTORE PUSH2 0x28C DUP3 ADD CALLDATALOAD PUSH1 0x5 DUP2 LT ISZERO PUSH2 0xA4B JUMPI PUSH1 0x60 DUP3 ADD MSTORE PUSH2 0x2AC DUP3 ADD CALLDATALOAD PUSH1 0x5 DUP2 LT ISZERO PUSH2 0xA4B JUMPI PUSH1 0x80 DUP3 ADD MSTORE PUSH2 0x2CC DUP3 ADD CALLDATALOAD PUSH1 0x5 DUP2 LT ISZERO PUSH2 0xA4B JUMPI PUSH1 0xA0 DUP3 ADD MSTORE PUSH2 0x2EC DUP3 ADD CALLDATALOAD PUSH1 0x5 DUP2 LT ISZERO PUSH2 0xA4B JUMPI PUSH1 0xC0 DUP3 ADD MSTORE PUSH2 0x52D PUSH2 0x30C DUP4 ADD PUSH2 0x122A JUMP JUMPDEST PUSH1 0xE0 DUP3 ADD MSTORE PUSH2 0x32C DUP3 ADD CALLDATALOAD PUSH1 0x5 DUP2 LT ISZERO PUSH2 0xA4B JUMPI PUSH2 0x100 DUP3 ADD MSTORE PUSH2 0x34C DUP3 ADD CALLDATALOAD PUSH1 0x5 DUP2 LT ISZERO PUSH2 0xA4B JUMPI PUSH2 0x120 DUP3 ADD MSTORE PUSH2 0x36C DUP3 ADD CALLDATALOAD PUSH1 0x5 DUP2 LT ISZERO PUSH2 0xA4B JUMPI PUSH2 0x140 DUP3 ADD MSTORE PUSH2 0x38C DUP3 ADD CALLDATALOAD PUSH1 0x5 DUP2 LT ISZERO PUSH2 0xA4B JUMPI PUSH2 0x160 DUP3 ADD MSTORE PUSH2 0x3AC DUP3 ADD CALLDATALOAD PUSH1 0x5 DUP2 LT ISZERO PUSH2 0xA4B JUMPI PUSH2 0x180 DUP3 ADD MSTORE PUSH2 0x3CC DUP3 ADD CALLDATALOAD PUSH1 0x5 DUP2 LT ISZERO PUSH2 0xA4B JUMPI PUSH2 0x1A0 DUP3 ADD MSTORE PUSH2 0x120 DUP5 ADD MSTORE PUSH2 0x3EC DUP2 ADD CALLDATALOAD SWAP1 PUSH1 0x1 PUSH1 0x1 PUSH1 0x40 SHL SUB DUP3 GT PUSH2 0x9DB JUMPI PUSH1 0x24 SWAP2 PUSH1 0x4C SWAP2 ADD ADD DUP1 SWAP3 SUB ADD SWAP5 PUSH2 0x960 DUP7 SLT PUSH2 0xA07 JUMPI PUSH1 0x40 MLOAD SWAP6 PUSH1 0xE0 DUP8 ADD DUP8 DUP2 LT PUSH1 0x1 PUSH1 0x1 PUSH1 0x40 SHL SUB DUP3 GT OR PUSH2 0xA77 JUMPI PUSH1 0x40 MSTORE DUP2 PUSH1 0x1F DUP5 ADD SLT ISZERO PUSH2 0x9DB JUMPI PUSH1 0x40 MLOAD SWAP1 PUSH2 0x619 PUSH2 0x100 DUP4 PUSH2 0x10F9 JUMP JUMPDEST DUP2 PUSH2 0x100 DUP6 ADD SWAP3 DUP5 DUP5 GT PUSH2 0xA73 JUMPI DUP6 SWAP1 JUMPDEST DUP5 DUP3 LT PUSH2 0xA63 JUMPI POP POP DUP9 MSTORE PUSH2 0x740 PUSH1 0xFF NOT DUP3 ADD SLT PUSH2 0xA4B JUMPI PUSH1 0x40 MLOAD SWAP2 PUSH1 0x60 DUP4 ADD DUP4 DUP2 LT PUSH1 0x1 PUSH1 0x1 PUSH1 0x40 SHL SUB DUP3 GT OR PUSH2 0xA4F JUMPI PUSH1 0x40 MSTORE CALLDATALOAD PUSH1 0x3 DUP2 LT ISZERO PUSH2 0x9EF JUMPI DUP3 MSTORE PUSH2 0x120 DUP5 ADD CALLDATALOAD SWAP1 PUSH1 0x3 DUP3 LT ISZERO PUSH2 0x9EF JUMPI PUSH2 0x700 SWAP2 PUSH1 0x20 DUP5 ADD MSTORE PUSH2 0x13F NOT ADD SLT PUSH2 0x9DB JUMPI PUSH1 0x40 MLOAD PUSH2 0x69A DUP2 PUSH2 0x10C2 JUMP JUMPDEST DUP3 PUSH2 0x15F DUP6 ADD SLT ISZERO PUSH2 0xA4B JUMPI PUSH1 0x40 MLOAD PUSH2 0x6B4 PUSH1 0xE0 DUP3 PUSH2 0x10F9 JUMP JUMPDEST DUP1 PUSH2 0x300 DUP7 ADD SWAP2 DUP6 DUP4 GT PUSH2 0xA47 JUMPI PUSH2 0x140 DUP8 ADD SWAP1 JUMPDEST DUP4 DUP3 LT PUSH2 0xA2D JUMPI POP POP DUP3 MSTORE DUP4 PUSH2 0x31F DUP7 ADD SLT ISZERO PUSH2 0x9EF JUMPI PUSH1 0x40 MLOAD PUSH2 0x6EF PUSH2 0x1E0 DUP3 PUSH2 0x10F9 JUMP JUMPDEST DUP1 PUSH2 0x6C0 DUP8 ADD SWAP3 DUP7 DUP5 GT PUSH2 0xA29 JUMPI DUP7 SWAP3 SWAP2 JUMPDEST DUP5 DUP3 LT PUSH2 0xA0B JUMPI POP POP PUSH1 0x20 DUP5 ADD MSTORE PUSH2 0x718 SWAP2 PUSH2 0x123B JUMP JUMPDEST PUSH1 0x40 DUP3 ADD MSTORE PUSH2 0x72B DUP4 PUSH2 0x700 DUP7 ADD PUSH2 0x123B JUMP JUMPDEST PUSH1 0x60 DUP3 ADD MSTORE PUSH2 0x73E DUP4 PUSH2 0x740 DUP7 ADD PUSH2 0x123B JUMP JUMPDEST PUSH1 0x80 DUP3 ADD MSTORE PUSH2 0x751 DUP4 PUSH2 0x780 DUP7 ADD PUSH2 0x123B JUMP JUMPDEST PUSH1 0xA0 DUP3 ADD MSTORE PUSH2 0x764 DUP4 PUSH2 0x7C0 DUP7 ADD PUSH2 0x123B JUMP JUMPDEST PUSH1 0xC0 DUP3 ADD MSTORE PUSH2 0x777 DUP4 PUSH2 0x800 DUP7 ADD PUSH2 0x123B JUMP JUMPDEST PUSH1 0xE0 DUP3 ADD MSTORE PUSH1 0x40 DUP3 ADD MSTORE PUSH1 0x20 DUP8 ADD MSTORE PUSH2 0x793 PUSH2 0x840 DUP4 ADD PUSH2 0x122A JUMP JUMPDEST PUSH1 0x40 DUP8 ADD MSTORE DUP1 PUSH2 0x87F DUP4 ADD SLT ISZERO PUSH2 0xA07 JUMPI PUSH1 0x40 MLOAD PUSH2 0x7B2 PUSH1 0xA0 DUP3 PUSH2 0x10F9 JUMP JUMPDEST DUP1 PUSH2 0x900 DUP5 ADD SWAP2 DUP4 DUP4 GT PUSH2 0x9EF JUMPI PUSH2 0x860 DUP6 ADD SWAP1 JUMPDEST DUP4 DUP3 LT PUSH2 0x9DF JUMPI POP POP PUSH1 0x60 DUP9 ADD MSTORE PUSH2 0x7DE SWAP1 PUSH2 0x122A JUMP JUMPDEST PUSH1 0x80 DUP8 ADD MSTORE PUSH2 0x7F0 PUSH2 0x920 DUP4 ADD PUSH2 0x11DA JUMP JUMPDEST PUSH1 0xA0 DUP8 ADD MSTORE PUSH2 0x940 DUP3 ADD CALLDATALOAD PUSH1 0x1 PUSH1 0x1 PUSH1 0x40 SHL SUB DUP2 GT PUSH2 0x9DB JUMPI PUSH2 0x813 SWAP3 ADD PUSH2 0x115F JUMP JUMPDEST PUSH1 0xC0 DUP6 ADD MSTORE PUSH2 0x140 DUP2 ADD SWAP4 DUP5 MSTORE MLOAD SWAP1 MLOAD PUSH1 0x40 MLOAD SWAP1 PUSH1 0x20 DUP1 DUP4 ADD SWAP4 DUP1 MLOAD DUP6 MSTORE ADD MLOAD ISZERO ISZERO PUSH1 0x40 DUP4 ADD MSTORE PUSH1 0x60 DUP3 ADD MSTORE PUSH1 0x60 DUP2 MSTORE PUSH2 0x84E PUSH1 0x80 DUP3 PUSH2 0x10F9 JUMP JUMPDEST MLOAD SWAP1 KECCAK256 SWAP2 DUP3 DUP5 MSTORE PUSH1 0x6 PUSH1 0x20 MSTORE PUSH1 0x40 DUP5 KECCAK256 SLOAD PUSH1 0x40 DUP3 MLOAD MLOAD ADD MLOAD DUP2 DUP2 SUB SWAP1 DUP1 DUP3 GT PUSH2 0x9C7 JUMPI DUP3 EQ PUSH2 0x96B JUMPI DUP4 GT PUSH2 0x908 JUMPI DUP3 PUSH2 0x887 SWAP2 PUSH2 0x117D JUMP JUMPDEST DUP4 DUP6 MSTORE PUSH1 0x6 PUSH1 0x20 MSTORE PUSH1 0x40 DUP6 KECCAK256 SSTORE MLOAD MLOAD PUSH1 0x60 ADD MLOAD PUSH1 0x1 PUSH1 0x1 PUSH1 0xA0 SHL SUB AND DUP4 DUP3 DUP3 DUP3 DUP3 ISZERO PUSH2 0x8FF JUMPI JUMPDEST DUP4 SWAP3 DUP4 SWAP3 DUP4 SWAP3 CALL ISZERO PUSH2 0x8F4 JUMPI PUSH32 0xB9CA611BE7435F3C6F1241086B057AA49A657C2888526894A9FC370E482B0AFB SWAP2 PUSH1 0x60 SWAP2 PUSH1 0x40 MLOAD SWAP2 DUP3 MSTORE PUSH1 0x20 DUP3 ADD MSTORE TIMESTAMP PUSH1 0x40 DUP3 ADD MSTORE LOG2 DUP1 RETURN JUMPDEST PUSH1 0x40 MLOAD RETURNDATASIZE DUP6 DUP3 RETURNDATACOPY RETURNDATASIZE SWAP1 REVERT JUMPDEST POP PUSH2 0x8FC PUSH2 0x8AE JUMP JUMPDEST PUSH1 0x40 MLOAD PUSH3 0x461BCD PUSH1 0xE5 SHL DUP2 MSTORE PUSH1 0x20 PUSH1 0x4 DUP3 ADD MSTORE PUSH1 0x35 PUSH1 0x24 DUP3 ADD MSTORE PUSH32 0x546F20756E6C6F636B20616D6F756E742069732067726561746572207468616E PUSH1 0x44 DUP3 ADD MSTORE PUSH21 0x2074686520616D6F756E7420746F20756E6C6F636B PUSH1 0x58 SHL PUSH1 0x64 DUP3 ADD MSTORE PUSH1 0x84 SWAP1 REVERT JUMPDEST PUSH1 0x40 MLOAD PUSH3 0x461BCD PUSH1 0xE5 SHL DUP2 MSTORE PUSH1 0x20 PUSH1 0x4 DUP3 ADD MSTORE PUSH1 0x2E PUSH1 0x24 DUP3 ADD MSTORE PUSH32 0x4275726E20736F206661722069732067726561746572207468616E2074686520 PUSH1 0x44 DUP3 ADD MSTORE PUSH14 0x30B6B7BAB73A103A3790313AB937 PUSH1 0x91 SHL PUSH1 0x64 DUP3 ADD MSTORE PUSH1 0x84 SWAP1 REVERT JUMPDEST PUSH4 0x4E487B71 PUSH1 0xE0 SHL DUP8 MSTORE PUSH1 0x11 PUSH1 0x4 MSTORE PUSH1 0x24 DUP8 REVERT JUMPDEST DUP8 DUP1 REVERT JUMPDEST DUP2 CALLDATALOAD DUP2 MSTORE PUSH1 0x20 SWAP2 DUP3 ADD SWAP2 ADD PUSH2 0x7C7 JUMP JUMPDEST DUP10 DUP1 REVERT JUMPDEST PUSH4 0x4E487B71 PUSH1 0xE0 SHL PUSH0 MSTORE PUSH1 0x41 PUSH1 0x4 MSTORE PUSH1 0x24 PUSH0 REVERT JUMPDEST DUP7 DUP1 REVERT JUMPDEST PUSH1 0x20 SWAP1 PUSH2 0xA1C DUP4 SWAP5 SWAP6 PUSH1 0x40 SWAP5 PUSH2 0x123B JUMP JUMPDEST DUP2 MSTORE ADD SWAP2 ADD DUP7 SWAP3 SWAP2 PUSH2 0x701 JUMP JUMPDEST DUP13 DUP1 REVERT JUMPDEST PUSH1 0x20 PUSH1 0x40 SWAP2 PUSH2 0xA3C DUP10 DUP6 PUSH2 0x123B JUMP JUMPDEST DUP2 MSTORE ADD SWAP2 ADD SWAP1 PUSH2 0x6C9 JUMP JUMPDEST DUP12 DUP1 REVERT JUMPDEST DUP9 DUP1 REVERT JUMPDEST PUSH4 0x4E487B71 PUSH1 0xE0 SHL DUP12 MSTORE PUSH1 0x41 PUSH1 0x4 MSTORE PUSH1 0x24 DUP12 REVERT JUMPDEST DUP2 CALLDATALOAD DUP2 MSTORE PUSH1 0x20 SWAP2 DUP3 ADD SWAP2 ADD PUSH2 0x62A JUMP JUMPDEST DUP11 DUP1 REVERT JUMPDEST PUSH4 0x4E487B71 PUSH1 0xE0 SHL DUP10 MSTORE PUSH1 0x41 PUSH1 0x4 MSTORE PUSH1 0x24 DUP10 REVERT JUMPDEST PUSH4 0x4E487B71 PUSH1 0xE0 SHL DUP11 MSTORE PUSH1 0x41 PUSH1 0x4 MSTORE PUSH1 0x24 DUP11 REVERT JUMPDEST PUSH4 0x4E487B71 PUSH1 0xE0 SHL DUP9 MSTORE PUSH1 0x41 PUSH1 0x4 MSTORE PUSH1 0x24 DUP9 REVERT JUMPDEST DUP6 DUP1 REVERT JUMPDEST DUP5 DUP1 REVERT JUMPDEST PUSH1 0x40 MLOAD PUSH3 0x461BCD PUSH1 0xE5 SHL DUP2 MSTORE PUSH1 0x20 PUSH1 0x4 DUP3 ADD MSTORE PUSH1 0x15 PUSH1 0x24 DUP3 ADD MSTORE PUSH21 0x125B9D985B1A5908169AD85C1C081058D8DBDD5B9D PUSH1 0x5A SHL PUSH1 0x44 DUP3 ADD MSTORE PUSH1 0x64 SWAP1 REVERT JUMPDEST PUSH2 0xB1A SWAP2 POP PUSH1 0x20 RETURNDATASIZE PUSH1 0x20 GT PUSH2 0xB20 JUMPI JUMPDEST PUSH2 0xB12 DUP2 DUP4 PUSH2 0x10F9 JUMP JUMPDEST DUP2 ADD SWAP1 PUSH2 0x119E JUMP JUMPDEST PUSH0 PUSH2 0x2E4 JUMP JUMPDEST POP RETURNDATASIZE PUSH2 0xB08 JUMP JUMPDEST PUSH1 0x40 MLOAD RETURNDATASIZE DUP10 DUP3 RETURNDATACOPY RETURNDATASIZE SWAP1 REVERT JUMPDEST PUSH1 0x40 MLOAD PUSH3 0x461BCD PUSH1 0xE5 SHL DUP2 MSTORE PUSH1 0x20 PUSH1 0x4 DUP3 ADD MSTORE PUSH1 0xE PUSH1 0x24 DUP3 ADD MSTORE PUSH14 0x24B73B30B634B2102632B233B2B9 PUSH1 0x91 SHL PUSH1 0x44 DUP3 ADD MSTORE PUSH1 0x64 SWAP1 REVERT JUMPDEST PUSH2 0xB81 SWAP2 POP PUSH1 0x20 RETURNDATASIZE PUSH1 0x20 GT PUSH2 0xB20 JUMPI PUSH2 0xB12 DUP2 DUP4 PUSH2 0x10F9 JUMP JUMPDEST PUSH0 PUSH2 0x1E7 JUMP JUMPDEST PUSH1 0x40 MLOAD RETURNDATASIZE DUP14 DUP3 RETURNDATACOPY RETURNDATASIZE SWAP1 REVERT JUMPDEST PUSH4 0x1158015D PUSH1 0xE3 SHL DUP11 MSTORE PUSH1 0x4 DUP11 REVERT JUMPDEST DUP4 DUP1 REVERT JUMPDEST DUP3 DUP1 REVERT JUMPDEST POP CALLVALUE PUSH2 0xCE JUMPI DUP1 PUSH1 0x3 NOT CALLDATASIZE ADD SLT PUSH2 0xCE JUMPI PUSH1 0x20 PUSH1 0x40 MLOAD PUSH1 0x1 PUSH1 0x1 PUSH1 0x40 SHL SUB DUP2 MSTORE RETURN JUMPDEST PUSH1 0x20 CALLDATASIZE PUSH1 0x3 NOT ADD SLT PUSH2 0xE31 JUMPI PUSH1 0x4 CALLDATALOAD PUSH2 0xBE2 PUSH2 0x1263 JUMP JUMPDEST ISZERO PUSH2 0xE22 JUMPI CALLVALUE ISZERO PUSH2 0xDDE JUMPI PUSH5 0xE8D4A51000 DUP1 CALLVALUE DIV SWAP1 CALLVALUE MOD PUSH2 0xD88 JUMPI PUSH1 0x1 PUSH1 0x1 PUSH1 0x40 SHL SUB PUSH2 0xC11 DUP3 PUSH1 0x2 SLOAD PUSH2 0x117D JUMP JUMPDEST GT PUSH2 0xD37 JUMPI PUSH0 DUP3 DUP2 MSTORE PUSH1 0x3 PUSH1 0x20 MSTORE PUSH1 0x40 SWAP1 KECCAK256 SLOAD PUSH1 0x1 PUSH1 0x1 PUSH1 0xA0 SHL SUB AND DUP1 PUSH2 0xCBD JUMPI POP PUSH0 DUP3 DUP2 MSTORE PUSH1 0x3 PUSH1 0x20 MSTORE PUSH1 0x40 SWAP1 KECCAK256 DUP1 SLOAD PUSH1 0x1 PUSH1 0x1 PUSH1 0xA0 SHL SUB NOT AND CALLER OR SWAP1 SSTORE PUSH2 0xC80 SWAP1 JUMPDEST CALLER PUSH0 MSTORE PUSH1 0x1 PUSH1 0x20 MSTORE PUSH1 0x40 PUSH0 KECCAK256 DUP4 PUSH0 MSTORE PUSH1 0x20 MSTORE PUSH1 0x40 PUSH0 KECCAK256 PUSH2 0xC76 CALLVALUE DUP3 SLOAD PUSH2 0x117D JUMP JUMPDEST SWAP1 SSTORE PUSH1 0x2 SLOAD PUSH2 0x117D JUMP JUMPDEST PUSH1 0x2 SSTORE PUSH1 0x40 MLOAD SWAP1 DUP2 MSTORE CALLVALUE PUSH1 0x20 DUP3 ADD MSTORE TIMESTAMP PUSH1 0x40 DUP3 ADD MSTORE PUSH32 0x90E20A62E0F2A608D33BD96A4E15CB853006A15CAF4455F373B7B55DE520B68C PUSH1 0x60 CALLER SWAP3 LOG2 STOP JUMPDEST CALLER SUB PUSH2 0xCCC JUMPI PUSH2 0xC80 SWAP1 PUSH2 0xC55 JUMP JUMPDEST PUSH1 0x40 MLOAD PUSH3 0x461BCD PUSH1 0xE5 SHL DUP2 MSTORE PUSH1 0x20 PUSH1 0x4 DUP3 ADD MSTORE PUSH1 0x3E PUSH1 0x24 DUP3 ADD MSTORE PUSH32 0x54686973204D696E61206163636F756E7420697320616C7265616479206C696E PUSH1 0x44 DUP3 ADD MSTORE PUSH32 0x6B656420746F206120646966666572656E742045544820616464726573730000 PUSH1 0x64 DUP3 ADD MSTORE PUSH1 0x84 SWAP1 REVERT JUMPDEST PUSH1 0x40 MLOAD PUSH3 0x461BCD PUSH1 0xE5 SHL DUP2 MSTORE PUSH1 0x20 PUSH1 0x4 DUP3 ADD MSTORE PUSH1 0x24 DUP1 DUP3 ADD MSTORE PUSH32 0x546F74616C206C6F636B65642065786365656473206D6178696D756D20616C6C PUSH1 0x44 DUP3 ADD MSTORE PUSH4 0x1BDDD959 PUSH1 0xE2 SHL PUSH1 0x64 DUP3 ADD MSTORE PUSH1 0x84 SWAP1 REVERT JUMPDEST PUSH1 0x40 MLOAD PUSH3 0x461BCD PUSH1 0xE5 SHL DUP2 MSTORE PUSH1 0x20 PUSH1 0x4 DUP3 ADD MSTORE PUSH1 0x28 PUSH1 0x24 DUP3 ADD MSTORE PUSH32 0x4D757374206265206D756C7469706C65206F6620736D616C6C65737420627269 PUSH1 0x44 DUP3 ADD MSTORE PUSH8 0x1919D9481D5B9A5D PUSH1 0xC2 SHL PUSH1 0x64 DUP3 ADD MSTORE PUSH1 0x84 SWAP1 REVERT JUMPDEST PUSH1 0x64 PUSH1 0x40 MLOAD PUSH3 0x461BCD PUSH1 0xE5 SHL DUP2 MSTORE PUSH1 0x20 PUSH1 0x4 DUP3 ADD MSTORE PUSH1 0x20 PUSH1 0x24 DUP3 ADD MSTORE PUSH32 0x596F75206D7573742073656E6420736F6D6520457468657220746F206C6F636B PUSH1 0x44 DUP3 ADD MSTORE REVERT JUMPDEST PUSH4 0x1158015D PUSH1 0xE3 SHL PUSH0 MSTORE PUSH1 0x4 PUSH0 REVERT JUMPDEST PUSH0 DUP1 REVERT JUMPDEST CALLVALUE PUSH2 0xE31 JUMPI PUSH1 0x40 CALLDATASIZE PUSH1 0x3 NOT ADD SLT PUSH2 0xE31 JUMPI PUSH2 0xE4E PUSH2 0x10AC JUMP JUMPDEST PUSH1 0x24 CALLDATALOAD PUSH1 0x1 PUSH1 0x1 PUSH1 0xA0 SHL SUB DUP2 AND SWAP2 SWAP1 DUP3 SWAP1 SUB PUSH2 0xE31 JUMPI PUSH0 SLOAD PUSH1 0x1 PUSH1 0x1 PUSH1 0xA0 SHL SUB AND CALLER SUB PUSH2 0xF14 JUMPI PUSH1 0x1 PUSH1 0x1 PUSH1 0xA0 SHL SUB AND DUP1 ISZERO DUP1 ISZERO PUSH2 0xF0C JUMPI JUMPDEST PUSH2 0xEFD JUMPI DUP1 PUSH1 0x1 PUSH1 0x1 PUSH1 0x60 SHL SUB PUSH1 0xA0 SHL PUSH1 0x4 SLOAD AND OR PUSH1 0x4 SSTORE DUP2 PUSH1 0x1 PUSH1 0x1 PUSH1 0x60 SHL SUB PUSH1 0xA0 SHL PUSH1 0x5 SLOAD AND OR PUSH1 0x5 SSTORE PUSH32 0x9FFAAD5D5D3A89CA0A826D0A585796CEF555C81564727DC06C9EEFA27BB9C739 PUSH0 DUP1 LOG2 PUSH32 0x8FBE9777C0F01F68E53AD387C04B3A2B8786C57E6FC4344300E32F7CA2905059 PUSH0 DUP1 LOG2 STOP JUMPDEST PUSH4 0xD92E233D PUSH1 0xE0 SHL PUSH0 MSTORE PUSH1 0x4 PUSH0 REVERT JUMPDEST POP DUP2 ISZERO PUSH2 0xE87 JUMP JUMPDEST PUSH4 0x60FB4B49 PUSH1 0xE0 SHL PUSH0 MSTORE PUSH1 0x4 PUSH0 REVERT JUMPDEST CALLVALUE PUSH2 0xE31 JUMPI PUSH0 CALLDATASIZE PUSH1 0x3 NOT ADD SLT PUSH2 0xE31 JUMPI PUSH0 SLOAD PUSH1 0x40 MLOAD PUSH1 0x1 PUSH1 0x1 PUSH1 0xA0 SHL SUB SWAP1 SWAP2 AND DUP2 MSTORE PUSH1 0x20 SWAP1 RETURN JUMPDEST CALLVALUE PUSH2 0xE31 JUMPI PUSH0 CALLDATASIZE PUSH1 0x3 NOT ADD SLT PUSH2 0xE31 JUMPI PUSH1 0x20 PUSH1 0x2 SLOAD PUSH1 0x40 MLOAD SWAP1 DUP2 MSTORE RETURN JUMPDEST CALLVALUE PUSH2 0xE31 JUMPI PUSH1 0x20 CALLDATASIZE PUSH1 0x3 NOT ADD SLT PUSH2 0xE31 JUMPI PUSH1 0x4 CALLDATALOAD PUSH0 MSTORE PUSH1 0x3 PUSH1 0x20 MSTORE PUSH1 0x20 PUSH1 0x1 DUP1 PUSH1 0xA0 SHL SUB PUSH1 0x40 PUSH0 KECCAK256 SLOAD AND PUSH1 0x40 MLOAD SWAP1 DUP2 MSTORE RETURN JUMPDEST CALLVALUE PUSH2 0xE31 JUMPI PUSH1 0x40 CALLDATASIZE PUSH1 0x3 NOT ADD SLT PUSH2 0xE31 JUMPI PUSH1 0x1 PUSH1 0x1 PUSH1 0xA0 SHL SUB PUSH2 0xFBA PUSH2 0x10AC JUMP JUMPDEST AND PUSH0 MSTORE PUSH1 0x1 PUSH1 0x20 MSTORE PUSH1 0x40 PUSH0 KECCAK256 PUSH1 0x24 CALLDATALOAD PUSH0 MSTORE PUSH1 0x20 MSTORE PUSH1 0x20 PUSH1 0x40 PUSH0 KECCAK256 SLOAD PUSH1 0x40 MLOAD SWAP1 DUP2 MSTORE RETURN JUMPDEST CALLVALUE PUSH2 0xE31 JUMPI PUSH0 CALLDATASIZE PUSH1 0x3 NOT ADD SLT PUSH2 0xE31 JUMPI PUSH0 SLOAD PUSH1 0x1 PUSH1 0x1 PUSH1 0xA0 SHL SUB AND CALLER DUP2 SWAP1 SUB PUSH2 0xF14 JUMPI PUSH2 0x1008 PUSH2 0x1263 JUMP JUMPDEST ISZERO PUSH2 0xE22 JUMPI SELFBALANCE SWAP1 DUP2 ISZERO PUSH2 0x102F JUMPI PUSH0 DUP1 DUP1 SWAP4 DUP2 SWAP4 DUP3 CALL ISZERO PUSH2 0x1024 JUMPI STOP JUMPDEST PUSH1 0x40 MLOAD RETURNDATASIZE PUSH0 DUP3 RETURNDATACOPY RETURNDATASIZE SWAP1 REVERT JUMPDEST PUSH1 0x40 MLOAD PUSH3 0x461BCD PUSH1 0xE5 SHL DUP2 MSTORE PUSH1 0x20 PUSH1 0x4 DUP3 ADD MSTORE PUSH1 0x12 PUSH1 0x24 DUP3 ADD MSTORE PUSH18 0x4E6F2045544820746F207769746864726177 PUSH1 0x70 SHL PUSH1 0x44 DUP3 ADD MSTORE PUSH1 0x64 SWAP1 REVERT JUMPDEST CALLVALUE PUSH2 0xE31 JUMPI PUSH1 0x20 CALLDATASIZE PUSH1 0x3 NOT ADD SLT PUSH2 0xE31 JUMPI PUSH1 0x4 CALLDATALOAD PUSH0 MSTORE PUSH1 0x6 PUSH1 0x20 MSTORE PUSH1 0x20 PUSH1 0x40 PUSH0 KECCAK256 SLOAD PUSH1 0x40 MLOAD SWAP1 DUP2 MSTORE RETURN JUMPDEST CALLVALUE PUSH2 0xE31 JUMPI PUSH0 CALLDATASIZE PUSH1 0x3 NOT ADD SLT PUSH2 0xE31 JUMPI DUP1 PUSH1 0x6 PUSH1 0x20 SWAP3 MSTORE RETURN JUMPDEST PUSH1 0x4 CALLDATALOAD SWAP1 PUSH1 0x1 PUSH1 0x1 PUSH1 0xA0 SHL SUB DUP3 AND DUP3 SUB PUSH2 0xE31 JUMPI JUMP JUMPDEST PUSH2 0x100 DUP2 ADD SWAP1 DUP2 LT PUSH1 0x1 PUSH1 0x1 PUSH1 0x40 SHL SUB DUP3 GT OR PUSH2 0x9F3 JUMPI PUSH1 0x40 MSTORE JUMP JUMPDEST PUSH1 0x40 DUP2 ADD SWAP1 DUP2 LT PUSH1 0x1 PUSH1 0x1 PUSH1 0x40 SHL SUB DUP3 GT OR PUSH2 0x9F3 JUMPI PUSH1 0x40 MSTORE JUMP JUMPDEST SWAP1 PUSH1 0x1F DUP1 NOT SWAP2 ADD AND DUP2 ADD SWAP1 DUP2 LT PUSH1 0x1 PUSH1 0x1 PUSH1 0x40 SHL SUB DUP3 GT OR PUSH2 0x9F3 JUMPI PUSH1 0x40 MSTORE JUMP JUMPDEST SWAP3 SWAP2 SWAP3 PUSH1 0x1 PUSH1 0x1 PUSH1 0x40 SHL SUB DUP3 GT PUSH2 0x9F3 JUMPI PUSH1 0x40 MLOAD SWAP2 PUSH2 0x1143 PUSH1 0x1F DUP3 ADD PUSH1 0x1F NOT AND PUSH1 0x20 ADD DUP5 PUSH2 0x10F9 JUMP JUMPDEST DUP3 SWAP5 DUP2 DUP5 MSTORE DUP2 DUP4 ADD GT PUSH2 0xE31 JUMPI DUP3 DUP2 PUSH1 0x20 SWAP4 DUP5 PUSH0 SWAP7 ADD CALLDATACOPY ADD ADD MSTORE JUMP JUMPDEST SWAP1 DUP1 PUSH1 0x1F DUP4 ADD SLT ISZERO PUSH2 0xE31 JUMPI DUP2 PUSH1 0x20 PUSH2 0x117A SWAP4 CALLDATALOAD SWAP2 ADD PUSH2 0x111A JUMP JUMPDEST SWAP1 JUMP JUMPDEST SWAP2 SWAP1 DUP3 ADD DUP1 SWAP3 GT PUSH2 0x118A JUMPI JUMP JUMPDEST PUSH4 0x4E487B71 PUSH1 0xE0 SHL PUSH0 MSTORE PUSH1 0x11 PUSH1 0x4 MSTORE PUSH1 0x24 PUSH0 REVERT JUMPDEST SWAP1 DUP2 PUSH1 0x20 SWAP2 SUB SLT PUSH2 0xE31 JUMPI MLOAD DUP1 ISZERO ISZERO DUP2 SUB PUSH2 0xE31 JUMPI SWAP1 JUMP JUMPDEST DUP1 MLOAD DUP1 DUP4 MSTORE PUSH1 0x20 SWAP3 SWAP2 DUP2 SWAP1 DUP5 ADD DUP5 DUP5 ADD MCOPY PUSH0 DUP3 DUP3 ADD DUP5 ADD MSTORE PUSH1 0x1F ADD PUSH1 0x1F NOT AND ADD ADD SWAP1 JUMP JUMPDEST CALLDATALOAD SWAP1 DUP2 ISZERO ISZERO DUP3 SUB PUSH2 0xE31 JUMPI JUMP JUMPDEST SWAP2 SWAP1 DUP3 PUSH1 0x40 SWAP2 SUB SLT PUSH2 0xE31 JUMPI PUSH1 0x40 MLOAD PUSH2 0x11FF DUP2 PUSH2 0x10DE JUMP JUMPDEST PUSH1 0x20 PUSH2 0x1211 DUP2 DUP4 SWAP6 DUP1 CALLDATALOAD DUP6 MSTORE ADD PUSH2 0x11DA JUMP JUMPDEST SWAP2 ADD MSTORE JUMP JUMPDEST CALLDATALOAD SWAP1 PUSH1 0x1 PUSH1 0x1 PUSH1 0x40 SHL SUB DUP3 AND DUP3 SUB PUSH2 0xE31 JUMPI JUMP JUMPDEST CALLDATALOAD SWAP1 PUSH4 0xFFFFFFFF DUP3 AND DUP3 SUB PUSH2 0xE31 JUMPI JUMP JUMPDEST SWAP2 SWAP1 DUP3 PUSH1 0x40 SWAP2 SUB SLT PUSH2 0xE31 JUMPI PUSH1 0x40 MLOAD PUSH2 0x1253 DUP2 PUSH2 0x10DE JUMP JUMPDEST PUSH1 0x20 DUP1 DUP3 SWAP5 DUP1 CALLDATALOAD DUP5 MSTORE ADD CALLDATALOAD SWAP2 ADD MSTORE JUMP JUMPDEST PUSH1 0x4 SLOAD PUSH1 0x1 PUSH1 0x1 PUSH1 0xA0 SHL SUB AND ISZERO ISZERO DUP1 PUSH2 0x1279 JUMPI SWAP1 JUMP JUMPDEST POP PUSH1 0x5 SLOAD PUSH1 0x1 PUSH1 0x1 PUSH1 0xA0 SHL SUB AND ISZERO ISZERO SWAP1 JUMP INVALID LOG2 PUSH5 0x6970667358 0x22 SLT KECCAK256 SAR CALLDATACOPY RETURNDATACOPY PUSH31 0x458699EEC776FEEAFBDFC50628CE944C6221F87494928A79D411615564736F PUSH13 0x634300081C0033000000000000 "},"methodIdentifiers":{"DECIMALS()":"2e0f2625","MAX_MAGNITUDE()":"c58f219c","WEI_PER_BRIDGE_UNIT()":"e7ece690","bridgeOperator()":"590665c2","burnSoFarSet(uint256)":"3471f65e","codeChallengeToEthAddress(uint256)":"54506bb4","isConfigured()":"d3a057c8","lockTokens(uint256)":"6e27d889","lockedTokens(address,uint256)":"53719b6e","setAlignedContracts(address,address)":"5f82dea8","totalLocked()":"56891412","unlockTokens(uint256,bytes32,bytes32,bytes20,bytes32,bytes,uint256,bytes,address)":"ca430143","withdraw()":"3ccfd60b"}}}}}