{"project/contracts/MinaAccountValidationExample.sol":{"MinaAccountValidationExample":{"abi":[{"inputs":[{"internalType":"address payable","name":"_alignedServiceAddr","type":"address"}],"stateMutability":"nonpayable","type":"constructor"},{"inputs":[{"internalType":"bytes32","name":"","type":"bytes32"}],"name":"MinaAccountProvingSystemIdIsNotValid","type":"error"},{"inputs":[{"components":[{"internalType":"bytes32","name":"proofCommitment","type":"bytes32"},{"internalType":"bytes32","name":"provingSystemAuxDataCommitment","type":"bytes32"},{"internalType":"bytes20","name":"proofGeneratorAddr","type":"bytes20"},{"internalType":"bytes32","name":"batchMerkleRoot","type":"bytes32"},{"internalType":"bytes","name":"merkleProof","type":"bytes"},{"internalType":"uint256","name":"verificationDataBatchIndex","type":"uint256"},{"internalType":"bytes","name":"pubInput","type":"bytes"},{"internalType":"address","name":"batcherPaymentService","type":"address"}],"internalType":"struct MinaAccountValidationExample.AlignedArgs","name":"args","type":"tuple"}],"name":"validateAccount","outputs":[{"internalType":"bool","name":"","type":"bool"}],"stateMutability":"view","type":"function"},{"inputs":[{"components":[{"internalType":"bytes32","name":"proofCommitment","type":"bytes32"},{"internalType":"bytes32","name":"provingSystemAuxDataCommitment","type":"bytes32"},{"internalType":"bytes20","name":"proofGeneratorAddr","type":"bytes20"},{"internalType":"bytes32","name":"batchMerkleRoot","type":"bytes32"},{"internalType":"bytes","name":"merkleProof","type":"bytes"},{"internalType":"uint256","name":"verificationDataBatchIndex","type":"uint256"},{"internalType":"bytes","name":"pubInput","type":"bytes"},{"internalType":"address","name":"batcherPaymentService","type":"address"}],"internalType":"struct MinaAccountValidationExample.AlignedArgs","name":"args","type":"tuple"}],"name":"validateAccountAndReturn","outputs":[{"components":[{"components":[{"internalType":"bytes32","name":"x","type":"bytes32"},{"internalType":"bool","name":"isOdd","type":"bool"}],"internalType":"struct MinaAccountValidationExample.CompressedECPoint","name":"publicKey","type":"tuple"},{"internalType":"bytes32","name":"tokenIdKeyHash","type":"bytes32"},{"internalType":"string","name":"tokenSymbol","type":"string"},{"internalType":"uint64","name":"balance","type":"uint64"},{"internalType":"uint32","name":"nonce","type":"uint32"},{"internalType":"bytes32","name":"receiptChainHash","type":"bytes32"},{"components":[{"internalType":"bytes32","name":"x","type":"bytes32"},{"internalType":"bool","name":"isOdd","type":"bool"}],"internalType":"struct MinaAccountValidationExample.CompressedECPoint","name":"delegate","type":"tuple"},{"internalType":"bytes32","name":"votingFor","type":"bytes32"},{"components":[{"internalType":"uint64","name":"initialMinimumBalance","type":"uint64"},{"internalType":"uint32","name":"cliffTime","type":"uint32"},{"internalType":"uint64","name":"cliffAmount","type":"uint64"},{"internalType":"uint32","name":"vestingPeriod","type":"uint32"},{"internalType":"uint64","name":"vestingIncrement","type":"uint64"}],"internalType":"struct MinaAccountValidationExample.Timing","name":"timing","type":"tuple"},{"components":[{"internalType":"enum MinaAccountValidationExample.AuthRequired","name":"editState","type":"uint8"},{"internalType":"enum MinaAccountValidationExample.AuthRequired","name":"access","type":"uint8"},{"internalType":"enum MinaAccountValidationExample.AuthRequired","name":"send","type":"uint8"},{"internalType":"enum MinaAccountValidationExample.AuthRequired","name":"rreceive","type":"uint8"},{"internalType":"enum MinaAccountValidationExample.AuthRequired","name":"setDelegate","type":"uint8"},{"internalType":"enum MinaAccountValidationExample.AuthRequired","name":"setPermissions","type":"uint8"},{"internalType":"enum MinaAccountValidationExample.AuthRequired","name":"setVerificationKeyAuth","type":"uint8"},{"internalType":"uint32","name":"setVerificationKeyUint","type":"uint32"},{"internalType":"enum MinaAccountValidationExample.AuthRequired","name":"setZkappUri","type":"uint8"},{"internalType":"enum MinaAccountValidationExample.AuthRequired","name":"editActionState","type":"uint8"},{"internalType":"enum MinaAccountValidationExample.AuthRequired","name":"setTokenSymbol","type":"uint8"},{"internalType":"enum MinaAccountValidationExample.AuthRequired","name":"incrementNonce","type":"uint8"},{"internalType":"enum MinaAccountValidationExample.AuthRequired","name":"setVotingFor","type":"uint8"},{"internalType":"enum MinaAccountValidationExample.AuthRequired","name":"setTiming","type":"uint8"}],"internalType":"struct MinaAccountValidationExample.Permissions","name":"permissions","type":"tuple"},{"components":[{"internalType":"bytes32[8]","name":"appState","type":"bytes32[8]"},{"components":[{"internalType":"enum MinaAccountValidationExample.ProofsVerified","name":"maxProofsVerified","type":"uint8"},{"internalType":"enum MinaAccountValidationExample.ProofsVerified","name":"actualWrapDomainSize","type":"uint8"},{"components":[{"components":[{"internalType":"bytes32","name":"x","type":"bytes32"},{"internalType":"bytes32","name":"y","type":"bytes32"}],"internalType":"struct MinaAccountValidationExample.Commitment[7]","name":"sigmaComm","type":"tuple[7]"},{"components":[{"internalType":"bytes32","name":"x","type":"bytes32"},{"internalType":"bytes32","name":"y","type":"bytes32"}],"internalType":"struct MinaAccountValidationExample.Commitment[15]","name":"coefficientsComm","type":"tuple[15]"},{"components":[{"internalType":"bytes32","name":"x","type":"bytes32"},{"internalType":"bytes32","name":"y","type":"bytes32"}],"internalType":"struct MinaAccountValidationExample.Commitment","name":"genericComm","type":"tuple"},{"components":[{"internalType":"bytes32","name":"x","type":"bytes32"},{"internalType":"bytes32","name":"y","type":"bytes32"}],"internalType":"struct MinaAccountValidationExample.Commitment","name":"psmComm","type":"tuple"},{"components":[{"internalType":"bytes32","name":"x","type":"bytes32"},{"internalType":"bytes32","name":"y","type":"bytes32"}],"internalType":"struct MinaAccountValidationExample.Commitment","name":"completeAddComm","type":"tuple"},{"components":[{"internalType":"bytes32","name":"x","type":"bytes32"},{"internalType":"bytes32","name":"y","type":"bytes32"}],"internalType":"struct MinaAccountValidationExample.Commitment","name":"mulComm","type":"tuple"},{"components":[{"internalType":"bytes32","name":"x","type":"bytes32"},{"internalType":"bytes32","name":"y","type":"bytes32"}],"internalType":"struct MinaAccountValidationExample.Commitment","name":"emulComm","type":"tuple"},{"components":[{"internalType":"bytes32","name":"x","type":"bytes32"},{"internalType":"bytes32","name":"y","type":"bytes32"}],"internalType":"struct MinaAccountValidationExample.Commitment","name":"endomulScalarComm","type":"tuple"}],"internalType":"struct MinaAccountValidationExample.WrapIndex","name":"wrapIndex","type":"tuple"}],"internalType":"struct MinaAccountValidationExample.VerificationKey","name":"verificationKey","type":"tuple"},{"internalType":"uint32","name":"zkappVersion","type":"uint32"},{"internalType":"bytes32[5]","name":"actionState","type":"bytes32[5]"},{"internalType":"uint32","name":"lastActionSlot","type":"uint32"},{"internalType":"bool","name":"provedState","type":"bool"},{"internalType":"bytes","name":"zkappUri","type":"bytes"}],"internalType":"struct MinaAccountValidationExample.ZkappAccount","name":"zkapp","type":"tuple"}],"internalType":"struct MinaAccountValidationExample.Account","name":"","type":"tuple"}],"stateMutability":"view","type":"function"}],"evm":{"bytecode":{"linkReferences":{},"object":"608034606f57601f61121538819003918201601f19168301916001600160401b03831184841017607357808492602094604052833981010312606f57516001600160a01b03811690819003606f575f80546001600160a01b03191691909117905560405161118d90816100888239f35b5f80fd5b634e487b7160e01b5f52604160045260245ffdfe60806040526004361015610011575f80fd5b5f3560e01c80639029ad15146104445763c64787131461002f575f80fd5b34610440576100456100403661056b565b6108c9565b604051809160208252610068602083018251602080918051845201511515910152565b6020810151606083015261014061009060408301516103c060808601526103e085019061059f565b916001600160401b0360608201511660a085015263ffffffff60808201511660c085015260a081015160e08501526100dd60c0820151610100860190602080918051845201511515910152565b60e0810151828501526001600160401b0360806101008301518281511661016088015263ffffffff602082015116610180880152826040820151166101a088015263ffffffff6060820151166101c08801520151166101e08501526102456101a0610120830151610153610200880182516105c3565b61016660208201516102208901906105c3565b61017960408201516102408901906105c3565b61018c60608201516102608901906105c3565b61019f60808201516102808901906105c3565b6101b260a08201516102a08901906105c3565b6101c560c08201516102c08901906105c3565b63ffffffff60e0820151166102e08801526101ea6101008201516103008901906105c3565b6101fe6101208201516103208901906105c3565b610210858201516103408901906105c3565b6102246101608201516103608901906105c3565b6102386101808201516103808901906105c3565b01516103a08601906105c3565b0151828203601f19016103c084015280515f835b60088210610426575050506040602082015161027a610100850182516105e4565b61028d60208201516101208601906105e4565b015180515f61014085015b600782106103f25750505060208101515f61030085015b600f82106103be5750505060e081602060408194015180516106c088015201516106e086015282606082015180516107008801520151610720860152826080820151805161074088015201516107608601528260a0820151805161078088015201516107a08601528260c082015180516107c088015201516107e086015201518051610800850152015161082083015263ffffffff604082015116610840830152606081015161086083015f905b600582106103a457505050608081015163ffffffff1661090083015260a0810151151561092083015260c0015161096061094083018190526103a092019061059f565b0390f35b82518152869550602092830192600192909201910161035d565b8293949596506103e4602091600193945190602060409280518352015160208201520190565b9301910186959493926102af565b829394959650610418602091600193945190602060409280518352015160208201520190565b930191018695949392610298565b825181528695506020928301926001929092019101610259565b5f80fd5b34610440576104523661056b565b6020810135907fee2a4bc7db81da2b7164e56b3649b1e2a09c58c455b15dabddd9146c7582cebc8203610558578061049961049260c060209401836105f1565b3691610718565b8281519101209260018060a01b035f5416906104b76040840161075d565b906105016104c860808601866105f1565b90976104d660e08801610777565b91604051998a98899788976306045a9160e01b895260a0830135956060840135933560048b016107a3565b03915afa801561054d576020915f91610520575b506040519015158152f35b6105409150823d8411610546575b61053881836106f7565b81019061078b565b82610515565b503d61052e565b6040513d5f823e3d90fd5b5063060bd7bf60e21b5f5260045260245ffd5b602060031982011261044057600435906001600160401b038211610440576101009082900360031901126104405760040190565b805180835260209291819084018484015e5f828201840152601f01601f1916010190565b9060058210156105d05752565b634e487b7160e01b5f52602160045260245ffd5b9060038210156105d05752565b903590601e198136030182121561044057018035906001600160401b0382116104405760200191813603831361044057565b604081019081106001600160401b0382111761063e57604052565b634e487b7160e01b5f52604160045260245ffd5b61016081019081106001600160401b0382111761063e57604052565b60a081019081106001600160401b0382111761063e57604052565b6101c081019081106001600160401b0382111761063e57604052565b60e081019081106001600160401b0382111761063e57604052565b606081019081106001600160401b0382111761063e57604052565b61010081019081106001600160401b0382111761063e57604052565b90601f801991011681019081106001600160401b0382111761063e57604052565b9291926001600160401b03821161063e5760405191610741601f8201601f1916602001846106f7565b829481845281830111610440578281602093845f960137010152565b356bffffffffffffffffffffffff19811681036104405790565b356001600160a01b03811681036104405790565b90816020910312610440575180151581036104405790565b97999895919387949360e0989461012097938b5260208b015260408a01526bffffffffffffffffffffffff19166060890152608088015261010060a088015281610100880152838701375f828287010152601f80199101168401019460c084015260018060a01b0316910152565b5f5b82811061081f57505050565b60209060405161082e81610623565b5f81525f838201528184015201610813565b3590811515820361044057565b91908260409103126104405760405161086581610623565b60206108778183958035855201610840565b910152565b35906001600160401b038216820361044057565b359063ffffffff8216820361044057565b9190826040910312610440576040516108b981610623565b6020808294803584520135910152565b604051906108d682610652565b6040516108e281610623565b5f81525f602082015282525f6020830152606060408301525f60608301525f60808301525f60a083015260405161091881610623565b5f81525f602082015260c08301525f60e08301526040516109388161066e565b5f81525f60208201525f60408201525f60608201525f608082015261010083015260405161096581610689565b5f81525f60208201525f60408201525f60608201525f60808201525f60a08201525f60c08201525f60e08201525f6101008201525f6101208201525f6101408201525f6101608201525f6101808201525f6101a0820152610120830152604051906109cf826106a5565b610100906040516109e083826106f7565b823682378352604051926109f3846106c0565b5f84525f602085015260405193610a09856106db565b60e094604051610a1987826106f7565b610a238782610811565b8152604051610a3e6101e0610a3881846106f7565b82610811565b6020820152604051610a4f81610623565b5f81525f60208201526040820152604051610a6981610623565b5f81525f60208201526060820152604051610a8381610623565b5f81525f60208201526080820152604051610a9d81610623565b5f81525f602082015260a0820152604051610ab781610623565b5f81525f602082015260c0820152604051610ad181610623565b5f81525f602082015286820152604082015260208201525f604082015261014060a095604051610b0188826106f7565b8736823760608401525f60808401525f87840152606060c0840152015260208101357fee2a4bc7db81da2b7164e56b3649b1e2a09c58c455b15dabddd9146c7582cebc81036111455781602060c0820192610b5f61049285856105f1565b8281519101209060018060a01b035f54169089610bc68a610b826040890161075d565b95610b9d610b9360808b018b6105f1565b9190938b01610777565b926040519a8b998a9889986306045a9160e01b8a52830135956060840135933560048b016107a3565b03915afa90811561054d575f91611126575b501561044057610be7916105f1565b806028939293116104405782019160208184036027190112610440576028810135906001600160401b03821161044057018083036027190194906103c086126104405760405195610c3787610652565b610c44856028840161084d565b87526068820135602088015260888201356001600160401b0381116104405760289083010185601f820112156104405785816020610c8493359101610718565b6040880152610c9560a8830161087c565b6060880152610ca660c88301610890565b608088015260e882013583880152610cc285610108840161084d565b60c0880152610148820135868801528261013f19820112610440576101c090604051610ced8161066e565b610cfa610168850161087c565b8152610d096101888501610890565b6020820152610d1b6101a8850161087c565b6040820152610d2d6101c88501610890565b6060820152610d3f6101e8850161087c565b6080820152888601526101df19011261044057604051610d5e81610689565b610208820135600581101561044057815261022882013560058110156104405760208201526102488201356005811015610440576040820152610268820135600581101561044057606082015261028882013560058110156104405760808201526102a8820135600581101561044057838201526102c882013560058110156104405760c0820152610df36102e88301610890565b86820152610308820135600581101561044057848201526103288201356005811015610440576101208201526103488201356005811015610440576101408201526103688201356005811015610440576101608201526103888201356005811015610440576101808201526103a88201356005811015610440576101a08201526101208701526103c88101356001600160401b038111610440576028910101918284039461096086126104405760405195610ead876106a5565b85601f8601121561044057604051610ec7610100826106f7565b80938601938785116104405786905b858210611116575050875261074060ff198201126104405760405192610efb846106c0565b3560038110156104405783526101208501359060038210156104405761070091602085015261013f1901126104405760405190610f37826106db565b8561015f8601121561044057604051610f5160e0826106f7565b80610300870191888311610440576101408801905b8382106110fc57505083528661031f8701121561044057604051610f8c6101e0826106f7565b806106c0880192898411610440578992915b8482106110de5750506020850152610fb5916108a1565b6040830152610fc88661070087016108a1565b6060830152610fdb8661074087016108a1565b6080830152610fee8661078087016108a1565b84830152611000866107c087016108a1565b60c08301526110138661080087016108a1565b908201526040820152602085015261102e6108408301610890565b60408501528261087f830112156104405760405161104d60a0826106f7565b80610900840191858311610440576108608501905b8382106110ce575050606086015261107990610890565b608085015261108b6109208301610840565b90840152610940810135906001600160401b03821161044057019080601f83011215610440578160206110c093359101610718565b60c082015261014082015290565b8135815260209182019101611062565b6020906110ef8394956040946108a1565b8152019101899291610f9e565b602060409161110b8c856108a1565b815201910190610f66565b8135815260209182019101610ed6565b61113f915060203d6020116105465761053881836106f7565b5f610bd8565b63060bd7bf60e21b5f5260045260245ffdfea26469706673582212207f075ad0829385e9b96fc6fc7162c9cbabb0f0532765f1c57954575e7ea7745c64736f6c634300081c0033","opcodes":"PUSH1 0x80 CALLVALUE PUSH1 0x6F JUMPI PUSH1 0x1F PUSH2 0x1215 CODESIZE DUP2 SWAP1 SUB SWAP2 DUP3 ADD PUSH1 0x1F NOT AND DUP4 ADD SWAP2 PUSH1 0x1 PUSH1 0x1 PUSH1 0x40 SHL SUB DUP4 GT DUP5 DUP5 LT OR PUSH1 0x73 JUMPI DUP1 DUP5 SWAP3 PUSH1 0x20 SWAP5 PUSH1 0x40 MSTORE DUP4 CODECOPY DUP2 ADD SUB SLT PUSH1 0x6F JUMPI MLOAD PUSH1 0x1 PUSH1 0x1 PUSH1 0xA0 SHL SUB DUP2 AND SWAP1 DUP2 SWAP1 SUB PUSH1 0x6F JUMPI PUSH0 DUP1 SLOAD PUSH1 0x1 PUSH1 0x1 PUSH1 0xA0 SHL SUB NOT AND SWAP2 SWAP1 SWAP2 OR SWAP1 SSTORE PUSH1 0x40 MLOAD PUSH2 0x118D SWAP1 DUP2 PUSH2 0x88 DUP3 CODECOPY RETURN JUMPDEST PUSH0 DUP1 REVERT JUMPDEST PUSH4 0x4E487B71 PUSH1 0xE0 SHL PUSH0 MSTORE PUSH1 0x41 PUSH1 0x4 MSTORE PUSH1 0x24 PUSH0 REVERT INVALID PUSH1 0x80 PUSH1 0x40 MSTORE PUSH1 0x4 CALLDATASIZE LT ISZERO PUSH2 0x11 JUMPI PUSH0 DUP1 REVERT JUMPDEST PUSH0 CALLDATALOAD PUSH1 0xE0 SHR DUP1 PUSH4 0x9029AD15 EQ PUSH2 0x444 JUMPI PUSH4 0xC6478713 EQ PUSH2 0x2F JUMPI PUSH0 DUP1 REVERT JUMPDEST CALLVALUE PUSH2 0x440 JUMPI PUSH2 0x45 PUSH2 0x40 CALLDATASIZE PUSH2 0x56B JUMP JUMPDEST PUSH2 0x8C9 JUMP JUMPDEST PUSH1 0x40 MLOAD DUP1 SWAP2 PUSH1 0x20 DUP3 MSTORE PUSH2 0x68 PUSH1 0x20 DUP4 ADD DUP3 MLOAD PUSH1 0x20 DUP1 SWAP2 DUP1 MLOAD DUP5 MSTORE ADD MLOAD ISZERO ISZERO SWAP2 ADD MSTORE JUMP JUMPDEST PUSH1 0x20 DUP2 ADD MLOAD PUSH1 0x60 DUP4 ADD MSTORE PUSH2 0x140 PUSH2 0x90 PUSH1 0x40 DUP4 ADD MLOAD PUSH2 0x3C0 PUSH1 0x80 DUP7 ADD MSTORE PUSH2 0x3E0 DUP6 ADD SWAP1 PUSH2 0x59F JUMP JUMPDEST SWAP2 PUSH1 0x1 PUSH1 0x1 PUSH1 0x40 SHL SUB PUSH1 0x60 DUP3 ADD MLOAD AND PUSH1 0xA0 DUP6 ADD MSTORE PUSH4 0xFFFFFFFF PUSH1 0x80 DUP3 ADD MLOAD AND PUSH1 0xC0 DUP6 ADD MSTORE PUSH1 0xA0 DUP2 ADD MLOAD PUSH1 0xE0 DUP6 ADD MSTORE PUSH2 0xDD PUSH1 0xC0 DUP3 ADD MLOAD PUSH2 0x100 DUP7 ADD SWAP1 PUSH1 0x20 DUP1 SWAP2 DUP1 MLOAD DUP5 MSTORE ADD MLOAD ISZERO ISZERO SWAP2 ADD MSTORE JUMP JUMPDEST PUSH1 0xE0 DUP2 ADD MLOAD DUP3 DUP6 ADD MSTORE PUSH1 0x1 PUSH1 0x1 PUSH1 0x40 SHL SUB PUSH1 0x80 PUSH2 0x100 DUP4 ADD MLOAD DUP3 DUP2 MLOAD AND PUSH2 0x160 DUP9 ADD MSTORE PUSH4 0xFFFFFFFF PUSH1 0x20 DUP3 ADD MLOAD AND PUSH2 0x180 DUP9 ADD MSTORE DUP3 PUSH1 0x40 DUP3 ADD MLOAD AND PUSH2 0x1A0 DUP9 ADD MSTORE PUSH4 0xFFFFFFFF PUSH1 0x60 DUP3 ADD MLOAD AND PUSH2 0x1C0 DUP9 ADD MSTORE ADD MLOAD AND PUSH2 0x1E0 DUP6 ADD MSTORE PUSH2 0x245 PUSH2 0x1A0 PUSH2 0x120 DUP4 ADD MLOAD PUSH2 0x153 PUSH2 0x200 DUP9 ADD DUP3 MLOAD PUSH2 0x5C3 JUMP JUMPDEST PUSH2 0x166 PUSH1 0x20 DUP3 ADD MLOAD PUSH2 0x220 DUP10 ADD SWAP1 PUSH2 0x5C3 JUMP JUMPDEST PUSH2 0x179 PUSH1 0x40 DUP3 ADD MLOAD PUSH2 0x240 DUP10 ADD SWAP1 PUSH2 0x5C3 JUMP JUMPDEST PUSH2 0x18C PUSH1 0x60 DUP3 ADD MLOAD PUSH2 0x260 DUP10 ADD SWAP1 PUSH2 0x5C3 JUMP JUMPDEST PUSH2 0x19F PUSH1 0x80 DUP3 ADD MLOAD PUSH2 0x280 DUP10 ADD SWAP1 PUSH2 0x5C3 JUMP JUMPDEST PUSH2 0x1B2 PUSH1 0xA0 DUP3 ADD MLOAD PUSH2 0x2A0 DUP10 ADD SWAP1 PUSH2 0x5C3 JUMP JUMPDEST PUSH2 0x1C5 PUSH1 0xC0 DUP3 ADD MLOAD PUSH2 0x2C0 DUP10 ADD SWAP1 PUSH2 0x5C3 JUMP JUMPDEST PUSH4 0xFFFFFFFF PUSH1 0xE0 DUP3 ADD MLOAD AND PUSH2 0x2E0 DUP9 ADD MSTORE PUSH2 0x1EA PUSH2 0x100 DUP3 ADD MLOAD PUSH2 0x300 DUP10 ADD SWAP1 PUSH2 0x5C3 JUMP JUMPDEST PUSH2 0x1FE PUSH2 0x120 DUP3 ADD MLOAD PUSH2 0x320 DUP10 ADD SWAP1 PUSH2 0x5C3 JUMP JUMPDEST PUSH2 0x210 DUP6 DUP3 ADD MLOAD PUSH2 0x340 DUP10 ADD SWAP1 PUSH2 0x5C3 JUMP JUMPDEST PUSH2 0x224 PUSH2 0x160 DUP3 ADD MLOAD PUSH2 0x360 DUP10 ADD SWAP1 PUSH2 0x5C3 JUMP JUMPDEST PUSH2 0x238 PUSH2 0x180 DUP3 ADD MLOAD PUSH2 0x380 DUP10 ADD SWAP1 PUSH2 0x5C3 JUMP JUMPDEST ADD MLOAD PUSH2 0x3A0 DUP7 ADD SWAP1 PUSH2 0x5C3 JUMP JUMPDEST ADD MLOAD DUP3 DUP3 SUB PUSH1 0x1F NOT ADD PUSH2 0x3C0 DUP5 ADD MSTORE DUP1 MLOAD PUSH0 DUP4 JUMPDEST PUSH1 0x8 DUP3 LT PUSH2 0x426 JUMPI POP POP POP PUSH1 0x40 PUSH1 0x20 DUP3 ADD MLOAD PUSH2 0x27A PUSH2 0x100 DUP6 ADD DUP3 MLOAD PUSH2 0x5E4 JUMP JUMPDEST PUSH2 0x28D PUSH1 0x20 DUP3 ADD MLOAD PUSH2 0x120 DUP7 ADD SWAP1 PUSH2 0x5E4 JUMP JUMPDEST ADD MLOAD DUP1 MLOAD PUSH0 PUSH2 0x140 DUP6 ADD JUMPDEST PUSH1 0x7 DUP3 LT PUSH2 0x3F2 JUMPI POP POP POP PUSH1 0x20 DUP2 ADD MLOAD PUSH0 PUSH2 0x300 DUP6 ADD JUMPDEST PUSH1 0xF DUP3 LT PUSH2 0x3BE JUMPI POP POP POP PUSH1 0xE0 DUP2 PUSH1 0x20 PUSH1 0x40 DUP2 SWAP5 ADD MLOAD DUP1 MLOAD PUSH2 0x6C0 DUP9 ADD MSTORE ADD MLOAD PUSH2 0x6E0 DUP7 ADD MSTORE DUP3 PUSH1 0x60 DUP3 ADD MLOAD DUP1 MLOAD PUSH2 0x700 DUP9 ADD MSTORE ADD MLOAD PUSH2 0x720 DUP7 ADD MSTORE DUP3 PUSH1 0x80 DUP3 ADD MLOAD DUP1 MLOAD PUSH2 0x740 DUP9 ADD MSTORE ADD MLOAD PUSH2 0x760 DUP7 ADD MSTORE DUP3 PUSH1 0xA0 DUP3 ADD MLOAD DUP1 MLOAD PUSH2 0x780 DUP9 ADD MSTORE ADD MLOAD PUSH2 0x7A0 DUP7 ADD MSTORE DUP3 PUSH1 0xC0 DUP3 ADD MLOAD DUP1 MLOAD PUSH2 0x7C0 DUP9 ADD MSTORE ADD MLOAD PUSH2 0x7E0 DUP7 ADD MSTORE ADD MLOAD DUP1 MLOAD PUSH2 0x800 DUP6 ADD MSTORE ADD MLOAD PUSH2 0x820 DUP4 ADD MSTORE PUSH4 0xFFFFFFFF PUSH1 0x40 DUP3 ADD MLOAD AND PUSH2 0x840 DUP4 ADD MSTORE PUSH1 0x60 DUP2 ADD MLOAD PUSH2 0x860 DUP4 ADD PUSH0 SWAP1 JUMPDEST PUSH1 0x5 DUP3 LT PUSH2 0x3A4 JUMPI POP POP POP PUSH1 0x80 DUP2 ADD MLOAD PUSH4 0xFFFFFFFF AND PUSH2 0x900 DUP4 ADD MSTORE PUSH1 0xA0 DUP2 ADD MLOAD ISZERO ISZERO PUSH2 0x920 DUP4 ADD MSTORE PUSH1 0xC0 ADD MLOAD PUSH2 0x960 PUSH2 0x940 DUP4 ADD DUP2 SWAP1 MSTORE PUSH2 0x3A0 SWAP3 ADD SWAP1 PUSH2 0x59F JUMP JUMPDEST SUB SWAP1 RETURN JUMPDEST DUP3 MLOAD DUP2 MSTORE DUP7 SWAP6 POP PUSH1 0x20 SWAP3 DUP4 ADD SWAP3 PUSH1 0x1 SWAP3 SWAP1 SWAP3 ADD SWAP2 ADD PUSH2 0x35D JUMP JUMPDEST DUP3 SWAP4 SWAP5 SWAP6 SWAP7 POP PUSH2 0x3E4 PUSH1 0x20 SWAP2 PUSH1 0x1 SWAP4 SWAP5 MLOAD SWAP1 PUSH1 0x20 PUSH1 0x40 SWAP3 DUP1 MLOAD DUP4 MSTORE ADD MLOAD PUSH1 0x20 DUP3 ADD MSTORE ADD SWAP1 JUMP JUMPDEST SWAP4 ADD SWAP2 ADD DUP7 SWAP6 SWAP5 SWAP4 SWAP3 PUSH2 0x2AF JUMP JUMPDEST DUP3 SWAP4 SWAP5 SWAP6 SWAP7 POP PUSH2 0x418 PUSH1 0x20 SWAP2 PUSH1 0x1 SWAP4 SWAP5 MLOAD SWAP1 PUSH1 0x20 PUSH1 0x40 SWAP3 DUP1 MLOAD DUP4 MSTORE ADD MLOAD PUSH1 0x20 DUP3 ADD MSTORE ADD SWAP1 JUMP JUMPDEST SWAP4 ADD SWAP2 ADD DUP7 SWAP6 SWAP5 SWAP4 SWAP3 PUSH2 0x298 JUMP JUMPDEST DUP3 MLOAD DUP2 MSTORE DUP7 SWAP6 POP PUSH1 0x20 SWAP3 DUP4 ADD SWAP3 PUSH1 0x1 SWAP3 SWAP1 SWAP3 ADD SWAP2 ADD PUSH2 0x259 JUMP JUMPDEST PUSH0 DUP1 REVERT JUMPDEST CALLVALUE PUSH2 0x440 JUMPI PUSH2 0x452 CALLDATASIZE PUSH2 0x56B JUMP JUMPDEST PUSH1 0x20 DUP2 ADD CALLDATALOAD SWAP1 PUSH32 0xEE2A4BC7DB81DA2B7164E56B3649B1E2A09C58C455B15DABDDD9146C7582CEBC DUP3 SUB PUSH2 0x558 JUMPI DUP1 PUSH2 0x499 PUSH2 0x492 PUSH1 0xC0 PUSH1 0x20 SWAP5 ADD DUP4 PUSH2 0x5F1 JUMP JUMPDEST CALLDATASIZE SWAP2 PUSH2 0x718 JUMP JUMPDEST DUP3 DUP2 MLOAD SWAP2 ADD KECCAK256 SWAP3 PUSH1 0x1 DUP1 PUSH1 0xA0 SHL SUB PUSH0 SLOAD AND SWAP1 PUSH2 0x4B7 PUSH1 0x40 DUP5 ADD PUSH2 0x75D JUMP JUMPDEST SWAP1 PUSH2 0x501 PUSH2 0x4C8 PUSH1 0x80 DUP7 ADD DUP7 PUSH2 0x5F1 JUMP JUMPDEST SWAP1 SWAP8 PUSH2 0x4D6 PUSH1 0xE0 DUP9 ADD PUSH2 0x777 JUMP JUMPDEST SWAP2 PUSH1 0x40 MLOAD SWAP10 DUP11 SWAP9 DUP10 SWAP8 DUP9 SWAP8 PUSH4 0x6045A91 PUSH1 0xE0 SHL DUP10 MSTORE PUSH1 0xA0 DUP4 ADD CALLDATALOAD SWAP6 PUSH1 0x60 DUP5 ADD CALLDATALOAD SWAP4 CALLDATALOAD PUSH1 0x4 DUP12 ADD PUSH2 0x7A3 JUMP JUMPDEST SUB SWAP2 GAS STATICCALL DUP1 ISZERO PUSH2 0x54D JUMPI PUSH1 0x20 SWAP2 PUSH0 SWAP2 PUSH2 0x520 JUMPI JUMPDEST POP PUSH1 0x40 MLOAD SWAP1 ISZERO ISZERO DUP2 MSTORE RETURN JUMPDEST PUSH2 0x540 SWAP2 POP DUP3 RETURNDATASIZE DUP5 GT PUSH2 0x546 JUMPI JUMPDEST PUSH2 0x538 DUP2 DUP4 PUSH2 0x6F7 JUMP JUMPDEST DUP2 ADD SWAP1 PUSH2 0x78B JUMP JUMPDEST DUP3 PUSH2 0x515 JUMP JUMPDEST POP RETURNDATASIZE PUSH2 0x52E JUMP JUMPDEST PUSH1 0x40 MLOAD RETURNDATASIZE PUSH0 DUP3 RETURNDATACOPY RETURNDATASIZE SWAP1 REVERT JUMPDEST POP PUSH4 0x60BD7BF PUSH1 0xE2 SHL PUSH0 MSTORE PUSH1 0x4 MSTORE PUSH1 0x24 PUSH0 REVERT JUMPDEST PUSH1 0x20 PUSH1 0x3 NOT DUP3 ADD SLT PUSH2 0x440 JUMPI PUSH1 0x4 CALLDATALOAD SWAP1 PUSH1 0x1 PUSH1 0x1 PUSH1 0x40 SHL SUB DUP3 GT PUSH2 0x440 JUMPI PUSH2 0x100 SWAP1 DUP3 SWAP1 SUB PUSH1 0x3 NOT ADD SLT PUSH2 0x440 JUMPI PUSH1 0x4 ADD SWAP1 JUMP JUMPDEST DUP1 MLOAD DUP1 DUP4 MSTORE PUSH1 0x20 SWAP3 SWAP2 DUP2 SWAP1 DUP5 ADD DUP5 DUP5 ADD MCOPY PUSH0 DUP3 DUP3 ADD DUP5 ADD MSTORE PUSH1 0x1F ADD PUSH1 0x1F NOT AND ADD ADD SWAP1 JUMP JUMPDEST SWAP1 PUSH1 0x5 DUP3 LT ISZERO PUSH2 0x5D0 JUMPI MSTORE JUMP JUMPDEST PUSH4 0x4E487B71 PUSH1 0xE0 SHL PUSH0 MSTORE PUSH1 0x21 PUSH1 0x4 MSTORE PUSH1 0x24 PUSH0 REVERT JUMPDEST SWAP1 PUSH1 0x3 DUP3 LT ISZERO PUSH2 0x5D0 JUMPI MSTORE JUMP JUMPDEST SWAP1 CALLDATALOAD SWAP1 PUSH1 0x1E NOT DUP2 CALLDATASIZE SUB ADD DUP3 SLT ISZERO PUSH2 0x440 JUMPI ADD DUP1 CALLDATALOAD SWAP1 PUSH1 0x1 PUSH1 0x1 PUSH1 0x40 SHL SUB DUP3 GT PUSH2 0x440 JUMPI PUSH1 0x20 ADD SWAP2 DUP2 CALLDATASIZE SUB DUP4 SGT PUSH2 0x440 JUMPI JUMP JUMPDEST PUSH1 0x40 DUP2 ADD SWAP1 DUP2 LT PUSH1 0x1 PUSH1 0x1 PUSH1 0x40 SHL SUB DUP3 GT OR PUSH2 0x63E JUMPI PUSH1 0x40 MSTORE JUMP JUMPDEST PUSH4 0x4E487B71 PUSH1 0xE0 SHL PUSH0 MSTORE PUSH1 0x41 PUSH1 0x4 MSTORE PUSH1 0x24 PUSH0 REVERT JUMPDEST PUSH2 0x160 DUP2 ADD SWAP1 DUP2 LT PUSH1 0x1 PUSH1 0x1 PUSH1 0x40 SHL SUB DUP3 GT OR PUSH2 0x63E JUMPI PUSH1 0x40 MSTORE JUMP JUMPDEST PUSH1 0xA0 DUP2 ADD SWAP1 DUP2 LT PUSH1 0x1 PUSH1 0x1 PUSH1 0x40 SHL SUB DUP3 GT OR PUSH2 0x63E JUMPI PUSH1 0x40 MSTORE JUMP JUMPDEST PUSH2 0x1C0 DUP2 ADD SWAP1 DUP2 LT PUSH1 0x1 PUSH1 0x1 PUSH1 0x40 SHL SUB DUP3 GT OR PUSH2 0x63E JUMPI PUSH1 0x40 MSTORE JUMP JUMPDEST PUSH1 0xE0 DUP2 ADD SWAP1 DUP2 LT PUSH1 0x1 PUSH1 0x1 PUSH1 0x40 SHL SUB DUP3 GT OR PUSH2 0x63E JUMPI PUSH1 0x40 MSTORE JUMP JUMPDEST PUSH1 0x60 DUP2 ADD SWAP1 DUP2 LT PUSH1 0x1 PUSH1 0x1 PUSH1 0x40 SHL SUB DUP3 GT OR PUSH2 0x63E JUMPI PUSH1 0x40 MSTORE JUMP JUMPDEST PUSH2 0x100 DUP2 ADD SWAP1 DUP2 LT PUSH1 0x1 PUSH1 0x1 PUSH1 0x40 SHL SUB DUP3 GT OR PUSH2 0x63E JUMPI PUSH1 0x40 MSTORE JUMP JUMPDEST SWAP1 PUSH1 0x1F DUP1 NOT SWAP2 ADD AND DUP2 ADD SWAP1 DUP2 LT PUSH1 0x1 PUSH1 0x1 PUSH1 0x40 SHL SUB DUP3 GT OR PUSH2 0x63E JUMPI PUSH1 0x40 MSTORE JUMP JUMPDEST SWAP3 SWAP2 SWAP3 PUSH1 0x1 PUSH1 0x1 PUSH1 0x40 SHL SUB DUP3 GT PUSH2 0x63E JUMPI PUSH1 0x40 MLOAD SWAP2 PUSH2 0x741 PUSH1 0x1F DUP3 ADD PUSH1 0x1F NOT AND PUSH1 0x20 ADD DUP5 PUSH2 0x6F7 JUMP JUMPDEST DUP3 SWAP5 DUP2 DUP5 MSTORE DUP2 DUP4 ADD GT PUSH2 0x440 JUMPI DUP3 DUP2 PUSH1 0x20 SWAP4 DUP5 PUSH0 SWAP7 ADD CALLDATACOPY ADD ADD MSTORE JUMP JUMPDEST CALLDATALOAD PUSH12 0xFFFFFFFFFFFFFFFFFFFFFFFF NOT DUP2 AND DUP2 SUB PUSH2 0x440 JUMPI SWAP1 JUMP JUMPDEST CALLDATALOAD PUSH1 0x1 PUSH1 0x1 PUSH1 0xA0 SHL SUB DUP2 AND DUP2 SUB PUSH2 0x440 JUMPI SWAP1 JUMP JUMPDEST SWAP1 DUP2 PUSH1 0x20 SWAP2 SUB SLT PUSH2 0x440 JUMPI MLOAD DUP1 ISZERO ISZERO DUP2 SUB PUSH2 0x440 JUMPI SWAP1 JUMP JUMPDEST SWAP8 SWAP10 SWAP9 SWAP6 SWAP2 SWAP4 DUP8 SWAP5 SWAP4 PUSH1 0xE0 SWAP9 SWAP5 PUSH2 0x120 SWAP8 SWAP4 DUP12 MSTORE PUSH1 0x20 DUP12 ADD MSTORE PUSH1 0x40 DUP11 ADD MSTORE PUSH12 0xFFFFFFFFFFFFFFFFFFFFFFFF NOT AND PUSH1 0x60 DUP10 ADD MSTORE PUSH1 0x80 DUP9 ADD MSTORE PUSH2 0x100 PUSH1 0xA0 DUP9 ADD MSTORE DUP2 PUSH2 0x100 DUP9 ADD MSTORE DUP4 DUP8 ADD CALLDATACOPY PUSH0 DUP3 DUP3 DUP8 ADD ADD MSTORE PUSH1 0x1F DUP1 NOT SWAP2 ADD AND DUP5 ADD ADD SWAP5 PUSH1 0xC0 DUP5 ADD MSTORE PUSH1 0x1 DUP1 PUSH1 0xA0 SHL SUB AND SWAP2 ADD MSTORE JUMP JUMPDEST PUSH0 JUMPDEST DUP3 DUP2 LT PUSH2 0x81F JUMPI POP POP POP JUMP JUMPDEST PUSH1 0x20 SWAP1 PUSH1 0x40 MLOAD PUSH2 0x82E DUP2 PUSH2 0x623 JUMP JUMPDEST PUSH0 DUP2 MSTORE PUSH0 DUP4 DUP3 ADD MSTORE DUP2 DUP5 ADD MSTORE ADD PUSH2 0x813 JUMP JUMPDEST CALLDATALOAD SWAP1 DUP2 ISZERO ISZERO DUP3 SUB PUSH2 0x440 JUMPI JUMP JUMPDEST SWAP2 SWAP1 DUP3 PUSH1 0x40 SWAP2 SUB SLT PUSH2 0x440 JUMPI PUSH1 0x40 MLOAD PUSH2 0x865 DUP2 PUSH2 0x623 JUMP JUMPDEST PUSH1 0x20 PUSH2 0x877 DUP2 DUP4 SWAP6 DUP1 CALLDATALOAD DUP6 MSTORE ADD PUSH2 0x840 JUMP JUMPDEST SWAP2 ADD MSTORE JUMP JUMPDEST CALLDATALOAD SWAP1 PUSH1 0x1 PUSH1 0x1 PUSH1 0x40 SHL SUB DUP3 AND DUP3 SUB PUSH2 0x440 JUMPI JUMP JUMPDEST CALLDATALOAD SWAP1 PUSH4 0xFFFFFFFF DUP3 AND DUP3 SUB PUSH2 0x440 JUMPI JUMP JUMPDEST SWAP2 SWAP1 DUP3 PUSH1 0x40 SWAP2 SUB SLT PUSH2 0x440 JUMPI PUSH1 0x40 MLOAD PUSH2 0x8B9 DUP2 PUSH2 0x623 JUMP JUMPDEST PUSH1 0x20 DUP1 DUP3 SWAP5 DUP1 CALLDATALOAD DUP5 MSTORE ADD CALLDATALOAD SWAP2 ADD MSTORE JUMP JUMPDEST PUSH1 0x40 MLOAD SWAP1 PUSH2 0x8D6 DUP3 PUSH2 0x652 JUMP JUMPDEST PUSH1 0x40 MLOAD PUSH2 0x8E2 DUP2 PUSH2 0x623 JUMP JUMPDEST PUSH0 DUP2 MSTORE PUSH0 PUSH1 0x20 DUP3 ADD MSTORE DUP3 MSTORE PUSH0 PUSH1 0x20 DUP4 ADD MSTORE PUSH1 0x60 PUSH1 0x40 DUP4 ADD MSTORE PUSH0 PUSH1 0x60 DUP4 ADD MSTORE PUSH0 PUSH1 0x80 DUP4 ADD MSTORE PUSH0 PUSH1 0xA0 DUP4 ADD MSTORE PUSH1 0x40 MLOAD PUSH2 0x918 DUP2 PUSH2 0x623 JUMP JUMPDEST PUSH0 DUP2 MSTORE PUSH0 PUSH1 0x20 DUP3 ADD MSTORE PUSH1 0xC0 DUP4 ADD MSTORE PUSH0 PUSH1 0xE0 DUP4 ADD MSTORE PUSH1 0x40 MLOAD PUSH2 0x938 DUP2 PUSH2 0x66E JUMP JUMPDEST PUSH0 DUP2 MSTORE PUSH0 PUSH1 0x20 DUP3 ADD MSTORE PUSH0 PUSH1 0x40 DUP3 ADD MSTORE PUSH0 PUSH1 0x60 DUP3 ADD MSTORE PUSH0 PUSH1 0x80 DUP3 ADD MSTORE PUSH2 0x100 DUP4 ADD MSTORE PUSH1 0x40 MLOAD PUSH2 0x965 DUP2 PUSH2 0x689 JUMP JUMPDEST PUSH0 DUP2 MSTORE PUSH0 PUSH1 0x20 DUP3 ADD MSTORE PUSH0 PUSH1 0x40 DUP3 ADD MSTORE PUSH0 PUSH1 0x60 DUP3 ADD MSTORE PUSH0 PUSH1 0x80 DUP3 ADD MSTORE PUSH0 PUSH1 0xA0 DUP3 ADD MSTORE PUSH0 PUSH1 0xC0 DUP3 ADD MSTORE PUSH0 PUSH1 0xE0 DUP3 ADD MSTORE PUSH0 PUSH2 0x100 DUP3 ADD MSTORE PUSH0 PUSH2 0x120 DUP3 ADD MSTORE PUSH0 PUSH2 0x140 DUP3 ADD MSTORE PUSH0 PUSH2 0x160 DUP3 ADD MSTORE PUSH0 PUSH2 0x180 DUP3 ADD MSTORE PUSH0 PUSH2 0x1A0 DUP3 ADD MSTORE PUSH2 0x120 DUP4 ADD MSTORE PUSH1 0x40 MLOAD SWAP1 PUSH2 0x9CF DUP3 PUSH2 0x6A5 JUMP JUMPDEST PUSH2 0x100 SWAP1 PUSH1 0x40 MLOAD PUSH2 0x9E0 DUP4 DUP3 PUSH2 0x6F7 JUMP JUMPDEST DUP3 CALLDATASIZE DUP3 CALLDATACOPY DUP4 MSTORE PUSH1 0x40 MLOAD SWAP3 PUSH2 0x9F3 DUP5 PUSH2 0x6C0 JUMP JUMPDEST PUSH0 DUP5 MSTORE PUSH0 PUSH1 0x20 DUP6 ADD MSTORE PUSH1 0x40 MLOAD SWAP4 PUSH2 0xA09 DUP6 PUSH2 0x6DB JUMP JUMPDEST PUSH1 0xE0 SWAP5 PUSH1 0x40 MLOAD PUSH2 0xA19 DUP8 DUP3 PUSH2 0x6F7 JUMP JUMPDEST PUSH2 0xA23 DUP8 DUP3 PUSH2 0x811 JUMP JUMPDEST DUP2 MSTORE PUSH1 0x40 MLOAD PUSH2 0xA3E PUSH2 0x1E0 PUSH2 0xA38 DUP2 DUP5 PUSH2 0x6F7 JUMP JUMPDEST DUP3 PUSH2 0x811 JUMP JUMPDEST PUSH1 0x20 DUP3 ADD MSTORE PUSH1 0x40 MLOAD PUSH2 0xA4F DUP2 PUSH2 0x623 JUMP JUMPDEST PUSH0 DUP2 MSTORE PUSH0 PUSH1 0x20 DUP3 ADD MSTORE PUSH1 0x40 DUP3 ADD MSTORE PUSH1 0x40 MLOAD PUSH2 0xA69 DUP2 PUSH2 0x623 JUMP JUMPDEST PUSH0 DUP2 MSTORE PUSH0 PUSH1 0x20 DUP3 ADD MSTORE PUSH1 0x60 DUP3 ADD MSTORE PUSH1 0x40 MLOAD PUSH2 0xA83 DUP2 PUSH2 0x623 JUMP JUMPDEST PUSH0 DUP2 MSTORE PUSH0 PUSH1 0x20 DUP3 ADD MSTORE PUSH1 0x80 DUP3 ADD MSTORE PUSH1 0x40 MLOAD PUSH2 0xA9D DUP2 PUSH2 0x623 JUMP JUMPDEST PUSH0 DUP2 MSTORE PUSH0 PUSH1 0x20 DUP3 ADD MSTORE PUSH1 0xA0 DUP3 ADD MSTORE PUSH1 0x40 MLOAD PUSH2 0xAB7 DUP2 PUSH2 0x623 JUMP JUMPDEST PUSH0 DUP2 MSTORE PUSH0 PUSH1 0x20 DUP3 ADD MSTORE PUSH1 0xC0 DUP3 ADD MSTORE PUSH1 0x40 MLOAD PUSH2 0xAD1 DUP2 PUSH2 0x623 JUMP JUMPDEST PUSH0 DUP2 MSTORE PUSH0 PUSH1 0x20 DUP3 ADD MSTORE DUP7 DUP3 ADD MSTORE PUSH1 0x40 DUP3 ADD MSTORE PUSH1 0x20 DUP3 ADD MSTORE PUSH0 PUSH1 0x40 DUP3 ADD MSTORE PUSH2 0x140 PUSH1 0xA0 SWAP6 PUSH1 0x40 MLOAD PUSH2 0xB01 DUP9 DUP3 PUSH2 0x6F7 JUMP JUMPDEST DUP8 CALLDATASIZE DUP3 CALLDATACOPY PUSH1 0x60 DUP5 ADD MSTORE PUSH0 PUSH1 0x80 DUP5 ADD MSTORE PUSH0 DUP8 DUP5 ADD MSTORE PUSH1 0x60 PUSH1 0xC0 DUP5 ADD MSTORE ADD MSTORE PUSH1 0x20 DUP2 ADD CALLDATALOAD PUSH32 0xEE2A4BC7DB81DA2B7164E56B3649B1E2A09C58C455B15DABDDD9146C7582CEBC DUP2 SUB PUSH2 0x1145 JUMPI DUP2 PUSH1 0x20 PUSH1 0xC0 DUP3 ADD SWAP3 PUSH2 0xB5F PUSH2 0x492 DUP6 DUP6 PUSH2 0x5F1 JUMP JUMPDEST DUP3 DUP2 MLOAD SWAP2 ADD KECCAK256 SWAP1 PUSH1 0x1 DUP1 PUSH1 0xA0 SHL SUB PUSH0 SLOAD AND SWAP1 DUP10 PUSH2 0xBC6 DUP11 PUSH2 0xB82 PUSH1 0x40 DUP10 ADD PUSH2 0x75D JUMP JUMPDEST SWAP6 PUSH2 0xB9D PUSH2 0xB93 PUSH1 0x80 DUP12 ADD DUP12 PUSH2 0x5F1 JUMP JUMPDEST SWAP2 SWAP1 SWAP4 DUP12 ADD PUSH2 0x777 JUMP JUMPDEST SWAP3 PUSH1 0x40 MLOAD SWAP11 DUP12 SWAP10 DUP11 SWAP9 DUP10 SWAP9 PUSH4 0x6045A91 PUSH1 0xE0 SHL DUP11 MSTORE DUP4 ADD CALLDATALOAD SWAP6 PUSH1 0x60 DUP5 ADD CALLDATALOAD SWAP4 CALLDATALOAD PUSH1 0x4 DUP12 ADD PUSH2 0x7A3 JUMP JUMPDEST SUB SWAP2 GAS STATICCALL SWAP1 DUP2 ISZERO PUSH2 0x54D JUMPI PUSH0 SWAP2 PUSH2 0x1126 JUMPI JUMPDEST POP ISZERO PUSH2 0x440 JUMPI PUSH2 0xBE7 SWAP2 PUSH2 0x5F1 JUMP JUMPDEST DUP1 PUSH1 0x28 SWAP4 SWAP3 SWAP4 GT PUSH2 0x440 JUMPI DUP3 ADD SWAP2 PUSH1 0x20 DUP2 DUP5 SUB PUSH1 0x27 NOT ADD SLT PUSH2 0x440 JUMPI PUSH1 0x28 DUP2 ADD CALLDATALOAD SWAP1 PUSH1 0x1 PUSH1 0x1 PUSH1 0x40 SHL SUB DUP3 GT PUSH2 0x440 JUMPI ADD DUP1 DUP4 SUB PUSH1 0x27 NOT ADD SWAP5 SWAP1 PUSH2 0x3C0 DUP7 SLT PUSH2 0x440 JUMPI PUSH1 0x40 MLOAD SWAP6 PUSH2 0xC37 DUP8 PUSH2 0x652 JUMP JUMPDEST PUSH2 0xC44 DUP6 PUSH1 0x28 DUP5 ADD PUSH2 0x84D JUMP JUMPDEST DUP8 MSTORE PUSH1 0x68 DUP3 ADD CALLDATALOAD PUSH1 0x20 DUP9 ADD MSTORE PUSH1 0x88 DUP3 ADD CALLDATALOAD PUSH1 0x1 PUSH1 0x1 PUSH1 0x40 SHL SUB DUP2 GT PUSH2 0x440 JUMPI PUSH1 0x28 SWAP1 DUP4 ADD ADD DUP6 PUSH1 0x1F DUP3 ADD SLT ISZERO PUSH2 0x440 JUMPI DUP6 DUP2 PUSH1 0x20 PUSH2 0xC84 SWAP4 CALLDATALOAD SWAP2 ADD PUSH2 0x718 JUMP JUMPDEST PUSH1 0x40 DUP9 ADD MSTORE PUSH2 0xC95 PUSH1 0xA8 DUP4 ADD PUSH2 0x87C JUMP JUMPDEST PUSH1 0x60 DUP9 ADD MSTORE PUSH2 0xCA6 PUSH1 0xC8 DUP4 ADD PUSH2 0x890 JUMP JUMPDEST PUSH1 0x80 DUP9 ADD MSTORE PUSH1 0xE8 DUP3 ADD CALLDATALOAD DUP4 DUP9 ADD MSTORE PUSH2 0xCC2 DUP6 PUSH2 0x108 DUP5 ADD PUSH2 0x84D JUMP JUMPDEST PUSH1 0xC0 DUP9 ADD MSTORE PUSH2 0x148 DUP3 ADD CALLDATALOAD DUP7 DUP9 ADD MSTORE DUP3 PUSH2 0x13F NOT DUP3 ADD SLT PUSH2 0x440 JUMPI PUSH2 0x1C0 SWAP1 PUSH1 0x40 MLOAD PUSH2 0xCED DUP2 PUSH2 0x66E JUMP JUMPDEST PUSH2 0xCFA PUSH2 0x168 DUP6 ADD PUSH2 0x87C JUMP JUMPDEST DUP2 MSTORE PUSH2 0xD09 PUSH2 0x188 DUP6 ADD PUSH2 0x890 JUMP JUMPDEST PUSH1 0x20 DUP3 ADD MSTORE PUSH2 0xD1B PUSH2 0x1A8 DUP6 ADD PUSH2 0x87C JUMP JUMPDEST PUSH1 0x40 DUP3 ADD MSTORE PUSH2 0xD2D PUSH2 0x1C8 DUP6 ADD PUSH2 0x890 JUMP JUMPDEST PUSH1 0x60 DUP3 ADD MSTORE PUSH2 0xD3F PUSH2 0x1E8 DUP6 ADD PUSH2 0x87C JUMP JUMPDEST PUSH1 0x80 DUP3 ADD MSTORE DUP9 DUP7 ADD MSTORE PUSH2 0x1DF NOT ADD SLT PUSH2 0x440 JUMPI PUSH1 0x40 MLOAD PUSH2 0xD5E DUP2 PUSH2 0x689 JUMP JUMPDEST PUSH2 0x208 DUP3 ADD CALLDATALOAD PUSH1 0x5 DUP2 LT ISZERO PUSH2 0x440 JUMPI DUP2 MSTORE PUSH2 0x228 DUP3 ADD CALLDATALOAD PUSH1 0x5 DUP2 LT ISZERO PUSH2 0x440 JUMPI PUSH1 0x20 DUP3 ADD MSTORE PUSH2 0x248 DUP3 ADD CALLDATALOAD PUSH1 0x5 DUP2 LT ISZERO PUSH2 0x440 JUMPI PUSH1 0x40 DUP3 ADD MSTORE PUSH2 0x268 DUP3 ADD CALLDATALOAD PUSH1 0x5 DUP2 LT ISZERO PUSH2 0x440 JUMPI PUSH1 0x60 DUP3 ADD MSTORE PUSH2 0x288 DUP3 ADD CALLDATALOAD PUSH1 0x5 DUP2 LT ISZERO PUSH2 0x440 JUMPI PUSH1 0x80 DUP3 ADD MSTORE PUSH2 0x2A8 DUP3 ADD CALLDATALOAD PUSH1 0x5 DUP2 LT ISZERO PUSH2 0x440 JUMPI DUP4 DUP3 ADD MSTORE PUSH2 0x2C8 DUP3 ADD CALLDATALOAD PUSH1 0x5 DUP2 LT ISZERO PUSH2 0x440 JUMPI PUSH1 0xC0 DUP3 ADD MSTORE PUSH2 0xDF3 PUSH2 0x2E8 DUP4 ADD PUSH2 0x890 JUMP JUMPDEST DUP7 DUP3 ADD MSTORE PUSH2 0x308 DUP3 ADD CALLDATALOAD PUSH1 0x5 DUP2 LT ISZERO PUSH2 0x440 JUMPI DUP5 DUP3 ADD MSTORE PUSH2 0x328 DUP3 ADD CALLDATALOAD PUSH1 0x5 DUP2 LT ISZERO PUSH2 0x440 JUMPI PUSH2 0x120 DUP3 ADD MSTORE PUSH2 0x348 DUP3 ADD CALLDATALOAD PUSH1 0x5 DUP2 LT ISZERO PUSH2 0x440 JUMPI PUSH2 0x140 DUP3 ADD MSTORE PUSH2 0x368 DUP3 ADD CALLDATALOAD PUSH1 0x5 DUP2 LT ISZERO PUSH2 0x440 JUMPI PUSH2 0x160 DUP3 ADD MSTORE PUSH2 0x388 DUP3 ADD CALLDATALOAD PUSH1 0x5 DUP2 LT ISZERO PUSH2 0x440 JUMPI PUSH2 0x180 DUP3 ADD MSTORE PUSH2 0x3A8 DUP3 ADD CALLDATALOAD PUSH1 0x5 DUP2 LT ISZERO PUSH2 0x440 JUMPI PUSH2 0x1A0 DUP3 ADD MSTORE PUSH2 0x120 DUP8 ADD MSTORE PUSH2 0x3C8 DUP2 ADD CALLDATALOAD PUSH1 0x1 PUSH1 0x1 PUSH1 0x40 SHL SUB DUP2 GT PUSH2 0x440 JUMPI PUSH1 0x28 SWAP2 ADD ADD SWAP2 DUP3 DUP5 SUB SWAP5 PUSH2 0x960 DUP7 SLT PUSH2 0x440 JUMPI PUSH1 0x40 MLOAD SWAP6 PUSH2 0xEAD DUP8 PUSH2 0x6A5 JUMP JUMPDEST DUP6 PUSH1 0x1F DUP7 ADD SLT ISZERO PUSH2 0x440 JUMPI PUSH1 0x40 MLOAD PUSH2 0xEC7 PUSH2 0x100 DUP3 PUSH2 0x6F7 JUMP JUMPDEST DUP1 SWAP4 DUP7 ADD SWAP4 DUP8 DUP6 GT PUSH2 0x440 JUMPI DUP7 SWAP1 JUMPDEST DUP6 DUP3 LT PUSH2 0x1116 JUMPI POP POP DUP8 MSTORE PUSH2 0x740 PUSH1 0xFF NOT DUP3 ADD SLT PUSH2 0x440 JUMPI PUSH1 0x40 MLOAD SWAP3 PUSH2 0xEFB DUP5 PUSH2 0x6C0 JUMP JUMPDEST CALLDATALOAD PUSH1 0x3 DUP2 LT ISZERO PUSH2 0x440 JUMPI DUP4 MSTORE PUSH2 0x120 DUP6 ADD CALLDATALOAD SWAP1 PUSH1 0x3 DUP3 LT ISZERO PUSH2 0x440 JUMPI PUSH2 0x700 SWAP2 PUSH1 0x20 DUP6 ADD MSTORE PUSH2 0x13F NOT ADD SLT PUSH2 0x440 JUMPI PUSH1 0x40 MLOAD SWAP1 PUSH2 0xF37 DUP3 PUSH2 0x6DB JUMP JUMPDEST DUP6 PUSH2 0x15F DUP7 ADD SLT ISZERO PUSH2 0x440 JUMPI PUSH1 0x40 MLOAD PUSH2 0xF51 PUSH1 0xE0 DUP3 PUSH2 0x6F7 JUMP JUMPDEST DUP1 PUSH2 0x300 DUP8 ADD SWAP2 DUP9 DUP4 GT PUSH2 0x440 JUMPI PUSH2 0x140 DUP9 ADD SWAP1 JUMPDEST DUP4 DUP3 LT PUSH2 0x10FC JUMPI POP POP DUP4 MSTORE DUP7 PUSH2 0x31F DUP8 ADD SLT ISZERO PUSH2 0x440 JUMPI PUSH1 0x40 MLOAD PUSH2 0xF8C PUSH2 0x1E0 DUP3 PUSH2 0x6F7 JUMP JUMPDEST DUP1 PUSH2 0x6C0 DUP9 ADD SWAP3 DUP10 DUP5 GT PUSH2 0x440 JUMPI DUP10 SWAP3 SWAP2 JUMPDEST DUP5 DUP3 LT PUSH2 0x10DE JUMPI POP POP PUSH1 0x20 DUP6 ADD MSTORE PUSH2 0xFB5 SWAP2 PUSH2 0x8A1 JUMP JUMPDEST PUSH1 0x40 DUP4 ADD MSTORE PUSH2 0xFC8 DUP7 PUSH2 0x700 DUP8 ADD PUSH2 0x8A1 JUMP JUMPDEST PUSH1 0x60 DUP4 ADD MSTORE PUSH2 0xFDB DUP7 PUSH2 0x740 DUP8 ADD PUSH2 0x8A1 JUMP JUMPDEST PUSH1 0x80 DUP4 ADD MSTORE PUSH2 0xFEE DUP7 PUSH2 0x780 DUP8 ADD PUSH2 0x8A1 JUMP JUMPDEST DUP5 DUP4 ADD MSTORE PUSH2 0x1000 DUP7 PUSH2 0x7C0 DUP8 ADD PUSH2 0x8A1 JUMP JUMPDEST PUSH1 0xC0 DUP4 ADD MSTORE PUSH2 0x1013 DUP7 PUSH2 0x800 DUP8 ADD PUSH2 0x8A1 JUMP JUMPDEST SWAP1 DUP3 ADD MSTORE PUSH1 0x40 DUP3 ADD MSTORE PUSH1 0x20 DUP6 ADD MSTORE PUSH2 0x102E PUSH2 0x840 DUP4 ADD PUSH2 0x890 JUMP JUMPDEST PUSH1 0x40 DUP6 ADD MSTORE DUP3 PUSH2 0x87F DUP4 ADD SLT ISZERO PUSH2 0x440 JUMPI PUSH1 0x40 MLOAD PUSH2 0x104D PUSH1 0xA0 DUP3 PUSH2 0x6F7 JUMP JUMPDEST DUP1 PUSH2 0x900 DUP5 ADD SWAP2 DUP6 DUP4 GT PUSH2 0x440 JUMPI PUSH2 0x860 DUP6 ADD SWAP1 JUMPDEST DUP4 DUP3 LT PUSH2 0x10CE JUMPI POP POP PUSH1 0x60 DUP7 ADD MSTORE PUSH2 0x1079 SWAP1 PUSH2 0x890 JUMP JUMPDEST PUSH1 0x80 DUP6 ADD MSTORE PUSH2 0x108B PUSH2 0x920 DUP4 ADD PUSH2 0x840 JUMP JUMPDEST SWAP1 DUP5 ADD MSTORE PUSH2 0x940 DUP2 ADD CALLDATALOAD SWAP1 PUSH1 0x1 PUSH1 0x1 PUSH1 0x40 SHL SUB DUP3 GT PUSH2 0x440 JUMPI ADD SWAP1 DUP1 PUSH1 0x1F DUP4 ADD SLT ISZERO PUSH2 0x440 JUMPI DUP2 PUSH1 0x20 PUSH2 0x10C0 SWAP4 CALLDATALOAD SWAP2 ADD PUSH2 0x718 JUMP JUMPDEST PUSH1 0xC0 DUP3 ADD MSTORE PUSH2 0x140 DUP3 ADD MSTORE SWAP1 JUMP JUMPDEST DUP2 CALLDATALOAD DUP2 MSTORE PUSH1 0x20 SWAP2 DUP3 ADD SWAP2 ADD PUSH2 0x1062 JUMP JUMPDEST PUSH1 0x20 SWAP1 PUSH2 0x10EF DUP4 SWAP5 SWAP6 PUSH1 0x40 SWAP5 PUSH2 0x8A1 JUMP JUMPDEST DUP2 MSTORE ADD SWAP2 ADD DUP10 SWAP3 SWAP2 PUSH2 0xF9E JUMP JUMPDEST PUSH1 0x20 PUSH1 0x40 SWAP2 PUSH2 0x110B DUP13 DUP6 PUSH2 0x8A1 JUMP JUMPDEST DUP2 MSTORE ADD SWAP2 ADD SWAP1 PUSH2 0xF66 JUMP JUMPDEST DUP2 CALLDATALOAD DUP2 MSTORE PUSH1 0x20 SWAP2 DUP3 ADD SWAP2 ADD PUSH2 0xED6 JUMP JUMPDEST PUSH2 0x113F SWAP2 POP PUSH1 0x20 RETURNDATASIZE PUSH1 0x20 GT PUSH2 0x546 JUMPI PUSH2 0x538 DUP2 DUP4 PUSH2 0x6F7 JUMP JUMPDEST PUSH0 PUSH2 0xBD8 JUMP JUMPDEST PUSH4 0x60BD7BF PUSH1 0xE2 SHL PUSH0 MSTORE PUSH1 0x4 MSTORE PUSH1 0x24 PUSH0 REVERT INVALID LOG2 PUSH5 0x6970667358 0x22 SLT KECCAK256 PUSH32 0x75AD0829385E9B96FC6FC7162C9CBABB0F0532765F1C57954575E7EA7745C64 PUSH20 0x6F6C634300081C00330000000000000000000000 "},"methodIdentifiers":{"validateAccount((bytes32,bytes32,bytes20,bytes32,bytes,uint256,bytes,address))":"9029ad15","validateAccountAndReturn((bytes32,bytes32,bytes20,bytes32,bytes,uint256,bytes,address))":"c6478713"}}}}}