{"project/contracts/MinaStateSettlementExample.sol":{"MinaStateSettlementExample":{"abi":[{"inputs":[{"internalType":"address payable","name":"_alignedServiceAddr","type":"address"},{"internalType":"bytes32","name":"_tipStateHash","type":"bytes32"},{"internalType":"bool","name":"_devnetFlag","type":"bool"}],"stateMutability":"nonpayable","type":"constructor"},{"inputs":[],"name":"MinaNetworkIsWrong","type":"error"},{"inputs":[{"internalType":"bytes32","name":"","type":"bytes32"}],"name":"MinaProvingSystemIdIsNotValid","type":"error"},{"inputs":[],"name":"NewStateIsNotValid","type":"error"},{"inputs":[{"internalType":"bytes32","name":"pubInputTipStateHash","type":"bytes32"},{"internalType":"bytes32","name":"tipStatehash","type":"bytes32"}],"name":"TipStateIsWrong","type":"error"},{"inputs":[],"name":"BRIDGE_TRANSITION_FRONTIER_LEN","outputs":[{"internalType":"uint256","name":"","type":"uint256"}],"stateMutability":"view","type":"function"},{"inputs":[],"name":"getChainLedgerHashes","outputs":[{"internalType":"bytes32[16]","name":"","type":"bytes32[16]"}],"stateMutability":"view","type":"function"},{"inputs":[],"name":"getChainStateHashes","outputs":[{"internalType":"bytes32[16]","name":"","type":"bytes32[16]"}],"stateMutability":"view","type":"function"},{"inputs":[],"name":"getTipLedgerHash","outputs":[{"internalType":"bytes32","name":"","type":"bytes32"}],"stateMutability":"view","type":"function"},{"inputs":[],"name":"getTipStateHash","outputs":[{"internalType":"bytes32","name":"","type":"bytes32"}],"stateMutability":"view","type":"function"},{"inputs":[{"internalType":"bytes32","name":"ledgerHash","type":"bytes32"}],"name":"isLedgerVerified","outputs":[{"internalType":"bool","name":"","type":"bool"}],"stateMutability":"view","type":"function"},{"inputs":[{"internalType":"bytes32","name":"proofCommitment","type":"bytes32"},{"internalType":"bytes32","name":"provingSystemAuxDataCommitment","type":"bytes32"},{"internalType":"bytes20","name":"proofGeneratorAddr","type":"bytes20"},{"internalType":"bytes32","name":"batchMerkleRoot","type":"bytes32"},{"internalType":"bytes","name":"merkleProof","type":"bytes"},{"internalType":"uint256","name":"verificationDataBatchIndex","type":"uint256"},{"internalType":"bytes","name":"pubInput","type":"bytes"},{"internalType":"address","name":"batcherPaymentService","type":"address"}],"name":"updateChain","outputs":[],"stateMutability":"nonpayable","type":"function"}],"evm":{"bytecode":{"linkReferences":{},"object":"608034609857601f61070a38819003918201601f19168301916001600160401b03831184841017609c578084926060946040528339810103126098578051906001600160a01b03821682036098576040602082015191015180151580910360985760ff9060205492600f551691610100600160a81b039060081b169060018060a81b031916171760205560405161065990816100b18239f35b5f80fd5b634e487b7160e01b5f52604160045260245ffdfe60806040526004361015610011575f80fd5b5f3560e01c806303f93e50146100845780632bc4f8d91461007f57806337baff0f1461007a5780633886c09b146100755780633e16b01114610070578063b81847451461006b5763fb299cd814610066575f80fd5b6102e2565b6102c5565b61029d565b610280565b6101f3565b6100f4565b346100c2575f3660031901126100c2576102006040516100a48282610160565b3690376100be6100b26102fd565b604051918291826100c6565b0390f35b5f80fd5b91906102008301925f905b601082106100de57505050565b60208060019285518152019301910190916100d1565b346100c2575f3660031901126100c257610200806040516101158282610160565b36903760405160105f825b60108210610136576100be846100b28782610160565b6001602081928554815201930191019091610120565b634e487b7160e01b5f52604160045260245ffd5b90601f8019910116810190811067ffffffffffffffff82111761018257604052565b61014c565b81601f820112156100c25780359067ffffffffffffffff821161018257604051926101bc601f8401601f191660200185610160565b828452602083830101116100c257815f926020809301838601378301015290565b60e435906001600160a01b03821682036100c257565b346100c2576101003660031901126100c2576044356004356024356bffffffffffffffffffffffff19831683036100c25760643560843567ffffffffffffffff81116100c257610247903690600401610187565b60a4359160c4359567ffffffffffffffff87116100c25761026f61027e973690600401610187565b946102786101dd565b966103fd565b005b346100c2575f3660031901126100c2576020601f54604051908152f35b346100c25760203660031901126100c25760206102bb6004356105d1565b6040519015158152f35b346100c2575f3660031901126100c2576020600f54604051908152f35b346100c2575f3660031901126100c257602060405160108152f35b604051905f80835b6010821061031e5750505061031c61020083610160565b565b6001602081928554815201930191019091610305565b634e487b7160e01b5f52603260045260245ffd5b8051156103555760200190565b610334565b601081101561035557905f90565b908160209103126100c2575180151581036100c25790565b96989794909360209360e09793610120968a52858a015260408901526bffffffffffffffffffffffff19166060880152608087015261010060a0870152805191829182610100890152018387015e5f828287010152601f80199101168401019460c084015260018060a01b0316910152565b6040513d5f823e3d90fd5b909391949796977fd0591206d9e81e07f4defc5327957173572bcd1bca7838caa7be39b0c12b187385036105bd57600160f81b6001600160f81b03196104536104458a610348565b516001600160f81b03191690565b1614926020549361046c6104678660ff1690565b151590565b036105ae57602188015161048d610483600f61035a565b90549060031b1c90565b81036105825750986104e69188999a6104c86104bc8b6020809c9d519101209760018060a01b039060081c1690565b6001600160a01b031690565b966040519a8b998a9889986306045a9160e01b8a5260048a01610380565b03915afa90811561057d575f9161054e575b501561053f575f9060106102416041830192015f925b6010841061051d575050505050565b600160208181848295518a55019701938051865501930193019291909361050e565b630114602f60e41b5f5260045ffd5b610570915060203d602011610576575b6105688183610160565b810190610368565b5f6104f8565b503d61055e565b6103f2565b6105ab90610593610483600f61035a565b63177b002560e31b5f52600491909152602452604490565b5ffd5b63042eb0cf60e01b5f5260045ffd5b63c35f1ecd60e01b5f52600485905260245ffd5b5f5b601081106105e15750505f90565b80600f03600f811161060f57601081101561035557601001548214610608576001016105d3565b5050600190565b634e487b7160e01b5f52601160045260245ffdfea264697066735822122036f2615a3424eec80cbcd3631b632403636629e0ed2cdca64701d21bbf8754df64736f6c634300081c0033","opcodes":"PUSH1 0x80 CALLVALUE PUSH1 0x98 JUMPI PUSH1 0x1F PUSH2 0x70A CODESIZE DUP2 SWAP1 SUB SWAP2 DUP3 ADD PUSH1 0x1F NOT AND DUP4 ADD SWAP2 PUSH1 0x1 PUSH1 0x1 PUSH1 0x40 SHL SUB DUP4 GT DUP5 DUP5 LT OR PUSH1 0x9C JUMPI DUP1 DUP5 SWAP3 PUSH1 0x60 SWAP5 PUSH1 0x40 MSTORE DUP4 CODECOPY DUP2 ADD SUB SLT PUSH1 0x98 JUMPI DUP1 MLOAD SWAP1 PUSH1 0x1 PUSH1 0x1 PUSH1 0xA0 SHL SUB DUP3 AND DUP3 SUB PUSH1 0x98 JUMPI PUSH1 0x40 PUSH1 0x20 DUP3 ADD MLOAD SWAP2 ADD MLOAD DUP1 ISZERO ISZERO DUP1 SWAP2 SUB PUSH1 0x98 JUMPI PUSH1 0xFF SWAP1 PUSH1 0x20 SLOAD SWAP3 PUSH1 0xF SSTORE AND SWAP2 PUSH2 0x100 PUSH1 0x1 PUSH1 0xA8 SHL SUB SWAP1 PUSH1 0x8 SHL AND SWAP1 PUSH1 0x1 DUP1 PUSH1 0xA8 SHL SUB NOT AND OR OR PUSH1 0x20 SSTORE PUSH1 0x40 MLOAD PUSH2 0x659 SWAP1 DUP2 PUSH2 0xB1 DUP3 CODECOPY RETURN JUMPDEST PUSH0 DUP1 REVERT JUMPDEST PUSH4 0x4E487B71 PUSH1 0xE0 SHL PUSH0 MSTORE PUSH1 0x41 PUSH1 0x4 MSTORE PUSH1 0x24 PUSH0 REVERT INVALID PUSH1 0x80 PUSH1 0x40 MSTORE PUSH1 0x4 CALLDATASIZE LT ISZERO PUSH2 0x11 JUMPI PUSH0 DUP1 REVERT JUMPDEST PUSH0 CALLDATALOAD PUSH1 0xE0 SHR DUP1 PUSH4 0x3F93E50 EQ PUSH2 0x84 JUMPI DUP1 PUSH4 0x2BC4F8D9 EQ PUSH2 0x7F JUMPI DUP1 PUSH4 0x37BAFF0F EQ PUSH2 0x7A JUMPI DUP1 PUSH4 0x3886C09B EQ PUSH2 0x75 JUMPI DUP1 PUSH4 0x3E16B011 EQ PUSH2 0x70 JUMPI DUP1 PUSH4 0xB8184745 EQ PUSH2 0x6B JUMPI PUSH4 0xFB299CD8 EQ PUSH2 0x66 JUMPI PUSH0 DUP1 REVERT JUMPDEST PUSH2 0x2E2 JUMP JUMPDEST PUSH2 0x2C5 JUMP JUMPDEST PUSH2 0x29D JUMP JUMPDEST PUSH2 0x280 JUMP JUMPDEST PUSH2 0x1F3 JUMP JUMPDEST PUSH2 0xF4 JUMP JUMPDEST CALLVALUE PUSH2 0xC2 JUMPI PUSH0 CALLDATASIZE PUSH1 0x3 NOT ADD SLT PUSH2 0xC2 JUMPI PUSH2 0x200 PUSH1 0x40 MLOAD PUSH2 0xA4 DUP3 DUP3 PUSH2 0x160 JUMP JUMPDEST CALLDATASIZE SWAP1 CALLDATACOPY PUSH2 0xBE PUSH2 0xB2 PUSH2 0x2FD JUMP JUMPDEST PUSH1 0x40 MLOAD SWAP2 DUP3 SWAP2 DUP3 PUSH2 0xC6 JUMP JUMPDEST SUB SWAP1 RETURN JUMPDEST PUSH0 DUP1 REVERT JUMPDEST SWAP2 SWAP1 PUSH2 0x200 DUP4 ADD SWAP3 PUSH0 SWAP1 JUMPDEST PUSH1 0x10 DUP3 LT PUSH2 0xDE JUMPI POP POP POP JUMP JUMPDEST PUSH1 0x20 DUP1 PUSH1 0x1 SWAP3 DUP6 MLOAD DUP2 MSTORE ADD SWAP4 ADD SWAP2 ADD SWAP1 SWAP2 PUSH2 0xD1 JUMP JUMPDEST CALLVALUE PUSH2 0xC2 JUMPI PUSH0 CALLDATASIZE PUSH1 0x3 NOT ADD SLT PUSH2 0xC2 JUMPI PUSH2 0x200 DUP1 PUSH1 0x40 MLOAD PUSH2 0x115 DUP3 DUP3 PUSH2 0x160 JUMP JUMPDEST CALLDATASIZE SWAP1 CALLDATACOPY PUSH1 0x40 MLOAD PUSH1 0x10 PUSH0 DUP3 JUMPDEST PUSH1 0x10 DUP3 LT PUSH2 0x136 JUMPI PUSH2 0xBE DUP5 PUSH2 0xB2 DUP8 DUP3 PUSH2 0x160 JUMP JUMPDEST PUSH1 0x1 PUSH1 0x20 DUP2 SWAP3 DUP6 SLOAD DUP2 MSTORE ADD SWAP4 ADD SWAP2 ADD SWAP1 SWAP2 PUSH2 0x120 JUMP JUMPDEST PUSH4 0x4E487B71 PUSH1 0xE0 SHL PUSH0 MSTORE PUSH1 0x41 PUSH1 0x4 MSTORE PUSH1 0x24 PUSH0 REVERT JUMPDEST SWAP1 PUSH1 0x1F DUP1 NOT SWAP2 ADD AND DUP2 ADD SWAP1 DUP2 LT PUSH8 0xFFFFFFFFFFFFFFFF DUP3 GT OR PUSH2 0x182 JUMPI PUSH1 0x40 MSTORE JUMP JUMPDEST PUSH2 0x14C JUMP JUMPDEST DUP2 PUSH1 0x1F DUP3 ADD SLT ISZERO PUSH2 0xC2 JUMPI DUP1 CALLDATALOAD SWAP1 PUSH8 0xFFFFFFFFFFFFFFFF DUP3 GT PUSH2 0x182 JUMPI PUSH1 0x40 MLOAD SWAP3 PUSH2 0x1BC PUSH1 0x1F DUP5 ADD PUSH1 0x1F NOT AND PUSH1 0x20 ADD DUP6 PUSH2 0x160 JUMP JUMPDEST DUP3 DUP5 MSTORE PUSH1 0x20 DUP4 DUP4 ADD ADD GT PUSH2 0xC2 JUMPI DUP2 PUSH0 SWAP3 PUSH1 0x20 DUP1 SWAP4 ADD DUP4 DUP7 ADD CALLDATACOPY DUP4 ADD ADD MSTORE SWAP1 JUMP JUMPDEST PUSH1 0xE4 CALLDATALOAD SWAP1 PUSH1 0x1 PUSH1 0x1 PUSH1 0xA0 SHL SUB DUP3 AND DUP3 SUB PUSH2 0xC2 JUMPI JUMP JUMPDEST CALLVALUE PUSH2 0xC2 JUMPI PUSH2 0x100 CALLDATASIZE PUSH1 0x3 NOT ADD SLT PUSH2 0xC2 JUMPI PUSH1 0x44 CALLDATALOAD PUSH1 0x4 CALLDATALOAD PUSH1 0x24 CALLDATALOAD PUSH12 0xFFFFFFFFFFFFFFFFFFFFFFFF NOT DUP4 AND DUP4 SUB PUSH2 0xC2 JUMPI PUSH1 0x64 CALLDATALOAD PUSH1 0x84 CALLDATALOAD PUSH8 0xFFFFFFFFFFFFFFFF DUP2 GT PUSH2 0xC2 JUMPI PUSH2 0x247 SWAP1 CALLDATASIZE SWAP1 PUSH1 0x4 ADD PUSH2 0x187 JUMP JUMPDEST PUSH1 0xA4 CALLDATALOAD SWAP2 PUSH1 0xC4 CALLDATALOAD SWAP6 PUSH8 0xFFFFFFFFFFFFFFFF DUP8 GT PUSH2 0xC2 JUMPI PUSH2 0x26F PUSH2 0x27E SWAP8 CALLDATASIZE SWAP1 PUSH1 0x4 ADD PUSH2 0x187 JUMP JUMPDEST SWAP5 PUSH2 0x278 PUSH2 0x1DD JUMP JUMPDEST SWAP7 PUSH2 0x3FD JUMP JUMPDEST STOP JUMPDEST CALLVALUE PUSH2 0xC2 JUMPI PUSH0 CALLDATASIZE PUSH1 0x3 NOT ADD SLT PUSH2 0xC2 JUMPI PUSH1 0x20 PUSH1 0x1F SLOAD PUSH1 0x40 MLOAD SWAP1 DUP2 MSTORE RETURN JUMPDEST CALLVALUE PUSH2 0xC2 JUMPI PUSH1 0x20 CALLDATASIZE PUSH1 0x3 NOT ADD SLT PUSH2 0xC2 JUMPI PUSH1 0x20 PUSH2 0x2BB PUSH1 0x4 CALLDATALOAD PUSH2 0x5D1 JUMP JUMPDEST PUSH1 0x40 MLOAD SWAP1 ISZERO ISZERO DUP2 MSTORE RETURN JUMPDEST CALLVALUE PUSH2 0xC2 JUMPI PUSH0 CALLDATASIZE PUSH1 0x3 NOT ADD SLT PUSH2 0xC2 JUMPI PUSH1 0x20 PUSH1 0xF SLOAD PUSH1 0x40 MLOAD SWAP1 DUP2 MSTORE RETURN JUMPDEST CALLVALUE PUSH2 0xC2 JUMPI PUSH0 CALLDATASIZE PUSH1 0x3 NOT ADD SLT PUSH2 0xC2 JUMPI PUSH1 0x20 PUSH1 0x40 MLOAD PUSH1 0x10 DUP2 MSTORE RETURN JUMPDEST PUSH1 0x40 MLOAD SWAP1 PUSH0 DUP1 DUP4 JUMPDEST PUSH1 0x10 DUP3 LT PUSH2 0x31E JUMPI POP POP POP PUSH2 0x31C PUSH2 0x200 DUP4 PUSH2 0x160 JUMP JUMPDEST JUMP JUMPDEST PUSH1 0x1 PUSH1 0x20 DUP2 SWAP3 DUP6 SLOAD DUP2 MSTORE ADD SWAP4 ADD SWAP2 ADD SWAP1 SWAP2 PUSH2 0x305 JUMP JUMPDEST PUSH4 0x4E487B71 PUSH1 0xE0 SHL PUSH0 MSTORE PUSH1 0x32 PUSH1 0x4 MSTORE PUSH1 0x24 PUSH0 REVERT JUMPDEST DUP1 MLOAD ISZERO PUSH2 0x355 JUMPI PUSH1 0x20 ADD SWAP1 JUMP JUMPDEST PUSH2 0x334 JUMP JUMPDEST PUSH1 0x10 DUP2 LT ISZERO PUSH2 0x355 JUMPI SWAP1 PUSH0 SWAP1 JUMP JUMPDEST SWAP1 DUP2 PUSH1 0x20 SWAP2 SUB SLT PUSH2 0xC2 JUMPI MLOAD DUP1 ISZERO ISZERO DUP2 SUB PUSH2 0xC2 JUMPI SWAP1 JUMP JUMPDEST SWAP7 SWAP9 SWAP8 SWAP5 SWAP1 SWAP4 PUSH1 0x20 SWAP4 PUSH1 0xE0 SWAP8 SWAP4 PUSH2 0x120 SWAP7 DUP11 MSTORE DUP6 DUP11 ADD MSTORE PUSH1 0x40 DUP10 ADD MSTORE PUSH12 0xFFFFFFFFFFFFFFFFFFFFFFFF NOT AND PUSH1 0x60 DUP9 ADD MSTORE PUSH1 0x80 DUP8 ADD MSTORE PUSH2 0x100 PUSH1 0xA0 DUP8 ADD MSTORE DUP1 MLOAD SWAP2 DUP3 SWAP2 DUP3 PUSH2 0x100 DUP10 ADD MSTORE ADD DUP4 DUP8 ADD MCOPY PUSH0 DUP3 DUP3 DUP8 ADD ADD MSTORE PUSH1 0x1F DUP1 NOT SWAP2 ADD AND DUP5 ADD ADD SWAP5 PUSH1 0xC0 DUP5 ADD MSTORE PUSH1 0x1 DUP1 PUSH1 0xA0 SHL SUB AND SWAP2 ADD MSTORE JUMP JUMPDEST PUSH1 0x40 MLOAD RETURNDATASIZE PUSH0 DUP3 RETURNDATACOPY RETURNDATASIZE SWAP1 REVERT JUMPDEST SWAP1 SWAP4 SWAP2 SWAP5 SWAP8 SWAP7 SWAP8 PUSH32 0xD0591206D9E81E07F4DEFC5327957173572BCD1BCA7838CAA7BE39B0C12B1873 DUP6 SUB PUSH2 0x5BD JUMPI PUSH1 0x1 PUSH1 0xF8 SHL PUSH1 0x1 PUSH1 0x1 PUSH1 0xF8 SHL SUB NOT PUSH2 0x453 PUSH2 0x445 DUP11 PUSH2 0x348 JUMP JUMPDEST MLOAD PUSH1 0x1 PUSH1 0x1 PUSH1 0xF8 SHL SUB NOT AND SWAP1 JUMP JUMPDEST AND EQ SWAP3 PUSH1 0x20 SLOAD SWAP4 PUSH2 0x46C PUSH2 0x467 DUP7 PUSH1 0xFF AND SWAP1 JUMP JUMPDEST ISZERO ISZERO SWAP1 JUMP JUMPDEST SUB PUSH2 0x5AE JUMPI PUSH1 0x21 DUP9 ADD MLOAD PUSH2 0x48D PUSH2 0x483 PUSH1 0xF PUSH2 0x35A JUMP JUMPDEST SWAP1 SLOAD SWAP1 PUSH1 0x3 SHL SHR SWAP1 JUMP JUMPDEST DUP2 SUB PUSH2 0x582 JUMPI POP SWAP9 PUSH2 0x4E6 SWAP2 DUP9 SWAP10 SWAP11 PUSH2 0x4C8 PUSH2 0x4BC DUP12 PUSH1 0x20 DUP1 SWAP13 SWAP14 MLOAD SWAP2 ADD KECCAK256 SWAP8 PUSH1 0x1 DUP1 PUSH1 0xA0 SHL SUB SWAP1 PUSH1 0x8 SHR AND SWAP1 JUMP JUMPDEST PUSH1 0x1 PUSH1 0x1 PUSH1 0xA0 SHL SUB AND SWAP1 JUMP JUMPDEST SWAP7 PUSH1 0x40 MLOAD SWAP11 DUP12 SWAP10 DUP11 SWAP9 DUP10 SWAP9 PUSH4 0x6045A91 PUSH1 0xE0 SHL DUP11 MSTORE PUSH1 0x4 DUP11 ADD PUSH2 0x380 JUMP JUMPDEST SUB SWAP2 GAS STATICCALL SWAP1 DUP2 ISZERO PUSH2 0x57D JUMPI PUSH0 SWAP2 PUSH2 0x54E JUMPI JUMPDEST POP ISZERO PUSH2 0x53F JUMPI PUSH0 SWAP1 PUSH1 0x10 PUSH2 0x241 PUSH1 0x41 DUP4 ADD SWAP3 ADD PUSH0 SWAP3 JUMPDEST PUSH1 0x10 DUP5 LT PUSH2 0x51D JUMPI POP POP POP POP POP JUMP JUMPDEST PUSH1 0x1 PUSH1 0x20 DUP2 DUP2 DUP5 DUP3 SWAP6 MLOAD DUP11 SSTORE ADD SWAP8 ADD SWAP4 DUP1 MLOAD DUP7 SSTORE ADD SWAP4 ADD SWAP4 ADD SWAP3 SWAP2 SWAP1 SWAP4 PUSH2 0x50E JUMP JUMPDEST PUSH4 0x114602F PUSH1 0xE4 SHL PUSH0 MSTORE PUSH1 0x4 PUSH0 REVERT JUMPDEST PUSH2 0x570 SWAP2 POP PUSH1 0x20 RETURNDATASIZE PUSH1 0x20 GT PUSH2 0x576 JUMPI JUMPDEST PUSH2 0x568 DUP2 DUP4 PUSH2 0x160 JUMP JUMPDEST DUP2 ADD SWAP1 PUSH2 0x368 JUMP JUMPDEST PUSH0 PUSH2 0x4F8 JUMP JUMPDEST POP RETURNDATASIZE PUSH2 0x55E JUMP JUMPDEST PUSH2 0x3F2 JUMP JUMPDEST PUSH2 0x5AB SWAP1 PUSH2 0x593 PUSH2 0x483 PUSH1 0xF PUSH2 0x35A JUMP JUMPDEST PUSH4 0x177B0025 PUSH1 0xE3 SHL PUSH0 MSTORE PUSH1 0x4 SWAP2 SWAP1 SWAP2 MSTORE PUSH1 0x24 MSTORE PUSH1 0x44 SWAP1 JUMP JUMPDEST PUSH0 REVERT JUMPDEST PUSH4 0x42EB0CF PUSH1 0xE0 SHL PUSH0 MSTORE PUSH1 0x4 PUSH0 REVERT JUMPDEST PUSH4 0xC35F1ECD PUSH1 0xE0 SHL PUSH0 MSTORE PUSH1 0x4 DUP6 SWAP1 MSTORE PUSH1 0x24 PUSH0 REVERT JUMPDEST PUSH0 JUMPDEST PUSH1 0x10 DUP2 LT PUSH2 0x5E1 JUMPI POP POP PUSH0 SWAP1 JUMP JUMPDEST DUP1 PUSH1 0xF SUB PUSH1 0xF DUP2 GT PUSH2 0x60F JUMPI PUSH1 0x10 DUP2 LT ISZERO PUSH2 0x355 JUMPI PUSH1 0x10 ADD SLOAD DUP3 EQ PUSH2 0x608 JUMPI PUSH1 0x1 ADD PUSH2 0x5D3 JUMP JUMPDEST POP POP PUSH1 0x1 SWAP1 JUMP JUMPDEST PUSH4 0x4E487B71 PUSH1 0xE0 SHL PUSH0 MSTORE PUSH1 0x11 PUSH1 0x4 MSTORE PUSH1 0x24 PUSH0 REVERT INVALID LOG2 PUSH5 0x6970667358 0x22 SLT KECCAK256 CALLDATASIZE CALLCODE PUSH2 0x5A34 0x24 0xEE 0xC8 0xC 0xBC 0xD3 PUSH4 0x1B632403 PUSH4 0x6629E0ED 0x2C 0xDC 0xA6 SELFBALANCE ADD 0xD2 SHL 0xBF DUP8 SLOAD 0xDF PUSH5 0x736F6C6343 STOP ADDMOD SHR STOP CALLER "},"methodIdentifiers":{"BRIDGE_TRANSITION_FRONTIER_LEN()":"fb299cd8","getChainLedgerHashes()":"2bc4f8d9","getChainStateHashes()":"03f93e50","getTipLedgerHash()":"3886c09b","getTipStateHash()":"b8184745","isLedgerVerified(bytes32)":"3e16b011","updateChain(bytes32,bytes32,bytes20,bytes32,bytes,uint256,bytes,address)":"37baff0f"}}}}}