{"project/contracts/NoriTokenBridge.sol":{"NoriTokenBridge":{"abi":[{"inputs":[],"stateMutability":"nonpayable","type":"constructor"},{"anonymous":false,"inputs":[{"indexed":true,"internalType":"address","name":"user","type":"address"},{"indexed":false,"internalType":"uint256","name":"attestationHash","type":"uint256"},{"indexed":false,"internalType":"uint256","name":"amount","type":"uint256"},{"indexed":false,"internalType":"uint256","name":"when","type":"uint256"}],"name":"TokensLocked","type":"event"},{"inputs":[],"name":"bridgeOperator","outputs":[{"internalType":"address","name":"","type":"address"}],"stateMutability":"view","type":"function"},{"inputs":[{"internalType":"uint256","name":"attestationHash","type":"uint256"}],"name":"lockTokens","outputs":[],"stateMutability":"payable","type":"function"},{"inputs":[{"internalType":"address","name":"","type":"address"},{"internalType":"uint256","name":"","type":"uint256"}],"name":"lockedTokens","outputs":[{"internalType":"uint256","name":"","type":"uint256"}],"stateMutability":"view","type":"function"}],"evm":{"bytecode":{"linkReferences":{},"object":"6080604052348015600e575f5ffd5b50335f5f6101000a81548173ffffffffffffffffffffffffffffffffffffffff021916908373ffffffffffffffffffffffffffffffffffffffff1602179055506104838061005b5f395ff3fe608060405260043610610033575f3560e01c806353719b6e14610037578063590665c2146100735780636e27d8891461009d575b5f5ffd5b348015610042575f5ffd5b5061005d60048036038101906100589190610287565b6100b9565b60405161006a91906102d4565b60405180910390f35b34801561007e575f5ffd5b506100876100d9565b60405161009491906102fc565b60405180910390f35b6100b760048036038101906100b29190610315565b6100fd565b005b6001602052815f5260405f20602052805f5260405f205f91509150505481565b5f5f9054906101000a900473ffffffffffffffffffffffffffffffffffffffff1681565b5f341161013f576040517f08c379a00000000000000000000000000000000000000000000000000000000081526004016101369061039a565b60405180910390fd5b3460015f3373ffffffffffffffffffffffffffffffffffffffff1673ffffffffffffffffffffffffffffffffffffffff1681526020019081526020015f205f8381526020019081526020015f205f82825461019a91906103e5565b925050819055503373ffffffffffffffffffffffffffffffffffffffff167f90e20a62e0f2a608d33bd96a4e15cb853006a15caf4455f373b7b55de520b68c8234426040516101eb93929190610418565b60405180910390a250565b5f5ffd5b5f73ffffffffffffffffffffffffffffffffffffffff82169050919050565b5f610223826101fa565b9050919050565b61023381610219565b811461023d575f5ffd5b50565b5f8135905061024e8161022a565b92915050565b5f819050919050565b61026681610254565b8114610270575f5ffd5b50565b5f813590506102818161025d565b92915050565b5f5f6040838503121561029d5761029c6101f6565b5b5f6102aa85828601610240565b92505060206102bb85828601610273565b9150509250929050565b6102ce81610254565b82525050565b5f6020820190506102e75f8301846102c5565b92915050565b6102f681610219565b82525050565b5f60208201905061030f5f8301846102ed565b92915050565b5f6020828403121561032a576103296101f6565b5b5f61033784828501610273565b91505092915050565b5f82825260208201905092915050565b7f596f75206d7573742073656e6420736f6d6520457468657220746f206c6f636b5f82015250565b5f610384602083610340565b915061038f82610350565b602082019050919050565b5f6020820190508181035f8301526103b181610378565b9050919050565b7f4e487b71000000000000000000000000000000000000000000000000000000005f52601160045260245ffd5b5f6103ef82610254565b91506103fa83610254565b9250828201905080821115610412576104116103b8565b5b92915050565b5f60608201905061042b5f8301866102c5565b61043860208301856102c5565b61044560408301846102c5565b94935050505056fea264697066735822122079456faf17724fcf74617ba4656d2a6896315da56226c277e62f7a5173f4e19664736f6c634300081c0033","opcodes":"PUSH1 0x80 PUSH1 0x40 MSTORE CALLVALUE DUP1 ISZERO PUSH1 0xE JUMPI PUSH0 PUSH0 REVERT JUMPDEST POP CALLER PUSH0 PUSH0 PUSH2 0x100 EXP DUP2 SLOAD DUP2 PUSH20 0xFFFFFFFFFFFFFFFFFFFFFFFFFFFFFFFFFFFFFFFF MUL NOT AND SWAP1 DUP4 PUSH20 0xFFFFFFFFFFFFFFFFFFFFFFFFFFFFFFFFFFFFFFFF AND MUL OR SWAP1 SSTORE POP PUSH2 0x483 DUP1 PUSH2 0x5B PUSH0 CODECOPY PUSH0 RETURN INVALID PUSH1 0x80 PUSH1 0x40 MSTORE PUSH1 0x4 CALLDATASIZE LT PUSH2 0x33 JUMPI PUSH0 CALLDATALOAD PUSH1 0xE0 SHR DUP1 PUSH4 0x53719B6E EQ PUSH2 0x37 JUMPI DUP1 PUSH4 0x590665C2 EQ PUSH2 0x73 JUMPI DUP1 PUSH4 0x6E27D889 EQ PUSH2 0x9D JUMPI JUMPDEST PUSH0 PUSH0 REVERT JUMPDEST CALLVALUE DUP1 ISZERO PUSH2 0x42 JUMPI PUSH0 PUSH0 REVERT JUMPDEST POP PUSH2 0x5D PUSH1 0x4 DUP1 CALLDATASIZE SUB DUP2 ADD SWAP1 PUSH2 0x58 SWAP2 SWAP1 PUSH2 0x287 JUMP JUMPDEST PUSH2 0xB9 JUMP JUMPDEST PUSH1 0x40 MLOAD PUSH2 0x6A SWAP2 SWAP1 PUSH2 0x2D4 JUMP JUMPDEST PUSH1 0x40 MLOAD DUP1 SWAP2 SUB SWAP1 RETURN JUMPDEST CALLVALUE DUP1 ISZERO PUSH2 0x7E JUMPI PUSH0 PUSH0 REVERT JUMPDEST POP PUSH2 0x87 PUSH2 0xD9 JUMP JUMPDEST PUSH1 0x40 MLOAD PUSH2 0x94 SWAP2 SWAP1 PUSH2 0x2FC JUMP JUMPDEST PUSH1 0x40 MLOAD DUP1 SWAP2 SUB SWAP1 RETURN JUMPDEST PUSH2 0xB7 PUSH1 0x4 DUP1 CALLDATASIZE SUB DUP2 ADD SWAP1 PUSH2 0xB2 SWAP2 SWAP1 PUSH2 0x315 JUMP JUMPDEST PUSH2 0xFD JUMP JUMPDEST STOP JUMPDEST PUSH1 0x1 PUSH1 0x20 MSTORE DUP2 PUSH0 MSTORE PUSH1 0x40 PUSH0 KECCAK256 PUSH1 0x20 MSTORE DUP1 PUSH0 MSTORE PUSH1 0x40 PUSH0 KECCAK256 PUSH0 SWAP2 POP SWAP2 POP POP SLOAD DUP2 JUMP JUMPDEST PUSH0 PUSH0 SWAP1 SLOAD SWAP1 PUSH2 0x100 EXP SWAP1 DIV PUSH20 0xFFFFFFFFFFFFFFFFFFFFFFFFFFFFFFFFFFFFFFFF AND DUP2 JUMP JUMPDEST PUSH0 CALLVALUE GT PUSH2 0x13F JUMPI PUSH1 0x40 MLOAD PUSH32 0x8C379A000000000000000000000000000000000000000000000000000000000 DUP2 MSTORE PUSH1 0x4 ADD PUSH2 0x136 SWAP1 PUSH2 0x39A JUMP JUMPDEST PUSH1 0x40 MLOAD DUP1 SWAP2 SUB SWAP1 REVERT JUMPDEST CALLVALUE PUSH1 0x1 PUSH0 CALLER PUSH20 0xFFFFFFFFFFFFFFFFFFFFFFFFFFFFFFFFFFFFFFFF AND PUSH20 0xFFFFFFFFFFFFFFFFFFFFFFFFFFFFFFFFFFFFFFFF AND DUP2 MSTORE PUSH1 0x20 ADD SWAP1 DUP2 MSTORE PUSH1 0x20 ADD PUSH0 KECCAK256 PUSH0 DUP4 DUP2 MSTORE PUSH1 0x20 ADD SWAP1 DUP2 MSTORE PUSH1 0x20 ADD PUSH0 KECCAK256 PUSH0 DUP3 DUP3 SLOAD PUSH2 0x19A SWAP2 SWAP1 PUSH2 0x3E5 JUMP JUMPDEST SWAP3 POP POP DUP2 SWAP1 SSTORE POP CALLER PUSH20 0xFFFFFFFFFFFFFFFFFFFFFFFFFFFFFFFFFFFFFFFF AND PUSH32 0x90E20A62E0F2A608D33BD96A4E15CB853006A15CAF4455F373B7B55DE520B68C DUP3 CALLVALUE TIMESTAMP PUSH1 0x40 MLOAD PUSH2 0x1EB SWAP4 SWAP3 SWAP2 SWAP1 PUSH2 0x418 JUMP JUMPDEST PUSH1 0x40 MLOAD DUP1 SWAP2 SUB SWAP1 LOG2 POP JUMP JUMPDEST PUSH0 PUSH0 REVERT JUMPDEST PUSH0 PUSH20 0xFFFFFFFFFFFFFFFFFFFFFFFFFFFFFFFFFFFFFFFF DUP3 AND SWAP1 POP SWAP2 SWAP1 POP JUMP JUMPDEST PUSH0 PUSH2 0x223 DUP3 PUSH2 0x1FA JUMP JUMPDEST SWAP1 POP SWAP2 SWAP1 POP JUMP JUMPDEST PUSH2 0x233 DUP2 PUSH2 0x219 JUMP JUMPDEST DUP2 EQ PUSH2 0x23D JUMPI PUSH0 PUSH0 REVERT JUMPDEST POP JUMP JUMPDEST PUSH0 DUP2 CALLDATALOAD SWAP1 POP PUSH2 0x24E DUP2 PUSH2 0x22A JUMP JUMPDEST SWAP3 SWAP2 POP POP JUMP JUMPDEST PUSH0 DUP2 SWAP1 POP SWAP2 SWAP1 POP JUMP JUMPDEST PUSH2 0x266 DUP2 PUSH2 0x254 JUMP JUMPDEST DUP2 EQ PUSH2 0x270 JUMPI PUSH0 PUSH0 REVERT JUMPDEST POP JUMP JUMPDEST PUSH0 DUP2 CALLDATALOAD SWAP1 POP PUSH2 0x281 DUP2 PUSH2 0x25D JUMP JUMPDEST SWAP3 SWAP2 POP POP JUMP JUMPDEST PUSH0 PUSH0 PUSH1 0x40 DUP4 DUP6 SUB SLT ISZERO PUSH2 0x29D JUMPI PUSH2 0x29C PUSH2 0x1F6 JUMP JUMPDEST JUMPDEST PUSH0 PUSH2 0x2AA DUP6 DUP3 DUP7 ADD PUSH2 0x240 JUMP JUMPDEST SWAP3 POP POP PUSH1 0x20 PUSH2 0x2BB DUP6 DUP3 DUP7 ADD PUSH2 0x273 JUMP JUMPDEST SWAP2 POP POP SWAP3 POP SWAP3 SWAP1 POP JUMP JUMPDEST PUSH2 0x2CE DUP2 PUSH2 0x254 JUMP JUMPDEST DUP3 MSTORE POP POP JUMP JUMPDEST PUSH0 PUSH1 0x20 DUP3 ADD SWAP1 POP PUSH2 0x2E7 PUSH0 DUP4 ADD DUP5 PUSH2 0x2C5 JUMP JUMPDEST SWAP3 SWAP2 POP POP JUMP JUMPDEST PUSH2 0x2F6 DUP2 PUSH2 0x219 JUMP JUMPDEST DUP3 MSTORE POP POP JUMP JUMPDEST PUSH0 PUSH1 0x20 DUP3 ADD SWAP1 POP PUSH2 0x30F PUSH0 DUP4 ADD DUP5 PUSH2 0x2ED JUMP JUMPDEST SWAP3 SWAP2 POP POP JUMP JUMPDEST PUSH0 PUSH1 0x20 DUP3 DUP5 SUB SLT ISZERO PUSH2 0x32A JUMPI PUSH2 0x329 PUSH2 0x1F6 JUMP JUMPDEST JUMPDEST PUSH0 PUSH2 0x337 DUP5 DUP3 DUP6 ADD PUSH2 0x273 JUMP JUMPDEST SWAP2 POP POP SWAP3 SWAP2 POP POP JUMP JUMPDEST PUSH0 DUP3 DUP3 MSTORE PUSH1 0x20 DUP3 ADD SWAP1 POP SWAP3 SWAP2 POP POP JUMP JUMPDEST PUSH32 0x596F75206D7573742073656E6420736F6D6520457468657220746F206C6F636B PUSH0 DUP3 ADD MSTORE POP JUMP JUMPDEST PUSH0 PUSH2 0x384 PUSH1 0x20 DUP4 PUSH2 0x340 JUMP JUMPDEST SWAP2 POP PUSH2 0x38F DUP3 PUSH2 0x350 JUMP JUMPDEST PUSH1 0x20 DUP3 ADD SWAP1 POP SWAP2 SWAP1 POP JUMP JUMPDEST PUSH0 PUSH1 0x20 DUP3 ADD SWAP1 POP DUP2 DUP2 SUB PUSH0 DUP4 ADD MSTORE PUSH2 0x3B1 DUP2 PUSH2 0x378 JUMP JUMPDEST SWAP1 POP SWAP2 SWAP1 POP JUMP JUMPDEST PUSH32 0x4E487B7100000000000000000000000000000000000000000000000000000000 PUSH0 MSTORE PUSH1 0x11 PUSH1 0x4 MSTORE PUSH1 0x24 PUSH0 REVERT JUMPDEST PUSH0 PUSH2 0x3EF DUP3 PUSH2 0x254 JUMP JUMPDEST SWAP2 POP PUSH2 0x3FA DUP4 PUSH2 0x254 JUMP JUMPDEST SWAP3 POP DUP3 DUP3 ADD SWAP1 POP DUP1 DUP3 GT ISZERO PUSH2 0x412 JUMPI PUSH2 0x411 PUSH2 0x3B8 JUMP JUMPDEST JUMPDEST SWAP3 SWAP2 POP POP JUMP JUMPDEST PUSH0 PUSH1 0x60 DUP3 ADD SWAP1 POP PUSH2 0x42B PUSH0 DUP4 ADD DUP7 PUSH2 0x2C5 JUMP JUMPDEST PUSH2 0x438 PUSH1 0x20 DUP4 ADD DUP6 PUSH2 0x2C5 JUMP JUMPDEST PUSH2 0x445 PUSH1 0x40 DUP4 ADD DUP5 PUSH2 0x2C5 JUMP JUMPDEST SWAP5 SWAP4 POP POP POP POP JUMP INVALID LOG2 PUSH5 0x6970667358 0x22 SLT KECCAK256 PUSH26 0x456FAF17724FCF74617BA4656D2A6896315DA56226C277E62F7A MLOAD PUSH20 0xF4E19664736F6C634300081C0033000000000000 "},"methodIdentifiers":{"bridgeOperator()":"590665c2","lockTokens(uint256)":"6e27d889","lockedTokens(address,uint256)":"53719b6e"}}}}}