{
  "_format": "hh-sol-artifact-1",
  "contractName": "MinaAccountValidationExample",
  "sourceName": "contracts/MinaAccountValidationExample.sol",
  "abi": [
    {
      "inputs": [
        {
          "internalType": "address payable",
          "name": "_alignedServiceAddr",
          "type": "address"
        }
      ],
      "stateMutability": "nonpayable",
      "type": "constructor"
    },
    {
      "inputs": [
        {
          "internalType": "bytes32",
          "name": "",
          "type": "bytes32"
        }
      ],
      "name": "MinaAccountProvingSystemIdIsNotValid",
      "type": "error"
    },
    {
      "inputs": [
        {
          "components": [
            {
              "internalType": "bytes32",
              "name": "proofCommitment",
              "type": "bytes32"
            },
            {
              "internalType": "bytes32",
              "name": "provingSystemAuxDataCommitment",
              "type": "bytes32"
            },
            {
              "internalType": "bytes20",
              "name": "proofGeneratorAddr",
              "type": "bytes20"
            },
            {
              "internalType": "bytes32",
              "name": "batchMerkleRoot",
              "type": "bytes32"
            },
            {
              "internalType": "bytes",
              "name": "merkleProof",
              "type": "bytes"
            },
            {
              "internalType": "uint256",
              "name": "verificationDataBatchIndex",
              "type": "uint256"
            },
            {
              "internalType": "bytes",
              "name": "pubInput",
              "type": "bytes"
            },
            {
              "internalType": "address",
              "name": "batcherPaymentService",
              "type": "address"
            }
          ],
          "internalType": "struct MinaAccountValidationExample.AlignedArgs",
          "name": "args",
          "type": "tuple"
        }
      ],
      "name": "validateAccount",
      "outputs": [
        {
          "internalType": "bool",
          "name": "",
          "type": "bool"
        }
      ],
      "stateMutability": "view",
      "type": "function"
    },
    {
      "inputs": [
        {
          "components": [
            {
              "internalType": "bytes32",
              "name": "proofCommitment",
              "type": "bytes32"
            },
            {
              "internalType": "bytes32",
              "name": "provingSystemAuxDataCommitment",
              "type": "bytes32"
            },
            {
              "internalType": "bytes20",
              "name": "proofGeneratorAddr",
              "type": "bytes20"
            },
            {
              "internalType": "bytes32",
              "name": "batchMerkleRoot",
              "type": "bytes32"
            },
            {
              "internalType": "bytes",
              "name": "merkleProof",
              "type": "bytes"
            },
            {
              "internalType": "uint256",
              "name": "verificationDataBatchIndex",
              "type": "uint256"
            },
            {
              "internalType": "bytes",
              "name": "pubInput",
              "type": "bytes"
            },
            {
              "internalType": "address",
              "name": "batcherPaymentService",
              "type": "address"
            }
          ],
          "internalType": "struct MinaAccountValidationExample.AlignedArgs",
          "name": "args",
          "type": "tuple"
        }
      ],
      "name": "validateAccountAndReturn",
      "outputs": [
        {
          "components": [
            {
              "components": [
                {
                  "internalType": "bytes32",
                  "name": "x",
                  "type": "bytes32"
                },
                {
                  "internalType": "bool",
                  "name": "isOdd",
                  "type": "bool"
                }
              ],
              "internalType": "struct MinaAccountValidationExample.CompressedECPoint",
              "name": "publicKey",
              "type": "tuple"
            },
            {
              "internalType": "bytes32",
              "name": "tokenIdKeyHash",
              "type": "bytes32"
            },
            {
              "internalType": "string",
              "name": "tokenSymbol",
              "type": "string"
            },
            {
              "internalType": "uint64",
              "name": "balance",
              "type": "uint64"
            },
            {
              "internalType": "uint32",
              "name": "nonce",
              "type": "uint32"
            },
            {
              "internalType": "bytes32",
              "name": "receiptChainHash",
              "type": "bytes32"
            },
            {
              "components": [
                {
                  "internalType": "bytes32",
                  "name": "x",
                  "type": "bytes32"
                },
                {
                  "internalType": "bool",
                  "name": "isOdd",
                  "type": "bool"
                }
              ],
              "internalType": "struct MinaAccountValidationExample.CompressedECPoint",
              "name": "delegate",
              "type": "tuple"
            },
            {
              "internalType": "bytes32",
              "name": "votingFor",
              "type": "bytes32"
            },
            {
              "components": [
                {
                  "internalType": "uint64",
                  "name": "initialMinimumBalance",
                  "type": "uint64"
                },
                {
                  "internalType": "uint32",
                  "name": "cliffTime",
                  "type": "uint32"
                },
                {
                  "internalType": "uint64",
                  "name": "cliffAmount",
                  "type": "uint64"
                },
                {
                  "internalType": "uint32",
                  "name": "vestingPeriod",
                  "type": "uint32"
                },
                {
                  "internalType": "uint64",
                  "name": "vestingIncrement",
                  "type": "uint64"
                }
              ],
              "internalType": "struct MinaAccountValidationExample.Timing",
              "name": "timing",
              "type": "tuple"
            },
            {
              "components": [
                {
                  "internalType": "enum MinaAccountValidationExample.AuthRequired",
                  "name": "editState",
                  "type": "uint8"
                },
                {
                  "internalType": "enum MinaAccountValidationExample.AuthRequired",
                  "name": "access",
                  "type": "uint8"
                },
                {
                  "internalType": "enum MinaAccountValidationExample.AuthRequired",
                  "name": "send",
                  "type": "uint8"
                },
                {
                  "internalType": "enum MinaAccountValidationExample.AuthRequired",
                  "name": "rreceive",
                  "type": "uint8"
                },
                {
                  "internalType": "enum MinaAccountValidationExample.AuthRequired",
                  "name": "setDelegate",
                  "type": "uint8"
                },
                {
                  "internalType": "enum MinaAccountValidationExample.AuthRequired",
                  "name": "setPermissions",
                  "type": "uint8"
                },
                {
                  "internalType": "enum MinaAccountValidationExample.AuthRequired",
                  "name": "setVerificationKeyAuth",
                  "type": "uint8"
                },
                {
                  "internalType": "uint32",
                  "name": "setVerificationKeyUint",
                  "type": "uint32"
                },
                {
                  "internalType": "enum MinaAccountValidationExample.AuthRequired",
                  "name": "setZkappUri",
                  "type": "uint8"
                },
                {
                  "internalType": "enum MinaAccountValidationExample.AuthRequired",
                  "name": "editActionState",
                  "type": "uint8"
                },
                {
                  "internalType": "enum MinaAccountValidationExample.AuthRequired",
                  "name": "setTokenSymbol",
                  "type": "uint8"
                },
                {
                  "internalType": "enum MinaAccountValidationExample.AuthRequired",
                  "name": "incrementNonce",
                  "type": "uint8"
                },
                {
                  "internalType": "enum MinaAccountValidationExample.AuthRequired",
                  "name": "setVotingFor",
                  "type": "uint8"
                },
                {
                  "internalType": "enum MinaAccountValidationExample.AuthRequired",
                  "name": "setTiming",
                  "type": "uint8"
                }
              ],
              "internalType": "struct MinaAccountValidationExample.Permissions",
              "name": "permissions",
              "type": "tuple"
            },
            {
              "components": [
                {
                  "internalType": "bytes32[8]",
                  "name": "appState",
                  "type": "bytes32[8]"
                },
                {
                  "components": [
                    {
                      "internalType": "enum MinaAccountValidationExample.ProofsVerified",
                      "name": "maxProofsVerified",
                      "type": "uint8"
                    },
                    {
                      "internalType": "enum MinaAccountValidationExample.ProofsVerified",
                      "name": "actualWrapDomainSize",
                      "type": "uint8"
                    },
                    {
                      "components": [
                        {
                          "components": [
                            {
                              "internalType": "bytes32",
                              "name": "x",
                              "type": "bytes32"
                            },
                            {
                              "internalType": "bytes32",
                              "name": "y",
                              "type": "bytes32"
                            }
                          ],
                          "internalType": "struct MinaAccountValidationExample.Commitment[7]",
                          "name": "sigmaComm",
                          "type": "tuple[7]"
                        },
                        {
                          "components": [
                            {
                              "internalType": "bytes32",
                              "name": "x",
                              "type": "bytes32"
                            },
                            {
                              "internalType": "bytes32",
                              "name": "y",
                              "type": "bytes32"
                            }
                          ],
                          "internalType": "struct MinaAccountValidationExample.Commitment[15]",
                          "name": "coefficientsComm",
                          "type": "tuple[15]"
                        },
                        {
                          "components": [
                            {
                              "internalType": "bytes32",
                              "name": "x",
                              "type": "bytes32"
                            },
                            {
                              "internalType": "bytes32",
                              "name": "y",
                              "type": "bytes32"
                            }
                          ],
                          "internalType": "struct MinaAccountValidationExample.Commitment",
                          "name": "genericComm",
                          "type": "tuple"
                        },
                        {
                          "components": [
                            {
                              "internalType": "bytes32",
                              "name": "x",
                              "type": "bytes32"
                            },
                            {
                              "internalType": "bytes32",
                              "name": "y",
                              "type": "bytes32"
                            }
                          ],
                          "internalType": "struct MinaAccountValidationExample.Commitment",
                          "name": "psmComm",
                          "type": "tuple"
                        },
                        {
                          "components": [
                            {
                              "internalType": "bytes32",
                              "name": "x",
                              "type": "bytes32"
                            },
                            {
                              "internalType": "bytes32",
                              "name": "y",
                              "type": "bytes32"
                            }
                          ],
                          "internalType": "struct MinaAccountValidationExample.Commitment",
                          "name": "completeAddComm",
                          "type": "tuple"
                        },
                        {
                          "components": [
                            {
                              "internalType": "bytes32",
                              "name": "x",
                              "type": "bytes32"
                            },
                            {
                              "internalType": "bytes32",
                              "name": "y",
                              "type": "bytes32"
                            }
                          ],
                          "internalType": "struct MinaAccountValidationExample.Commitment",
                          "name": "mulComm",
                          "type": "tuple"
                        },
                        {
                          "components": [
                            {
                              "internalType": "bytes32",
                              "name": "x",
                              "type": "bytes32"
                            },
                            {
                              "internalType": "bytes32",
                              "name": "y",
                              "type": "bytes32"
                            }
                          ],
                          "internalType": "struct MinaAccountValidationExample.Commitment",
                          "name": "emulComm",
                          "type": "tuple"
                        },
                        {
                          "components": [
                            {
                              "internalType": "bytes32",
                              "name": "x",
                              "type": "bytes32"
                            },
                            {
                              "internalType": "bytes32",
                              "name": "y",
                              "type": "bytes32"
                            }
                          ],
                          "internalType": "struct MinaAccountValidationExample.Commitment",
                          "name": "endomulScalarComm",
                          "type": "tuple"
                        }
                      ],
                      "internalType": "struct MinaAccountValidationExample.WrapIndex",
                      "name": "wrapIndex",
                      "type": "tuple"
                    }
                  ],
                  "internalType": "struct MinaAccountValidationExample.VerificationKey",
                  "name": "verificationKey",
                  "type": "tuple"
                },
                {
                  "internalType": "uint32",
                  "name": "zkappVersion",
                  "type": "uint32"
                },
                {
                  "internalType": "bytes32[5]",
                  "name": "actionState",
                  "type": "bytes32[5]"
                },
                {
                  "internalType": "uint32",
                  "name": "lastActionSlot",
                  "type": "uint32"
                },
                {
                  "internalType": "bool",
                  "name": "provedState",
                  "type": "bool"
                },
                {
                  "internalType": "bytes",
                  "name": "zkappUri",
                  "type": "bytes"
                }
              ],
              "internalType": "struct MinaAccountValidationExample.ZkappAccount",
              "name": "zkapp",
              "type": "tuple"
            }
          ],
          "internalType": "struct MinaAccountValidationExample.Account",
          "name": "",
          "type": "tuple"
        }
      ],
      "stateMutability": "view",
      "type": "function"
    }
  ],
  "bytecode": "0x608034607057601f61127d38819003918201601f19168301916001600160401b03831184841017607557808492602094604052833981010312607057516001600160a01b03811690819003607057600080546001600160a01b0319169190911790556040516111f1908161008c8239f35b600080fd5b634e487b7160e01b600052604160045260246000fdfe6080604052600436101561001257600080fd5b60003560e01c80639029ad151461044c5763c64787131461003257600080fd5b346104475761004861004336610578565b6108fc565b60405180916020825261006b602083018251602080918051845201511515910152565b6020810151606083015261014061009360408301516103c060808601526103e08501906105ac565b916001600160401b0360608201511660a085015263ffffffff60808201511660c085015260a081015160e08501526100e060c0820151610100860190602080918051845201511515910152565b60e0810151828501526001600160401b0360806101008301518281511661016088015263ffffffff602082015116610180880152826040820151166101a088015263ffffffff6060820151166101c08801520151166101e08501526102486101a0610120830151610156610200880182516105ed565b61016960208201516102208901906105ed565b61017c60408201516102408901906105ed565b61018f60608201516102608901906105ed565b6101a260808201516102808901906105ed565b6101b560a08201516102a08901906105ed565b6101c860c08201516102c08901906105ed565b63ffffffff60e0820151166102e08801526101ed6101008201516103008901906105ed565b6102016101208201516103208901906105ed565b610213858201516103408901906105ed565b6102276101608201516103608901906105ed565b61023b6101808201516103808901906105ed565b01516103a08601906105ed565b0151828203601f19016103c084015280516000835b6008821061042d575050506040602082015161027e61010085018251610610565b6102916020820151610120860190610610565b01518051600061014085015b600782106103f9575050506020810151600061030085015b600f82106103c55750505060e081602060408194015180516106c088015201516106e086015282606082015180516107008801520151610720860152826080820151805161074088015201516107608601528260a0820151805161078088015201516107a08601528260c082015180516107c088015201516107e086015201518051610800850152015161082083015263ffffffff604082015116610840830152606081015161086083016000905b600582106103ab57505050608081015163ffffffff1661090083015260a0810151151561092083015260c0015161096061094083018190526103a79201906105ac565b0390f35b825181528695506020928301926001929092019101610364565b8293949596506103eb602091600193945190602060409280518352015160208201520190565b9301910186959493926102b5565b82939495965061041f602091600193945190602060409280518352015160208201520190565b93019101869594939261029d565b82518152869550602092830192600192909201910161025d565b600080fd5b346104475761045a36610578565b6020810135907fee2a4bc7db81da2b7164e56b3649b1e2a09c58c455b15dabddd9146c7582cebc820361056357806104a161049a60c0602094018361061d565b3691610746565b8281519101209260018060a01b0360005416906104c06040840161078c565b9061050a6104d1608086018661061d565b90976104df60e088016107a6565b91604051998a98899788976306045a9160e01b895260a0830135956060840135933560048b016107d2565b03915afa80156105575760209160009161052a575b506040519015158152f35b61054a9150823d8411610550575b6105428183610725565b8101906107ba565b8261051f565b503d610538565b6040513d6000823e3d90fd5b5063060bd7bf60e21b60005260045260246000fd5b602060031982011261044757600435906001600160401b038211610447576101009082900360031901126104475760040190565b919082519283825260005b8481106105d8575050826000602080949584010152601f8019910116010190565b806020809284010151828286010152016105b7565b9060058210156105fa5752565b634e487b7160e01b600052602160045260246000fd5b9060038210156105fa5752565b903590601e198136030182121561044757018035906001600160401b0382116104475760200191813603831361044757565b604081019081106001600160401b0382111761066a57604052565b634e487b7160e01b600052604160045260246000fd5b61016081019081106001600160401b0382111761066a57604052565b60a081019081106001600160401b0382111761066a57604052565b6101c081019081106001600160401b0382111761066a57604052565b60e081019081106001600160401b0382111761066a57604052565b606081019081106001600160401b0382111761066a57604052565b61010081019081106001600160401b0382111761066a57604052565b90601f801991011681019081106001600160401b0382111761066a57604052565b9291926001600160401b03821161066a576040519161076f601f8201601f191660200184610725565b829481845281830111610447578281602093846000960137010152565b356bffffffffffffffffffffffff19811681036104475790565b356001600160a01b03811681036104475790565b90816020910312610447575180151581036104475790565b97999895919387949360e0989461012097938b5260208b015260408a01526bffffffffffffffffffffffff19166060890152608088015261010060a088015281610100880152838701376000828287010152601f80199101168401019460c084015260018060a01b0316910152565b60005b82811061085057505050565b60209060405161085f8161064f565b600081526000838201528184015201610844565b3590811515820361044757565b9190826040910312610447576040516108988161064f565b60206108aa8183958035855201610873565b910152565b35906001600160401b038216820361044757565b359063ffffffff8216820361044757565b9190826040910312610447576040516108ec8161064f565b6020808294803584520135910152565b6040519061090982610680565b6040516109158161064f565b6000815260006020820152825260006020830152606060408301526000606083015260006080830152600060a08301526040516109518161064f565b600081526000602082015260c0830152600060e08301526040516109748161069c565b60008152600060208201526000604082015260006060820152600060808201526101008301526040516109a6816106b7565b6000815260006020820152600060408201526000606082015260006080820152600060a0820152600060c0820152600060e08201526000610100820152600061012082015260006101408201526000610160820152600061018082015260006101a082015261012083015260405190610a1e826106d3565b61010090604051610a2f8382610725565b82368237835260405192610a42846106ee565b600084526000602085015260405193610a5a85610709565b60e094604051610a6a8782610725565b610a748782610841565b8152604051610a8f6101e0610a898184610725565b82610841565b6020820152604051610aa08161064f565b60008152600060208201526040820152604051610abc8161064f565b60008152600060208201526060820152604051610ad88161064f565b60008152600060208201526080820152604051610af48161064f565b600081526000602082015260a0820152604051610b108161064f565b600081526000602082015260c0820152604051610b2c8161064f565b600081526000602082015286820152604082015260208201526000604082015261014060a095604051610b5f8882610725565b87368237606084015260006080840152600087840152606060c0840152015260208101357fee2a4bc7db81da2b7164e56b3649b1e2a09c58c455b15dabddd9146c7582cebc81036111a75781602060c0820192610bbf61049a858561061d565b8281519101209060018060a01b03600054169089610c278a610be36040890161078c565b95610bfe610bf460808b018b61061d565b9190938b016107a6565b926040519a8b998a9889986306045a9160e01b8a52830135956060840135933560048b016107d2565b03915afa90811561055757600091611188575b501561044757610c499161061d565b806028939293116104475782019160208184036027190112610447576028810135906001600160401b03821161044757018083036027190194906103c086126104475760405195610c9987610680565b610ca68560288401610880565b87526068820135602088015260888201356001600160401b0381116104475760289083010185601f820112156104475785816020610ce693359101610746565b6040880152610cf760a883016108af565b6060880152610d0860c883016108c3565b608088015260e882013583880152610d24856101088401610880565b60c0880152610148820135868801528261013f19820112610447576101c090604051610d4f8161069c565b610d5c61016885016108af565b8152610d6b61018885016108c3565b6020820152610d7d6101a885016108af565b6040820152610d8f6101c885016108c3565b6060820152610da16101e885016108af565b6080820152888601526101df19011261044757604051610dc0816106b7565b610208820135600581101561044757815261022882013560058110156104475760208201526102488201356005811015610447576040820152610268820135600581101561044757606082015261028882013560058110156104475760808201526102a8820135600581101561044757838201526102c882013560058110156104475760c0820152610e556102e883016108c3565b86820152610308820135600581101561044757848201526103288201356005811015610447576101208201526103488201356005811015610447576101408201526103688201356005811015610447576101608201526103888201356005811015610447576101808201526103a88201356005811015610447576101a08201526101208701526103c88101356001600160401b038111610447576028910101918284039461096086126104475760405195610f0f876106d3565b85601f8601121561044757604051610f2961010082610725565b80938601938785116104475786905b858210611178575050875261074060ff198201126104475760405192610f5d846106ee565b3560038110156104475783526101208501359060038210156104475761070091602085015261013f1901126104475760405190610f9982610709565b8561015f8601121561044757604051610fb360e082610725565b80610300870191888311610447576101408801905b83821061115e57505083528661031f8701121561044757604051610fee6101e082610725565b806106c0880192898411610447578992915b8482106111405750506020850152611017916108d4565b604083015261102a8661070087016108d4565b606083015261103d8661074087016108d4565b60808301526110508661078087016108d4565b84830152611062866107c087016108d4565b60c08301526110758661080087016108d4565b908201526040820152602085015261109061084083016108c3565b60408501528261087f83011215610447576040516110af60a082610725565b80610900840191858311610447576108608501905b83821061113057505060608601526110db906108c3565b60808501526110ed6109208301610873565b90840152610940810135906001600160401b03821161044757019080601f830112156104475781602061112293359101610746565b60c082015261014082015290565b81358152602091820191016110c4565b6020906111518394956040946108d4565b8152019101899291611000565b602060409161116d8c856108d4565b815201910190610fc8565b8135815260209182019101610f38565b6111a1915060203d602011610550576105428183610725565b38610c3a565b63060bd7bf60e21b60005260045260246000fdfea2646970667358221220c1241275104de87da742c529311e09f70e759123a4636eb3bc59ed216253452764736f6c634300081c0033",
  "linkReferences": {},
  "deployedLinkReferences": {}
}